{
  "contractName": "Authenticate",
  "abi": [
    {
      "constant": true,
      "inputs": [
        {
          "name": "appId",
          "type": "string"
        },
        {
          "name": "device",
          "type": "bytes"
        },
        {
          "name": "randNonce",
          "type": "uint256"
        }
      ],
      "name": "beginAuthentication",
      "outputs": [
        {
          "name": "",
          "type": "string"
        }
      ],
      "payable": false,
      "stateMutability": "view",
      "type": "function",
      "signature": "0x66138f97"
    },
    {
      "constant": true,
      "inputs": [
        {
          "name": "request",
          "type": "bytes"
        },
        {
          "name": "challengeParameter",
          "type": "bytes"
        },
        {
          "name": "decodedSignatureData",
          "type": "bytes"
        },
        {
          "name": "keyHandle",
          "type": "string"
        },
        {
          "name": "facet",
          "type": "string"
        }
      ],
      "name": "completeAuthentication",
      "outputs": [
        {
          "name": "",
          "type": "bytes"
        }
      ],
      "payable": false,
      "stateMutability": "pure",
      "type": "function",
      "signature": "0xe18c7970"
    }
  ],
  "bytecode": "0x614a8562000031600b82828239805160001a6073146000811461002157610023565bfe5b5030600052607381538281f30073000000000000000000000000000000000000000030146080604052600436106100625763ffffffff7c010000000000000000000000000000000000000000000000000000000060003504166366138f978114610067578063e18c797014610168575b600080fd5b6040805160206004803580820135601f81018490048402850184019095528484526100f394369492936024939284019190819084018382808284375050604080516020601f89358b018035918201839004830284018301909452808352979a99988101979196509182019450925082915084018382808284375094975050933594506102ac9350505050565b6040805160208082528351818301528351919283929083019185019080838360005b8381101561012d578181015183820152602001610115565b50505050905090810190601f16801561015a5780820380516001836020036101000a031916815260200191505b509250505060405180910390f35b6040805160206004803580820135601f81018490048402850184019095528484526100f394369492936024939284019190819084018382808284375050604080516020601f89358b018035918201839004830284018301909452808352979a99988101979196509182019450925082915084018382808284375050604080516020601f89358b018035918201839004830284018301909452808352979a99988101979196509182019450925082915084018382808284375050604080516020601f89358b018035918201839004830284018301909452808352979a99988101979196509182019450925082915084018382808284375050604080516020601f89358b018035918201839004830284018301909452808352979a99988101979196509182019450925082915084018382808284375094975061061b9650505050505050565b6060806102b7614968565b60606102d26102cd6102c8876108f9565b6109b2565b610a5d565b60408051600580825260c08201909252919450816020015b60608152602001906001900390816102ea575050825260408051600580825260c0820190925290602082015b606081526020019060019003908161031657505060208084019190915260408051808201909152600781527f76657273696f6e000000000000000000000000000000000000000000000000009181019190915282518051600090811061037857fe5b906020019060200201819052506040805190810160405280600981526020017f6b657948616e646c650000000000000000000000000000000000000000000000815250826000015160018151811015156103ce57fe5b906020019060200201819052506040805190810160405280600981526020017f6368616c6c656e676500000000000000000000000000000000000000000000008152508260000151600281518110151561042457fe5b906020019060200201819052506040805190810160405280600581526020017f61707049640000000000000000000000000000000000000000000000000000008152508260000151600381518110151561047a57fe5b906020019060200201819052506040805190810160405280600981526020017f7075626c69634b65790000000000000000000000000000000000000000000000815250826000015160048151811015156104d057fe5b602090810290910101526104e2610a72565b6020830151805160009081106104f457fe5b906020019060200201819052506105486040805190810160405280600981526020017f6b657948616e646c65000000000000000000000000000000000000000000000081525087610543610aa9565b610aae565b60208301518051600190811061055a57fe5b90602001906020020181905250828260200151600281518110151561057b57fe5b90602001906020020181905250868260200151600381518110151561059c57fe5b906020019060200201819052506105eb6040805190810160405280600981526020017f7075626c69634b6579000000000000000000000000000000000000000000000081525087610543610aa9565b6020830151805160049081106105fd57fe5b6020908102909101015261061082610ce9565b979650505050505050565b606080606080606061062b614968565b6106bd6002886040518082805190602001908083835b602083106106605780518252601f199092019160209182019101610641565b51815160209384036101000a600019018019909216911617905260405191909301945091925050808303816000865af11580156106a1573d6000803e3d6000fd5b5050506040513d60208110156106b657600080fd5b50516109b2565b94506107016040805190810160405280600981526020017f7075626c69634b657900000000000000000000000000000000000000000000008152508c610543610aa9565b9350610717898661071187611129565b8d61120f565b60408051600380825260808201909252929550909350816020015b606081526020019060019003908161073257505081526040805160038082526080820190925290602082015b606081526020019060019003908161075e57505060208083019190915260408051808201909152600981527f6b657948616e646c650000000000000000000000000000000000000000000000918101919091528151805160009081106107c057fe5b906020019060200201819052506040805190810160405280600581526020017f746f7563680000000000000000000000000000000000000000000000000000008152508160000151600181518110151561081657fe5b906020019060200201819052506040805190810160405280600781526020017f636f756e746572000000000000000000000000000000000000000000000000008152508160000151600281518110151561086c57fe5b90602001906020020181905250878160200151600081518110151561088d57fe5b602090810290910101526108a0826112b0565b6020820151805160019081106108b257fe5b602090810290910101526108c5836112b0565b6020820151805160029081106108d757fe5b602090810290910101526108ea81610ce9565b9b9a5050505050505050505050565b604080516c0100000000000000000000000033810260208084019190915260001943014060348401524191909102605483015244606883015260888083018590528351808403909101815260a8909201928390528151600093849392909182918401908083835b6020831061097f5780518252601f199092019160209182019101610960565b5181516020939093036101000a600019018019909116921691909117905260405192018290039091209695505050505050565b60408051602080825281830190925260609182916000918291829180820161040080388339019050509350859150600090505b6020811015610a535780601f0360080260020a82811515610a0257fe5b06925080601f0360080260020a838303811515610a1b57fe5b0460f860020a028482815181101515610a3057fe5b906020010190600160f860020a031916908160001a9053508291506001016109e5565b5091949350505050565b6060610a6a8260006112c3565b90505b919050565b60408051808201909152600681527f5532465f56320000000000000000000000000000000000000000000000000000602082015290565b600b90565b60606000806060610abd61497f565b60606000610acb89896114b2565b91975090955093508515610b4f576040805160e560020a62461bcd02815260206004820152602260248201527f4a534f4e20706172736572206e6f742070726f7065726c792072657475726e6560448201527f642e000000000000000000000000000000000000000000000000000000000000606482015290519081900360840190fd5b5060005b84811015610c8c578381815181101515610b6957fe5b906020019060200201519250610b888984602001518560600151611d8f565b9150816040518082805190602001908083835b60208310610bba5780518252601f199092019160209182019101610b9b565b51815160209384036101000a60001901801990921691161790526040519190930181900381208f519095508f945090928392508401908083835b60208310610c135780518252601f199092019160209182019101610bf4565b6001836020036101000a0380198251168184511680821785525050505050509050019150506040518091039020600019161415610c84578381600101815181101515610c5b57fe5b906020019060200201519250610c7a8984602001518560600151611d8f565b9150819650610cdc565b600101610b53565b6040805160e560020a62461bcd02815260206004820152601060248201527f4669656c64206e6f7420666f756e642e00000000000000000000000000000000604482015290519081900360640190fd5b5050505050509392505050565b8051516060906000198101600290810260068302010160008381805b85841015610d58578751805185908110610d1b57fe5b906020019060200201515185019450876020015184815181101515610d3c57fe5b9060200190602002015151850194508380600101945050610d05565b846040519080825280601f01601f191660200182016040528015610d86578160200160208202803883390190505b508051909350600192507f7b000000000000000000000000000000000000000000000000000000000000009084906000908110610dbf57fe5b906020010190600160f860020a031916908160001a905350600090505b858110156110ea578251600183019260f960020a601102918591908110610dff57fe5b906020010190600160f860020a031916908160001a905350600093505b8751805182908110610e2a57fe5b9060200190602002015151841015610eab578751805182908110610e4a57fe5b9060200190602002015184815181101515610e6157fe5b90602001015160f860020a900460f860020a028383806001019450815181101515610e8857fe5b906020010190600160f860020a031916908160001a905350600190930192610e1c565b8251600183019260f960020a601102918591908110610ec657fe5b906020010190600160f860020a031916908160001a905350825160018301927f3a00000000000000000000000000000000000000000000000000000000000000918591908110610f1257fe5b906020010190600160f860020a031916908160001a9053508251600183019260fd60020a918591908110610f4257fe5b906020010190600160f860020a031916908160001a9053508251600183019260f960020a601102918591908110610f7557fe5b906020010190600160f860020a031916908160001a905350600093505b6020880151805182908110610fa357fe5b9060200190602002015151841015611027576020880151805182908110610fc657fe5b9060200190602002015184815181101515610fdd57fe5b90602001015160f860020a900460f860020a02838380600101945081518110151561100457fe5b906020010190600160f860020a031916908160001a905350600190930192610f92565b8251600183019260f960020a60110291859190811061104257fe5b906020010190600160f860020a031916908160001a905350600019860181146110e257825160018301927f2c0000000000000000000000000000000000000000000000000000000000000091859190811061109957fe5b906020010190600160f860020a031916908160001a9053508251600183019260fd60020a9185919081106110c957fe5b906020010190600160f860020a031916908160001a9053505b600101610ddc565b8251600183019260f860020a607d0291859190811061110557fe5b906020010190600160f860020a031916908160001a90535091979650505050505050565b8051606090829082906000906001161561114257600080fd5b8251600290046040519080825280601f01601f191660200182016040528015611175578160200160208202803883390190505b509150600090505b825160029004811015611203576111b783826002026001018151811015156111a157fe5b016020015160f860020a90819004810204611e33565b6111cb84836002028151811015156111a157fe5b6010020160f860020a0282828151811015156111e357fe5b906020010190600160f860020a031916908160001a90535060010161117d565b8193505b505050919050565b606080606080606061122260018a611fb5565b9950925061123160048a611fb5565b99509150611241888484896120f4565b905061124e8982896122ce565b156112a3576040805160e560020a62461bcd02815260206004820152601260248201527f496e76616c6964207369676e61747572652e0000000000000000000000000000604482015290519081900360640190fd5b5097909650945050505050565b6060610a6a6112be836124e6565b612535565b60606149b681806000808080808915156112e15761261f97506112e7565b61284e97505b60c88b511115611305576112fe8b8963ffffffff16565b98506114a4565b6040805160208101909152600081528b5190975060c88082049650600195509006151561133157600093505b600091505b848210156113e9576040805160c88082526101008201909252906020820161190080388339019050509550600092505b60c88310156113c6578a8360c884020181518110151561138257fe5b90602001015160f860020a900460f860020a0286848151811015156113a357fe5b906020010190600160f860020a031916908160001a905350600190920191611366565b6113dc876113d7888b63ffffffff16565b612a2c565b9650600190910190611336565b83156114a0578a5160c890069050806040519080825280601f01601f191660200182016040528015611425578160200160208202803883390190505b509550600092505b8083101561148c578a8360c887020181518110151561144857fe5b90602001015160f860020a900460f860020a02868481518110151561146957fe5b906020010190600160f860020a031916908160001a90535060019092019161142d565b61149d876113d7888b63ffffffff16565b96505b8698505b505050505050505092915050565b600060606000606060006114c46149b8565b60008060006114d161497f565b60008060008e99506114e28e612b3a565b6020820151909d5090985095505b895188511015611d725787518a518b9190811061150957fe5b016020015160f860020a908190040292507f7b00000000000000000000000000000000000000000000000000000000000000600160f860020a03198416148061157b57507f5b00000000000000000000000000000000000000000000000000000000000000600160f860020a03198416145b1561166057600190950194611590888d612bb6565b90995093508815156115a95760039c5060009a50611d7e565b6040880151600019146115e1578b88604001518151811015156115c857fe5b602090810291909101015160a001805160010160ff1690525b7f7b00000000000000000000000000000000000000000000000000000000000000600160f860020a031984161461161957600261161c565b60015b8490600481111561162957fe5b9081600481111561163657fe5b90525087516020808601919091526001604080870191909152908901516000190190890152611d66565b60f860020a607d02600160f860020a0319841614806116a857507f5d00000000000000000000000000000000000000000000000000000000000000600160f860020a03198416145b156118675760f860020a607d02600160f860020a03198416146116cc5760026116cf565b60015b915060009050600188602001510394505b600085106117a9578b858151811015156116f657fe5b9060200190602002015193508360400151801561171557508360800151155b1561179d5781600481111561172657fe5b8451600481111561173357fe5b146117455760019c5060009a50611d7e565b600019604089015287518c516001909101908d908790811061176357fe5b60209081029091010151606001528b516001908d908790811061178257fe5b602090810290910101519015156080909101525060016117a9565b600019909401936116e0565b8015156117bd5760019c5060009a50611d7e565b6000851115611810578b858151811015156117d457fe5b906020019060200201519350836040015180156117f357508360800151155b156118045760408801859052611810565b600019909401936117bd565b841515611862578b8581518110151561182557fe5b9060200190602002015193508360400151801561184457508360800151155b15611862576fffffffffffffffffffffffffffffffff851660408901525b611d66565b60f960020a601102600160f860020a0319841614156118e35761188b888d8c612c67565b965086156118a157959b50600099508b95611d7e565b604088015160019096019560001914611862578b88604001518151811015156118c657fe5b602090810291909101015160a001805160010160ff169052611d66565b60fd60020a600160f860020a03198416148061192857507f1100000000000000000000000000000000000000000000000000000000000000600160f860020a03198416145b8061195c57507f1200000000000000000000000000000000000000000000000000000000000000600160f860020a03198416145b8061199057507f1400000000000000000000000000000000000000000000000000000000000000600160f860020a03198416145b1561199a57611d66565b7f3a00000000000000000000000000000000000000000000000000000000000000600160f860020a0319841614156119df576020880151600019016040890152611d66565b7f2c00000000000000000000000000000000000000000000000000000000000000600160f860020a031984161415611b5357876040015160001914158015611a4f575060028c8960400151815181101515611a3657fe5b60209081029091010151516004811115611a4c57fe5b14155b8015611a83575060018c8960400151815181101515611a6a57fe5b60209081029091010151516004811115611a8057fe5b14155b1561186257600188602001510394505b600085106118625760028c86815181101515611aab57fe5b60209081029091010151516004811115611ac157fe5b1480611af0575060018c86815181101515611ad857fe5b60209081029091010151516004811115611aee57fe5b145b15611b47578b85815181101515611b0357fe5b90602001906020020151604001518015611b3657508b85815181101515611b2657fe5b9060200190602002015160800151155b15611b475760408801859052611862565b60001990940193611a93565b7f3000000000000000000000000000000000000000000000000000000000000000600160f860020a0319841610801590611bb757507f3900000000000000000000000000000000000000000000000000000000000000600160f860020a0319841611155b80611beb57507f2d00000000000000000000000000000000000000000000000000000000000000600160f860020a03198416145b80611c1f57507f6600000000000000000000000000000000000000000000000000000000000000600160f860020a03198416145b80611c5357507f7400000000000000000000000000000000000000000000000000000000000000600160f860020a03198416145b80611c8757507f6e00000000000000000000000000000000000000000000000000000000000000600160f860020a03198416145b15611d0c57604088015160001914611d01578b8860400151815181101515611cab57fe5b602090810290910101519350600184516004811115611cc657fe5b1480611cef5750600384516004811115611cdc57fe5b148015611cef575060a084015160ff1615155b15611d015760019c5060009a50611d7e565b61188b888d8c612fe8565b60fd60020a600160f860020a0319841610801590611d5457507f7e00000000000000000000000000000000000000000000000000000000000000600160f860020a0319841611155b15611d665760019c5060009a50611d7e565b875160010188526114f0565b602088015160009d509a505b505050505050505050509250925092565b606080606060008692508585036040519080825280601f01601f191660200182016040528015611dc9578160200160208202803883390190505b5091508590505b84811015611e29578281815181101515611de657fe5b90602001015160f860020a900460f860020a0282878303815181101515611e0957fe5b906020010190600160f860020a031916908160001a905350600101611dd0565b5095945050505050565b60007f300000000000000000000000000000000000000000000000000000000000000060f860020a8302600160f860020a03191610801590611ea557507f390000000000000000000000000000000000000000000000000000000000000060f860020a8302600160f860020a03191611155b15611eb55750602f198101610a6d565b7f610000000000000000000000000000000000000000000000000000000000000060f860020a8302600160f860020a03191610801590611f2557507f660000000000000000000000000000000000000000000000000000000000000060f860020a8302600160f860020a03191611155b15611f3557506056198101610a6d565b7f410000000000000000000000000000000000000000000000000000000000000060f860020a8302600160f860020a03191610801590611fa557507f460000000000000000000000000000000000000000000000000000000000000060f860020a8302600160f860020a03191611155b15610a6d57506036198101610a6d565b606080606080600080878751036040519080825280601f01601f191660200182016040528015611fef578160200160208202803883390190505b509350876040519080825280601f01601f191660200182016040528015612020578160200160208202803883390190505b50925060009150600090505b825181101561208757865160018301928891811061204657fe5b90602001015160f860020a900460f860020a02838281518110151561206757fe5b906020010190600160f860020a031916908160001a90535060010161202c565b5060005b83518110156120e65786516001830192889181106120a557fe5b90602001015160f860020a900460f860020a0284828151811015156120c657fe5b906020010190600160f860020a031916908160001a90535060010161208b565b509096919550909350505050565b6060806000808451865188518a510101016040519080825280601f01601f191660200182016040528015612132578160200160208202803883390190505b50925060009150600090505b875181101561219c57878181518110151561215557fe5b90602001015160f860020a900460f860020a02838380600101945081518110151561217c57fe5b906020010190600160f860020a031916908160001a90535060010161213e565b5060005b86518110156121fe5786818151811015156121b757fe5b90602001015160f860020a900460f860020a0283838060010194508151811015156121de57fe5b906020010190600160f860020a031916908160001a9053506001016121a0565b5060005b855181101561226057858181518110151561221957fe5b90602001015160f860020a900460f860020a02838380600101945081518110151561224057fe5b906020010190600160f860020a031916908160001a905350600101612202565b5060005b84518110156122c257848181518110151561227b57fe5b90602001015160f860020a900460f860020a0283838060010194508151811015156122a257fe5b906020010190600160f860020a031916908160001a905350600101612264565b50909695505050505050565b6000806000806000806000808860008151811015156122e957fe5b90602001015160f860020a900460f860020a02600160f860020a031916600460f860020a02141515612365576040805160e560020a62461bcd02815260206004820152601360248201527f496e76616c6964207075626c6963206b65792e00000000000000000000000000604482015290519081900360640190fd5b60009650600095506123768b613206565b909550935060019250600091505b60208210156123cd5781601f0360080260020a89848060010195508151811015156123ab57fe5b016020015160f860020a90819004810204029690960195600190910190612384565b600091505b602082101561241b5781601f0360080260020a89848060010195508151811015156123f957fe5b016020015160f860020a908190048102040295909501946001909101906123d2565b6124d260028b6040518082805190602001908083835b602083106124505780518252601f199092019160209182019101612431565b51815160209384036101000a600019018019909216911617905260405191909301945091925050808303816000865af1158015612491573d6000803e3d6000fd5b5050506040513d60208110156124a657600080fd5b5051604080518082018252888152602081810189905282518084019093528b835282018a9052906134f2565b90508097505b505050505050509392505050565b600080805b835181101561252e578060010184510360080260020a848281518110151561250f57fe5b016020015160f860020a908190048102040291909101906001016124eb565b5092915050565b60606000808284151561257d5760408051808201909152600181527f300000000000000000000000000000000000000000000000000000000000000060208201529350611207565b8492505b821561259857600190910190600a83049250612581565b816040519080825280601f01601f1916602001820160405280156125c6578160200160208202803883390190505b5090506001820391505b8415612617576125e2600a860661369a565b8151600019840193839181106125f457fe5b906020010190600160f860020a031916908160001a905350600a850494506125d0565b949350505050565b6060806000806060612630866136ce565b935060009250600091505b83518210156127b15783517f2b000000000000000000000000000000000000000000000000000000000000009085908490811061267457fe5b90602001015160f860020a900460f860020a02600160f860020a03191614156126e3577f2d0000000000000000000000000000000000000000000000000000000000000084838151811015156126c657fe5b906020010190600160f860020a031916908160001a9053506127a6565b83517f2f000000000000000000000000000000000000000000000000000000000000009085908490811061271357fe5b90602001015160f860020a900460f860020a02600160f860020a0319161415612765577f5f0000000000000000000000000000000000000000000000000000000000000084838151811015156126c657fe5b835160f860020a603d029085908490811061277c57fe5b90602001015160f860020a900460f860020a02600160f860020a03191614156127a6576001909201915b60019091019061263b565b828451036040519080825280601f01601f1916602001820160405280156127e2578160200160208202803883390190505b509050600091505b805182101561284557838281518110151561280157fe5b90602001015160f860020a900460f860020a02818381518110151561282257fe5b906020010190600160f860020a031916908160001a9053506001909101906127ea565b95945050505050565b6060600080825b84518310156129a35784517f2d000000000000000000000000000000000000000000000000000000000000009086908590811061288e57fe5b90602001015160f860020a900460f860020a02600160f860020a03191614156128fd577f2b0000000000000000000000000000000000000000000000000000000000000085848151811015156128e057fe5b906020010190600160f860020a031916908160001a905350612998565b84517f5f000000000000000000000000000000000000000000000000000000000000009086908590811061292d57fe5b90602001015160f860020a900460f860020a02600160f860020a0319161415612998577f2f00000000000000000000000000000000000000000000000000000000000000858481518110151561297f57fe5b906020010190600160f860020a031916908160001a9053505b600190920191612855565b84516004906000036040805160018082528183019092529290910693506020808301908038833901905050905060f860020a603d028160008151811015156129e757fe5b906020010190600160f860020a031916908160001a905350600092505b81831015612a2357612a168582612a2c565b9450600190920191612a04565b61284585613a4d565b60608060008084518651016040519080825280601f01601f191660200182016040528015612a64578160200160208202803883390190505b50925060009150600090505b8551811015612ace578581815181101515612a8757fe5b90602001015160f860020a900460f860020a028383806001019450815181101515612aae57fe5b906020010190600160f860020a031916908160001a905350600101612a70565b5060005b8451811015612b30578481815181101515612ae957fe5b90602001015160f860020a900460f860020a028383806001019450815181101515612b1057fe5b906020010190600160f860020a031916908160001a905350600101612ad2565b5090949350505050565b612b426149b8565b6060612b4c6149b8565b606080604051908101604052806000815260200160008152602001600019815250915084604051908082528060200260200182016040528015612ba957816020015b612b9661497f565b815260200190600190039081612b8e5790505b5091959194509092505050565b6000612bc061497f565b612bc861497f565b8351602086015110612bfc576000846001865103815181101515612be857fe5b602090810290910101519093509150612c5f565b506040805160c08101825260008082526020808301829052928201819052606082018190526080820181905260a0820152908501518451829186918110612c3f57fe5b602090810290910181019190915285018051600190810190915292509050805b509250929050565b6000806000612c7461497f565b8651600181018852925060005b855188511015612fd557875186518791908110612c9a57fe5b016020015160f860020a9081900402905060f960020a601102600160f860020a031982161415612d0357612cce8888612bb6565b9093509150821515612ce65783885260039450612fdd565b612cfa826003866001018b60000151614065565b60009450612fdd565b605c60ff60f860020a830416148015612d20575085518851600101105b15612fc957875160010180895286518791908110612d3a57fe5b90602001015160f860020a900460f860020a02600160f860020a03191660f960020a6011021480612db55750875186518791908110612d7557fe5b90602001015160f860020a900460f860020a02600160f860020a0319167f2f00000000000000000000000000000000000000000000000000000000000000145b80612e0a5750875186518791908110612dca57fe5b90602001015160f860020a900460f860020a02600160f860020a0319167f5c00000000000000000000000000000000000000000000000000000000000000145b80612e5f5750875186518791908110612e1f57fe5b90602001015160f860020a900460f860020a02600160f860020a0319167f6600000000000000000000000000000000000000000000000000000000000000145b80612eb45750875186518791908110612e7457fe5b90602001015160f860020a900460f860020a02600160f860020a0319167f7200000000000000000000000000000000000000000000000000000000000000145b80612f095750875186518791908110612ec957fe5b90602001015160f860020a900460f860020a02600160f860020a0319167f6e00000000000000000000000000000000000000000000000000000000000000145b80612f5e5750875186518791908110612f1e57fe5b90602001015160f860020a900460f860020a02600160f860020a0319167f6200000000000000000000000000000000000000000000000000000000000000145b80612fb35750875186518791908110612f7357fe5b90602001015160f860020a900460f860020a02600160f860020a0319167f7400000000000000000000000000000000000000000000000000000000000000145b15612fbd57612fc9565b83885260019450612fdd565b87516001018852612c81565b838852600294505b505050509392505050565b6000806000806000612ff861497f565b88516000955093505b8651895110156131a75788518751889190811061301a57fe5b016020015160f860020a9081900402925060fd60020a600160f860020a03198416148061307057507f0900000000000000000000000000000000000000000000000000000000000000600160f860020a03198416145b806130a457507f0a00000000000000000000000000000000000000000000000000000000000000600160f860020a03198416145b806130d857507f0d00000000000000000000000000000000000000000000000000000000000000600160f860020a03198416145b8061310c57507f2c00000000000000000000000000000000000000000000000000000000000000600160f860020a03198416145b80613127575060f860020a607d02600160f860020a03198416145b8061315b57507f5d00000000000000000000000000000000000000000000000000000000000000600160f860020a03198416145b1561316957600194506131a7565b602060ff60f860020a850416108061318a5750607f60ff60f860020a850416115b1561319b57838952600195506131fa565b88516001018952613001565b8415156131ba57838952600295506131fa565b6131c48989612bb6565b90925090508115156131dc57838952600395506131fa565b6131ed816004868c60000151614065565b8851600019018952600095505b50505050509392505050565b6000806000806060613219600187611fb5565b81519097509091508190600090811061322e57fe5b90602001015160f860020a900460f860020a02600160f860020a031916603060f860020a021415156132aa576040805160e560020a62461bcd02815260206004820152600560248201527f307833302e000000000000000000000000000000000000000000000000000000604482015290519081900360640190fd5b6132b5600187611fb5565b80518251919850919250829060009081106132cc57fe5b016020015160f860020a9081900481020414613332576040805160e560020a62461bcd02815260206004820152601560248201527f556e657175616c20746f74616c206c656e6774682e0000000000000000000000604482015290519081900360640190fd5b61333d600187611fb5565b81519097509091508190600090811061335257fe5b90602001015160f860020a900460f860020a02600160f860020a031916600260f860020a021415156133ce576040805160e560020a62461bcd02815260206004820152600560248201527f307830322e000000000000000000000000000000000000000000000000000000604482015290519081900360640190fd5b6133d9600187611fb5565b815190975090915061340990829060009081106133f257fe5b016020015160f860020a9081900481020487611fb5565b96509050613416816124e6565b9250613423600187611fb5565b81519097509091508190600090811061343857fe5b90602001015160f860020a900460f860020a02600160f860020a031916600260f860020a021415156134b4576040805160e560020a62461bcd02815260206004820152600560248201527f307830322e000000000000000000000000000000000000000000000000000000604482015290519081900360640190fd5b6134bf600187611fb5565b81519097509091506134d890829060009081106133f257fe5b965090506134e5816124e6565b9296929550919350505050565b6000806000806000806135036149da565b8851600090158061352357508951600080516020614a1a83398151915211155b80613530575060208a0151155b1561353e57600097506124d8565b885160208a015161354f91906140ab565b151561355e57600197506124d8565b60208a015161357b90600080516020614a1a8339815191526141a7565b92506135d97f6b17d1f2e12c4247f8bce6e563a440f277037d812deb33a0f4a13945d898c2967f4fe342e2fe1a7f9b8ee7eb4a7c0f9e162bce33576b315ececbb6406837bf51f5600080516020614a1a833981519152868f09614243565b8a5160208c01518d51939a5091975061360792909190600080516020614a1a83398151915290879009614243565b909650935061361887868887614318565b6040810151909250151561362f57600297506124d8565b604082015161364c90600080516020614a3a8339815191526141a7565b9050600080516020614a3a833981519152808283098351098a51909150600080516020614a1a8339815191528206141561368957600097506124d8565b5060039a9950505050505050505050565b6000600a8210156136b5575060f860020a6030820102610a6d565b6010821015610062575060f860020a6057820102610a6d565b60408051606081810183528282527f4142434445464748494a4b4c4d4e4f505152535455565758595a61626364656660208301527f6768696a6b6c6d6e6f707172737475767778797a303132333435363738392b2f82840152825160038082528185019094529092839182918291600091829182918160200160208202803883395050604080516001808252818301909252929850905060208083019080388339019050509450602060405190810160405280600081525093505b88516003116138455761379d60038a611fb5565b995095506137aa866124e6565b9250600091505b6004821015613840578160030360400a838115156137cb57fe5b069050868260030360400a8285038115156137e257fe5b048151811015156137ef57fe5b90602001015160f860020a900460f860020a0285600081518110151561381157fe5b906020010190600160f860020a031916908160001a9053506138338486612a2c565b93509150600101816137b1565b613789565b8851151561385557839750613a41565b88516001141561395f57613868896124e6565b62010000029250600091505b6002821015613903578160030360400a8381151561388e57fe5b069050868260030360400a8285038115156138a557fe5b048151811015156138b257fe5b90602001015160f860020a900460f860020a028560008151811015156138d457fe5b906020010190600160f860020a031916908160001a9053506138f68486612a2c565b9350915060010181613874565b60f860020a603d0285600081518110151561391a57fe5b906020010190600160f860020a031916908160001a905350600091505b60028210156139575761394a8486612a2c565b9350600190910190613937565b839750613a41565b613968896124e6565b610100029250600091505b6003821015613a02578160030360400a8381151561398d57fe5b069050868260030360400a8285038115156139a457fe5b048151811015156139b157fe5b90602001015160f860020a900460f860020a028560008151811015156139d357fe5b906020010190600160f860020a031916908160001a9053506139f58486612a2c565b9350915060010181613973565b60f860020a603d02856000815181101515613a1957fe5b906020010190600160f860020a031916908160001a905350613a3b8486612a2c565b93508397505b50505050505050919050565b6060613a576149f9565b50604080516110008101825260001980825260208083018290528284018290526060808401839052608080850184905260a0850184905260c0850184905260e08501849052610100850184905261012085018490526101408501849052610160850184905261018085018490526101a085018490526101c085018490526101e08501849052610200850184905261022085018490526102408501849052610260850184905261028085018490526102a085018490526102c085018490526102e08501849052610300850184905261032085018490526103408501849052610360850184905261038085018490526103a085018490526103c085018490526103e08501849052610400850184905261042085018490526104408501849052610460850184905261048085018490526104a085018490526104c085018490526104e08501849052610500850184905261052085018490526105408501849052603e61056086015261058085018490526105a085018490526105c08501849052603f6105e08601526034610600860152603561062086015260366106408601526037610660860152603861068086015260396106a0860152603a6106c0860152603b6106e0860152603c610700860152603d61072086015261074085018490526107608501849052610780850184905260006107a086018190526107c086018590526107e086018590526108008601859052610820860181905260016108408701526002610860870152600361088087015260046108a0870181905260056108c088015260066108e0880152600761090088015260086109208801526009610940880152600a610960880152600b610980880152600c6109a0880152600d6109c0880152600e6109e0880152600f610a008801526010610a208801526011610a408801526012610a608801526013610a808801526014610aa08801526015610ac08801526016610ae08801526017610b008801526018610b208801526019610b40880152610b608701869052610b808701869052610ba08701869052610bc08701869052610be08701869052610c008701869052601a610c20880152601b610c40880152601c610c60880152601d610c80880152601e610ca0880152601f610cc0880152610ce087018590526021610d008801526022610d208801526023610d408801526024610d608801526025610d808801526026610da08801526027610dc08801526028610de08801526029610e00880152602a610e20880152602b610e40880152602c610e60880152602d610e80880152602e610ea0880152602f610ec08801526030610ee08801526031610f008801526032610f208801526033610f40880152610f608701869052610f808701869052610fa08701869052610fc08701869052610fe08701959095528851875180860189528281528851878152808a01909952969791968796879692819004958795929490938493879391830190803883395050604080516001808252818301909252929550905060208083019080388339019050509150600090505b858110156140555760009750613ed960048d611fb5565b9c506000995092505b6004891015613f945789838a815181101515613efa57fe5b016020015160f860020a9081900481020460808110613f1557fe5b60200201519450600085810b1215613f77576040805160e560020a62461bcd02815260206004820152600e60248201527f496e76616c696420696e6465782e000000000000000000000000000000000000604482015290519081900360640190fd5b8860030360400a8560000b02880197508880600101995050613ee2565b600098505b600389101561404d57886002036101000a88811515613fb457fe5b069650886002036101000a878903811515613fcb57fe5b0460f860020a02826000815181101515613fe157fe5b906020010190600160f860020a031916908160001a90535081600081518110151561400857fe5b016020015160f860020a9081900481020415801561402857506001860381145b1561403257614042565b61403c8483612a2c565b93508697505b600190980197613f99565b600101613ec2565b50919a9950505050505050505050565b8383600481111561407257fe5b9081600481111561407f57fe5b90525060208401919091526001604084018190526060840191909152608083015250600060a090910152565b600080808415806140c95750600080516020614a3a83398151915285145b806140d2575083155b806140ea5750600080516020614a3a83398151915284145b156140f8576000925061419f565b600080516020614a3a8339815191528485099150600080516020614a3a83398151915285600080516020614a3a833981519152878809099050600080516020614a3a833981519152807bfffffffeffffffffffffffffffffffff00000000000000000000000319870982089050600080516020614a3a8339815191527f5ac635d8aa3a93e7b3ebbd55769886bc651d06b0cc53b0f63bce3c3e27d2604b8208905080821492505b505092915050565b600080808080808715806141ba57508688145b806141c3575086155b156141d15760009550614238565b868811156141e85786888115156141e457fe5b0697505b600193508692508791505b811561421e57818381151561420457fe5b9495940485810290940393919283830290039190506141f3565b6000851215614234578460000387039550614238565b8495505b505050505092915050565b600080808080808615156142625761425961433e565b9550955061430c565b86600114156142765788889550955061430c565b8660021415614289576142598989614345565b5087945086935084925083915060019050806002870615156142ad57600094508495505b6002909604955b60008711156142fc576142c8848484614374565b9195509350915060028706600114156142f1576142e98484848989866145b9565b919750955090505b6002909604956142b4565b6143078686836146b2565b955095505b50505050935093915050565b6143206149da565b60008061432f87878787614702565b90925090506106108282614737565b6000809091565b600080600061435685856001614374565b919650945090506143688585836146b2565b92509250509250929050565b60008060008060008060006143898a8a614790565b156143a1576143966147b5565b9650965096506145ac565b600080516020614a3a833981519152888a099250600080516020614a3a833981519152600284099250600080516020614a3a8339815191528a84099150600080516020614a3a8339815191528983099150600080516020614a3a833981519152600283099150600080516020614a3a8339815191528a8b099950600080516020614a3a83398151915260038b099350600080516020614a3a8339815191528889099750600080516020614a3a8339815191527bfffffffeffffffffffffffffffffffff0000000000000000000000031989099750600080516020614a3a8339815191528885089350600080516020614a3a8339815191528485099050600080516020614a3a833981519152826002099950600080516020614a3a8339815191528a600080516020614a3a8339815191520382089050600080516020614a3a83398151915281600080516020614a3a8339815191520383089950600080516020614a3a8339815191528a85099950600080516020614a3a833981519152838a099850600080516020614a3a833981519152898a099850600080516020614a3a833981519152896002099850600080516020614a3a83398151915289600080516020614a3a833981519152038b089550600080516020614a3a8339815191528184099650600080516020614a3a8339815191528384099450600080516020614a3a83398151915283860994505b5050505093509350939050565b60008060008060008060006145ce8d8d614790565b156145e1578989899650965096506146a2565b6145eb8a8a614790565b156145fe578c8c8c9650965096506146a2565b600080516020614a3a833981519152888d099350600080516020614a3a8339815191528b8a099250600080516020614a3a833981519152888e099150600080516020614a3a8339815191528b8b0990508082141561467c5782841415614674576146698d8d8d614374565b9650965096506146a2565b6146696147b5565b61469a600080516020614a3a833981519152898d09838386886147bf565b919850965094505b5050505096509650969350505050565b60008060006146cf84600080516020614a3a8339815191526141a7565b9050600080516020614a3a8339815191528187099250600080516020614a3a833981519152818609915050935093915050565b600080600061471787876001888860016145b9565b919850965090506147298787836146b2565b925092505094509492505050565b61473f6149da565b600080516020614a3a833981519152600160000860408201819052600080516020614a3a83398151915290840981526040810151600080516020614a3a833981519152908309602082015292915050565b60008215801561479e575081155b156147ab575060016147af565b5060005b92915050565b6000600181909192565b600080808080808080600080516020614a3a8339815191528a600080516020614a3a833981519152038a089050600080516020614a3a8339815191528b600080516020614a3a833981519152038d089450600080516020614a3a8339815191528586099350600080516020614a3a8339815191528182099150600080516020614a3a8339815191528d83099150600080516020614a3a8339815191528c8c089a50600080516020614a3a833981519152848c099a50600080516020614a3a8339815191528b600080516020614a3a8339815191520383089150600080516020614a3a8339815191528286099750600080516020614a3a8339815191528585099250600080516020614a3a833981519152848d099b50600080516020614a3a83398151915282600080516020614a3a833981519152038d089b50600080516020614a3a8339815191528c82099050600080516020614a3a833981519152838a099850600080516020614a3a83398151915289600080516020614a3a8339815191520382089650600080516020614a3a8339815191528d840995505050505050955095509592505050565b604080518082019091526060808252602082015290565b6040805160c08101909152806000815260006020820181905260408201819052606082018190526080820181905260a09091015290565bfe5b6060604051908101604052806000815260200160008152602001600081525090565b6060604051908101604052806003906020820280388339509192915050565b6110006040519081016040528060809060208202803883395091929150505600ffffffff00000000ffffffffffffffffbce6faada7179e84f3b9cac2fc632551ffffffff00000001000000000000000000000000ffffffffffffffffffffffffa165627a7a7230582055abb2fc748292d4cb5c8af575482288a918d684c90643fbd74b7f716e4c62150029",
  "source": "pragma solidity >=0.4.21 <0.5.0;\n\nimport \"./Utils.sol\";\nimport \"./EllipticCurve.sol\";\nimport \"./Base64.sol\";\n\nimport \"./Global.sol\";\n\n\nlibrary Authenticate {\n\n\n\tfunction beginAuthentication(string appId, bytes device, uint randNonce) public view returns (string) {\n\n\t\tstring memory challenge = string(Base64.websafeEncode(Base64.bytes32ToBytes(Tools.random32(randNonce))));\n\n\t\tTools.Dict memory dict;\n\n\t\tdict._fields = new string[](5);\n\t\tdict._data = new string[](5);\n\n\t\tdict._fields[0] = 'version';\n\t\tdict._fields[1] = 'keyHandle';\n\t\tdict._fields[2] = 'challenge';\n\t\tdict._fields[3] = 'appId';\n\n\t\tdict._fields[4] = 'publicKey';\n\n\t\tdict._data[0] = Global.getVersion();\n\t\tdict._data[1] = Tools.getField('keyHandle', string(device), Global.getMaxNum());\n\t\tdict._data[2] = challenge;\n\t\t// dict._data[3] = Base64.fixOrigin(appId);\n\t\tdict._data[3] = appId;\n\n\t\tdict._data[4] = Tools.getField('publicKey', string(device), Global.getMaxNum());\n\n\t\tstring memory json = Tools.dictToJson(dict);\n\n\t\treturn json;\n\n\t}\n\n\t// changed decodedSignatureData to bytes;\n\tfunction completeAuthentication(bytes request, bytes challengeParameter, bytes decodedSignatureData, string keyHandle, string facet) public pure returns (bytes) {\n\n        // bytes memory decodedClientData = Base64.fromHex(decodedClientDatastr);\n\n\t\t// validate client data;\n\t\t// Global.validateClientData(string(request), string(decodedClientData), Global.getSignType(), facet);\n\n\t\t// get keyHandle;\n\t\t// string memory keyHandle = Tools.getField('keyHandle', string(response), Global.getMaxNum());\n\n\t\t// app parameter;\n\t\tbytes memory appParameter = Base64.bytes32ToBytes(sha256(bytes(facet)));\n\n\t\tstring memory publicKey = Tools.getField('publicKey', string(request), Global.getMaxNum());\n\n\t\tbytes memory counter;\n\t\tbytes memory userPresence;\n\n\t\t(counter, userPresence) = authenticateVerify(decodedSignatureData, appParameter, Base64.fromHex(publicKey), challengeParameter);\n\n\t\tTools.Dict memory information;\n\n\t\tinformation._fields = new string[](3);\n\t\tinformation._data = new string[](3);\n\n\t\tinformation._fields[0] = 'keyHandle';\n\t\tinformation._fields[1] = 'touch';\n\t\tinformation._fields[2] = 'counter';\n\n\t\tinformation._data[0] = keyHandle;\n\t\tinformation._data[1] = Base64.bytesToString(userPresence);\n\t\tinformation._data[2] = Base64.bytesToString(counter);\n\n\t\treturn bytes(Tools.dictToJson(information));\n\n\t}\n\n\t/*\n     +-----------------------------------+\n     | 1 |     4     |      implied      |\n     +-----------------------------------+\n     user presence\n     counter\n     signature\n   */\n\tfunction authenticateVerify(bytes data, bytes appParameter, bytes publicKey, bytes challengeParameter) internal pure returns (bytes, bytes) {\n\n\t\t// bytes memory data = Base64.websafeDecode(bytes(Tools.getField('signatureData', response, Global.getMaxNum())));\n\t\tbytes memory userPresence;\n\t\t(userPresence, data) = Base64.getPopBytes(1, data);\n\n\t\tbytes memory counter;\n\t\t(counter, data) = Base64.getPopBytes(4, data);\n\n\t\tbytes memory verifyData = getAuthenticateVerifyData(appParameter, userPresence, counter, challengeParameter);\n\n\t\t// IN: signature, verifyData, publicKey;\n\t\trequire(Global.verifyECDSA(data, verifyData, publicKey) == 0, \"Invalid signature.\");\n\n\t\treturn (counter, userPresence);\n\n\t}\n\n\n\tfunction getAuthenticateVerifyData(bytes appParameter, bytes userPresence, bytes counter, bytes challengeParameter) internal pure returns (bytes) {\n\n\t\tbytes memory verifyData = new bytes(appParameter.length + userPresence.length + counter.length + challengeParameter.length);\n\t\tuint k = 0;\n\t\tfor (uint i = 0; i < appParameter.length; i++) {\n\t\t\tverifyData[k++] = appParameter[i];\n\t\t}\n\t\tfor (i = 0; i < userPresence.length; i++) {\n\t\t\tverifyData[k++] = userPresence[i];\n\t\t}\n\t\tfor (i = 0; i < counter.length; i++) {\n\t\t\tverifyData[k++] = counter[i];\n\t\t}\n\t\tfor (i = 0; i < challengeParameter.length; i++) {\n\t\t\tverifyData[k++] = challengeParameter[i];\n\t\t}\n\n\t\treturn verifyData;\n\n\t}\n\n\n}\n",
  "sourcePath": "/home/chxw/Desktop/worksite/develop/u2f-ethereum/contracts/Authenticate.sol",
  "compiler": {
    "name": "solc",
    "version": "0.4.24+commit.e67f0147.Emscripten.clang"
  },
  "schemaVersion": "3.0.5",
  "updatedAt": "2019-05-25T00:57:41.617Z",
  "devdoc": {
    "methods": {}
  },
  "userdoc": {
    "methods": {}
  }
}