{
  "contractName": "Authenticate",
  "abi": [
    {
      "constant": true,
      "inputs": [
        {
          "name": "appId",
          "type": "string"
        },
        {
          "name": "device",
          "type": "bytes"
        },
        {
          "name": "randNonce",
          "type": "uint256"
        }
      ],
      "name": "beginAuthentication",
      "outputs": [
        {
          "name": "",
          "type": "string"
        }
      ],
      "payable": false,
      "stateMutability": "view",
      "type": "function"
    },
    {
      "constant": true,
      "inputs": [
        {
          "name": "request",
          "type": "bytes"
        },
        {
          "name": "challengeParameter",
          "type": "bytes"
        },
        {
          "name": "decodedSignatureData",
          "type": "bytes"
        },
        {
          "name": "keyHandle",
          "type": "string"
        },
        {
          "name": "facet",
          "type": "string"
        }
      ],
      "name": "completeAuthentication",
      "outputs": [
        {
          "name": "",
          "type": "bytes"
        }
      ],
      "payable": false,
      "stateMutability": "pure",
      "type": "function"
    }
  ],
  "bytecode": "0x613eda610030600b82828239805160001a6073146000811461002057610022565bfe5b5030600052607381538281f30073000000000000000000000000000000000000000030146080604052600436106100625763ffffffff7c010000000000000000000000000000000000000000000000000000000060003504166366138f978114610067578063e18c797014610168575b600080fd5b6040805160206004803580820135601f81018490048402850184019095528484526100f394369492936024939284019190819084018382808284375050604080516020601f89358b018035918201839004830284018301909452808352979a99988101979196509182019450925082915084018382808284375094975050933594506102ac9350505050565b6040805160208082528351818301528351919283929083019185019080838360005b8381101561012d578181015183820152602001610115565b50505050905090810190601f16801561015a5780820380516001836020036101000a031916815260200191505b509250505060405180910390f35b6040805160206004803580820135601f81018490048402850184019095528484526100f394369492936024939284019190819084018382808284375050604080516020601f89358b018035918201839004830284018301909452808352979a99988101979196509182019450925082915084018382808284375050604080516020601f89358b018035918201839004830284018301909452808352979a99988101979196509182019450925082915084018382808284375050604080516020601f89358b018035918201839004830284018301909452808352979a99988101979196509182019450925082915084018382808284375050604080516020601f89358b018035918201839004830284018301909452808352979a99988101979196509182019450925082915084018382808284375094975061061b9650505050505050565b6060806102b7613e1c565b60606102d26102cd6102c8876108f9565b6109b2565b610a5d565b60408051600580825260c08201909252919450816020015b60608152602001906001900390816102ea575050825260408051600580825260c0820190925290602082015b606081526020019060019003908161031657505060208084019190915260408051808201909152600781527f76657273696f6e000000000000000000000000000000000000000000000000009181019190915282518051600090811061037857fe5b906020019060200201819052506040805190810160405280600981526020017f6b657948616e646c650000000000000000000000000000000000000000000000815250826000015160018151811015156103ce57fe5b906020019060200201819052506040805190810160405280600981526020017f6368616c6c656e676500000000000000000000000000000000000000000000008152508260000151600281518110151561042457fe5b906020019060200201819052506040805190810160405280600581526020017f61707049640000000000000000000000000000000000000000000000000000008152508260000151600381518110151561047a57fe5b906020019060200201819052506040805190810160405280600981526020017f7075626c69634b65790000000000000000000000000000000000000000000000815250826000015160048151811015156104d057fe5b602090810290910101526104e2610a72565b6020830151805160009081106104f457fe5b906020019060200201819052506105486040805190810160405280600981526020017f6b657948616e646c65000000000000000000000000000000000000000000000081525087610543610aa9565b610aae565b60208301518051600190811061055a57fe5b90602001906020020181905250828260200151600281518110151561057b57fe5b90602001906020020181905250868260200151600381518110151561059c57fe5b906020019060200201819052506105eb6040805190810160405280600981526020017f7075626c69634b6579000000000000000000000000000000000000000000000081525087610543610aa9565b6020830151805160049081106105fd57fe5b6020908102909101015261061082610ce9565b979650505050505050565b606080606080606061062b613e1c565b6106bd6002886040518082805190602001908083835b602083106106605780518252601f199092019160209182019101610641565b51815160209384036101000a600019018019909216911617905260405191909301945091925050808303816000865af11580156106a1573d6000803e3d6000fd5b5050506040513d60208110156106b657600080fd5b50516109b2565b94506107016040805190810160405280600981526020017f7075626c69634b657900000000000000000000000000000000000000000000008152508c610543610aa9565b9350610717898661071187611129565b8d61120f565b60408051600380825260808201909252929550909350816020015b606081526020019060019003908161073257505081526040805160038082526080820190925290602082015b606081526020019060019003908161075e57505060208083019190915260408051808201909152600981527f6b657948616e646c650000000000000000000000000000000000000000000000918101919091528151805160009081106107c057fe5b906020019060200201819052506040805190810160405280600581526020017f746f7563680000000000000000000000000000000000000000000000000000008152508160000151600181518110151561081657fe5b906020019060200201819052506040805190810160405280600781526020017f636f756e746572000000000000000000000000000000000000000000000000008152508160000151600281518110151561086c57fe5b90602001906020020181905250878160200151600081518110151561088d57fe5b602090810290910101526108a0826112b0565b6020820151805160019081106108b257fe5b602090810290910101526108c5836112b0565b6020820151805160029081106108d757fe5b602090810290910101526108ea81610ce9565b9b9a5050505050505050505050565b604080516c0100000000000000000000000033810260208084019190915260001943014060348401524191909102605483015244606883015260888083018590528351808403909101815260a8909201928390528151600093849392909182918401908083835b6020831061097f5780518252601f199092019160209182019101610960565b5181516020939093036101000a600019018019909116921691909117905260405192018290039091209695505050505050565b60408051602080825281830190925260609182916000918291829180820161040080388339019050509350859150600090505b6020811015610a535780601f0360080260020a82811515610a0257fe5b06925080601f0360080260020a838303811515610a1b57fe5b0460f860020a028482815181101515610a3057fe5b906020010190600160f860020a031916908160001a9053508291506001016109e5565b5091949350505050565b6060610a6a8260006112c3565b90505b919050565b60408051808201909152600681527f5532465f56320000000000000000000000000000000000000000000000000000602082015290565b600b90565b60606000806060610abd613e33565b60606000610acb89896114b2565b91975090955093508515610b4f576040805160e560020a62461bcd02815260206004820152602260248201527f4a534f4e20706172736572206e6f742070726f7065726c792072657475726e6560448201527f642e000000000000000000000000000000000000000000000000000000000000606482015290519081900360840190fd5b5060005b84811015610c8c578381815181101515610b6957fe5b906020019060200201519250610b888984602001518560600151611d8f565b9150816040518082805190602001908083835b60208310610bba5780518252601f199092019160209182019101610b9b565b51815160209384036101000a60001901801990921691161790526040519190930181900381208f519095508f945090928392508401908083835b60208310610c135780518252601f199092019160209182019101610bf4565b6001836020036101000a0380198251168184511680821785525050505050509050019150506040518091039020600019161415610c84578381600101815181101515610c5b57fe5b906020019060200201519250610c7a8984602001518560600151611d8f565b9150819650610cdc565b600101610b53565b6040805160e560020a62461bcd02815260206004820152601060248201527f4669656c64206e6f7420666f756e642e00000000000000000000000000000000604482015290519081900360640190fd5b5050505050509392505050565b8051516060906000198101600290810260068302010160008381805b85841015610d58578751805185908110610d1b57fe5b906020019060200201515185019450876020015184815181101515610d3c57fe5b9060200190602002015151850194508380600101945050610d05565b846040519080825280601f01601f191660200182016040528015610d86578160200160208202803883390190505b508051909350600192507f7b000000000000000000000000000000000000000000000000000000000000009084906000908110610dbf57fe5b906020010190600160f860020a031916908160001a905350600090505b858110156110ea578251600183019260f960020a601102918591908110610dff57fe5b906020010190600160f860020a031916908160001a905350600093505b8751805182908110610e2a57fe5b9060200190602002015151841015610eab578751805182908110610e4a57fe5b9060200190602002015184815181101515610e6157fe5b90602001015160f860020a900460f860020a028383806001019450815181101515610e8857fe5b906020010190600160f860020a031916908160001a905350600190930192610e1c565b8251600183019260f960020a601102918591908110610ec657fe5b906020010190600160f860020a031916908160001a905350825160018301927f3a00000000000000000000000000000000000000000000000000000000000000918591908110610f1257fe5b906020010190600160f860020a031916908160001a9053508251600183019260fd60020a918591908110610f4257fe5b906020010190600160f860020a031916908160001a9053508251600183019260f960020a601102918591908110610f7557fe5b906020010190600160f860020a031916908160001a905350600093505b6020880151805182908110610fa357fe5b9060200190602002015151841015611027576020880151805182908110610fc657fe5b9060200190602002015184815181101515610fdd57fe5b90602001015160f860020a900460f860020a02838380600101945081518110151561100457fe5b906020010190600160f860020a031916908160001a905350600190930192610f92565b8251600183019260f960020a60110291859190811061104257fe5b906020010190600160f860020a031916908160001a905350600019860181146110e257825160018301927f2c0000000000000000000000000000000000000000000000000000000000000091859190811061109957fe5b906020010190600160f860020a031916908160001a9053508251600183019260fd60020a9185919081106110c957fe5b906020010190600160f860020a031916908160001a9053505b600101610ddc565b8251600183019260f860020a607d0291859190811061110557fe5b906020010190600160f860020a031916908160001a90535091979650505050505050565b8051606090829082906000906001161561114257600080fd5b8251600290046040519080825280601f01601f191660200182016040528015611175578160200160208202803883390190505b509150600090505b825160029004811015611203576111b783826002026001018151811015156111a157fe5b016020015160f860020a90819004810204611e33565b6111cb84836002028151811015156111a157fe5b6010020160f860020a0282828151811015156111e357fe5b906020010190600160f860020a031916908160001a90535060010161117d565b8193505b505050919050565b606080606080606061122260018a611fb5565b9950925061123160048a611fb5565b99509150611241888484896120f4565b905061124e8982896122ce565b156112a3576040805160e560020a62461bcd02815260206004820152601260248201527f496e76616c6964207369676e61747572652e0000000000000000000000000000604482015290519081900360640190fd5b5097909650945050505050565b6060610a6a6112be836125f9565b612648565b6060613e6a81806000808080808915156112e15761273297506112e7565b61296197505b60c88b511115611305576112fe8b8963ffffffff16565b98506114a4565b6040805160208101909152600081528b5190975060c88082049650600195509006151561133157600093505b600091505b848210156113e9576040805160c88082526101008201909252906020820161190080388339019050509550600092505b60c88310156113c6578a8360c884020181518110151561138257fe5b90602001015160f860020a900460f860020a0286848151811015156113a357fe5b906020010190600160f860020a031916908160001a905350600190920191611366565b6113dc876113d7888b63ffffffff16565b612b3f565b9650600190910190611336565b83156114a0578a5160c890069050806040519080825280601f01601f191660200182016040528015611425578160200160208202803883390190505b509550600092505b8083101561148c578a8360c887020181518110151561144857fe5b90602001015160f860020a900460f860020a02868481518110151561146957fe5b906020010190600160f860020a031916908160001a90535060019092019161142d565b61149d876113d7888b63ffffffff16565b96505b8698505b505050505050505092915050565b600060606000606060006114c4613e6c565b60008060006114d1613e33565b60008060008e99506114e28e612c4d565b6020820151909d5090985095505b895188511015611d725787518a518b9190811061150957fe5b016020015160f860020a908190040292507f7b00000000000000000000000000000000000000000000000000000000000000600160f860020a03198416148061157b57507f5b00000000000000000000000000000000000000000000000000000000000000600160f860020a03198416145b1561166057600190950194611590888d612cc9565b90995093508815156115a95760039c5060009a50611d7e565b6040880151600019146115e1578b88604001518151811015156115c857fe5b602090810291909101015160a001805160010160ff1690525b7f7b00000000000000000000000000000000000000000000000000000000000000600160f860020a031984161461161957600261161c565b60015b8490600481111561162957fe5b9081600481111561163657fe5b90525087516020808601919091526001604080870191909152908901516000190190890152611d66565b60f860020a607d02600160f860020a0319841614806116a857507f5d00000000000000000000000000000000000000000000000000000000000000600160f860020a03198416145b156118675760f860020a607d02600160f860020a03198416146116cc5760026116cf565b60015b915060009050600188602001510394505b600085106117a9578b858151811015156116f657fe5b9060200190602002015193508360400151801561171557508360800151155b1561179d5781600481111561172657fe5b8451600481111561173357fe5b146117455760019c5060009a50611d7e565b600019604089015287518c516001909101908d908790811061176357fe5b60209081029091010151606001528b516001908d908790811061178257fe5b602090810290910101519015156080909101525060016117a9565b600019909401936116e0565b8015156117bd5760019c5060009a50611d7e565b6000851115611810578b858151811015156117d457fe5b906020019060200201519350836040015180156117f357508360800151155b156118045760408801859052611810565b600019909401936117bd565b841515611862578b8581518110151561182557fe5b9060200190602002015193508360400151801561184457508360800151155b15611862576fffffffffffffffffffffffffffffffff851660408901525b611d66565b60f960020a601102600160f860020a0319841614156118e35761188b888d8c612d7a565b965086156118a157959b50600099508b95611d7e565b604088015160019096019560001914611862578b88604001518151811015156118c657fe5b602090810291909101015160a001805160010160ff169052611d66565b60fd60020a600160f860020a03198416148061192857507f1100000000000000000000000000000000000000000000000000000000000000600160f860020a03198416145b8061195c57507f1200000000000000000000000000000000000000000000000000000000000000600160f860020a03198416145b8061199057507f1400000000000000000000000000000000000000000000000000000000000000600160f860020a03198416145b1561199a57611d66565b7f3a00000000000000000000000000000000000000000000000000000000000000600160f860020a0319841614156119df576020880151600019016040890152611d66565b7f2c00000000000000000000000000000000000000000000000000000000000000600160f860020a031984161415611b5357876040015160001914158015611a4f575060028c8960400151815181101515611a3657fe5b60209081029091010151516004811115611a4c57fe5b14155b8015611a83575060018c8960400151815181101515611a6a57fe5b60209081029091010151516004811115611a8057fe5b14155b1561186257600188602001510394505b600085106118625760028c86815181101515611aab57fe5b60209081029091010151516004811115611ac157fe5b1480611af0575060018c86815181101515611ad857fe5b60209081029091010151516004811115611aee57fe5b145b15611b47578b85815181101515611b0357fe5b90602001906020020151604001518015611b3657508b85815181101515611b2657fe5b9060200190602002015160800151155b15611b475760408801859052611862565b60001990940193611a93565b7f3000000000000000000000000000000000000000000000000000000000000000600160f860020a0319841610801590611bb757507f3900000000000000000000000000000000000000000000000000000000000000600160f860020a0319841611155b80611beb57507f2d00000000000000000000000000000000000000000000000000000000000000600160f860020a03198416145b80611c1f57507f6600000000000000000000000000000000000000000000000000000000000000600160f860020a03198416145b80611c5357507f7400000000000000000000000000000000000000000000000000000000000000600160f860020a03198416145b80611c8757507f6e00000000000000000000000000000000000000000000000000000000000000600160f860020a03198416145b15611d0c57604088015160001914611d01578b8860400151815181101515611cab57fe5b602090810290910101519350600184516004811115611cc657fe5b1480611cef5750600384516004811115611cdc57fe5b148015611cef575060a084015160ff1615155b15611d015760019c5060009a50611d7e565b61188b888d8c6130fb565b60fd60020a600160f860020a0319841610801590611d5457507f7e00000000000000000000000000000000000000000000000000000000000000600160f860020a0319841611155b15611d665760019c5060009a50611d7e565b875160010188526114f0565b602088015160009d509a505b505050505050505050509250925092565b606080606060008692508585036040519080825280601f01601f191660200182016040528015611dc9578160200160208202803883390190505b5091508590505b84811015611e29578281815181101515611de657fe5b90602001015160f860020a900460f860020a0282878303815181101515611e0957fe5b906020010190600160f860020a031916908160001a905350600101611dd0565b5095945050505050565b60007f300000000000000000000000000000000000000000000000000000000000000060f860020a8302600160f860020a03191610801590611ea557507f390000000000000000000000000000000000000000000000000000000000000060f860020a8302600160f860020a03191611155b15611eb55750602f198101610a6d565b7f610000000000000000000000000000000000000000000000000000000000000060f860020a8302600160f860020a03191610801590611f2557507f660000000000000000000000000000000000000000000000000000000000000060f860020a8302600160f860020a03191611155b15611f3557506056198101610a6d565b7f410000000000000000000000000000000000000000000000000000000000000060f860020a8302600160f860020a03191610801590611fa557507f460000000000000000000000000000000000000000000000000000000000000060f860020a8302600160f860020a03191611155b15610a6d57506036198101610a6d565b606080606080600080878751036040519080825280601f01601f191660200182016040528015611fef578160200160208202803883390190505b509350876040519080825280601f01601f191660200182016040528015612020578160200160208202803883390190505b50925060009150600090505b825181101561208757865160018301928891811061204657fe5b90602001015160f860020a900460f860020a02838281518110151561206757fe5b906020010190600160f860020a031916908160001a90535060010161202c565b5060005b83518110156120e65786516001830192889181106120a557fe5b90602001015160f860020a900460f860020a0284828151811015156120c657fe5b906020010190600160f860020a031916908160001a90535060010161208b565b509096919550909350505050565b6060806000808451865188518a510101016040519080825280601f01601f191660200182016040528015612132578160200160208202803883390190505b50925060009150600090505b875181101561219c57878181518110151561215557fe5b90602001015160f860020a900460f860020a02838380600101945081518110151561217c57fe5b906020010190600160f860020a031916908160001a90535060010161213e565b5060005b86518110156121fe5786818151811015156121b757fe5b90602001015160f860020a900460f860020a0283838060010194508151811015156121de57fe5b906020010190600160f860020a031916908160001a9053506001016121a0565b5060005b855181101561226057858181518110151561221957fe5b90602001015160f860020a900460f860020a02838380600101945081518110151561224057fe5b906020010190600160f860020a031916908160001a905350600101612202565b5060005b84518110156122c257848181518110151561227b57fe5b90602001015160f860020a900460f860020a0283838060010194508151811015156122a257fe5b906020010190600160f860020a031916908160001a905350600101612264565b50909695505050505050565b60006060806000606060008060606122e58a613319565b965061232d6040805190810160405280601a81526020017f19457468657265756d205369676e6564204d6573736167653a0a0000000000008152506113d78c51600202612648565b95506123398688612b3f565b95508a604081518110151561234a57fe5b90602001015160f860020a900460f860020a0260f860020a9004945061237160208c611fb5565b9b50935061237e84613400565b925061238b60208c611fb5565b9b50935061239884613400565b91506001866040518082805190602001908083835b602083106123cc5780518252601f1990920191602091820191016123ad565b51815160209384036101000a60001901801990921691161790526040805192909401829003822060008084528383018087529190915260ff8d1683860152606083018b9052608083018a9052935160a08084019750919550601f1981019492819003909101925090865af1158015612448573d6000803e3d6000fd5b505060408051601f1981015173ffffffffffffffffffffffffffffffffffffffff166c01000000000000000000000000026020820152815160148183030181526034909101909152915061249f905060018a611fb5565b90508099505061250a896040518082805190602001908083835b602083106124d85780518252601f1990920191602091820191016124b9565b6001836020036101000a03801982511681845116808217855250505050505090500191505060405180910390206109b2565b9850612517600c8a611fb5565b905080995050806040518082805190602001908083835b6020831061254d5780518252601f19909201916020918201910161252e565b51815160209384036101000a60001901801990921691161790526040519190930181900381208e519095508e945090928392508401908083835b602083106125a65780518252601f199092019160209182019101612587565b6001836020036101000a03801982511681845116808217855250505050505090500191505060405180910390206000191614156125e657600097506125eb565b600197505b505050505050509392505050565b600080805b8351811015612641578060010184510360080260020a848281518110151561262257fe5b016020015160f860020a908190048102040291909101906001016125fe565b5092915050565b6060600080828415156126905760408051808201909152600181527f300000000000000000000000000000000000000000000000000000000000000060208201529350611207565b8492505b82156126ab57600190910190600a83049250612694565b816040519080825280601f01601f1916602001820160405280156126d9578160200160208202803883390190505b5090506001820391505b841561272a576126f5600a860661340b565b81516000198401938391811061270757fe5b906020010190600160f860020a031916908160001a905350600a850494506126e3565b949350505050565b60608060008060606127438661343f565b935060009250600091505b83518210156128c45783517f2b000000000000000000000000000000000000000000000000000000000000009085908490811061278757fe5b90602001015160f860020a900460f860020a02600160f860020a03191614156127f6577f2d0000000000000000000000000000000000000000000000000000000000000084838151811015156127d957fe5b906020010190600160f860020a031916908160001a9053506128b9565b83517f2f000000000000000000000000000000000000000000000000000000000000009085908490811061282657fe5b90602001015160f860020a900460f860020a02600160f860020a0319161415612878577f5f0000000000000000000000000000000000000000000000000000000000000084838151811015156127d957fe5b835160f860020a603d029085908490811061288f57fe5b90602001015160f860020a900460f860020a02600160f860020a03191614156128b9576001909201915b60019091019061274e565b828451036040519080825280601f01601f1916602001820160405280156128f5578160200160208202803883390190505b509050600091505b805182101561295857838281518110151561291457fe5b90602001015160f860020a900460f860020a02818381518110151561293557fe5b906020010190600160f860020a031916908160001a9053506001909101906128fd565b95945050505050565b6060600080825b8451831015612ab65784517f2d00000000000000000000000000000000000000000000000000000000000000908690859081106129a157fe5b90602001015160f860020a900460f860020a02600160f860020a0319161415612a10577f2b0000000000000000000000000000000000000000000000000000000000000085848151811015156129f357fe5b906020010190600160f860020a031916908160001a905350612aab565b84517f5f0000000000000000000000000000000000000000000000000000000000000090869085908110612a4057fe5b90602001015160f860020a900460f860020a02600160f860020a0319161415612aab577f2f000000000000000000000000000000000000000000000000000000000000008584815181101515612a9257fe5b906020010190600160f860020a031916908160001a9053505b600190920191612968565b84516004906000036040805160018082528183019092529290910693506020808301908038833901905050905060f860020a603d02816000815181101515612afa57fe5b906020010190600160f860020a031916908160001a905350600092505b81831015612b3657612b298582612b3f565b9450600190920191612b17565b612958856137be565b60608060008084518651016040519080825280601f01601f191660200182016040528015612b77578160200160208202803883390190505b50925060009150600090505b8551811015612be1578581815181101515612b9a57fe5b90602001015160f860020a900460f860020a028383806001019450815181101515612bc157fe5b906020010190600160f860020a031916908160001a905350600101612b83565b5060005b8451811015612c43578481815181101515612bfc57fe5b90602001015160f860020a900460f860020a028383806001019450815181101515612c2357fe5b906020010190600160f860020a031916908160001a905350600101612be5565b5090949350505050565b612c55613e6c565b6060612c5f613e6c565b606080604051908101604052806000815260200160008152602001600019815250915084604051908082528060200260200182016040528015612cbc57816020015b612ca9613e33565b815260200190600190039081612ca15790505b5091959194509092505050565b6000612cd3613e33565b612cdb613e33565b8351602086015110612d0f576000846001865103815181101515612cfb57fe5b602090810290910101519093509150612d72565b506040805160c08101825260008082526020808301829052928201819052606082018190526080820181905260a0820152908501518451829186918110612d5257fe5b602090810290910181019190915285018051600190810190915292509050805b509250929050565b6000806000612d87613e33565b8651600181018852925060005b8551885110156130e857875186518791908110612dad57fe5b016020015160f860020a9081900402905060f960020a601102600160f860020a031982161415612e1657612de18888612cc9565b9093509150821515612df957838852600394506130f0565b612e0d826003866001018b60000151613dd6565b600094506130f0565b605c60ff60f860020a830416148015612e33575085518851600101105b156130dc57875160010180895286518791908110612e4d57fe5b90602001015160f860020a900460f860020a02600160f860020a03191660f960020a6011021480612ec85750875186518791908110612e8857fe5b90602001015160f860020a900460f860020a02600160f860020a0319167f2f00000000000000000000000000000000000000000000000000000000000000145b80612f1d5750875186518791908110612edd57fe5b90602001015160f860020a900460f860020a02600160f860020a0319167f5c00000000000000000000000000000000000000000000000000000000000000145b80612f725750875186518791908110612f3257fe5b90602001015160f860020a900460f860020a02600160f860020a0319167f6600000000000000000000000000000000000000000000000000000000000000145b80612fc75750875186518791908110612f8757fe5b90602001015160f860020a900460f860020a02600160f860020a0319167f7200000000000000000000000000000000000000000000000000000000000000145b8061301c5750875186518791908110612fdc57fe5b90602001015160f860020a900460f860020a02600160f860020a0319167f6e00000000000000000000000000000000000000000000000000000000000000145b80613071575087518651879190811061303157fe5b90602001015160f860020a900460f860020a02600160f860020a0319167f6200000000000000000000000000000000000000000000000000000000000000145b806130c6575087518651879190811061308657fe5b90602001015160f860020a900460f860020a02600160f860020a0319167f7400000000000000000000000000000000000000000000000000000000000000145b156130d0576130dc565b838852600194506130f0565b87516001018852612d94565b838852600294505b505050509392505050565b600080600080600061310b613e33565b88516000955093505b8651895110156132ba5788518751889190811061312d57fe5b016020015160f860020a9081900402925060fd60020a600160f860020a03198416148061318357507f0900000000000000000000000000000000000000000000000000000000000000600160f860020a03198416145b806131b757507f0a00000000000000000000000000000000000000000000000000000000000000600160f860020a03198416145b806131eb57507f0d00000000000000000000000000000000000000000000000000000000000000600160f860020a03198416145b8061321f57507f2c00000000000000000000000000000000000000000000000000000000000000600160f860020a03198416145b8061323a575060f860020a607d02600160f860020a03198416145b8061326e57507f5d00000000000000000000000000000000000000000000000000000000000000600160f860020a03198416145b1561327c57600194506132ba565b602060ff60f860020a850416108061329d5750607f60ff60f860020a850416115b156132ae578389526001955061330d565b88516001018952613114565b8415156132cd578389526002955061330d565b6132d78989612cc9565b90925090508115156132ef578389526003955061330d565b613300816004868c60000151613dd6565b8851600019018952600095505b50505050509392505050565b606080600080600085516002026040519080825280601f01601f191660200182016040528015613353578160200160208202803883390190505b509350600090505b8551811015610a5357858181518110151561337257fe5b016020015160f860020a9081900481020492506010830491506133948261340b565b84826002028151811015156133a557fe5b906020010190600160f860020a031916908160001a9053506010830691506133cc8261340b565b84826002026001018151811015156133e057fe5b906020010190600160f860020a031916908160001a90535060010161335b565b6000610a6a826125f9565b6000600a821015613426575060f860020a6030820102610a6d565b6010821015610062575060f860020a6057820102610a6d565b60408051606081810183528282527f4142434445464748494a4b4c4d4e4f505152535455565758595a61626364656660208301527f6768696a6b6c6d6e6f707172737475767778797a303132333435363738392b2f82840152825160038082528185019094529092839182918291600091829182918160200160208202803883395050604080516001808252818301909252929850905060208083019080388339019050509450602060405190810160405280600081525093505b88516003116135b65761350e60038a611fb5565b9950955061351b866125f9565b9250600091505b60048210156135b1578160030360400a8381151561353c57fe5b069050868260030360400a82850381151561355357fe5b0481518110151561356057fe5b90602001015160f860020a900460f860020a0285600081518110151561358257fe5b906020010190600160f860020a031916908160001a9053506135a48486612b3f565b9350915060010181613522565b6134fa565b885115156135c6578397506137b2565b8851600114156136d0576135d9896125f9565b62010000029250600091505b6002821015613674578160030360400a838115156135ff57fe5b069050868260030360400a82850381151561361657fe5b0481518110151561362357fe5b90602001015160f860020a900460f860020a0285600081518110151561364557fe5b906020010190600160f860020a031916908160001a9053506136678486612b3f565b93509150600101816135e5565b60f860020a603d0285600081518110151561368b57fe5b906020010190600160f860020a031916908160001a905350600091505b60028210156136c8576136bb8486612b3f565b93506001909101906136a8565b8397506137b2565b6136d9896125f9565b610100029250600091505b6003821015613773578160030360400a838115156136fe57fe5b069050868260030360400a82850381151561371557fe5b0481518110151561372257fe5b90602001015160f860020a900460f860020a0285600081518110151561374457fe5b906020010190600160f860020a031916908160001a9053506137668486612b3f565b93509150600101816136e4565b60f860020a603d0285600081518110151561378a57fe5b906020010190600160f860020a031916908160001a9053506137ac8486612b3f565b93508397505b50505050505050919050565b60606137c8613e8e565b50604080516110008101825260001980825260208083018290528284018290526060808401839052608080850184905260a0850184905260c0850184905260e08501849052610100850184905261012085018490526101408501849052610160850184905261018085018490526101a085018490526101c085018490526101e08501849052610200850184905261022085018490526102408501849052610260850184905261028085018490526102a085018490526102c085018490526102e08501849052610300850184905261032085018490526103408501849052610360850184905261038085018490526103a085018490526103c085018490526103e08501849052610400850184905261042085018490526104408501849052610460850184905261048085018490526104a085018490526104c085018490526104e08501849052610500850184905261052085018490526105408501849052603e61056086015261058085018490526105a085018490526105c08501849052603f6105e08601526034610600860152603561062086015260366106408601526037610660860152603861068086015260396106a0860152603a6106c0860152603b6106e0860152603c610700860152603d61072086015261074085018490526107608501849052610780850184905260006107a086018190526107c086018590526107e086018590526108008601859052610820860181905260016108408701526002610860870152600361088087015260046108a0870181905260056108c088015260066108e0880152600761090088015260086109208801526009610940880152600a610960880152600b610980880152600c6109a0880152600d6109c0880152600e6109e0880152600f610a008801526010610a208801526011610a408801526012610a608801526013610a808801526014610aa08801526015610ac08801526016610ae08801526017610b008801526018610b208801526019610b40880152610b608701869052610b808701869052610ba08701869052610bc08701869052610be08701869052610c008701869052601a610c20880152601b610c40880152601c610c60880152601d610c80880152601e610ca0880152601f610cc0880152610ce087018590526021610d008801526022610d208801526023610d408801526024610d608801526025610d808801526026610da08801526027610dc08801526028610de08801526029610e00880152602a610e20880152602b610e40880152602c610e60880152602d610e80880152602e610ea0880152602f610ec08801526030610ee08801526031610f008801526032610f208801526033610f40880152610f608701869052610f808701869052610fa08701869052610fc08701869052610fe08701959095528851875180860189528281528851878152808a01909952969791968796879692819004958795929490938493879391830190803883395050604080516001808252818301909252929550905060208083019080388339019050509150600090505b85811015613dc65760009750613c4a60048d611fb5565b9c506000995092505b6004891015613d055789838a815181101515613c6b57fe5b016020015160f860020a9081900481020460808110613c8657fe5b60200201519450600085810b1215613ce8576040805160e560020a62461bcd02815260206004820152600e60248201527f496e76616c696420696e6465782e000000000000000000000000000000000000604482015290519081900360640190fd5b8860030360400a8560000b02880197508880600101995050613c53565b600098505b6003891015613dbe57886002036101000a88811515613d2557fe5b069650886002036101000a878903811515613d3c57fe5b0460f860020a02826000815181101515613d5257fe5b906020010190600160f860020a031916908160001a905350816000815181101515613d7957fe5b016020015160f860020a90819004810204158015613d9957506001860381145b15613da357613db3565b613dad8483612b3f565b93508697505b600190980197613d0a565b600101613c33565b50919a9950505050505050505050565b83836004811115613de357fe5b90816004811115613df057fe5b90525060208401919091526001604084018190526060840191909152608083015250600060a090910152565b604080518082019091526060808252602082015290565b6040805160c08101909152806000815260006020820181905260408201819052606082018190526080820181905260a09091015290565bfe5b6060604051908101604052806000815260200160008152602001600081525090565b6110006040519081016040528060809060208202803883395091929150505600a165627a7a7230582095a147abf91fedb390d2fe5c4448c163ab445d1e979fe1c06ebf412c744486d10029",
  "source": "pragma solidity >=0.4.21 <0.5.0;\n\nimport \"./Utils.sol\";\nimport \"./EllipticCurve.sol\";\nimport \"./Base64.sol\";\n\nimport \"./Global.sol\";\n\n\nlibrary Authenticate {\n\n\n\tfunction beginAuthentication(string appId, bytes device, uint randNonce) public view returns (string) {\n\n\t\tstring memory challenge = string(Base64.websafeEncode(Base64.bytes32ToBytes(Tools.random32(randNonce))));\n\n\t\tTools.Dict memory dict;\n\n\t\tdict._fields = new string[](5);\n\t\tdict._data = new string[](5);\n\n\t\tdict._fields[0] = 'version';\n\t\tdict._fields[1] = 'keyHandle';\n\t\tdict._fields[2] = 'challenge';\n\t\tdict._fields[3] = 'appId';\n\n\t\tdict._fields[4] = 'publicKey';\n\n\t\tdict._data[0] = Global.getVersion();\n\t\tdict._data[1] = Tools.getField('keyHandle', string(device), Global.getMaxNum());\n\t\tdict._data[2] = challenge;\n\t\t// dict._data[3] = Base64.fixOrigin(appId);\n\t\tdict._data[3] = appId;\n\n\t\tdict._data[4] = Tools.getField('publicKey', string(device), Global.getMaxNum());\n\n\t\tstring memory json = Tools.dictToJson(dict);\n\n\t\treturn json;\n\n\t}\n\n\t// changed decodedSignatureData to bytes;\n\tfunction completeAuthentication(bytes request, bytes challengeParameter, bytes decodedSignatureData, string keyHandle, string facet) public pure returns (bytes) {\n\n        // bytes memory decodedClientData = Base64.fromHex(decodedClientDatastr);\n\n\t\t// validate client data;\n\t\t// Global.validateClientData(string(request), string(decodedClientData), Global.getSignType(), facet);\n\n\t\t// get keyHandle;\n\t\t// string memory keyHandle = Tools.getField('keyHandle', string(response), Global.getMaxNum());\n\n\t\t// app parameter;\n\t\tbytes memory appParameter = Base64.bytes32ToBytes(sha256(bytes(facet)));\n\n\t\tstring memory publicKey = Tools.getField('publicKey', string(request), Global.getMaxNum());\n\n\t\tbytes memory counter;\n\t\tbytes memory userPresence;\n\n\t\t(counter, userPresence) = authenticateVerify(decodedSignatureData, appParameter, Base64.fromHex(publicKey), challengeParameter);\n\n\t\tTools.Dict memory information;\n\n\t\tinformation._fields = new string[](3);\n\t\tinformation._data = new string[](3);\n\n\t\tinformation._fields[0] = 'keyHandle';\n\t\tinformation._fields[1] = 'touch';\n\t\tinformation._fields[2] = 'counter';\n\n\t\tinformation._data[0] = keyHandle;\n\t\tinformation._data[1] = Base64.bytesToString(userPresence);\n\t\tinformation._data[2] = Base64.bytesToString(counter);\n\n\t\treturn bytes(Tools.dictToJson(information));\n\n\t}\n\n\t/*\n     +-----------------------------------+\n     | 1 |     4     |      implied      |\n     +-----------------------------------+\n     user presence\n     counter\n     signature\n   */\n\tfunction authenticateVerify(bytes data, bytes appParameter, bytes publicKey, bytes challengeParameter) internal pure returns (bytes, bytes) {\n\n\t\t// bytes memory data = Base64.websafeDecode(bytes(Tools.getField('signatureData', response, Global.getMaxNum())));\n\t\tbytes memory userPresence;\n\t\t(userPresence, data) = Base64.getPopBytes(1, data);\n\n\t\tbytes memory counter;\n\t\t(counter, data) = Base64.getPopBytes(4, data);\n\n\t\tbytes memory verifyData = getAuthenticateVerifyData(appParameter, userPresence, counter, challengeParameter);\n\n\t\t// IN: signature, verifyData, publicKey;\n\t\trequire(Global.verifySecp256k1(data, verifyData, publicKey) == 0, \"Invalid signature.\");\n\n\t\treturn (counter, userPresence);\n\n\t}\n\n\n\tfunction getAuthenticateVerifyData(bytes appParameter, bytes userPresence, bytes counter, bytes challengeParameter) internal pure returns (bytes) {\n\n\t\tbytes memory verifyData = new bytes(appParameter.length + userPresence.length + counter.length + challengeParameter.length);\n\t\tuint k = 0;\n\t\tfor (uint i = 0; i < appParameter.length; i++) {\n\t\t\tverifyData[k++] = appParameter[i];\n\t\t}\n\t\tfor (i = 0; i < userPresence.length; i++) {\n\t\t\tverifyData[k++] = userPresence[i];\n\t\t}\n\t\tfor (i = 0; i < counter.length; i++) {\n\t\t\tverifyData[k++] = counter[i];\n\t\t}\n\t\tfor (i = 0; i < challengeParameter.length; i++) {\n\t\t\tverifyData[k++] = challengeParameter[i];\n\t\t}\n\n\t\treturn verifyData;\n\n\t}\n\n\n}\n",
  "sourcePath": "/home/chxw/Desktop/develop/u2f-ethereum/contracts/Authenticate.sol",
  "compiler": {
    "name": "solc",
    "version": "0.4.24+commit.e67f0147.Emscripten.clang"
  },
  "schemaVersion": "3.0.9",
  "updatedAt": "2019-05-28T06:48:02.850Z",
  "devdoc": {
    "methods": {}
  },
  "userdoc": {
    "methods": {}
  }
}