{
  "contractName": "Bank",
  "abi": [
    {
      "constant": true,
      "inputs": [],
      "name": "_lock",
      "outputs": [
        {
          "name": "",
          "type": "bool"
        }
      ],
      "payable": false,
      "stateMutability": "view",
      "type": "function",
      "signature": "0x4bd724ed"
    },
    {
      "constant": true,
      "inputs": [],
      "name": "_signed",
      "outputs": [
        {
          "name": "",
          "type": "bool"
        }
      ],
      "payable": false,
      "stateMutability": "view",
      "type": "function",
      "signature": "0x504f3deb"
    },
    {
      "constant": true,
      "inputs": [],
      "name": "_registeredKey",
      "outputs": [
        {
          "name": "",
          "type": "bytes"
        }
      ],
      "payable": false,
      "stateMutability": "view",
      "type": "function",
      "signature": "0x61ef86cd"
    },
    {
      "constant": true,
      "inputs": [],
      "name": "_registered",
      "outputs": [
        {
          "name": "",
          "type": "bool"
        }
      ],
      "payable": false,
      "stateMutability": "view",
      "type": "function",
      "signature": "0x83095e3e"
    },
    {
      "constant": true,
      "inputs": [],
      "name": "_strict",
      "outputs": [
        {
          "name": "",
          "type": "bool"
        }
      ],
      "payable": false,
      "stateMutability": "view",
      "type": "function",
      "signature": "0x89872abb"
    },
    {
      "constant": true,
      "inputs": [],
      "name": "_enroll",
      "outputs": [
        {
          "name": "",
          "type": "bytes"
        }
      ],
      "payable": false,
      "stateMutability": "view",
      "type": "function",
      "signature": "0x945ca65b"
    },
    {
      "constant": true,
      "inputs": [],
      "name": "_lastVerified",
      "outputs": [
        {
          "name": "",
          "type": "bytes"
        }
      ],
      "payable": false,
      "stateMutability": "view",
      "type": "function",
      "signature": "0xa5bb969d"
    },
    {
      "constant": true,
      "inputs": [],
      "name": "_owner",
      "outputs": [
        {
          "name": "",
          "type": "address"
        }
      ],
      "payable": false,
      "stateMutability": "view",
      "type": "function",
      "signature": "0xb2bdfa7b"
    },
    {
      "constant": true,
      "inputs": [],
      "name": "_sign",
      "outputs": [
        {
          "name": "",
          "type": "bytes"
        }
      ],
      "payable": false,
      "stateMutability": "view",
      "type": "function",
      "signature": "0xf759e547"
    },
    {
      "inputs": [],
      "payable": false,
      "stateMutability": "nonpayable",
      "type": "constructor",
      "signature": "constructor"
    },
    {
      "anonymous": false,
      "inputs": [
        {
          "indexed": false,
          "name": "owner",
          "type": "address"
        },
        {
          "indexed": false,
          "name": "bank",
          "type": "address"
        },
        {
          "indexed": false,
          "name": "amount",
          "type": "uint256"
        }
      ],
      "name": "Deposit",
      "type": "event",
      "signature": "0x5548c837ab068cf56a2c2479df0882a4922fd203edb7517321831d95078c5f62"
    },
    {
      "anonymous": false,
      "inputs": [
        {
          "indexed": false,
          "name": "owner",
          "type": "address"
        },
        {
          "indexed": false,
          "name": "bank",
          "type": "address"
        },
        {
          "indexed": false,
          "name": "amount",
          "type": "uint256"
        }
      ],
      "name": "Withdraw",
      "type": "event",
      "signature": "0x9b1bfa7fa9ee420a16e124f794c35ac9f90472acc99140eb2f6447c714cad8eb"
    },
    {
      "anonymous": false,
      "inputs": [
        {
          "indexed": false,
          "name": "from",
          "type": "address"
        },
        {
          "indexed": false,
          "name": "to",
          "type": "address"
        },
        {
          "indexed": false,
          "name": "amount",
          "type": "uint256"
        }
      ],
      "name": "Transfer",
      "type": "event",
      "signature": "0xddf252ad1be2c89b69c2b068fc378daa952ba7f163c4a11628f55a4df523b3ef"
    },
    {
      "anonymous": false,
      "inputs": [
        {
          "indexed": false,
          "name": "owner",
          "type": "address"
        },
        {
          "indexed": false,
          "name": "bank",
          "type": "address"
        }
      ],
      "name": "Freeze",
      "type": "event",
      "signature": "0x51d18786e9cb144f87d46e7b796309ea84c7c687d91e09c97f051eacf59bc528"
    },
    {
      "anonymous": false,
      "inputs": [
        {
          "indexed": false,
          "name": "user",
          "type": "address"
        },
        {
          "indexed": false,
          "name": "request",
          "type": "string"
        },
        {
          "indexed": false,
          "name": "appId",
          "type": "string"
        }
      ],
      "name": "RegistrationRequest",
      "type": "event",
      "signature": "0x1cefe4453e9ec198729183687f6e99ed38995a433c3e3070cfcc7dfad77055b4"
    },
    {
      "anonymous": false,
      "inputs": [
        {
          "indexed": false,
          "name": "user",
          "type": "address"
        },
        {
          "indexed": false,
          "name": "device",
          "type": "string"
        },
        {
          "indexed": false,
          "name": "appId",
          "type": "string"
        }
      ],
      "name": "RegistrationComplete",
      "type": "event",
      "signature": "0xe8461f495cb4293de7658c3cb856de2f1c9b6e3cd46d865a64e205e22eb4c535"
    },
    {
      "anonymous": false,
      "inputs": [
        {
          "indexed": false,
          "name": "user",
          "type": "address"
        },
        {
          "indexed": false,
          "name": "request",
          "type": "string"
        },
        {
          "indexed": false,
          "name": "appId",
          "type": "string"
        }
      ],
      "name": "SignRequest",
      "type": "event",
      "signature": "0xd73e437175cd7a018e2398c622fddbc388b661efc2dbb45407b27a2a70f7cda8"
    },
    {
      "anonymous": false,
      "inputs": [
        {
          "indexed": false,
          "name": "user",
          "type": "address"
        },
        {
          "indexed": false,
          "name": "information",
          "type": "string"
        },
        {
          "indexed": false,
          "name": "appId",
          "type": "string"
        }
      ],
      "name": "SignComplete",
      "type": "event",
      "signature": "0xc4b916698af61452f078afbfdcf971767a64792536944b074201d595ad8e2c47"
    },
    {
      "constant": true,
      "inputs": [
        {
          "name": "clientData",
          "type": "string"
        },
        {
          "name": "appId",
          "type": "string"
        },
        {
          "name": "typ",
          "type": "uint256"
        }
      ],
      "name": "client",
      "outputs": [
        {
          "name": "",
          "type": "bytes"
        }
      ],
      "payable": false,
      "stateMutability": "view",
      "type": "function",
      "signature": "0x48c9be48"
    },
    {
      "constant": false,
      "inputs": [
        {
          "name": "appId",
          "type": "string"
        }
      ],
      "name": "enroll",
      "outputs": [],
      "payable": false,
      "stateMutability": "nonpayable",
      "type": "function",
      "signature": "0x67b09cdb"
    },
    {
      "constant": false,
      "inputs": [
        {
          "name": "appId",
          "type": "string"
        },
        {
          "name": "challengeParameter",
          "type": "string"
        },
        {
          "name": "pubKey",
          "type": "string"
        },
        {
          "name": "keyHandle",
          "type": "string"
        },
        {
          "name": "certKey",
          "type": "string"
        },
        {
          "name": "signature",
          "type": "string"
        }
      ],
      "name": "bind",
      "outputs": [],
      "payable": false,
      "stateMutability": "nonpayable",
      "type": "function",
      "signature": "0xfb6bf622"
    },
    {
      "constant": false,
      "inputs": [
        {
          "name": "appId",
          "type": "string"
        }
      ],
      "name": "sign",
      "outputs": [],
      "payable": false,
      "stateMutability": "nonpayable",
      "type": "function",
      "signature": "0x79d6348d"
    },
    {
      "constant": false,
      "inputs": [
        {
          "name": "appId",
          "type": "string"
        },
        {
          "name": "challengeParameter",
          "type": "string"
        },
        {
          "name": "decodedSignatureData",
          "type": "string"
        },
        {
          "name": "keyHandle",
          "type": "string"
        }
      ],
      "name": "verify",
      "outputs": [],
      "payable": false,
      "stateMutability": "nonpayable",
      "type": "function",
      "signature": "0x1ede74c3"
    },
    {
      "constant": false,
      "inputs": [
        {
          "name": "limit",
          "type": "uint256"
        }
      ],
      "name": "setLimit",
      "outputs": [],
      "payable": false,
      "stateMutability": "nonpayable",
      "type": "function",
      "signature": "0x27ea6f2b"
    },
    {
      "constant": false,
      "inputs": [
        {
          "name": "strict",
          "type": "bool"
        },
        {
          "name": "expire",
          "type": "uint256"
        }
      ],
      "name": "setU2FPolicy",
      "outputs": [],
      "payable": false,
      "stateMutability": "nonpayable",
      "type": "function",
      "signature": "0x11104476"
    },
    {
      "constant": false,
      "inputs": [],
      "name": "lockBank",
      "outputs": [],
      "payable": false,
      "stateMutability": "nonpayable",
      "type": "function",
      "signature": "0xc19593a1"
    },
    {
      "constant": false,
      "inputs": [],
      "name": "unlockBank",
      "outputs": [],
      "payable": false,
      "stateMutability": "nonpayable",
      "type": "function",
      "signature": "0xcd7ac569"
    },
    {
      "constant": true,
      "inputs": [],
      "name": "getBalance",
      "outputs": [
        {
          "name": "",
          "type": "uint256"
        }
      ],
      "payable": false,
      "stateMutability": "view",
      "type": "function",
      "signature": "0x12065fe0"
    },
    {
      "constant": true,
      "inputs": [],
      "name": "getAddr",
      "outputs": [
        {
          "name": "",
          "type": "address"
        }
      ],
      "payable": false,
      "stateMutability": "view",
      "type": "function",
      "signature": "0xa74c2bb6"
    },
    {
      "constant": false,
      "inputs": [],
      "name": "clearSign",
      "outputs": [],
      "payable": false,
      "stateMutability": "nonpayable",
      "type": "function",
      "signature": "0x237d41f4"
    },
    {
      "constant": false,
      "inputs": [
        {
          "name": "amount",
          "type": "uint256"
        }
      ],
      "name": "deposit",
      "outputs": [],
      "payable": true,
      "stateMutability": "payable",
      "type": "function",
      "signature": "0xb6b55f25"
    },
    {
      "constant": false,
      "inputs": [
        {
          "name": "amount",
          "type": "uint256"
        }
      ],
      "name": "withdraw",
      "outputs": [],
      "payable": true,
      "stateMutability": "payable",
      "type": "function",
      "signature": "0x2e1a7d4d"
    },
    {
      "constant": false,
      "inputs": [
        {
          "name": "to",
          "type": "address"
        },
        {
          "name": "amount",
          "type": "uint256"
        }
      ],
      "name": "transferViaBank",
      "outputs": [],
      "payable": true,
      "stateMutability": "payable",
      "type": "function",
      "signature": "0x35fb1af8"
    }
  ],
  "bytecode": "0x608060405234801561001057600080fd5b5060058054600160a060020a03191633179055612710600655600a805462ffffff191690556007805460ff191660011790556018600855600080556143838061005a6000396000f3006080604052600436106101245763ffffffff60e060020a60003504166311104476811461012957806312065fe0146101485780631ede74c31461016f578063237d41f41461028257806327ea6f2b146102975780632e1a7d4d146102af57806335fb1af8146102ba57806348c9be48146102d15780634bd724ed146103df578063504f3deb1461040857806361ef86cd1461041d57806367b09cdb1461043257806379d6348d1461048b57806383095e3e146104e457806389872abb146104f9578063945ca65b1461050e578063a5bb969d14610523578063a74c2bb614610538578063b2bdfa7b14610569578063b6b55f251461057e578063c19593a114610589578063cd7ac5691461059e578063f759e547146105b3578063fb6bf622146105c8575b600080fd5b34801561013557600080fd5b506101466004351515602435610757565b005b34801561015457600080fd5b5061015d61088a565b60408051918252519081900360200190f35b34801561017b57600080fd5b506040805160206004803580820135601f810184900484028501840190955284845261014694369492936024939284019190819084018382808284375050604080516020601f89358b018035918201839004830284018301909452808352979a99988101979196509182019450925082915084018382808284375050604080516020601f89358b018035918201839004830284018301909452808352979a99988101979196509182019450925082915084018382808284375050604080516020601f89358b018035918201839004830284018301909452808352979a9998810197919650918201945092508291508401838280828437509497506108e49650505050505050565b34801561028e57600080fd5b50610146610df2565b3480156102a357600080fd5b50610146600435610e50565b610146600435610ea5565b610146600160a060020a0360043516602435611121565b3480156102dd57600080fd5b506040805160206004803580820135601f810184900484028501840190955284845261036a94369492936024939284019190819084018382808284375050604080516020601f89358b018035918201839004830284018301909452808352979a99988101979196509182019450925082915084018382808284375094975050933594506113509350505050565b6040805160208082528351818301528351919283929083019185019080838360005b838110156103a457818101518382015260200161038c565b50505050905090810190601f1680156103d15780820380516001836020036101000a031916815260200191505b509250505060405180910390f35b3480156103eb57600080fd5b506103f46115b9565b604080519115158252519081900360200190f35b34801561041457600080fd5b506103f46115c2565b34801561042957600080fd5b5061036a6115d1565b34801561043e57600080fd5b506040805160206004803580820135601f810184900484028501840190955284845261014694369492936024939284019190819084018382808284375094975061165f9650505050505050565b34801561049757600080fd5b506040805160206004803580820135601f81018490048402850184019095528484526101469436949293602493928401919081908401838280828437509497506119399650505050505050565b3480156104f057600080fd5b506103f4611c5d565b34801561050557600080fd5b506103f4611c6b565b34801561051a57600080fd5b5061036a611c74565b34801561052f57600080fd5b5061036a611cce565b34801561054457600080fd5b5061054d611d29565b60408051600160a060020a039092168252519081900360200190f35b34801561057557600080fd5b5061054d611d81565b610146600435611d90565b34801561059557600080fd5b50610146611ed7565b3480156105aa57600080fd5b50610146611fa0565b3480156105bf57600080fd5b5061036a612060565b3480156105d457600080fd5b506040805160206004803580820135601f810184900484028501840190955284845261014694369492936024939284019190819084018382808284375050604080516020601f89358b018035918201839004830284018301909452808352979a99988101979196509182019450925082915084018382808284375050604080516020601f89358b018035918201839004830284018301909452808352979a99988101979196509182019450925082915084018382808284375050604080516020601f89358b018035918201839004830284018301909452808352979a99988101979196509182019450925082915084018382808284375050604080516020601f89358b018035918201839004830284018301909452808352979a99988101979196509182019450925082915084018382808284375050604080516020601f89358b018035918201839004830284018301909452808352979a9998810197919650918201945092508291508401838280828437509497506120b89650505050505050565b600554600160a060020a031633146107a7576040805160e560020a62461bcd02815260206004820152601d6024820152600080516020614338833981519152604482015290519081900360640190fd5b600a54610100900460ff1680156107c15750600a5460ff16155b1515610805576040805160e560020a62461bcd0281526020600482015260196024820152600080516020614318833981519152604482015290519081900360640190fd5b600a5462010000900460ff161515610867576040805160e560020a62461bcd02815260206004820152601860248201527f41757468656e7469636174696f6e2072657175697265642e0000000000000000604482015290519081900360640190fd5b600a805462ff0000191690556007805460ff191692151592909217909155600855565b600554600090600160a060020a031633146108dd576040805160e560020a62461bcd02815260206004820152601d6024820152600080516020614338833981519152604482015290519081900360640190fd5b5030315b90565b600554606090600160a060020a03163314610937576040805160e560020a62461bcd02815260206004820152601d6024820152600080516020614338833981519152604482015290519081900360640190fd5b6002805460006000196101006001841615020190911691909104116109a6576040805160e560020a62461bcd02815260206004820181905260248201527f4e6f2063757272656e7420726567697374726174696f6e20726571756573742e604482015290519081900360640190fd5b73__Authenticate__________________________63b90fdda660026109cb87612611565b60405160e060020a63ffffffff851602815260a06004820190815283546002600019610100600184161502019091160460a48301819052899289928d9290918291602482019160448101916064820191608481019160c4909101908c908015610a755780601f10610a4a57610100808354040283529160200191610a75565b820191906000526020600020905b815481529060010190602001808311610a5857829003601f168201915b505086810385528a5181528a516020918201918c019080838360005b83811015610aa9578181015183820152602001610a91565b50505050905090810190601f168015610ad65780820380516001836020036101000a031916815260200191505b5086810384528951815289516020918201918b019080838360005b83811015610b09578181015183820152602001610af1565b50505050905090810190601f168015610b365780820380516001836020036101000a031916815260200191505b5086810383528851815288516020918201918a019080838360005b83811015610b69578181015183820152602001610b51565b50505050905090810190601f168015610b965780820380516001836020036101000a031916815260200191505b50868103825287518152875160209182019189019080838360005b83811015610bc9578181015183820152602001610bb1565b50505050905090810190601f168015610bf65780820380516001836020036101000a031916815260200191505b509a505050505050505050505060006040518083038186803b158015610c1b57600080fd5b505af4158015610c2f573d6000803e3d6000fd5b505050506040513d6000823e601f3d908101601f191682016040526020811015610c5857600080fd5b810190808051640100000000811115610c7057600080fd5b82016020810184811115610c8357600080fd5b8151640100000000811182820187101715610c9d57600080fd5b5050929190505050905060026000610cb591906141df565b8051610cc8906004906020840190614226565b50600a805462ff000019166201000017905560408051338082526060602080840182815286519285019290925285517fc4b916698af61452f078afbfdcf971767a64792536944b074201d595ad8e2c4795939487948c94919391929084019160808501919087019080838360005b83811015610d4e578181015183820152602001610d36565b50505050905090810190601f168015610d7b5780820380516001836020036101000a031916815260200191505b50838103825284518152845160209182019186019080838360005b83811015610dae578181015183820152602001610d96565b50505050905090810190601f168015610ddb5780820380516001836020036101000a031916815260200191505b509550505050505060405180910390a15050505050565b600554600160a060020a03163314610e42576040805160e560020a62461bcd02815260206004820152601d6024820152600080516020614338833981519152604482015290519081900360640190fd5b600a805462ff000019169055565b600554600160a060020a03163314610ea0576040805160e560020a62461bcd02815260206004820152601d6024820152600080516020614338833981519152604482015290519081900360640190fd5b600655565b600554600160a060020a03163314610ef5576040805160e560020a62461bcd02815260206004820152601d6024820152600080516020614338833981519152604482015290519081900360640190fd5b600a54610100900460ff168015610f0f5750600a5460ff16155b1515610f53576040805160e560020a62461bcd0281526020600482015260196024820152600080516020614318833981519152604482015290519081900360640190fd5b60008111610fd1576040805160e560020a62461bcd02815260206004820152602360248201527f576974686472617720616d6f756e742073686f756c6420626520706f7369746960448201527f76652e0000000000000000000000000000000000000000000000000000000000606482015290519081900360840190fd5b303181111561102a576040805160e560020a62461bcd02815260206004820152601360248201527f4e6f7420656e6f7567682062616c616e63652e00000000000000000000000000604482015290519081900360640190fd5b6006548111801561103d575060075460ff165b156110b157600a5462010000900460ff1615156110a4576040805160e560020a62461bcd02815260206004820152601860248201527f41757468656e7469636174696f6e2072657175697265642e0000000000000000604482015290519081900360640190fd5b600a805462ff0000191690555b604051339082156108fc029083906000818181858888f193505050501580156110de573d6000803e3d6000fd5b506040805133815230602082015280820183905290517f9b1bfa7fa9ee420a16e124f794c35ac9f90472acc99140eb2f6447c714cad8eb9181900360600190a150565b600554600160a060020a03163314611171576040805160e560020a62461bcd02815260206004820152601d6024820152600080516020614338833981519152604482015290519081900360640190fd5b600a54610100900460ff16801561118b5750600a5460ff16155b15156111cf576040805160e560020a62461bcd0281526020600482015260196024820152600080516020614318833981519152604482015290519081900360640190fd5b3031811115611228576040805160e560020a62461bcd02815260206004820152601360248201527f4e6f7420656e6f7567682062616c616e63652e00000000000000000000000000604482015290519081900360640190fd5b6006548111156113155760075460ff16806112595750600160a060020a038216600090815260096020526040902054155b806112865750600854600160a060020a038316600090815260096020526040902054610e10909102014210155b1561131557600a5462010000900460ff1615156112ed576040805160e560020a62461bcd02815260206004820152601860248201527f41757468656e7469636174696f6e2072657175697265642e0000000000000000604482015290519081900360640190fd5b600a805462ff000019169055600160a060020a03821660009081526009602052604090204290555b604051600160a060020a0383169082156108fc029083906000818181858888f1935050505015801561134b573d6000803e3d6000fd5b505050565b60608082151561147957600060018054600181600116156101000203166002900490501115156113ca576040805160e560020a62461bcd02815260206004820181905260248201527f4e6f2063757272656e7420726567697374726174696f6e20726571756573742e604482015290519081900360640190fd5b60018054604080516020601f60026000196101008789161502019095169490940493840181900481028201810190925282815261147293909290918301828280156114565780601f1061142b57610100808354040283529160200191611456565b820191906000526020600020905b81548152906001019060200180831161143957829003601f168201915b505050505061146487612611565b61146c6126f3565b8761272a565b90506115b1565b60028054600060001961010060018416150201909116919091041161150e576040805160e560020a62461bcd02815260206004820152602260248201527f4e6f2063757272656e742041757468656e7469636174696f6e2072657175657360448201527f742e000000000000000000000000000000000000000000000000000000000000606482015290519081900360840190fd5b60028054604080516020601f600019610100600187161502019094168590049384018190048102820181019092528281526115ae93909290918301828280156115985780601f1061156d57610100808354040283529160200191611598565b820191906000526020600020905b81548152906001019060200180831161157b57829003601f168201915b50505050506115a687612611565b61146c612c11565b90505b949350505050565b600a5460ff1681565b600a5462010000900460ff1681565b6003805460408051602060026001851615610100026000190190941693909304601f810184900484028201840190925281815292918301828280156116575780601f1061162c57610100808354040283529160200191611657565b820191906000526020600020905b81548152906001019060200180831161163a57829003601f168201915b505050505081565b600554606090600160a060020a031633146116b2576040805160e560020a62461bcd02815260206004820152601d6024820152600080516020614338833981519152604482015290519081900360640190fd5b73__Register______________________________63c55c724383600080815480929190600101919050556040518363ffffffff1660e060020a0281526004018080602001838152602001828103825284818151815260200191508051906020019080838360005b8381101561173257818101518382015260200161171a565b50505050905090810190601f16801561175f5780820380516001836020036101000a031916815260200191505b50935050505060006040518083038186803b15801561177d57600080fd5b505af4158015611791573d6000803e3d6000fd5b505050506040513d6000823e601f3d908101601f1916820160405260208110156117ba57600080fd5b8101908080516401000000008111156117d257600080fd5b820160208101848111156117e557600080fd5b81516401000000008111828201871017156117ff57600080fd5b5050805190945061181a935060019250602085019150614226565b507f1cefe4453e9ec198729183687f6e99ed38995a433c3e3070cfcc7dfad77055b43382846040518084600160a060020a0316600160a060020a031681526020018060200180602001838103835285818151815260200191508051906020019080838360005b83811015611898578181015183820152602001611880565b50505050905090810190601f1680156118c55780820380516001836020036101000a031916815260200191505b50838103825284518152845160209182019186019080838360005b838110156118f85781810151838201526020016118e0565b50505050905090810190601f1680156119255780820380516001836020036101000a031916815260200191505b509550505050505060405180910390a15050565b600554606090600160a060020a0316331461198c576040805160e560020a62461bcd02815260206004820152601d6024820152600080516020614338833981519152604482015290519081900360640190fd5b600354600060026000196101006001851615020190921691909104116119fc576040805160e560020a62461bcd02815260206004820152601260248201527f4e6f2072656769737465726564206b65792e0000000000000000000000000000604482015290519081900360640190fd5b73__Authenticate__________________________6366138f97836003600080815480929190600101919050556040518463ffffffff1660e060020a028152600401808060200180602001848152602001838103835286818151815260200191508051906020019080838360005b83811015611a82578181015183820152602001611a6a565b50505050905090810190601f168015611aaf5780820380516001836020036101000a031916815260200191505b50838103825285546002600019610100600184161502019091160480825260209091019086908015611b225780601f10611af757610100808354040283529160200191611b22565b820191906000526020600020905b815481529060010190602001808311611b0557829003601f168201915b50509550505050505060006040518083038186803b158015611b4357600080fd5b505af4158015611b57573d6000803e3d6000fd5b505050506040513d6000823e601f3d908101601f191682016040526020811015611b8057600080fd5b810190808051640100000000811115611b9857600080fd5b82016020810184811115611bab57600080fd5b8151640100000000811182820187101715611bc557600080fd5b50508051909450611be0935060029250602085019150614226565b507fd73e437175cd7a018e2398c622fddbc388b661efc2dbb45407b27a2a70f7cda83382846040518084600160a060020a0316600160a060020a0316815260200180602001806020018381038352858181518152602001915080519060200190808383600083811015611898578181015183820152602001611880565b600a54610100900460ff1681565b60075460ff1681565b60018054604080516020600284861615610100026000190190941693909304601f810184900484028201840190925281815292918301828280156116575780601f1061162c57610100808354040283529160200191611657565b6004805460408051602060026001851615610100026000190190941693909304601f810184900484028201840190925281815292918301828280156116575780601f1061162c57610100808354040283529160200191611657565b600554600090600160a060020a03163314611d7c576040805160e560020a62461bcd02815260206004820152601d6024820152600080516020614338833981519152604482015290519081900360640190fd5b503090565b600554600160a060020a031681565b600554600160a060020a03163314611de0576040805160e560020a62461bcd02815260206004820152601d6024820152600080516020614338833981519152604482015290519081900360640190fd5b600a54610100900460ff168015611dfa5750600a5460ff16155b1515611e3e576040805160e560020a62461bcd0281526020600482015260196024820152600080516020614318833981519152604482015290519081900360640190fd5b348114611e95576040805160e560020a62461bcd02815260206004820152601560248201527f57726f6e67206465706f73697420616d6f756e742e0000000000000000000000604482015290519081900360640190fd5b6040805133815230602082015280820183905290517f5548c837ab068cf56a2c2479df0882a4922fd203edb7517321831d95078c5f629181900360600190a150565b600554600160a060020a03163314611f27576040805160e560020a62461bcd02815260206004820152601d6024820152600080516020614338833981519152604482015290519081900360640190fd5b600a5462010000900460ff161515611f89576040805160e560020a62461bcd02815260206004820152600b60248201527f4e6f74207369676e65642e000000000000000000000000000000000000000000604482015290519081900360640190fd5b600a805462ff00001960ff19909116600117169055565b600554600160a060020a03163314611ff0576040805160e560020a62461bcd02815260206004820152601d6024820152600080516020614338833981519152604482015290519081900360640190fd5b600a5462010000900460ff161515612052576040805160e560020a62461bcd02815260206004820152600b60248201527f4e6f74207369676e65642e000000000000000000000000000000000000000000604482015290519081900360640190fd5b600a805462ff00ff19169055565b6002805460408051602060018416156101000260001901909316849004601f810184900484028201840190925281815292918301828280156116575780601f1061162c57610100808354040283529160200191611657565b600554606090600160a060020a0316331461210b576040805160e560020a62461bcd02815260206004820152601d6024820152600080516020614338833981519152604482015290519081900360640190fd5b6000600180546001816001161561010002031660029004905011151561217b576040805160e560020a62461bcd02815260206004820181905260248201527f4e6f2063757272656e7420726567697374726174696f6e20726571756573742e604482015290519081900360640190fd5b73__Register______________________________63c8bf169e61219e88612611565b878787878d6040518763ffffffff1660e060020a0281526004018080602001806020018060200180602001806020018060200187810387528d818151815260200191508051906020019080838360005b838110156122065781810151838201526020016121ee565b50505050905090810190601f1680156122335780820380516001836020036101000a031916815260200191505b5087810386528c5181528c516020918201918e019080838360005b8381101561226657818101518382015260200161224e565b50505050905090810190601f1680156122935780820380516001836020036101000a031916815260200191505b5087810385528b5181528b516020918201918d019080838360005b838110156122c65781810151838201526020016122ae565b50505050905090810190601f1680156122f35780820380516001836020036101000a031916815260200191505b5087810384528a5181528a516020918201918c019080838360005b8381101561232657818101518382015260200161230e565b50505050905090810190601f1680156123535780820380516001836020036101000a031916815260200191505b5087810383528951815289516020918201918b019080838360005b8381101561238657818101518382015260200161236e565b50505050905090810190601f1680156123b35780820380516001836020036101000a031916815260200191505b5087810382528851815288516020918201918a019080838360005b838110156123e65781810151838201526020016123ce565b50505050905090810190601f1680156124135780820380516001836020036101000a031916815260200191505b509c5050505050505050505050505060006040518083038186803b15801561243a57600080fd5b505af415801561244e573d6000803e3d6000fd5b505050506040513d6000823e601f3d908101601f19168201604052602081101561247757600080fd5b81019080805164010000000081111561248f57600080fd5b820160208101848111156124a257600080fd5b81516401000000008111828201871017156124bc57600080fd5b50509291905050509050600160006124d491906141df565b80516124e7906003906020840190614226565b50600a805461ff00191661010017905560408051338082526060602080840182815286519285019290925285517fe8461f495cb4293de7658c3cb856de2f1c9b6e3cd46d865a64e205e22eb4c53595939487948e94919391929084019160808501919087019080838360005b8381101561256b578181015183820152602001612553565b50505050905090810190601f1680156125985780820380516001836020036101000a031916815260200191505b50838103825284518152845160209182019186019080838360005b838110156125cb5781810151838201526020016125b3565b50505050905090810190601f1680156125f85780820380516001836020036101000a031916815260200191505b509550505050505060405180910390a150505050505050565b8051606090829082906000906001161561262a57600080fd5b8251600290046040519080825280601f01601f19166020018201604052801561265d578160200160208202803883390190505b509150600090505b8251600290048110156126eb5761269f838260020260010181518110151561268957fe5b016020015160f860020a90819004810204612c48565b6126b3848360020281518110151561268957fe5b6010020160f860020a0282828151811015156126cb57fe5b906020010190600160f860020a031916908160001a905350600101612665565b509392505050565b60408051808201909152601d81527f6e6176696761746f722e69642e66696e697368456e726f6c6c6d656e74000000602082015290565b6060806060846040518082805190602001908083835b6020831061275f5780518252601f199092019160209182019101612740565b51815160209384036101000a600019018019909216911617905260408051929094018290038220828501909452600382527f7479700000000000000000000000000000000000000000000000000000000000908201529193506127cd92508990506127c8612dcb565b612dd0565b6040518082805190602001908083835b602083106127fc5780518252601f1990920191602091820191016127dd565b6001836020036101000a038019825116818451168082178552505050505050905001915050604051809103902060001916141515612884576040805160e560020a62461bcd02815260206004820152600b60248201527f57726f6e6720747970652e000000000000000000000000000000000000000000604482015290519081900360640190fd5b6128c66040805190810160405280600981526020017f6368616c6c656e67650000000000000000000000000000000000000000000000815250886127c8612dcb565b915061290a6040805190810160405280600981526020017f6368616c6c656e67650000000000000000000000000000000000000000000000815250876127c8612dcb565b9050806040518082805190602001908083835b6020831061293c5780518252601f19909201916020918201910161291d565b51815160209384036101000a6000190180199092169116179052604051919093018190038120875190955087945090928392508401908083835b602083106129955780518252601f199092019160209182019101612976565b6001836020036101000a038019825116818451168082178552505050505050905001915050604051809103902060001916141515612a1d576040805160e560020a62461bcd02815260206004820152601060248201527f57726f6e67206368616c6c656e67652e00000000000000000000000000000000604482015290519081900360640190fd5b835115612b7457836040518082805190602001908083835b60208310612a545780518252601f199092019160209182019101612a35565b51815160209384036101000a600019018019909216911617905260408051929094018290038220828501909452600682527f6f726967696e000000000000000000000000000000000000000000000000000090820152919350612abd92508990506127c8612dcb565b6040518082805190602001908083835b60208310612aec5780518252601f199092019160209182019101612acd565b6001836020036101000a038019825116818451168082178552505050505050905001915050604051809103902060001916141515612b74576040805160e560020a62461bcd02815260206004820152600e60248201527f496e76616c69642066616365742e000000000000000000000000000000000000604482015290519081900360640190fd5b612c066002876040518082805190602001908083835b60208310612ba95780518252601f199092019160209182019101612b8a565b51815160209384036101000a600019018019909216911617905260405191909301945091925050808303816000865af1158015612bea573d6000803e3d6000fd5b5050506040513d6020811015612bff57600080fd5b505161300b565b979650505050505050565b60408051808201909152601981527f6e6176696761746f722e69642e676574417373657274696f6e00000000000000602082015290565b60007f300000000000000000000000000000000000000000000000000000000000000060f860020a8302600160f860020a03191610801590612cba57507f390000000000000000000000000000000000000000000000000000000000000060f860020a8302600160f860020a03191611155b15612cca5750602f198101612dc6565b7f610000000000000000000000000000000000000000000000000000000000000060f860020a8302600160f860020a03191610801590612d3a57507f660000000000000000000000000000000000000000000000000000000000000060f860020a8302600160f860020a03191611155b15612d4a57506056198101612dc6565b7f410000000000000000000000000000000000000000000000000000000000000060f860020a8302600160f860020a03191610801590612dba57507f460000000000000000000000000000000000000000000000000000000000000060f860020a8302600160f860020a03191611155b15612dc6575060361981015b919050565b600b90565b60606000806060612ddf6142a4565b60606000612ded89896130b6565b91975090955093508515612e71576040805160e560020a62461bcd02815260206004820152602260248201527f4a534f4e20706172736572206e6f742070726f7065726c792072657475726e6560448201527f642e000000000000000000000000000000000000000000000000000000000000606482015290519081900360840190fd5b5060005b84811015612fae578381815181101515612e8b57fe5b906020019060200201519250612eaa89846020015185606001516139de565b9150816040518082805190602001908083835b60208310612edc5780518252601f199092019160209182019101612ebd565b51815160209384036101000a60001901801990921691161790526040519190930181900381208f519095508f945090928392508401908083835b60208310612f355780518252601f199092019160209182019101612f16565b6001836020036101000a0380198251168184511680821785525050505050509050019150506040518091039020600019161415612fa6578381600101815181101515612f7d57fe5b906020019060200201519250612f9c89846020015185606001516139de565b9150819650612ffe565b600101612e75565b6040805160e560020a62461bcd02815260206004820152601060248201527f4669656c64206e6f7420666f756e642e00000000000000000000000000000000604482015290519081900360640190fd5b5050505050509392505050565b60408051602080825281830190925260609182916000918291829180820161040080388339019050509350859150600090505b60208110156130ac5780601f0360080260020a8281151561305b57fe5b06925080601f0360080260020a83830381151561307457fe5b0460f860020a02848281518110151561308957fe5b906020010190600160f860020a031916908160001a90535082915060010161303e565b5091949350505050565b600060606000606060006130c86142db565b60008060006130d56142a4565b60008060008e99506130e68e613a82565b6020820151909d5090985095505b8951885110156139c15787518a518b9190811061310d57fe5b016020015160f860020a908190040292507f7b00000000000000000000000000000000000000000000000000000000000000600160f860020a03198416148061317f57507f5b00000000000000000000000000000000000000000000000000000000000000600160f860020a03198416145b1561326457600190950194613194888d613afe565b90995093508815156131ad5760039c5060009a506139cd565b6040880151600019146131e5578b88604001518151811015156131cc57fe5b602090810291909101015160a001805160010160ff1690525b7f7b00000000000000000000000000000000000000000000000000000000000000600160f860020a031984161461321d576002613220565b60015b8490600481111561322d57fe5b9081600481111561323a57fe5b905250875160208086019190915260016040808701919091529089015160001901908901526139b5565b7f7d00000000000000000000000000000000000000000000000000000000000000600160f860020a0319841614806132c557507f5d00000000000000000000000000000000000000000000000000000000000000600160f860020a03198416145b1561349d577f7d00000000000000000000000000000000000000000000000000000000000000600160f860020a0319841614613302576002613305565b60015b915060009050600188602001510394505b600085106133df578b8581518110151561332c57fe5b9060200190602002015193508360400151801561334b57508360800151155b156133d35781600481111561335c57fe5b8451600481111561336957fe5b1461337b5760019c5060009a506139cd565b600019604089015287518c516001909101908d908790811061339957fe5b60209081029091010151606001528b516001908d90879081106133b857fe5b602090810290910101519015156080909101525060016133df565b60001990940193613316565b8015156133f35760019c5060009a506139cd565b6000851115613446578b8581518110151561340a57fe5b9060200190602002015193508360400151801561342957508360800151155b1561343a5760408801859052613446565b600019909401936133f3565b841515613498578b8581518110151561345b57fe5b9060200190602002015193508360400151801561347a57508360800151155b15613498576fffffffffffffffffffffffffffffffff851660408901525b6139b5565b7f2200000000000000000000000000000000000000000000000000000000000000600160f860020a031984161415613532576134da888d8c613baf565b965086156134f057959b50600099508b956139cd565b604088015160019096019560001914613498578b886040015181518110151561351557fe5b602090810291909101015160a001805160010160ff1690526139b5565b60fd60020a600160f860020a03198416148061357757507f1100000000000000000000000000000000000000000000000000000000000000600160f860020a03198416145b806135ab57507f1200000000000000000000000000000000000000000000000000000000000000600160f860020a03198416145b806135df57507f1400000000000000000000000000000000000000000000000000000000000000600160f860020a03198416145b156135e9576139b5565b7f3a00000000000000000000000000000000000000000000000000000000000000600160f860020a03198416141561362e5760208801516000190160408901526139b5565b7f2c00000000000000000000000000000000000000000000000000000000000000600160f860020a0319841614156137a25787604001516000191415801561369e575060028c896040015181518110151561368557fe5b6020908102909101015151600481111561369b57fe5b14155b80156136d2575060018c89604001518151811015156136b957fe5b602090810290910101515160048111156136cf57fe5b14155b1561349857600188602001510394505b600085106134985760028c868151811015156136fa57fe5b6020908102909101015151600481111561371057fe5b148061373f575060018c8681518110151561372757fe5b6020908102909101015151600481111561373d57fe5b145b15613796578b8581518110151561375257fe5b9060200190602002015160400151801561378557508b8581518110151561377557fe5b9060200190602002015160800151155b156137965760408801859052613498565b600019909401936136e2565b7f3000000000000000000000000000000000000000000000000000000000000000600160f860020a031984161080159061380657507f3900000000000000000000000000000000000000000000000000000000000000600160f860020a0319841611155b8061383a57507f2d00000000000000000000000000000000000000000000000000000000000000600160f860020a03198416145b8061386e57507f6600000000000000000000000000000000000000000000000000000000000000600160f860020a03198416145b806138a257507f7400000000000000000000000000000000000000000000000000000000000000600160f860020a03198416145b806138d657507f6e00000000000000000000000000000000000000000000000000000000000000600160f860020a03198416145b1561395b57604088015160001914613950578b88604001518151811015156138fa57fe5b60209081029091010151935060018451600481111561391557fe5b148061393e575060038451600481111561392b57fe5b14801561393e575060a084015160ff1615155b156139505760019c5060009a506139cd565b6134da888d8c613f62565b60fd60020a600160f860020a03198416108015906139a357507f7e00000000000000000000000000000000000000000000000000000000000000600160f860020a0319841611155b156139b55760019c5060009a506139cd565b875160010188526130f4565b602088015160009d509a505b505050505050505050509250925092565b606080606060008692508585036040519080825280601f01601f191660200182016040528015613a18578160200160208202803883390190505b5091508590505b84811015613a78578281815181101515613a3557fe5b90602001015160f860020a900460f860020a0282878303815181101515613a5857fe5b906020010190600160f860020a031916908160001a905350600101613a1f565b5095945050505050565b613a8a6142db565b6060613a946142db565b606080604051908101604052806000815260200160008152602001600019815250915084604051908082528060200260200182016040528015613af157816020015b613ade6142a4565b815260200190600190039081613ad65790505b5091959194509092505050565b6000613b086142a4565b613b106142a4565b8351602086015110613b44576000846001865103815181101515613b3057fe5b602090810290910101519093509150613ba7565b506040805160c08101825260008082526020808301829052928201819052606082018190526080820181905260a0820152908501518451829186918110613b8757fe5b602090810290910181019190915285018051600190810190915292509050805b509250929050565b6000806000613bbc6142a4565b8651600181018852925060005b855188511015613f4f57875186518791908110613be257fe5b016020015160f860020a908190040290507f2200000000000000000000000000000000000000000000000000000000000000600160f860020a031982161415613c6457613c2f8888613afe565b9093509150821515613c475783885260039450613f57565b613c5b826003866001018b60000151614199565b60009450613f57565b605c60ff60f860020a830416148015613c81575085518851600101105b15613f4357875160010180895286518791908110613c9b57fe5b90602001015160f860020a900460f860020a02600160f860020a0319167f22000000000000000000000000000000000000000000000000000000000000001480613d2f5750875186518791908110613cef57fe5b90602001015160f860020a900460f860020a02600160f860020a0319167f2f00000000000000000000000000000000000000000000000000000000000000145b80613d845750875186518791908110613d4457fe5b90602001015160f860020a900460f860020a02600160f860020a0319167f5c00000000000000000000000000000000000000000000000000000000000000145b80613dd95750875186518791908110613d9957fe5b90602001015160f860020a900460f860020a02600160f860020a0319167f6600000000000000000000000000000000000000000000000000000000000000145b80613e2e5750875186518791908110613dee57fe5b90602001015160f860020a900460f860020a02600160f860020a0319167f7200000000000000000000000000000000000000000000000000000000000000145b80613e835750875186518791908110613e4357fe5b90602001015160f860020a900460f860020a02600160f860020a0319167f6e00000000000000000000000000000000000000000000000000000000000000145b80613ed85750875186518791908110613e9857fe5b90602001015160f860020a900460f860020a02600160f860020a0319167f6200000000000000000000000000000000000000000000000000000000000000145b80613f2d5750875186518791908110613eed57fe5b90602001015160f860020a900460f860020a02600160f860020a0319167f7400000000000000000000000000000000000000000000000000000000000000145b15613f3757613f43565b83885260019450613f57565b87516001018852613bc9565b838852600294505b505050509392505050565b6000806000806000613f726142a4565b88516000955093505b86518951101561413a57885187518891908110613f9457fe5b016020015160f860020a9081900402925060fd60020a600160f860020a031984161480613fea57507f0900000000000000000000000000000000000000000000000000000000000000600160f860020a03198416145b8061401e57507f0a00000000000000000000000000000000000000000000000000000000000000600160f860020a03198416145b8061405257507f0d00000000000000000000000000000000000000000000000000000000000000600160f860020a03198416145b8061408657507f2c00000000000000000000000000000000000000000000000000000000000000600160f860020a03198416145b806140ba57507f7d00000000000000000000000000000000000000000000000000000000000000600160f860020a03198416145b806140ee57507f5d00000000000000000000000000000000000000000000000000000000000000600160f860020a03198416145b156140fc576001945061413a565b602060ff60f860020a850416108061411d5750607f60ff60f860020a850416115b1561412e578389526001955061418d565b88516001018952613f7b565b84151561414d578389526002955061418d565b6141578989613afe565b909250905081151561416f578389526003955061418d565b614180816004868c60000151614199565b8851600019018952600095505b50505050509392505050565b838360048111156141a657fe5b908160048111156141b357fe5b90525060208401919091526001604084018190526060840191909152608083015250600060a090910152565b50805460018160011615610100020316600290046000825580601f106142055750614223565b601f01602090049060005260206000209081019061422391906142fd565b50565b828054600181600116156101000203166002900490600052602060002090601f016020900481019282601f1061426757805160ff1916838001178555614294565b82800160010185558215614294579182015b82811115614294578251825591602001919060010190614279565b506142a09291506142fd565b5090565b6040805160c08101909152806000815260006020820181905260408201819052606082018190526080820181905260a09091015290565b6060604051908101604052806000815260200160008152602001600081525090565b6108e191905b808211156142a0576000815560010161430356004e6f742072656769737465726564206f72206c6f636b65642e000000000000004f7074696f6e206772616e746564206f6e6c7920746f206f776e65722e000000a165627a7a72305820c83474d9c5ea333ee5da2e6013fb3c654848a01aac7bbdaa06a26976a28db57c0029",
  "source": "pragma solidity >=0.4.21 <0.5.0;\n\nimport \"./Utils.sol\";\nimport \"./Base64.sol\";\n\nimport \"./Global.sol\";\nimport \"./Register.sol\";\nimport \"./Authenticate.sol\";\n\n\ncontract Bank {\n\n// ======================================================================================================================== //\n\n// Server;\n\n\tuint _randNonce;\n\t\n\tbytes public _enroll;\n\tbytes public _sign;\n\tbytes public _registeredKey;\n\tbytes public _lastVerified;\n\n\taddress public _owner;\n\n\tuint _limit;\n\n\tbool public _strict;\n\t// if not strict, history;\n\tuint _expire;\n\n\tmapping(address => uint) _txnHistory;\n\n\tbool public _lock;\n\tbool public _registered;\n\tbool public _signed;\n\n\tevent Deposit(address owner, address bank, uint amount);\n\tevent Withdraw(address owner, address bank, uint amount);\n\tevent Transfer(address from, address to, uint amount);\n\tevent Freeze(address owner, address bank);\n\n\tevent RegistrationRequest(address user, string request, string appId);\n\tevent RegistrationComplete(address user, string device, string appId);\n\tevent SignRequest(address user, string request, string appId);\n\tevent SignComplete(address user, string information, string appId);\n\n\tconstructor() public {\n\n\t\t_owner = msg.sender;\n\n\t\t_limit = 10000;\n\t\t_lock = false;\n\t\t_registered = false;\n\t\t_signed = false;\n\n\t\t_strict = true;\n\t\t// _history = false;\n\t\t_expire = 24; // in hours;\n\n\t\t_randNonce = 0;\n\n\t}\n\n\tmodifier onlyOwner {\n\n\t\trequire(msg.sender == _owner, \"Option granted only to owner.\");\n\t\t_;\n\n\t}\n\n\tmodifier checkReady {\n\n\t\trequire(_registered && !_lock, \"Not registered or locked.\");\n\t\t_;\n\n\t}\n\n\tmodifier checkSigned {\n\n\t\trequire(_signed, \"Not signed.\");\n\t\t_;\n\n\t}\n\n\n\tfunction client(string clientData, string appId, uint typ) public view returns (bytes) {\n\t    \n\t    bytes memory challengeParameter;\n\t    \n\t    if (typ == 0) {\n\t        require(_enroll.length > 0, \"No current registration request.\");\n\t        challengeParameter = Global.validateClientData(string(_enroll), string(Base64.fromHex(clientData)), Global.getRegisterType(), appId);\n\t    }\n\t    \n\t    else {\n\t        require(_sign.length > 0, \"No current Authentication request.\");\n\t        challengeParameter = Global.validateClientData(string(_sign), string(Base64.fromHex(clientData)), Global.getSignType(), appId);\n\t    }\n\t    \n\t    return challengeParameter;\n\t    \n\t}\n\t\n\n\tfunction enroll(string appId) public onlyOwner {\n\n\t\tstring memory request = Register.beginRegistration(appId, _randNonce++);\n\t\t_enroll = bytes(request);\n\n\t\temit RegistrationRequest(msg.sender, request, appId);\n\n\t}\n\n\n    // decoded and parsed response with format validation;\n\tfunction bind(string appId, string challengeParameter, string pubKey, string keyHandle, string certKey, string signature) public onlyOwner {\n\n        // require(format, \"Invalid registration data.\");\n        \n\t\trequire(_enroll.length > 0, \"No current registration request.\");\n\t\t\n\t\t// decodedClientData = string(Base64.fromHex(decodedClientData));\n\t\t\n\t\t// bytes memory cert;\n\t\tbytes memory device = Register.completeRegistration(Base64.fromHex(challengeParameter), pubKey, keyHandle, certKey, signature, appId);\n\n\t\tdelete _enroll;\n\t\t\n\t\t_registeredKey = device;\n\n\t\t_registered = true;\n\t\t\n\t\temit RegistrationComplete(msg.sender, string(device), appId);\n\n\t}\n\n\tfunction sign(string appId) public onlyOwner {\n\n\t\trequire(_registeredKey.length > 0, \"No registered key.\");\n\n\t\t// Might include algorithms for finding a key with the correct version;\n\t\tstring memory request = Authenticate.beginAuthentication(appId, _registeredKey, _randNonce++);\n\n\t\t_sign = bytes(request);\n\n\t\temit SignRequest(msg.sender, request, appId);\n\n\t}\n\n    // decoded and parsed signature data;\n\tfunction verify(string appId, string challengeParameter, string decodedSignatureData, string keyHandle) public onlyOwner {\n\n\t\trequire(_sign.length > 0, \"No current registration request.\");\n\t\t\n\t\t// decodedClientData = string(Base64.fromHex(decodedClientData));\n\t\t\n\t\t// bytes memory challengeParameter = Global.validateClientData(string(_users[msg.sender].sign), decodedClientData, Global.getSignType(), appId);\n\t\t\n\n\t\tbytes memory message;\n\n\t\tmessage = Authenticate.completeAuthentication(_sign, Base64.fromHex(challengeParameter), decodedSignatureData, keyHandle, appId);\n\n\t\tdelete _sign;\n\n\t\t_lastVerified = message;\n\n\t\t_signed = true;\n\t\t\n\t\temit SignComplete(msg.sender, string(message), appId);\n\n\t}\n\n// ======================================================================================================================== //\n\n\tfunction setLimit(uint limit) public onlyOwner {\n\n\t\t_limit = limit;\n\n\t}\n\n\tfunction setU2FPolicy(bool strict, uint expire) public onlyOwner checkReady {\n\n\t\trequire(_signed, \"Authentication required.\");\n\t\t_signed = false;\n\n\t\t_strict = strict;\n\t\t_expire = expire;\n\n\t}\n\n\n\tfunction lockBank() public onlyOwner checkSigned {\n\n\t\t_lock = true;\n\t\t_signed = false;\n\n\t}\n\n\tfunction unlockBank() public onlyOwner checkSigned {\n\n\t\t_lock = false;\n\t\t_signed = false;\n\n\t}\n\n\t// Get balance;\n\tfunction getBalance() public view onlyOwner returns (uint) {\n\n\t\treturn address(this).balance;\n\n\t}\n\n\t// Get address;\n\tfunction getAddr() public view onlyOwner returns (address) {\n\n\t\treturn address(this);\n\n\t}\n\n\tfunction clearSign() public onlyOwner {\n\n\t\t_signed = false;\n\n\t}\n\n\t// FUNCTIONS;\n\n\t// Deposit;\n\tfunction deposit(uint amount) public payable onlyOwner checkReady {\n\n\t\trequire(msg.value == amount, \"Wrong deposit amount.\");\n\n\t\temit Deposit(msg.sender, address(this), amount);\n\n\t}\n\n\t// Withdraw;\n\tfunction withdraw(uint amount) public payable onlyOwner checkReady {\n\n\t\trequire(amount > 0, \"Withdraw amount should be positive.\");\n\t\trequire(amount <= address(this).balance, \"Not enough balance.\");\n\n\t\tif (amount > _limit && _strict) {\n\t\t\trequire(_signed, \"Authentication required.\");\n\t\t\t_signed = false;\n\t\t}\n\n\t\tmsg.sender.transfer(amount);\n\t\temit Withdraw(msg.sender, address(this), amount);\n\n\t}\n\n\t// Transfer;\n\tfunction transferViaBank(address to, uint amount) public payable onlyOwner checkReady {\n\n\t\trequire(amount <= address(this).balance, \"Not enough balance.\");\n\n\t\tif (amount > _limit) {\n\t\t\tif (_strict || _txnHistory[to] == 0 || now >= _txnHistory[to] + _expire * 1 hours) {\n\t\t\t\trequire(_signed, \"Authentication required.\");\n\t\t\t\t_signed = false;\n\t\t\t\t_txnHistory[to] = now;\n\t\t\t}\n\t\t}\n\n\t\tto.transfer(amount);\n\n\t}\n\n\n}",
  "sourcePath": "/home/chxw/Desktop/worksite/develop/u2f-ethereum/contracts/Bank.sol",
  "compiler": {
    "name": "solc",
    "version": "0.4.24+commit.e67f0147.Emscripten.clang"
  },
  "schemaVersion": "3.0.5",
  "updatedAt": "2019-05-16T05:00:48.299Z",
  "devdoc": {
    "methods": {}
  },
  "userdoc": {
    "methods": {}
  }
}