{
  "contractName": "Bank",
  "abi": [
    {
      "constant": true,
      "inputs": [],
      "name": "_lock",
      "outputs": [
        {
          "name": "",
          "type": "bool"
        }
      ],
      "payable": false,
      "stateMutability": "view",
      "type": "function",
      "signature": "0x4bd724ed"
    },
    {
      "constant": true,
      "inputs": [],
      "name": "_signed",
      "outputs": [
        {
          "name": "",
          "type": "bool"
        }
      ],
      "payable": false,
      "stateMutability": "view",
      "type": "function",
      "signature": "0x504f3deb"
    },
    {
      "constant": true,
      "inputs": [],
      "name": "_registeredKey",
      "outputs": [
        {
          "name": "",
          "type": "bytes"
        }
      ],
      "payable": false,
      "stateMutability": "view",
      "type": "function",
      "signature": "0x61ef86cd"
    },
    {
      "constant": true,
      "inputs": [],
      "name": "_registered",
      "outputs": [
        {
          "name": "",
          "type": "bool"
        }
      ],
      "payable": false,
      "stateMutability": "view",
      "type": "function",
      "signature": "0x83095e3e"
    },
    {
      "constant": true,
      "inputs": [],
      "name": "_enroll",
      "outputs": [
        {
          "name": "",
          "type": "bytes"
        }
      ],
      "payable": false,
      "stateMutability": "view",
      "type": "function",
      "signature": "0x945ca65b"
    },
    {
      "constant": true,
      "inputs": [],
      "name": "_lastVerified",
      "outputs": [
        {
          "name": "",
          "type": "bytes"
        }
      ],
      "payable": false,
      "stateMutability": "view",
      "type": "function",
      "signature": "0xa5bb969d"
    },
    {
      "constant": true,
      "inputs": [],
      "name": "_owner",
      "outputs": [
        {
          "name": "",
          "type": "address"
        }
      ],
      "payable": false,
      "stateMutability": "view",
      "type": "function",
      "signature": "0xb2bdfa7b"
    },
    {
      "constant": true,
      "inputs": [],
      "name": "_sign",
      "outputs": [
        {
          "name": "",
          "type": "bytes"
        }
      ],
      "payable": false,
      "stateMutability": "view",
      "type": "function",
      "signature": "0xf759e547"
    },
    {
      "inputs": [],
      "payable": false,
      "stateMutability": "nonpayable",
      "type": "constructor",
      "signature": "constructor"
    },
    {
      "anonymous": false,
      "inputs": [
        {
          "indexed": false,
          "name": "owner",
          "type": "address"
        },
        {
          "indexed": false,
          "name": "bank",
          "type": "address"
        },
        {
          "indexed": false,
          "name": "amount",
          "type": "uint256"
        }
      ],
      "name": "Deposit",
      "type": "event",
      "signature": "0x5548c837ab068cf56a2c2479df0882a4922fd203edb7517321831d95078c5f62"
    },
    {
      "anonymous": false,
      "inputs": [
        {
          "indexed": false,
          "name": "owner",
          "type": "address"
        },
        {
          "indexed": false,
          "name": "bank",
          "type": "address"
        },
        {
          "indexed": false,
          "name": "amount",
          "type": "uint256"
        }
      ],
      "name": "Withdraw",
      "type": "event",
      "signature": "0x9b1bfa7fa9ee420a16e124f794c35ac9f90472acc99140eb2f6447c714cad8eb"
    },
    {
      "anonymous": false,
      "inputs": [
        {
          "indexed": false,
          "name": "from",
          "type": "address"
        },
        {
          "indexed": false,
          "name": "to",
          "type": "address"
        },
        {
          "indexed": false,
          "name": "amount",
          "type": "uint256"
        }
      ],
      "name": "Transfer",
      "type": "event",
      "signature": "0xddf252ad1be2c89b69c2b068fc378daa952ba7f163c4a11628f55a4df523b3ef"
    },
    {
      "anonymous": false,
      "inputs": [
        {
          "indexed": false,
          "name": "owner",
          "type": "address"
        },
        {
          "indexed": false,
          "name": "bank",
          "type": "address"
        }
      ],
      "name": "Freeze",
      "type": "event",
      "signature": "0x51d18786e9cb144f87d46e7b796309ea84c7c687d91e09c97f051eacf59bc528"
    },
    {
      "anonymous": false,
      "inputs": [
        {
          "indexed": false,
          "name": "user",
          "type": "address"
        },
        {
          "indexed": false,
          "name": "request",
          "type": "string"
        },
        {
          "indexed": false,
          "name": "appId",
          "type": "string"
        }
      ],
      "name": "RegistrationRequest",
      "type": "event",
      "signature": "0x1cefe4453e9ec198729183687f6e99ed38995a433c3e3070cfcc7dfad77055b4"
    },
    {
      "anonymous": false,
      "inputs": [
        {
          "indexed": false,
          "name": "user",
          "type": "address"
        },
        {
          "indexed": false,
          "name": "device",
          "type": "string"
        },
        {
          "indexed": false,
          "name": "appId",
          "type": "string"
        }
      ],
      "name": "RegistrationComplete",
      "type": "event",
      "signature": "0xe8461f495cb4293de7658c3cb856de2f1c9b6e3cd46d865a64e205e22eb4c535"
    },
    {
      "anonymous": false,
      "inputs": [
        {
          "indexed": false,
          "name": "user",
          "type": "address"
        },
        {
          "indexed": false,
          "name": "request",
          "type": "string"
        },
        {
          "indexed": false,
          "name": "appId",
          "type": "string"
        }
      ],
      "name": "SignRequest",
      "type": "event",
      "signature": "0xd73e437175cd7a018e2398c622fddbc388b661efc2dbb45407b27a2a70f7cda8"
    },
    {
      "anonymous": false,
      "inputs": [
        {
          "indexed": false,
          "name": "user",
          "type": "address"
        },
        {
          "indexed": false,
          "name": "information",
          "type": "string"
        },
        {
          "indexed": false,
          "name": "appId",
          "type": "string"
        }
      ],
      "name": "SignComplete",
      "type": "event",
      "signature": "0xc4b916698af61452f078afbfdcf971767a64792536944b074201d595ad8e2c47"
    },
    {
      "constant": true,
      "inputs": [
        {
          "name": "clientData",
          "type": "string"
        },
        {
          "name": "appId",
          "type": "string"
        },
        {
          "name": "typ",
          "type": "uint256"
        }
      ],
      "name": "client",
      "outputs": [
        {
          "name": "",
          "type": "bytes"
        }
      ],
      "payable": false,
      "stateMutability": "view",
      "type": "function",
      "signature": "0x48c9be48"
    },
    {
      "constant": false,
      "inputs": [
        {
          "name": "appId",
          "type": "string"
        }
      ],
      "name": "enroll",
      "outputs": [],
      "payable": false,
      "stateMutability": "nonpayable",
      "type": "function",
      "signature": "0x67b09cdb"
    },
    {
      "constant": false,
      "inputs": [
        {
          "name": "appId",
          "type": "string"
        },
        {
          "name": "challengeParameter",
          "type": "string"
        },
        {
          "name": "pubKey",
          "type": "string"
        },
        {
          "name": "keyHandle",
          "type": "string"
        },
        {
          "name": "certKey",
          "type": "string"
        },
        {
          "name": "signature",
          "type": "string"
        }
      ],
      "name": "bind",
      "outputs": [],
      "payable": false,
      "stateMutability": "nonpayable",
      "type": "function",
      "signature": "0xfb6bf622"
    },
    {
      "constant": false,
      "inputs": [
        {
          "name": "appId",
          "type": "string"
        }
      ],
      "name": "sign",
      "outputs": [],
      "payable": false,
      "stateMutability": "nonpayable",
      "type": "function",
      "signature": "0x79d6348d"
    },
    {
      "constant": false,
      "inputs": [
        {
          "name": "appId",
          "type": "string"
        },
        {
          "name": "challengeParameter",
          "type": "string"
        },
        {
          "name": "decodedSignatureData",
          "type": "string"
        },
        {
          "name": "keyHandle",
          "type": "string"
        }
      ],
      "name": "verify",
      "outputs": [],
      "payable": false,
      "stateMutability": "nonpayable",
      "type": "function",
      "signature": "0x1ede74c3"
    },
    {
      "constant": false,
      "inputs": [
        {
          "name": "limit",
          "type": "uint256"
        }
      ],
      "name": "setLimit",
      "outputs": [],
      "payable": false,
      "stateMutability": "nonpayable",
      "type": "function",
      "signature": "0x27ea6f2b"
    },
    {
      "constant": false,
      "inputs": [],
      "name": "lockBank",
      "outputs": [],
      "payable": false,
      "stateMutability": "nonpayable",
      "type": "function",
      "signature": "0xc19593a1"
    },
    {
      "constant": false,
      "inputs": [],
      "name": "unlockBank",
      "outputs": [],
      "payable": false,
      "stateMutability": "nonpayable",
      "type": "function",
      "signature": "0xcd7ac569"
    },
    {
      "constant": true,
      "inputs": [],
      "name": "getBalance",
      "outputs": [
        {
          "name": "",
          "type": "uint256"
        }
      ],
      "payable": false,
      "stateMutability": "view",
      "type": "function",
      "signature": "0x12065fe0"
    },
    {
      "constant": true,
      "inputs": [],
      "name": "getAddr",
      "outputs": [
        {
          "name": "",
          "type": "address"
        }
      ],
      "payable": false,
      "stateMutability": "view",
      "type": "function",
      "signature": "0xa74c2bb6"
    },
    {
      "constant": false,
      "inputs": [],
      "name": "clearSign",
      "outputs": [],
      "payable": false,
      "stateMutability": "nonpayable",
      "type": "function",
      "signature": "0x237d41f4"
    },
    {
      "constant": false,
      "inputs": [
        {
          "name": "amount",
          "type": "uint256"
        }
      ],
      "name": "deposit",
      "outputs": [],
      "payable": true,
      "stateMutability": "payable",
      "type": "function",
      "signature": "0xb6b55f25"
    },
    {
      "constant": false,
      "inputs": [
        {
          "name": "amount",
          "type": "uint256"
        }
      ],
      "name": "withdraw",
      "outputs": [],
      "payable": true,
      "stateMutability": "payable",
      "type": "function",
      "signature": "0x2e1a7d4d"
    },
    {
      "constant": false,
      "inputs": [
        {
          "name": "to",
          "type": "address"
        },
        {
          "name": "amount",
          "type": "uint256"
        }
      ],
      "name": "transferViaBank",
      "outputs": [],
      "payable": true,
      "stateMutability": "payable",
      "type": "function",
      "signature": "0x35fb1af8"
    }
  ],
  "bytecode": "0x608060405234801561001057600080fd5b5060058054600160a060020a031916331790556127106006556007805462ffffff1916905560008055614148806100486000396000f30060806040526004361061010e5763ffffffff60e060020a60003504166312065fe081146101135780631ede74c31461013a578063237d41f41461024f57806327ea6f2b146102645780632e1a7d4d1461027c57806335fb1af81461028757806348c9be481461029e5780634bd724ed146103ac578063504f3deb146103d557806361ef86cd146103ea57806367b09cdb146103ff57806379d6348d1461045857806383095e3e146104b1578063945ca65b146104c6578063a5bb969d146104db578063a74c2bb6146104f0578063b2bdfa7b14610521578063b6b55f2514610536578063c19593a114610541578063cd7ac56914610556578063f759e5471461056b578063fb6bf62214610580575b600080fd5b34801561011f57600080fd5b5061012861070f565b60408051918252519081900360200190f35b34801561014657600080fd5b506040805160206004803580820135601f810184900484028501840190955284845261024d94369492936024939284019190819084018382808284375050604080516020601f89358b018035918201839004830284018301909452808352979a99988101979196509182019450925082915084018382808284375050604080516020601f89358b018035918201839004830284018301909452808352979a99988101979196509182019450925082915084018382808284375050604080516020601f89358b018035918201839004830284018301909452808352979a9998810197919650918201945092508291508401838280828437509497506107699650505050505050565b005b34801561025b57600080fd5b5061024d610c77565b34801561027057600080fd5b5061024d600435610cd5565b61024d600435610d2a565b61024d600160a060020a0360043516602435610faa565b3480156102aa57600080fd5b506040805160206004803580820135601f810184900484028501840190955284845261033794369492936024939284019190819084018382808284375050604080516020601f89358b018035918201839004830284018301909452808352979a99988101979196509182019450925082915084018382808284375094975050933594506111779350505050565b6040805160208082528351818301528351919283929083019185019080838360005b83811015610371578181015183820152602001610359565b50505050905090810190601f16801561039e5780820380516001836020036101000a031916815260200191505b509250505060405180910390f35b3480156103b857600080fd5b506103c16113e0565b604080519115158252519081900360200190f35b3480156103e157600080fd5b506103c16113e9565b3480156103f657600080fd5b506103376113f8565b34801561040b57600080fd5b506040805160206004803580820135601f810184900484028501840190955284845261024d9436949293602493928401919081908401838280828437509497506114869650505050505050565b34801561046457600080fd5b506040805160206004803580820135601f810184900484028501840190955284845261024d9436949293602493928401919081908401838280828437509497506117609650505050505050565b3480156104bd57600080fd5b506103c1611a84565b3480156104d257600080fd5b50610337611a92565b3480156104e757600080fd5b50610337611aec565b3480156104fc57600080fd5b50610505611b47565b60408051600160a060020a039092168252519081900360200190f35b34801561052d57600080fd5b50610505611b9f565b61024d600435611bae565b34801561054d57600080fd5b5061024d611cbc565b34801561056257600080fd5b5061024d611d85565b34801561057757600080fd5b50610337611e45565b34801561058c57600080fd5b506040805160206004803580820135601f810184900484028501840190955284845261024d94369492936024939284019190819084018382808284375050604080516020601f89358b018035918201839004830284018301909452808352979a99988101979196509182019450925082915084018382808284375050604080516020601f89358b018035918201839004830284018301909452808352979a99988101979196509182019450925082915084018382808284375050604080516020601f89358b018035918201839004830284018301909452808352979a99988101979196509182019450925082915084018382808284375050604080516020601f89358b018035918201839004830284018301909452808352979a99988101979196509182019450925082915084018382808284375050604080516020601f89358b018035918201839004830284018301909452808352979a999881019791965091820194509250829150840183828082843750949750611e9d9650505050505050565b600554600090600160a060020a03163314610762576040805160e560020a62461bcd02815260206004820152601d60248201526000805160206140fd833981519152604482015290519081900360640190fd5b5030315b90565b600554606090600160a060020a031633146107bc576040805160e560020a62461bcd02815260206004820152601d60248201526000805160206140fd833981519152604482015290519081900360640190fd5b60028054600060001961010060018416150201909116919091041161082b576040805160e560020a62461bcd02815260206004820181905260248201527f4e6f2063757272656e7420726567697374726174696f6e20726571756573742e604482015290519081900360640190fd5b73__Authenticate__________________________63b90fdda66002610850876123f6565b60405160e060020a63ffffffff851602815260a06004820190815283546002600019610100600184161502019091160460a48301819052899289928d9290918291602482019160448101916064820191608481019160c4909101908c9080156108fa5780601f106108cf576101008083540402835291602001916108fa565b820191906000526020600020905b8154815290600101906020018083116108dd57829003601f168201915b505086810385528a5181528a516020918201918c019080838360005b8381101561092e578181015183820152602001610916565b50505050905090810190601f16801561095b5780820380516001836020036101000a031916815260200191505b5086810384528951815289516020918201918b019080838360005b8381101561098e578181015183820152602001610976565b50505050905090810190601f1680156109bb5780820380516001836020036101000a031916815260200191505b5086810383528851815288516020918201918a019080838360005b838110156109ee5781810151838201526020016109d6565b50505050905090810190601f168015610a1b5780820380516001836020036101000a031916815260200191505b50868103825287518152875160209182019189019080838360005b83811015610a4e578181015183820152602001610a36565b50505050905090810190601f168015610a7b5780820380516001836020036101000a031916815260200191505b509a505050505050505050505060006040518083038186803b158015610aa057600080fd5b505af4158015610ab4573d6000803e3d6000fd5b505050506040513d6000823e601f3d908101601f191682016040526020811015610add57600080fd5b810190808051640100000000811115610af557600080fd5b82016020810184811115610b0857600080fd5b8151640100000000811182820187101715610b2257600080fd5b5050929190505050905060026000610b3a9190613fc4565b8051610b4d90600490602084019061400b565b506007805462ff000019166201000017905560408051338082526060602080840182815286519285019290925285517fc4b916698af61452f078afbfdcf971767a64792536944b074201d595ad8e2c4795939487948c94919391929084019160808501919087019080838360005b83811015610bd3578181015183820152602001610bbb565b50505050905090810190601f168015610c005780820380516001836020036101000a031916815260200191505b50838103825284518152845160209182019186019080838360005b83811015610c33578181015183820152602001610c1b565b50505050905090810190601f168015610c605780820380516001836020036101000a031916815260200191505b509550505050505060405180910390a15050505050565b600554600160a060020a03163314610cc7576040805160e560020a62461bcd02815260206004820152601d60248201526000805160206140fd833981519152604482015290519081900360640190fd5b6007805462ff000019169055565b600554600160a060020a03163314610d25576040805160e560020a62461bcd02815260206004820152601d60248201526000805160206140fd833981519152604482015290519081900360640190fd5b600655565b600554600160a060020a03163314610d7a576040805160e560020a62461bcd02815260206004820152601d60248201526000805160206140fd833981519152604482015290519081900360640190fd5b600754610100900460ff168015610d94575060075460ff16155b1515610dea576040805160e560020a62461bcd02815260206004820152601960248201527f4e6f742072656769737465726564206f72206c6f636b65642e00000000000000604482015290519081900360640190fd5b60008111610e68576040805160e560020a62461bcd02815260206004820152602360248201527f576974686472617720616d6f756e742073686f756c6420626520706f7369746960448201527f76652e0000000000000000000000000000000000000000000000000000000000606482015290519081900360840190fd5b3031811115610ec1576040805160e560020a62461bcd02815260206004820152601360248201527f4e6f7420656e6f7567682062616c616e63652e00000000000000000000000000604482015290519081900360640190fd5b600654811115610f3a5760075462010000900460ff161515610f2d576040805160e560020a62461bcd02815260206004820152601860248201527f41757468656e7469636174696f6e2072657175697265642e0000000000000000604482015290519081900360640190fd5b6007805462ff0000191690555b604051339082156108fc029083906000818181858888f19350505050158015610f67573d6000803e3d6000fd5b506040805133815230602082015280820183905290517f9b1bfa7fa9ee420a16e124f794c35ac9f90472acc99140eb2f6447c714cad8eb9181900360600190a150565b600554600160a060020a03163314610ffa576040805160e560020a62461bcd02815260206004820152601d60248201526000805160206140fd833981519152604482015290519081900360640190fd5b600754610100900460ff168015611014575060075460ff16155b151561106a576040805160e560020a62461bcd02815260206004820152601960248201527f4e6f742072656769737465726564206f72206c6f636b65642e00000000000000604482015290519081900360640190fd5b30318111156110c3576040805160e560020a62461bcd02815260206004820152601360248201527f4e6f7420656e6f7567682062616c616e63652e00000000000000000000000000604482015290519081900360640190fd5b60065481111561113c5760075462010000900460ff16151561112f576040805160e560020a62461bcd02815260206004820152601860248201527f41757468656e7469636174696f6e2072657175697265642e0000000000000000604482015290519081900360640190fd5b6007805462ff0000191690555b604051600160a060020a0383169082156108fc029083906000818181858888f19350505050158015611172573d6000803e3d6000fd5b505050565b6060808215156112a057600060018054600181600116156101000203166002900490501115156111f1576040805160e560020a62461bcd02815260206004820181905260248201527f4e6f2063757272656e7420726567697374726174696f6e20726571756573742e604482015290519081900360640190fd5b60018054604080516020601f600260001961010087891615020190951694909404938401819004810282018101909252828152611299939092909183018282801561127d5780601f106112525761010080835404028352916020019161127d565b820191906000526020600020905b81548152906001019060200180831161126057829003601f168201915b505050505061128b876123f6565b6112936124d8565b8761250f565b90506113d8565b600280546000600019610100600184161502019091169190910411611335576040805160e560020a62461bcd02815260206004820152602260248201527f4e6f2063757272656e742041757468656e7469636174696f6e2072657175657360448201527f742e000000000000000000000000000000000000000000000000000000000000606482015290519081900360840190fd5b60028054604080516020601f600019610100600187161502019094168590049384018190048102820181019092528281526113d593909290918301828280156113bf5780601f10611394576101008083540402835291602001916113bf565b820191906000526020600020905b8154815290600101906020018083116113a257829003601f168201915b50505050506113cd876123f6565b6112936129f6565b90505b949350505050565b60075460ff1681565b60075462010000900460ff1681565b6003805460408051602060026001851615610100026000190190941693909304601f8101849004840282018401909252818152929183018282801561147e5780601f106114535761010080835404028352916020019161147e565b820191906000526020600020905b81548152906001019060200180831161146157829003601f168201915b505050505081565b600554606090600160a060020a031633146114d9576040805160e560020a62461bcd02815260206004820152601d60248201526000805160206140fd833981519152604482015290519081900360640190fd5b73__Register______________________________63c55c724383600080815480929190600101919050556040518363ffffffff1660e060020a0281526004018080602001838152602001828103825284818151815260200191508051906020019080838360005b83811015611559578181015183820152602001611541565b50505050905090810190601f1680156115865780820380516001836020036101000a031916815260200191505b50935050505060006040518083038186803b1580156115a457600080fd5b505af41580156115b8573d6000803e3d6000fd5b505050506040513d6000823e601f3d908101601f1916820160405260208110156115e157600080fd5b8101908080516401000000008111156115f957600080fd5b8201602081018481111561160c57600080fd5b815164010000000081118282018710171561162657600080fd5b5050805190945061164193506001925060208501915061400b565b507f1cefe4453e9ec198729183687f6e99ed38995a433c3e3070cfcc7dfad77055b43382846040518084600160a060020a0316600160a060020a031681526020018060200180602001838103835285818151815260200191508051906020019080838360005b838110156116bf5781810151838201526020016116a7565b50505050905090810190601f1680156116ec5780820380516001836020036101000a031916815260200191505b50838103825284518152845160209182019186019080838360005b8381101561171f578181015183820152602001611707565b50505050905090810190601f16801561174c5780820380516001836020036101000a031916815260200191505b509550505050505060405180910390a15050565b600554606090600160a060020a031633146117b3576040805160e560020a62461bcd02815260206004820152601d60248201526000805160206140fd833981519152604482015290519081900360640190fd5b60035460006002600019610100600185161502019092169190910411611823576040805160e560020a62461bcd02815260206004820152601260248201527f4e6f2072656769737465726564206b65792e0000000000000000000000000000604482015290519081900360640190fd5b73__Authenticate__________________________6366138f97836003600080815480929190600101919050556040518463ffffffff1660e060020a028152600401808060200180602001848152602001838103835286818151815260200191508051906020019080838360005b838110156118a9578181015183820152602001611891565b50505050905090810190601f1680156118d65780820380516001836020036101000a031916815260200191505b508381038252855460026000196101006001841615020190911604808252602090910190869080156119495780601f1061191e57610100808354040283529160200191611949565b820191906000526020600020905b81548152906001019060200180831161192c57829003601f168201915b50509550505050505060006040518083038186803b15801561196a57600080fd5b505af415801561197e573d6000803e3d6000fd5b505050506040513d6000823e601f3d908101601f1916820160405260208110156119a757600080fd5b8101908080516401000000008111156119bf57600080fd5b820160208101848111156119d257600080fd5b81516401000000008111828201871017156119ec57600080fd5b50508051909450611a0793506002925060208501915061400b565b507fd73e437175cd7a018e2398c622fddbc388b661efc2dbb45407b27a2a70f7cda83382846040518084600160a060020a0316600160a060020a03168152602001806020018060200183810383528581815181526020019150805190602001908083836000838110156116bf5781810151838201526020016116a7565b600754610100900460ff1681565b60018054604080516020600284861615610100026000190190941693909304601f8101849004840282018401909252818152929183018282801561147e5780601f106114535761010080835404028352916020019161147e565b6004805460408051602060026001851615610100026000190190941693909304601f8101849004840282018401909252818152929183018282801561147e5780601f106114535761010080835404028352916020019161147e565b600554600090600160a060020a03163314611b9a576040805160e560020a62461bcd02815260206004820152601d60248201526000805160206140fd833981519152604482015290519081900360640190fd5b503090565b600554600160a060020a031681565b600554600160a060020a03163314611bfe576040805160e560020a62461bcd02815260206004820152601d60248201526000805160206140fd833981519152604482015290519081900360640190fd5b600754610100900460ff168015611c18575060075460ff16155b1515611c6e576040805160e560020a62461bcd02815260206004820152601960248201527f4e6f742072656769737465726564206f72206c6f636b65642e00000000000000604482015290519081900360640190fd5b348114611c7a57600080fd5b6040805133815230602082015280820183905290517f5548c837ab068cf56a2c2479df0882a4922fd203edb7517321831d95078c5f629181900360600190a150565b600554600160a060020a03163314611d0c576040805160e560020a62461bcd02815260206004820152601d60248201526000805160206140fd833981519152604482015290519081900360640190fd5b60075462010000900460ff161515611d6e576040805160e560020a62461bcd02815260206004820152600b60248201527f4e6f74207369676e65642e000000000000000000000000000000000000000000604482015290519081900360640190fd5b6007805462ff00001960ff19909116600117169055565b600554600160a060020a03163314611dd5576040805160e560020a62461bcd02815260206004820152601d60248201526000805160206140fd833981519152604482015290519081900360640190fd5b60075462010000900460ff161515611e37576040805160e560020a62461bcd02815260206004820152600b60248201527f4e6f74207369676e65642e000000000000000000000000000000000000000000604482015290519081900360640190fd5b6007805462ff00ff19169055565b6002805460408051602060018416156101000260001901909316849004601f8101849004840282018401909252818152929183018282801561147e5780601f106114535761010080835404028352916020019161147e565b600554606090600160a060020a03163314611ef0576040805160e560020a62461bcd02815260206004820152601d60248201526000805160206140fd833981519152604482015290519081900360640190fd5b60006001805460018160011615610100020316600290049050111515611f60576040805160e560020a62461bcd02815260206004820181905260248201527f4e6f2063757272656e7420726567697374726174696f6e20726571756573742e604482015290519081900360640190fd5b73__Register______________________________63c8bf169e611f83886123f6565b878787878d6040518763ffffffff1660e060020a0281526004018080602001806020018060200180602001806020018060200187810387528d818151815260200191508051906020019080838360005b83811015611feb578181015183820152602001611fd3565b50505050905090810190601f1680156120185780820380516001836020036101000a031916815260200191505b5087810386528c5181528c516020918201918e019080838360005b8381101561204b578181015183820152602001612033565b50505050905090810190601f1680156120785780820380516001836020036101000a031916815260200191505b5087810385528b5181528b516020918201918d019080838360005b838110156120ab578181015183820152602001612093565b50505050905090810190601f1680156120d85780820380516001836020036101000a031916815260200191505b5087810384528a5181528a516020918201918c019080838360005b8381101561210b5781810151838201526020016120f3565b50505050905090810190601f1680156121385780820380516001836020036101000a031916815260200191505b5087810383528951815289516020918201918b019080838360005b8381101561216b578181015183820152602001612153565b50505050905090810190601f1680156121985780820380516001836020036101000a031916815260200191505b5087810382528851815288516020918201918a019080838360005b838110156121cb5781810151838201526020016121b3565b50505050905090810190601f1680156121f85780820380516001836020036101000a031916815260200191505b509c5050505050505050505050505060006040518083038186803b15801561221f57600080fd5b505af4158015612233573d6000803e3d6000fd5b505050506040513d6000823e601f3d908101601f19168201604052602081101561225c57600080fd5b81019080805164010000000081111561227457600080fd5b8201602081018481111561228757600080fd5b81516401000000008111828201871017156122a157600080fd5b50509291905050509050600160006122b99190613fc4565b80516122cc90600390602084019061400b565b506007805461ff00191661010017905560408051338082526060602080840182815286519285019290925285517fe8461f495cb4293de7658c3cb856de2f1c9b6e3cd46d865a64e205e22eb4c53595939487948e94919391929084019160808501919087019080838360005b83811015612350578181015183820152602001612338565b50505050905090810190601f16801561237d5780820380516001836020036101000a031916815260200191505b50838103825284518152845160209182019186019080838360005b838110156123b0578181015183820152602001612398565b50505050905090810190601f1680156123dd5780820380516001836020036101000a031916815260200191505b509550505050505060405180910390a150505050505050565b8051606090829082906000906001161561240f57600080fd5b8251600290046040519080825280601f01601f191660200182016040528015612442578160200160208202803883390190505b509150600090505b8251600290048110156124d057612484838260020260010181518110151561246e57fe5b016020015160f860020a90819004810204612a2d565b612498848360020281518110151561246e57fe5b6010020160f860020a0282828151811015156124b057fe5b906020010190600160f860020a031916908160001a90535060010161244a565b509392505050565b60408051808201909152601d81527f6e6176696761746f722e69642e66696e697368456e726f6c6c6d656e74000000602082015290565b6060806060846040518082805190602001908083835b602083106125445780518252601f199092019160209182019101612525565b51815160209384036101000a600019018019909216911617905260408051929094018290038220828501909452600382527f7479700000000000000000000000000000000000000000000000000000000000908201529193506125b292508990506125ad612bb0565b612bb5565b6040518082805190602001908083835b602083106125e15780518252601f1990920191602091820191016125c2565b6001836020036101000a038019825116818451168082178552505050505050905001915050604051809103902060001916141515612669576040805160e560020a62461bcd02815260206004820152600b60248201527f57726f6e6720747970652e000000000000000000000000000000000000000000604482015290519081900360640190fd5b6126ab6040805190810160405280600981526020017f6368616c6c656e67650000000000000000000000000000000000000000000000815250886125ad612bb0565b91506126ef6040805190810160405280600981526020017f6368616c6c656e67650000000000000000000000000000000000000000000000815250876125ad612bb0565b9050806040518082805190602001908083835b602083106127215780518252601f199092019160209182019101612702565b51815160209384036101000a6000190180199092169116179052604051919093018190038120875190955087945090928392508401908083835b6020831061277a5780518252601f19909201916020918201910161275b565b6001836020036101000a038019825116818451168082178552505050505050905001915050604051809103902060001916141515612802576040805160e560020a62461bcd02815260206004820152601060248201527f57726f6e67206368616c6c656e67652e00000000000000000000000000000000604482015290519081900360640190fd5b83511561295957836040518082805190602001908083835b602083106128395780518252601f19909201916020918201910161281a565b51815160209384036101000a600019018019909216911617905260408051929094018290038220828501909452600682527f6f726967696e0000000000000000000000000000000000000000000000000000908201529193506128a292508990506125ad612bb0565b6040518082805190602001908083835b602083106128d15780518252601f1990920191602091820191016128b2565b6001836020036101000a038019825116818451168082178552505050505050905001915050604051809103902060001916141515612959576040805160e560020a62461bcd02815260206004820152600e60248201527f496e76616c69642066616365742e000000000000000000000000000000000000604482015290519081900360640190fd5b6129eb6002876040518082805190602001908083835b6020831061298e5780518252601f19909201916020918201910161296f565b51815160209384036101000a600019018019909216911617905260405191909301945091925050808303816000865af11580156129cf573d6000803e3d6000fd5b5050506040513d60208110156129e457600080fd5b5051612df0565b979650505050505050565b60408051808201909152601981527f6e6176696761746f722e69642e676574417373657274696f6e00000000000000602082015290565b60007f300000000000000000000000000000000000000000000000000000000000000060f860020a8302600160f860020a03191610801590612a9f57507f390000000000000000000000000000000000000000000000000000000000000060f860020a8302600160f860020a03191611155b15612aaf5750602f198101612bab565b7f610000000000000000000000000000000000000000000000000000000000000060f860020a8302600160f860020a03191610801590612b1f57507f660000000000000000000000000000000000000000000000000000000000000060f860020a8302600160f860020a03191611155b15612b2f57506056198101612bab565b7f410000000000000000000000000000000000000000000000000000000000000060f860020a8302600160f860020a03191610801590612b9f57507f460000000000000000000000000000000000000000000000000000000000000060f860020a8302600160f860020a03191611155b15612bab575060361981015b919050565b600b90565b60606000806060612bc4614089565b60606000612bd28989612e9b565b91975090955093508515612c56576040805160e560020a62461bcd02815260206004820152602260248201527f4a534f4e20706172736572206e6f742070726f7065726c792072657475726e6560448201527f642e000000000000000000000000000000000000000000000000000000000000606482015290519081900360840190fd5b5060005b84811015612d93578381815181101515612c7057fe5b906020019060200201519250612c8f89846020015185606001516137c3565b9150816040518082805190602001908083835b60208310612cc15780518252601f199092019160209182019101612ca2565b51815160209384036101000a60001901801990921691161790526040519190930181900381208f519095508f945090928392508401908083835b60208310612d1a5780518252601f199092019160209182019101612cfb565b6001836020036101000a0380198251168184511680821785525050505050509050019150506040518091039020600019161415612d8b578381600101815181101515612d6257fe5b906020019060200201519250612d8189846020015185606001516137c3565b9150819650612de3565b600101612c5a565b6040805160e560020a62461bcd02815260206004820152601060248201527f4669656c64206e6f7420666f756e642e00000000000000000000000000000000604482015290519081900360640190fd5b5050505050509392505050565b60408051602080825281830190925260609182916000918291829180820161040080388339019050509350859150600090505b6020811015612e915780601f0360080260020a82811515612e4057fe5b06925080601f0360080260020a838303811515612e5957fe5b0460f860020a028482815181101515612e6e57fe5b906020010190600160f860020a031916908160001a905350829150600101612e23565b5091949350505050565b60006060600060606000612ead6140c0565b6000806000612eba614089565b60008060008e9950612ecb8e613867565b6020820151909d5090985095505b8951885110156137a65787518a518b91908110612ef257fe5b016020015160f860020a908190040292507f7b00000000000000000000000000000000000000000000000000000000000000600160f860020a031984161480612f6457507f5b00000000000000000000000000000000000000000000000000000000000000600160f860020a03198416145b1561304957600190950194612f79888d6138e3565b9099509350881515612f925760039c5060009a506137b2565b604088015160001914612fca578b8860400151815181101515612fb157fe5b602090810291909101015160a001805160010160ff1690525b7f7b00000000000000000000000000000000000000000000000000000000000000600160f860020a0319841614613002576002613005565b60015b8490600481111561301257fe5b9081600481111561301f57fe5b9052508751602080860191909152600160408087019190915290890151600019019089015261379a565b7f7d00000000000000000000000000000000000000000000000000000000000000600160f860020a0319841614806130aa57507f5d00000000000000000000000000000000000000000000000000000000000000600160f860020a03198416145b15613282577f7d00000000000000000000000000000000000000000000000000000000000000600160f860020a03198416146130e75760026130ea565b60015b915060009050600188602001510394505b600085106131c4578b8581518110151561311157fe5b9060200190602002015193508360400151801561313057508360800151155b156131b85781600481111561314157fe5b8451600481111561314e57fe5b146131605760019c5060009a506137b2565b600019604089015287518c516001909101908d908790811061317e57fe5b60209081029091010151606001528b516001908d908790811061319d57fe5b602090810290910101519015156080909101525060016131c4565b600019909401936130fb565b8015156131d85760019c5060009a506137b2565b600085111561322b578b858151811015156131ef57fe5b9060200190602002015193508360400151801561320e57508360800151155b1561321f576040880185905261322b565b600019909401936131d8565b84151561327d578b8581518110151561324057fe5b9060200190602002015193508360400151801561325f57508360800151155b1561327d576fffffffffffffffffffffffffffffffff851660408901525b61379a565b7f2200000000000000000000000000000000000000000000000000000000000000600160f860020a031984161415613317576132bf888d8c613994565b965086156132d557959b50600099508b956137b2565b60408801516001909601956000191461327d578b88604001518151811015156132fa57fe5b602090810291909101015160a001805160010160ff16905261379a565b60fd60020a600160f860020a03198416148061335c57507f1100000000000000000000000000000000000000000000000000000000000000600160f860020a03198416145b8061339057507f1200000000000000000000000000000000000000000000000000000000000000600160f860020a03198416145b806133c457507f1400000000000000000000000000000000000000000000000000000000000000600160f860020a03198416145b156133ce5761379a565b7f3a00000000000000000000000000000000000000000000000000000000000000600160f860020a03198416141561341357602088015160001901604089015261379a565b7f2c00000000000000000000000000000000000000000000000000000000000000600160f860020a03198416141561358757876040015160001914158015613483575060028c896040015181518110151561346a57fe5b6020908102909101015151600481111561348057fe5b14155b80156134b7575060018c896040015181518110151561349e57fe5b602090810290910101515160048111156134b457fe5b14155b1561327d57600188602001510394505b6000851061327d5760028c868151811015156134df57fe5b602090810290910101515160048111156134f557fe5b1480613524575060018c8681518110151561350c57fe5b6020908102909101015151600481111561352257fe5b145b1561357b578b8581518110151561353757fe5b9060200190602002015160400151801561356a57508b8581518110151561355a57fe5b9060200190602002015160800151155b1561357b576040880185905261327d565b600019909401936134c7565b7f3000000000000000000000000000000000000000000000000000000000000000600160f860020a03198416108015906135eb57507f3900000000000000000000000000000000000000000000000000000000000000600160f860020a0319841611155b8061361f57507f2d00000000000000000000000000000000000000000000000000000000000000600160f860020a03198416145b8061365357507f6600000000000000000000000000000000000000000000000000000000000000600160f860020a03198416145b8061368757507f7400000000000000000000000000000000000000000000000000000000000000600160f860020a03198416145b806136bb57507f6e00000000000000000000000000000000000000000000000000000000000000600160f860020a03198416145b1561374057604088015160001914613735578b88604001518151811015156136df57fe5b6020908102909101015193506001845160048111156136fa57fe5b1480613723575060038451600481111561371057fe5b148015613723575060a084015160ff1615155b156137355760019c5060009a506137b2565b6132bf888d8c613d47565b60fd60020a600160f860020a031984161080159061378857507f7e00000000000000000000000000000000000000000000000000000000000000600160f860020a0319841611155b1561379a5760019c5060009a506137b2565b87516001018852612ed9565b602088015160009d509a505b505050505050505050509250925092565b606080606060008692508585036040519080825280601f01601f1916602001820160405280156137fd578160200160208202803883390190505b5091508590505b8481101561385d57828181518110151561381a57fe5b90602001015160f860020a900460f860020a028287830381518110151561383d57fe5b906020010190600160f860020a031916908160001a905350600101613804565b5095945050505050565b61386f6140c0565b60606138796140c0565b6060806040519081016040528060008152602001600081526020016000198152509150846040519080825280602002602001820160405280156138d657816020015b6138c3614089565b8152602001906001900390816138bb5790505b5091959194509092505050565b60006138ed614089565b6138f5614089565b835160208601511061392957600084600186510381518110151561391557fe5b60209081029091010151909350915061398c565b506040805160c08101825260008082526020808301829052928201819052606082018190526080820181905260a082015290850151845182918691811061396c57fe5b602090810290910181019190915285018051600190810190915292509050805b509250929050565b60008060006139a1614089565b8651600181018852925060005b855188511015613d34578751865187919081106139c757fe5b016020015160f860020a908190040290507f2200000000000000000000000000000000000000000000000000000000000000600160f860020a031982161415613a4957613a1488886138e3565b9093509150821515613a2c5783885260039450613d3c565b613a40826003866001018b60000151613f7e565b60009450613d3c565b605c60ff60f860020a830416148015613a66575085518851600101105b15613d2857875160010180895286518791908110613a8057fe5b90602001015160f860020a900460f860020a02600160f860020a0319167f22000000000000000000000000000000000000000000000000000000000000001480613b145750875186518791908110613ad457fe5b90602001015160f860020a900460f860020a02600160f860020a0319167f2f00000000000000000000000000000000000000000000000000000000000000145b80613b695750875186518791908110613b2957fe5b90602001015160f860020a900460f860020a02600160f860020a0319167f5c00000000000000000000000000000000000000000000000000000000000000145b80613bbe5750875186518791908110613b7e57fe5b90602001015160f860020a900460f860020a02600160f860020a0319167f6600000000000000000000000000000000000000000000000000000000000000145b80613c135750875186518791908110613bd357fe5b90602001015160f860020a900460f860020a02600160f860020a0319167f7200000000000000000000000000000000000000000000000000000000000000145b80613c685750875186518791908110613c2857fe5b90602001015160f860020a900460f860020a02600160f860020a0319167f6e00000000000000000000000000000000000000000000000000000000000000145b80613cbd5750875186518791908110613c7d57fe5b90602001015160f860020a900460f860020a02600160f860020a0319167f6200000000000000000000000000000000000000000000000000000000000000145b80613d125750875186518791908110613cd257fe5b90602001015160f860020a900460f860020a02600160f860020a0319167f7400000000000000000000000000000000000000000000000000000000000000145b15613d1c57613d28565b83885260019450613d3c565b875160010188526139ae565b838852600294505b505050509392505050565b6000806000806000613d57614089565b88516000955093505b865189511015613f1f57885187518891908110613d7957fe5b016020015160f860020a9081900402925060fd60020a600160f860020a031984161480613dcf57507f0900000000000000000000000000000000000000000000000000000000000000600160f860020a03198416145b80613e0357507f0a00000000000000000000000000000000000000000000000000000000000000600160f860020a03198416145b80613e3757507f0d00000000000000000000000000000000000000000000000000000000000000600160f860020a03198416145b80613e6b57507f2c00000000000000000000000000000000000000000000000000000000000000600160f860020a03198416145b80613e9f57507f7d00000000000000000000000000000000000000000000000000000000000000600160f860020a03198416145b80613ed357507f5d00000000000000000000000000000000000000000000000000000000000000600160f860020a03198416145b15613ee15760019450613f1f565b602060ff60f860020a8504161080613f025750607f60ff60f860020a850416115b15613f135783895260019550613f72565b88516001018952613d60565b841515613f325783895260029550613f72565b613f3c89896138e3565b9092509050811515613f545783895260039550613f72565b613f65816004868c60000151613f7e565b8851600019018952600095505b50505050509392505050565b83836004811115613f8b57fe5b90816004811115613f9857fe5b90525060208401919091526001604084018190526060840191909152608083015250600060a090910152565b50805460018160011615610100020316600290046000825580601f10613fea5750614008565b601f01602090049060005260206000209081019061400891906140e2565b50565b828054600181600116156101000203166002900490600052602060002090601f016020900481019282601f1061404c57805160ff1916838001178555614079565b82800160010185558215614079579182015b8281111561407957825182559160200191906001019061405e565b506140859291506140e2565b5090565b6040805160c08101909152806000815260006020820181905260408201819052606082018190526080820181905260a09091015290565b6060604051908101604052806000815260200160008152602001600081525090565b61076691905b8082111561408557600081556001016140e856004f7074696f6e206772616e746564206f6e6c7920746f206f776e65722e000000a165627a7a72305820495f3516db3d99f0b78885be70d15c5e2369f834042a1a15fc262ac596ef90b00029",
  "source": "pragma solidity >=0.4.21 <0.5.0;\n\nimport \"./Utils.sol\";\nimport \"./Base64.sol\";\n\nimport \"./Global.sol\";\nimport \"./Register.sol\";\nimport \"./Authenticate.sol\";\n\n\ncontract Bank {\n\n// ======================================================================================================================== //\n\n// Server;\n\n\tuint _randNonce;\n\t\n\tbytes public _enroll;\n\tbytes public _sign;\n\tbytes public _registeredKey;\n\tbytes public _lastVerified;\n\n\taddress public _owner;\n\n\tuint _limit;\n\n\tbool public _lock;\n\tbool public _registered;\n\tbool public _signed;\n\n\tevent Deposit(address owner, address bank, uint amount);\n\tevent Withdraw(address owner, address bank, uint amount);\n\tevent Transfer(address from, address to, uint amount);\n\tevent Freeze(address owner, address bank);\n\n\tevent RegistrationRequest(address user, string request, string appId);\n\tevent RegistrationComplete(address user, string device, string appId);\n\tevent SignRequest(address user, string request, string appId);\n\tevent SignComplete(address user, string information, string appId);\n\n\tconstructor() public {\n\n\t\t_owner = msg.sender;\n\n\t\t_limit = 10000;\n\t\t_lock = false;\n\t\t_registered = false;\n\t\t_signed = false;\n\n\t\t_randNonce = 0;\n\n\t}\n\n\tmodifier onlyOwner {\n\n\t\trequire(msg.sender == _owner, \"Option granted only to owner.\");\n\t\t_;\n\n\t}\n\n\tmodifier checkReady {\n\n\t\trequire(_registered && !_lock, \"Not registered or locked.\");\n\t\t_;\n\n\t}\n\n\tmodifier checkSigned {\n\n\t\trequire(_signed, \"Not signed.\");\n\t\t_;\n\n\t}\n\n\tfunction client(string clientData, string appId, uint typ) public view returns (bytes) {\n\t    \n\t    bytes memory challengeParameter;\n\t    \n\t    if (typ == 0) {\n\t        require(_enroll.length > 0, \"No current registration request.\");\n\t        challengeParameter = Global.validateClientData(string(_enroll), string(Base64.fromHex(clientData)), Global.getRegisterType(), appId);\n\t    }\n\t    \n\t    else {\n\t        require(_sign.length > 0, \"No current Authentication request.\");\n\t        challengeParameter = Global.validateClientData(string(_sign), string(Base64.fromHex(clientData)), Global.getSignType(), appId);\n\t    }\n\t    \n\t    return challengeParameter;\n\t    \n\t}\n\t\n\n\tfunction enroll(string appId) public onlyOwner {\n\n\t\tstring memory request = Register.beginRegistration(appId, _randNonce++);\n\t\t_enroll = bytes(request);\n\n\t\temit RegistrationRequest(msg.sender, request, appId);\n\n\t}\n\n\n    // decoded and parsed response with format validation;\n\tfunction bind(string appId, string challengeParameter, string pubKey, string keyHandle, string certKey, string signature) public onlyOwner {\n\n        // require(format, \"Invalid registration data.\");\n        \n\t\trequire(_enroll.length > 0, \"No current registration request.\");\n\t\t\n\t\t// decodedClientData = string(Base64.fromHex(decodedClientData));\n\t\t\n\t\t// bytes memory cert;\n\t\tbytes memory device = Register.completeRegistration(Base64.fromHex(challengeParameter), pubKey, keyHandle, certKey, signature, appId);\n\n\t\tdelete _enroll;\n\t\t\n\t\t_registeredKey = device;\n\n\t\t_registered = true;\n\t\t\n\t\temit RegistrationComplete(msg.sender, string(device), appId);\n\n\t}\n\n\tfunction sign(string appId) public onlyOwner {\n\n\t\trequire(_registeredKey.length > 0, \"No registered key.\");\n\n\t\t// Might include algorithms for finding a key with the correct version;\n\t\tstring memory request = Authenticate.beginAuthentication(appId, _registeredKey, _randNonce++);\n\n\t\t_sign = bytes(request);\n\n\t\temit SignRequest(msg.sender, request, appId);\n\n\t}\n\n    // decoded and parsed signature data;\n\tfunction verify(string appId, string challengeParameter, string decodedSignatureData, string keyHandle) public onlyOwner {\n\n\t\trequire(_sign.length > 0, \"No current registration request.\");\n\t\t\n\t\t// decodedClientData = string(Base64.fromHex(decodedClientData));\n\t\t\n\t\t// bytes memory challengeParameter = Global.validateClientData(string(_users[msg.sender].sign), decodedClientData, Global.getSignType(), appId);\n\t\t\n\n\t\tbytes memory message;\n\n\t\tmessage = Authenticate.completeAuthentication(_sign, Base64.fromHex(challengeParameter), decodedSignatureData, keyHandle, appId);\n\n\t\tdelete _sign;\n\n\t\t_lastVerified = message;\n\n\t\t_signed = true;\n\t\t\n\t\temit SignComplete(msg.sender, string(message), appId);\n\n\t}\n\n// ======================================================================================================================== //\n\n\tfunction setLimit(uint limit) public onlyOwner {\n\n\t\t_limit = limit;\n\n\t}\n\n\n\tfunction lockBank() public onlyOwner checkSigned {\n\n\t\t_lock = true;\n\t\t_signed = false;\n\n\t}\n\n\tfunction unlockBank() public onlyOwner checkSigned {\n\n\t\t_lock = false;\n\t\t_signed = false;\n\n\t}\n\n\t// Get balance;\n\tfunction getBalance() public view onlyOwner returns (uint) {\n\n\t\treturn address(this).balance;\n\n\t}\n\n\t// Get address;\n\tfunction getAddr() public view onlyOwner returns (address) {\n\n\t\treturn address(this);\n\n\t}\n\n\tfunction clearSign() public onlyOwner {\n\n\t\t_signed = false;\n\n\t}\n\n\t// FUNCTIONS;\n\n\t// Deposit;\n\tfunction deposit(uint amount) public payable onlyOwner checkReady {\n\n\t\trequire(msg.value == amount);\n\n\t\temit Deposit(msg.sender, address(this), amount);\n\n\t}\n\n\t// Withdraw;\n\tfunction withdraw(uint amount) public payable onlyOwner checkReady {\n\n\t\trequire(amount > 0, \"Withdraw amount should be positive.\");\n\t\trequire(amount <= address(this).balance, \"Not enough balance.\");\n\n\t\tif (amount > _limit) {\n\t\t\trequire(_signed, \"Authentication required.\");\n\t\t\t_signed = false;\n\t\t}\n\n\t\tmsg.sender.transfer(amount);\n\t\temit Withdraw(msg.sender, address(this), amount);\n\n\t}\n\n\t// Transfer;\n\tfunction transferViaBank(address to, uint amount) public payable onlyOwner checkReady {\n\n\t\trequire(amount <= address(this).balance, \"Not enough balance.\");\n\n\t\tif (amount > _limit) {\n\t\t\trequire(_signed, \"Authentication required.\");\n\t\t\t_signed = false;\n\t\t}\n\n\t\tto.transfer(amount);\n\n\t}\n\n\n}",
  "sourcePath": "/home/chxw/Desktop/worksite/develop/u2f-ethereum/contracts/Bank.sol",
  "compiler": {
    "name": "solc",
    "version": "0.4.24+commit.e67f0147.Emscripten.clang"
  },
  "schemaVersion": "3.0.5",
  "updatedAt": "2019-04-03T01:16:15.804Z",
  "devdoc": {
    "methods": {}
  },
  "userdoc": {
    "methods": {}
  }
}