{
  "contractName": "Manager",
  "abi": [
    {
      "inputs": [],
      "payable": false,
      "stateMutability": "nonpayable",
      "type": "constructor",
      "signature": "constructor"
    },
    {
      "anonymous": false,
      "inputs": [
        {
          "indexed": false,
          "name": "owner",
          "type": "address"
        },
        {
          "indexed": false,
          "name": "manager",
          "type": "address"
        }
      ],
      "name": "Lock",
      "type": "event",
      "signature": "0xfe91b4a3f0b869e79b842bb3b107673cc2b3f2c942484d11cc2ae2a5723e5ea6"
    },
    {
      "anonymous": false,
      "inputs": [
        {
          "indexed": false,
          "name": "owner",
          "type": "address"
        },
        {
          "indexed": false,
          "name": "manager",
          "type": "address"
        }
      ],
      "name": "Unlock",
      "type": "event",
      "signature": "0xe1a73032dbcf93360e474ead69c6b929f25a0ae7beaed38e82112cf2a98168f4"
    },
    {
      "anonymous": false,
      "inputs": [
        {
          "indexed": false,
          "name": "user",
          "type": "address"
        },
        {
          "indexed": false,
          "name": "request",
          "type": "string"
        },
        {
          "indexed": false,
          "name": "appId",
          "type": "string"
        }
      ],
      "name": "RegistrationRequest",
      "type": "event",
      "signature": "0x1cefe4453e9ec198729183687f6e99ed38995a433c3e3070cfcc7dfad77055b4"
    },
    {
      "anonymous": false,
      "inputs": [
        {
          "indexed": false,
          "name": "user",
          "type": "address"
        },
        {
          "indexed": false,
          "name": "device",
          "type": "string"
        },
        {
          "indexed": false,
          "name": "appId",
          "type": "string"
        }
      ],
      "name": "RegistrationComplete",
      "type": "event",
      "signature": "0xe8461f495cb4293de7658c3cb856de2f1c9b6e3cd46d865a64e205e22eb4c535"
    },
    {
      "anonymous": false,
      "inputs": [
        {
          "indexed": false,
          "name": "user",
          "type": "address"
        },
        {
          "indexed": false,
          "name": "request",
          "type": "string"
        },
        {
          "indexed": false,
          "name": "appId",
          "type": "string"
        }
      ],
      "name": "SignRequest",
      "type": "event",
      "signature": "0xd73e437175cd7a018e2398c622fddbc388b661efc2dbb45407b27a2a70f7cda8"
    },
    {
      "anonymous": false,
      "inputs": [
        {
          "indexed": false,
          "name": "user",
          "type": "address"
        },
        {
          "indexed": false,
          "name": "information",
          "type": "string"
        },
        {
          "indexed": false,
          "name": "appId",
          "type": "string"
        }
      ],
      "name": "SignComplete",
      "type": "event",
      "signature": "0xc4b916698af61452f078afbfdcf971767a64792536944b074201d595ad8e2c47"
    },
    {
      "constant": false,
      "inputs": [],
      "name": "close",
      "outputs": [],
      "payable": false,
      "stateMutability": "nonpayable",
      "type": "function",
      "signature": "0x43d726d6"
    },
    {
      "constant": true,
      "inputs": [],
      "name": "getUserInfo",
      "outputs": [
        {
          "name": "known",
          "type": "bool"
        },
        {
          "name": "policy",
          "type": "uint256"
        },
        {
          "name": "expire",
          "type": "uint256"
        },
        {
          "name": "limit",
          "type": "uint256"
        },
        {
          "name": "lock",
          "type": "bool"
        },
        {
          "name": "registered",
          "type": "bool"
        },
        {
          "name": "signed",
          "type": "bool"
        }
      ],
      "payable": false,
      "stateMutability": "view",
      "type": "function",
      "signature": "0x5d8d1585"
    },
    {
      "constant": true,
      "inputs": [],
      "name": "getUserU2F",
      "outputs": [
        {
          "name": "enroll",
          "type": "bytes"
        },
        {
          "name": "registeredKey",
          "type": "bytes"
        },
        {
          "name": "sign",
          "type": "bytes"
        },
        {
          "name": "lastVerified",
          "type": "bytes"
        }
      ],
      "payable": false,
      "stateMutability": "view",
      "type": "function",
      "signature": "0x9165e2d0"
    },
    {
      "constant": true,
      "inputs": [
        {
          "name": "to",
          "type": "address"
        }
      ],
      "name": "getUserHistory",
      "outputs": [
        {
          "name": "history",
          "type": "uint256"
        }
      ],
      "payable": false,
      "stateMutability": "view",
      "type": "function",
      "signature": "0x4fb3d3b1"
    },
    {
      "constant": true,
      "inputs": [
        {
          "name": "clientData",
          "type": "string"
        },
        {
          "name": "appId",
          "type": "string"
        },
        {
          "name": "typ",
          "type": "uint256"
        }
      ],
      "name": "client",
      "outputs": [
        {
          "name": "",
          "type": "bytes"
        }
      ],
      "payable": false,
      "stateMutability": "view",
      "type": "function",
      "signature": "0x48c9be48"
    },
    {
      "constant": false,
      "inputs": [
        {
          "name": "appId",
          "type": "string"
        }
      ],
      "name": "enroll",
      "outputs": [],
      "payable": false,
      "stateMutability": "nonpayable",
      "type": "function",
      "signature": "0x67b09cdb"
    },
    {
      "constant": false,
      "inputs": [
        {
          "name": "appId",
          "type": "string"
        },
        {
          "name": "challengeParameter",
          "type": "string"
        },
        {
          "name": "pubKey",
          "type": "string"
        },
        {
          "name": "keyHandle",
          "type": "string"
        },
        {
          "name": "certKey",
          "type": "string"
        },
        {
          "name": "signature",
          "type": "string"
        }
      ],
      "name": "bind",
      "outputs": [],
      "payable": false,
      "stateMutability": "nonpayable",
      "type": "function",
      "signature": "0xfb6bf622"
    },
    {
      "constant": false,
      "inputs": [
        {
          "name": "appId",
          "type": "string"
        }
      ],
      "name": "sign",
      "outputs": [],
      "payable": false,
      "stateMutability": "nonpayable",
      "type": "function",
      "signature": "0x79d6348d"
    },
    {
      "constant": false,
      "inputs": [
        {
          "name": "appId",
          "type": "string"
        },
        {
          "name": "challengeParameter",
          "type": "string"
        },
        {
          "name": "decodedSignatureData",
          "type": "string"
        },
        {
          "name": "keyHandle",
          "type": "string"
        }
      ],
      "name": "verify",
      "outputs": [],
      "payable": false,
      "stateMutability": "nonpayable",
      "type": "function",
      "signature": "0x1ede74c3"
    },
    {
      "constant": false,
      "inputs": [],
      "name": "registerForUser",
      "outputs": [],
      "payable": false,
      "stateMutability": "nonpayable",
      "type": "function",
      "signature": "0xe888949e"
    },
    {
      "constant": false,
      "inputs": [
        {
          "name": "limit",
          "type": "uint256"
        }
      ],
      "name": "setLimit",
      "outputs": [],
      "payable": false,
      "stateMutability": "nonpayable",
      "type": "function",
      "signature": "0x27ea6f2b"
    },
    {
      "constant": false,
      "inputs": [
        {
          "name": "policy",
          "type": "uint256"
        },
        {
          "name": "expire",
          "type": "uint256"
        },
        {
          "name": "pendingTime",
          "type": "uint256"
        }
      ],
      "name": "setPolicy",
      "outputs": [],
      "payable": false,
      "stateMutability": "nonpayable",
      "type": "function",
      "signature": "0x0bae7ad6"
    },
    {
      "constant": false,
      "inputs": [],
      "name": "lockAccount",
      "outputs": [],
      "payable": false,
      "stateMutability": "nonpayable",
      "type": "function",
      "signature": "0x06e1976c"
    },
    {
      "constant": false,
      "inputs": [],
      "name": "unlockAccount",
      "outputs": [],
      "payable": false,
      "stateMutability": "nonpayable",
      "type": "function",
      "signature": "0x11d7b2fe"
    },
    {
      "constant": false,
      "inputs": [
        {
          "name": "to",
          "type": "address"
        },
        {
          "name": "amount",
          "type": "uint256"
        }
      ],
      "name": "transferViaManager",
      "outputs": [],
      "payable": true,
      "stateMutability": "payable",
      "type": "function",
      "signature": "0x0e891ac4"
    },
    {
      "constant": false,
      "inputs": [],
      "name": "validatePendingTxns",
      "outputs": [],
      "payable": true,
      "stateMutability": "payable",
      "type": "function",
      "signature": "0x840da0f2"
    },
    {
      "constant": false,
      "inputs": [
        {
          "name": "id",
          "type": "uint256"
        }
      ],
      "name": "cancelPendingTxn",
      "outputs": [],
      "payable": true,
      "stateMutability": "payable",
      "type": "function",
      "signature": "0xf9cda3b2"
    },
    {
      "constant": false,
      "inputs": [],
      "name": "clearPendingTxns",
      "outputs": [],
      "payable": true,
      "stateMutability": "payable",
      "type": "function",
      "signature": "0xbe62600d"
    }
  ],
  "bytecode": "0x608060405234801561001057600080fd5b506000805560028054600160a060020a03191633179055614ce8806100366000396000f3006080604052600436106100e25763ffffffff60e060020a60003504166306e1976c81146100e75780630bae7ad6146100fe5780630e891ac41461011c57806311d7b2fe146101335780631ede74c31461014857806327ea6f2b1461025b57806343d726d61461027357806348c9be48146102885780634fb3d3b1146103965780635d8d1585146103c957806367b09cdb1461041e57806379d6348d14610477578063840da0f2146104d05780639165e2d0146104d8578063be62600d14610697578063e888949e1461069f578063f9cda3b2146106b4578063fb6bf622146106bf575b600080fd5b3480156100f357600080fd5b506100fc61084e565b005b34801561010a57600080fd5b506100fc600435602435604435610973565b6100fc600160a060020a0360043516602435610a71565b34801561013f57600080fd5b506100fc610da5565b34801561015457600080fd5b506040805160206004803580820135601f81018490048402850184019095528484526100fc94369492936024939284019190819084018382808284375050604080516020601f89358b018035918201839004830284018301909452808352979a99988101979196509182019450925082915084018382808284375050604080516020601f89358b018035918201839004830284018301909452808352979a99988101979196509182019450925082915084018382808284375050604080516020601f89358b018035918201839004830284018301909452808352979a999881019791965091820194509250829150840183828082843750949750610ec69650505050505050565b34801561026757600080fd5b506100fc600435611425565b34801561027f57600080fd5b506100fc611491565b34801561029457600080fd5b506040805160206004803580820135601f810184900484028501840190955284845261032194369492936024939284019190819084018382808284375050604080516020601f89358b018035918201839004830284018301909452808352979a99988101979196509182019450925082915084018382808284375094975050933594506115019350505050565b6040805160208082528351818301528351919283929083019185019080838360005b8381101561035b578181015183820152602001610343565b50505050905090810190601f1680156103885780820380516001836020036101000a031916815260200191505b509250505060405180910390f35b3480156103a257600080fd5b506103b7600160a060020a03600435166117f2565b60408051918252519081900360200190f35b3480156103d557600080fd5b506103de61181e565b604080519715158852602088019690965286860194909452606086019290925215156080850152151560a0840152151560c0830152519081900360e00190f35b34801561042a57600080fd5b506040805160206004803580820135601f81018490048402850184019095528484526100fc9436949293602493928401919081908401838280828437509497506118d19650505050505050565b34801561048357600080fd5b506040805160206004803580820135601f81018490048402850184019095528484526100fc943694929360249392840191908190840183828082843750949750611bc19650505050505050565b6100fc611f2d565b3480156104e457600080fd5b506104ed61222c565b6040518080602001806020018060200180602001858103855289818151815260200191508051906020019080838360005b8381101561053657818101518382015260200161051e565b50505050905090810190601f1680156105635780820380516001836020036101000a031916815260200191505b5085810384528851815288516020918201918a019080838360005b8381101561059657818101518382015260200161057e565b50505050905090810190601f1680156105c35780820380516001836020036101000a031916815260200191505b50858103835287518152875160209182019189019080838360005b838110156105f65781810151838201526020016105de565b50505050905090810190601f1680156106235780820380516001836020036101000a031916815260200191505b50858103825286518152865160209182019188019080838360005b8381101561065657818101518382015260200161063e565b50505050905090810190601f1680156106835780820380516001836020036101000a031916815260200191505b509850505050505050505060405180910390f35b6100fc61250f565b3480156106ab57600080fd5b506100fc612695565b6100fc6004356126cb565b3480156106cb57600080fd5b506040805160206004803580820135601f81018490048402850184019095528484526100fc94369492936024939284019190819084018382808284375050604080516020601f89358b018035918201839004830284018301909452808352979a99988101979196509182019450925082915084018382808284375050604080516020601f89358b018035918201839004830284018301909452808352979a99988101979196509182019450925082915084018382808284375050604080516020601f89358b018035918201839004830284018301909452808352979a99988101979196509182019450925082915084018382808284375050604080516020601f89358b018035918201839004830284018301909452808352979a99988101979196509182019450925082915084018382808284375050604080516020601f89358b018035918201839004830284018301909452808352979a9998810197919650918201945092508291508401838280828437509497506129299650505050505050565b3360009081526001602052604090205460ff1615156108a5576040805160e560020a62461bcd0281526020600482015260126024820152600080516020614c9d833981519152604482015290519081900360640190fd5b3360009081526001602052604090206009015462010000900460ff161515610917576040805160e560020a62461bcd02815260206004820152600b60248201527f4e6f74207369676e65642e000000000000000000000000000000000000000000604482015290519081900360640190fd5b33600081815260016020818152604092839020600901805462ff00ff19169092179091558151928352309083015280517ffe91b4a3f0b869e79b842bb3b107673cc2b3f2c942484d11cc2ae2a5723e5ea69281900390910190a1565b3360009081526001602052604090205460ff1615156109ca576040805160e560020a62461bcd0281526020600482015260126024820152600080516020614c9d833981519152604482015290519081900360640190fd5b3360009081526001602052604090206009015462010000900460ff161515610a3c576040805160e560020a62461bcd02815260206004820152600b60248201527f4e6f74207369676e65642e000000000000000000000000000000000000000000604482015290519081900360640190fd5b33600090815260016020526040902060098101805462ff00001916905560058101939093556006830191909155600790910155565b610a79614a8d565b33600090815260016020526040902060090154610100900460ff168015610ab357503360009081526001602052604090206009015460ff16155b1515610af7576040805160e560020a62461bcd0281526020600482015260196024820152600080516020614c7d833981519152604482015290519081900360640190fd5b34821115610b4f576040805160e560020a62461bcd02815260206004820152601860248201527f4e6f7420656e6f7567682062616c616e63652073656e742e0000000000000000604482015290519081900360640190fd5b33600090815260016020526040902060080154821115610d6857336000908152600160205260409020600501541580610c09575033600090815260016020819052604090912060050154148015610c095750336000908152600160209081526040808320600160a060020a0387168452600a019091529020541580610c0957503360009081526001602090815260408083206006810154600160a060020a0388168552600a90910190925290912054610e10909102014210155b15610cb8573360009081526001602052604090206009015462010000900460ff161515610c80576040805160e560020a62461bcd02815260206004820152601860248201527f41757468656e7469636174696f6e2072657175697265642e0000000000000000604482015290519081900360640190fd5b33600090815260016020908152604080832060098101805462ff000019169055600160a060020a0387168452600a0190915290204290555b33600090815260016020526040902060080154600202821115610d68575060408051606081018252600160a060020a038481168252602080830185815233600090815260018084528682206007810154610e10024201978701978852818552600b0180548083018255908352939091208551600390940201805473ffffffffffffffffffffffffffffffffffffffff19169390941692909217835551908201559151600290920191909155610da0565b604051600160a060020a0384169083156108fc029084906000818181858888f19350505050158015610d9e573d6000803e3d6000fd5b505b505050565b3360009081526001602052604090205460ff161515610dfc576040805160e560020a62461bcd0281526020600482015260126024820152600080516020614c9d833981519152604482015290519081900360640190fd5b3360009081526001602052604090206009015462010000900460ff161515610e6e576040805160e560020a62461bcd02815260206004820152600b60248201527f4e6f74207369676e65642e000000000000000000000000000000000000000000604482015290519081900360640190fd5b33600081815260016020908152604091829020600901805462ff00ff191690558151928352309083015280517fe1a73032dbcf93360e474ead69c6b929f25a0ae7beaed38e82112cf2a98168f49281900390910190a1565b3360009081526001602052604090205460609060ff161515610f20576040805160e560020a62461bcd0281526020600482015260126024820152600080516020614c9d833981519152604482015290519081900360640190fd5b33600090815260016020819052604082206002908101549182161561010002600019019091160411610f9c576040805160e560020a62461bcd02815260206004820181905260248201527f4e6f2063757272656e7420726567697374726174696f6e20726571756573742e604482015290519081900360640190fd5b33600090815260016020526040902073__Authenticate__________________________9063b90fdda690600201610fd387612ebe565b60405160e060020a63ffffffff851602815260a06004820190815283546002600019610100600184161502019091160460a48301819052899289928d9290918291602482019160448101916064820191608481019160c4909101908c90801561107d5780601f106110525761010080835404028352916020019161107d565b820191906000526020600020905b81548152906001019060200180831161106057829003601f168201915b505086810385528a5181528a516020918201918c019080838360005b838110156110b1578181015183820152602001611099565b50505050905090810190601f1680156110de5780820380516001836020036101000a031916815260200191505b5086810384528951815289516020918201918b019080838360005b838110156111115781810151838201526020016110f9565b50505050905090810190601f16801561113e5780820380516001836020036101000a031916815260200191505b5086810383528851815288516020918201918a019080838360005b83811015611171578181015183820152602001611159565b50505050905090810190601f16801561119e5780820380516001836020036101000a031916815260200191505b50868103825287518152875160209182019189019080838360005b838110156111d15781810151838201526020016111b9565b50505050905090810190601f1680156111fe5780820380516001836020036101000a031916815260200191505b509a505050505050505050505060006040518083038186803b15801561122357600080fd5b505af4158015611237573d6000803e3d6000fd5b505050506040513d6000823e601f3d908101601f19168201604052602081101561126057600080fd5b81019080805164010000000081111561127857600080fd5b8201602081018481111561128b57600080fd5b81516401000000008111828201871017156112a557600080fd5b50503360009081526001602052604081209195506112cc9450600290910192509050614ab8565b33600090815260016020908152604090912082516112f292600490920191840190614aff565b50336000818152600160209081526040808320600901805462ff00001916620100001790558051848152606081840181815287519183019190915286517fc4b916698af61452f078afbfdcf971767a64792536944b074201d595ad8e2c47969588958d958501926080860192918801918190849084905b83811015611381578181015183820152602001611369565b50505050905090810190601f1680156113ae5780820380516001836020036101000a031916815260200191505b50838103825284518152845160209182019186019080838360005b838110156113e15781810151838201526020016113c9565b50505050905090810190601f16801561140e5780820380516001836020036101000a031916815260200191505b509550505050505060405180910390a15050505050565b3360009081526001602052604090205460ff16151561147c576040805160e560020a62461bcd0281526020600482015260126024820152600080516020614c9d833981519152604482015290519081900360640190fd5b33600090815260016020526040902060080155565b600254600160a060020a031633146114f3576040805160e560020a62461bcd02815260206004820152601d60248201527f4f7074696f6e206772616e746564206f6e6c7920746f206f776e65722e000000604482015290519081900360640190fd5b600254600160a060020a0316ff5b33600090815260016020526040902054606090819060ff16151561155d576040805160e560020a62461bcd0281526020600482015260126024820152600080516020614c9d833981519152604482015290519081900360640190fd5b82151561169857336000908152600160208190526040822081015460029181161561010002600019011604116115dd576040805160e560020a62461bcd02815260206004820181905260248201527f4e6f2063757272656e7420726567697374726174696f6e20726571756573742e604482015290519081900360640190fd5b33600090815260016020818152604092839020820180548451600294821615610100026000190190911693909304601f81018390048302840183019094528383526116919390918301828280156116755780601f1061164a57610100808354040283529160200191611675565b820191906000526020600020905b81548152906001019060200180831161165857829003601f168201915b505050505061168387612ebe565b61168b612fa0565b87612fd8565b90506117ea565b3360009081526001602081905260408220600290810154918216156101000260001901909116041161173a576040805160e560020a62461bcd02815260206004820152602260248201527f4e6f2063757272656e742041757468656e7469636174696f6e2072657175657360448201527f742e000000000000000000000000000000000000000000000000000000000000606482015290519081900360840190fd5b336000908152600160208181526040928390206002908101805485519481161561010002600019011691909104601f81018390048302840183019094528383526117e79390918301828280156117d15780601f106117a6576101008083540402835291602001916117d1565b820191906000526020600020905b8154815290600101906020018083116117b457829003601f168201915b50505050506117df87612ebe565b61168b6134bf565b90505b949350505050565b336000908152600160209081526040808320600160a060020a03949094168352600a9093019052205490565b3360009081526001602052604081205481908190819081908190819060ff161515611881576040805160e560020a62461bcd0281526020600482015260126024820152600080516020614c9d833981519152604482015290519081900360640190fd5b5050336000908152600160205260409020805460058201546006830154600884015460099094015460ff9384169a9299509097509295508282169450610100830482169350620100009092041690565b3360009081526001602052604090205460609060ff16151561192b576040805160e560020a62461bcd0281526020600482015260126024820152600080516020614c9d833981519152604482015290519081900360640190fd5b73__Register______________________________63c55c724383600080815480929190600101919050556040518363ffffffff1660e060020a0281526004018080602001838152602001828103825284818151815260200191508051906020019080838360005b838110156119ab578181015183820152602001611993565b50505050905090810190601f1680156119d85780820380516001836020036101000a031916815260200191505b50935050505060006040518083038186803b1580156119f657600080fd5b505af4158015611a0a573d6000803e3d6000fd5b505050506040513d6000823e601f3d908101601f191682016040526020811015611a3357600080fd5b810190808051640100000000811115611a4b57600080fd5b82016020810184811115611a5e57600080fd5b8151640100000000811182820187101715611a7857600080fd5b50503360009081526001602081815260409092208351939750611aa2965001935085019150614aff565b507f1cefe4453e9ec198729183687f6e99ed38995a433c3e3070cfcc7dfad77055b43382846040518084600160a060020a0316600160a060020a031681526020018060200180602001838103835285818151815260200191508051906020019080838360005b83811015611b20578181015183820152602001611b08565b50505050905090810190601f168015611b4d5780820380516001836020036101000a031916815260200191505b50838103825284518152845160209182019186019080838360005b83811015611b80578181015183820152602001611b68565b50505050905090810190601f168015611bad5780820380516001836020036101000a031916815260200191505b509550505050505060405180910390a15050565b3360009081526001602052604090205460609060ff161515611c1b576040805160e560020a62461bcd0281526020600482015260126024820152600080516020614c9d833981519152604482015290519081900360640190fd5b3360009081526001602081905260408220600301546002918116156101000260001901160411611c95576040805160e560020a62461bcd02815260206004820152601260248201527f4e6f2072656769737465726564206b65792e0000000000000000000000000000604482015290519081900360640190fd5b3360009081526001602081815260408084208454938401855590517f66138f970000000000000000000000000000000000000000000000000000000081526044810184905260606004820190815287516064830152875173__Authenticate__________________________966366138f97968a966003909601959094849360248201936084909201928901918190849084905b83811015611d41578181015183820152602001611d29565b50505050905090810190601f168015611d6e5780820380516001836020036101000a031916815260200191505b50838103825285546002600019610100600184161502019091160480825260209091019086908015611de15780601f10611db657610100808354040283529160200191611de1565b820191906000526020600020905b815481529060010190602001808311611dc457829003601f168201915b50509550505050505060006040518083038186803b158015611e0257600080fd5b505af4158015611e16573d6000803e3d6000fd5b505050506040513d6000823e601f3d908101601f191682016040526020811015611e3f57600080fd5b810190808051640100000000811115611e5757600080fd5b82016020810184811115611e6a57600080fd5b8151640100000000811182820187101715611e8457600080fd5b50503360009081526001602090815260409091208251929650611eb09550600201935085019150614aff565b507fd73e437175cd7a018e2398c622fddbc388b661efc2dbb45407b27a2a70f7cda83382846040518084600160a060020a0316600160a060020a0316815260200180602001806020018381038352858181518152602001915080519060200190808383600083811015611b20578181015183820152602001611b08565b336000908152600160205260408120600901548190610100900460ff168015611f6957503360009081526001602052604090206009015460ff16155b1515611fad576040805160e560020a62461bcd0281526020600482015260196024820152600080516020614c7d833981519152604482015290519081900360640190fd5b5060009050805b336000908152600160205260409020600b015481101561213f57336000908152600160205260409020600b01805442919083908110611fef57fe5b90600052602060002090600302016002015411151561213757336000908152600160205260409020600b018054303191908390811061202a57fe5b90600052602060002090600302016001015411151515612094576040805160e560020a62461bcd02815260206004820152601360248201527f4e6f7420656e6f7567682062616c616e63652e00000000000000000000000000604482015290519081900360640190fd5b336000908152600160205260409020600b018054829081106120b257fe5b6000918252602080832060039092029091015433835260019091526040909120600b018054600160a060020a03909216916108fc9190849081106120f257fe5b9060005260206000209060030201600101549081150290604051600060405180830381858888f1935050505015801561212f573d6000803e3d6000fd5b506001909101905b600101611fb4565b5060005b336000908152600160205260409020600b015482900381101561220a57336000908152600160205260409020600b01805482840190811061218057fe5b6000918252602080832033845260019091526040909220600b01805460039092029092019190839081106121b057fe5b600091825260209091208254600390920201805473ffffffffffffffffffffffffffffffffffffffff1916600160a060020a0390921691909117815560018083015481830155600292830154929091019190915501612143565b336000908152600160205260409020600b01805483900390610da09082614b7d565b3360009081526001602052604090205460609081908190819060ff16151561228c576040805160e560020a62461bcd0281526020600482015260126024820152600080516020614c9d833981519152604482015290519081900360640190fd5b33600090815260016020818152604092839020820180548451600294821615610100026000190190911693909304601f81018390048302840183019094528383529192908301828280156123215780601f106122f657610100808354040283529160200191612321565b820191906000526020600020905b81548152906001019060200180831161230457829003601f168201915b50503360009081526001602081815260409283902060030180548451600294821615610100026000190190911693909304601f8101839004830284018301909452838352969a509095945090925084019050828280156123c25780601f10612397576101008083540402835291602001916123c2565b820191906000526020600020905b8154815290600101906020018083116123a557829003601f168201915b5050336000908152600160208181526040928390206002908101805485519481161561010002600019011691909104601f81018390048302840183019094528383529699509095945090925084019050828280156124615780601f1061243657610100808354040283529160200191612461565b820191906000526020600020905b81548152906001019060200180831161244457829003601f168201915b50503360009081526001602081815260409283902060040180548451600294821615610100026000190190911693909304601f81018390048302840183019094528383529698509095945090925084019050828280156125025780601f106124d757610100808354040283529160200191612502565b820191906000526020600020905b8154815290600101906020018083116124e557829003601f168201915b5050505050905090919293565b336000908152600160205260408120600901548190610100900460ff16801561254b57503360009081526001602052604090206009015460ff16155b151561258f576040805160e560020a62461bcd0281526020600482015260196024820152600080516020614c7d833981519152604482015290519081900360640190fd5b5060009050805b336000908152600160205260409020600b01548210156125ec57336000908152600160205260409020600b018054839081106125ce57fe5b60009182526020909120600160039092020181015492019101612596565b3031811115612645576040805160e560020a62461bcd02815260206004820152601360248201527f4e6f7420656e6f7567682062616c616e63652e00000000000000000000000000604482015290519081900360640190fd5b604051339082156108fc029083906000818181858888f19350505050158015612672573d6000803e3d6000fd5b5033600090815260016020526040812061269191600b90910190614ba9565b5050565b336000908152600160208190526040909120805460ff191690911781556018600682018190556007820155612710600890910155565b33600090815260016020526040812060090154610100900460ff16801561270557503360009081526001602052604090206009015460ff16155b1515612749576040805160e560020a62461bcd0281526020600482015260196024820152600080516020614c7d833981519152604482015290519081900360640190fd5b336000908152600160205260409020600b018054303191908490811061276b57fe5b906000526020600020906003020160010154111515156127d5576040805160e560020a62461bcd02815260206004820152601360248201527f4e6f7420656e6f7567682062616c616e63652e00000000000000000000000000604482015290519081900360640190fd5b336000818152600160205260409020600b0180546108fc9190859081106127f857fe5b9060005260206000209060030201600101549081150290604051600060405180830381858888f19350505050158015612835573d6000803e3d6000fd5b508190505b336000908152600160205260409020600b01546000190181101561290657336000908152600160208190526040909120600b0180549091830190811061287c57fe5b6000918252602080832033845260019091526040909220600b01805460039092029092019190839081106128ac57fe5b600091825260209091208254600390920201805473ffffffffffffffffffffffffffffffffffffffff1916600160a060020a039092169190911781556001808301548183015560029283015492909101919091550161283a565b336000908152600160205260409020600b01805490610da0906000198301614b7d565b3360009081526001602052604090205460609060ff161515612983576040805160e560020a62461bcd0281526020600482015260126024820152600080516020614c9d833981519152604482015290519081900360640190fd5b336000908152600160208190526040822081015460029181161561010002600019011604116129fc576040805160e560020a62461bcd02815260206004820181905260248201527f4e6f2063757272656e7420726567697374726174696f6e20726571756573742e604482015290519081900360640190fd5b73__Register______________________________63c8bf169e612a1f88612ebe565b878787878d6040518763ffffffff1660e060020a0281526004018080602001806020018060200180602001806020018060200187810387528d818151815260200191508051906020019080838360005b83811015612a87578181015183820152602001612a6f565b50505050905090810190601f168015612ab45780820380516001836020036101000a031916815260200191505b5087810386528c5181528c516020918201918e019080838360005b83811015612ae7578181015183820152602001612acf565b50505050905090810190601f168015612b145780820380516001836020036101000a031916815260200191505b5087810385528b5181528b516020918201918d019080838360005b83811015612b47578181015183820152602001612b2f565b50505050905090810190601f168015612b745780820380516001836020036101000a031916815260200191505b5087810384528a5181528a516020918201918c019080838360005b83811015612ba7578181015183820152602001612b8f565b50505050905090810190601f168015612bd45780820380516001836020036101000a031916815260200191505b5087810383528951815289516020918201918b019080838360005b83811015612c07578181015183820152602001612bef565b50505050905090810190601f168015612c345780820380516001836020036101000a031916815260200191505b5087810382528851815288516020918201918a019080838360005b83811015612c67578181015183820152602001612c4f565b50505050905090810190601f168015612c945780820380516001836020036101000a031916815260200191505b509c5050505050505050505050505060006040518083038186803b158015612cbb57600080fd5b505af4158015612ccf573d6000803e3d6000fd5b505050506040513d6000823e601f3d908101601f191682016040526020811015612cf857600080fd5b810190808051640100000000811115612d1057600080fd5b82016020810184811115612d2357600080fd5b8151640100000000811182820187101715612d3d57600080fd5b50503360009081526001602081905260408220929650612d6595509190910192509050614ab8565b3360009081526001602090815260409091208251612d8b92600390920191840190614aff565b50336000818152600160209081526040808320600901805461ff0019166101001790558051848152606081840181815287519183019190915286517fe8461f495cb4293de7658c3cb856de2f1c9b6e3cd46d865a64e205e22eb4c535969588958f958501926080860192918801918190849084905b83811015612e18578181015183820152602001612e00565b50505050905090810190601f168015612e455780820380516001836020036101000a031916815260200191505b50838103825284518152845160209182019186019080838360005b83811015612e78578181015183820152602001612e60565b50505050905090810190601f168015612ea55780820380516001836020036101000a031916815260200191505b509550505050505060405180910390a150505050505050565b80516060908290829060009060011615612ed757600080fd5b8251600290046040519080825280601f01601f191660200182016040528015612f0a578160200160208202803883390190505b509150600090505b825160029004811015612f9857612f4c8382600202600101815181101515612f3657fe5b016020015160f860020a908190048102046134f6565b612f608483600202815181101515612f3657fe5b6010020160f860020a028282815181101515612f7857fe5b906020010190600160f860020a031916908160001a905350600101612f12565b509392505050565b60408051808201909152601d81527f6e6176696761746f722e69642e66696e697368456e726f6c6c6d656e7400000060208201525b90565b6060806060846040518082805190602001908083835b6020831061300d5780518252601f199092019160209182019101612fee565b51815160209384036101000a600019018019909216911617905260408051929094018290038220828501909452600382527f74797000000000000000000000000000000000000000000000000000000000009082015291935061307b9250899050613076613679565b61367e565b6040518082805190602001908083835b602083106130aa5780518252601f19909201916020918201910161308b565b6001836020036101000a038019825116818451168082178552505050505050905001915050604051809103902060001916141515613132576040805160e560020a62461bcd02815260206004820152600b60248201527f57726f6e6720747970652e000000000000000000000000000000000000000000604482015290519081900360640190fd5b6131746040805190810160405280600981526020017f6368616c6c656e6765000000000000000000000000000000000000000000000081525088613076613679565b91506131b86040805190810160405280600981526020017f6368616c6c656e6765000000000000000000000000000000000000000000000081525087613076613679565b9050806040518082805190602001908083835b602083106131ea5780518252601f1990920191602091820191016131cb565b51815160209384036101000a6000190180199092169116179052604051919093018190038120875190955087945090928392508401908083835b602083106132435780518252601f199092019160209182019101613224565b6001836020036101000a0380198251168184511680821785525050505050509050019150506040518091039020600019161415156132cb576040805160e560020a62461bcd02815260206004820152601060248201527f57726f6e67206368616c6c656e67652e00000000000000000000000000000000604482015290519081900360640190fd5b83511561342257836040518082805190602001908083835b602083106133025780518252601f1990920191602091820191016132e3565b51815160209384036101000a600019018019909216911617905260408051929094018290038220828501909452600682527f6f726967696e00000000000000000000000000000000000000000000000000009082015291935061336b9250899050613076613679565b6040518082805190602001908083835b6020831061339a5780518252601f19909201916020918201910161337b565b6001836020036101000a038019825116818451168082178552505050505050905001915050604051809103902060001916141515613422576040805160e560020a62461bcd02815260206004820152600e60248201527f496e76616c69642066616365742e000000000000000000000000000000000000604482015290519081900360640190fd5b6134b46002876040518082805190602001908083835b602083106134575780518252601f199092019160209182019101613438565b51815160209384036101000a600019018019909216911617905260405191909301945091925050808303816000865af1158015613498573d6000803e3d6000fd5b5050506040513d60208110156134ad57600080fd5b50516138b9565b979650505050505050565b60408051808201909152601981527f6e6176696761746f722e69642e676574417373657274696f6e00000000000000602082015290565b60007f300000000000000000000000000000000000000000000000000000000000000060f860020a8302600160f860020a0319161080159061356857507f390000000000000000000000000000000000000000000000000000000000000060f860020a8302600160f860020a03191611155b156135785750602f198101613674565b7f610000000000000000000000000000000000000000000000000000000000000060f860020a8302600160f860020a031916108015906135e857507f660000000000000000000000000000000000000000000000000000000000000060f860020a8302600160f860020a03191611155b156135f857506056198101613674565b7f410000000000000000000000000000000000000000000000000000000000000060f860020a8302600160f860020a0319161080159061366857507f460000000000000000000000000000000000000000000000000000000000000060f860020a8302600160f860020a03191611155b15613674575060361981015b919050565b600b90565b6060600080606061368d614bca565b6060600061369b8989613964565b9197509095509350851561371f576040805160e560020a62461bcd02815260206004820152602260248201527f4a534f4e20706172736572206e6f742070726f7065726c792072657475726e6560448201527f642e000000000000000000000000000000000000000000000000000000000000606482015290519081900360840190fd5b5060005b8481101561385c57838181518110151561373957fe5b906020019060200201519250613758898460200151856060015161428c565b9150816040518082805190602001908083835b6020831061378a5780518252601f19909201916020918201910161376b565b51815160209384036101000a60001901801990921691161790526040519190930181900381208f519095508f945090928392508401908083835b602083106137e35780518252601f1990920191602091820191016137c4565b6001836020036101000a038019825116818451168082178552505050505050905001915050604051809103902060001916141561385457838160010181518110151561382b57fe5b90602001906020020151925061384a898460200151856060015161428c565b91508196506138ac565b600101613723565b6040805160e560020a62461bcd02815260206004820152601060248201527f4669656c64206e6f7420666f756e642e00000000000000000000000000000000604482015290519081900360640190fd5b5050505050509392505050565b60408051602080825281830190925260609182916000918291829180820161040080388339019050509350859150600090505b602081101561395a5780601f0360080260020a8281151561390957fe5b06925080601f0360080260020a83830381151561392257fe5b0460f860020a02848281518110151561393757fe5b906020010190600160f860020a031916908160001a9053508291506001016138ec565b5091949350505050565b60006060600060606000613976614c01565b6000806000613983614bca565b60008060008e99506139948e614330565b6020820151909d5090985095505b89518851101561426f5787518a518b919081106139bb57fe5b016020015160f860020a908190040292507f7b00000000000000000000000000000000000000000000000000000000000000600160f860020a031984161480613a2d57507f5b00000000000000000000000000000000000000000000000000000000000000600160f860020a03198416145b15613b1257600190950194613a42888d6143ac565b9099509350881515613a5b5760039c5060009a5061427b565b604088015160001914613a93578b8860400151815181101515613a7a57fe5b602090810291909101015160a001805160010160ff1690525b7f7b00000000000000000000000000000000000000000000000000000000000000600160f860020a0319841614613acb576002613ace565b60015b84906004811115613adb57fe5b90816004811115613ae857fe5b90525087516020808601919091526001604080870191909152908901516000190190890152614263565b7f7d00000000000000000000000000000000000000000000000000000000000000600160f860020a031984161480613b7357507f5d00000000000000000000000000000000000000000000000000000000000000600160f860020a03198416145b15613d4b577f7d00000000000000000000000000000000000000000000000000000000000000600160f860020a0319841614613bb0576002613bb3565b60015b915060009050600188602001510394505b60008510613c8d578b85815181101515613bda57fe5b90602001906020020151935083604001518015613bf957508360800151155b15613c8157816004811115613c0a57fe5b84516004811115613c1757fe5b14613c295760019c5060009a5061427b565b600019604089015287518c516001909101908d9087908110613c4757fe5b60209081029091010151606001528b516001908d9087908110613c6657fe5b60209081029091010151901515608090910152506001613c8d565b60001990940193613bc4565b801515613ca15760019c5060009a5061427b565b6000851115613cf4578b85815181101515613cb857fe5b90602001906020020151935083604001518015613cd757508360800151155b15613ce85760408801859052613cf4565b60001990940193613ca1565b841515613d46578b85815181101515613d0957fe5b90602001906020020151935083604001518015613d2857508360800151155b15613d46576fffffffffffffffffffffffffffffffff851660408901525b614263565b7f2200000000000000000000000000000000000000000000000000000000000000600160f860020a031984161415613de057613d88888d8c61445d565b96508615613d9e57959b50600099508b9561427b565b604088015160019096019560001914613d46578b8860400151815181101515613dc357fe5b602090810291909101015160a001805160010160ff169052614263565b60fd60020a600160f860020a031984161480613e2557507f1100000000000000000000000000000000000000000000000000000000000000600160f860020a03198416145b80613e5957507f1200000000000000000000000000000000000000000000000000000000000000600160f860020a03198416145b80613e8d57507f1400000000000000000000000000000000000000000000000000000000000000600160f860020a03198416145b15613e9757614263565b7f3a00000000000000000000000000000000000000000000000000000000000000600160f860020a031984161415613edc576020880151600019016040890152614263565b7f2c00000000000000000000000000000000000000000000000000000000000000600160f860020a03198416141561405057876040015160001914158015613f4c575060028c8960400151815181101515613f3357fe5b60209081029091010151516004811115613f4957fe5b14155b8015613f80575060018c8960400151815181101515613f6757fe5b60209081029091010151516004811115613f7d57fe5b14155b15613d4657600188602001510394505b60008510613d465760028c86815181101515613fa857fe5b60209081029091010151516004811115613fbe57fe5b1480613fed575060018c86815181101515613fd557fe5b60209081029091010151516004811115613feb57fe5b145b15614044578b8581518110151561400057fe5b9060200190602002015160400151801561403357508b8581518110151561402357fe5b9060200190602002015160800151155b156140445760408801859052613d46565b60001990940193613f90565b7f3000000000000000000000000000000000000000000000000000000000000000600160f860020a03198416108015906140b457507f3900000000000000000000000000000000000000000000000000000000000000600160f860020a0319841611155b806140e857507f2d00000000000000000000000000000000000000000000000000000000000000600160f860020a03198416145b8061411c57507f6600000000000000000000000000000000000000000000000000000000000000600160f860020a03198416145b8061415057507f7400000000000000000000000000000000000000000000000000000000000000600160f860020a03198416145b8061418457507f6e00000000000000000000000000000000000000000000000000000000000000600160f860020a03198416145b15614209576040880151600019146141fe578b88604001518151811015156141a857fe5b6020908102909101015193506001845160048111156141c357fe5b14806141ec57506003845160048111156141d957fe5b1480156141ec575060a084015160ff1615155b156141fe5760019c5060009a5061427b565b613d88888d8c614810565b60fd60020a600160f860020a031984161080159061425157507f7e00000000000000000000000000000000000000000000000000000000000000600160f860020a0319841611155b156142635760019c5060009a5061427b565b875160010188526139a2565b602088015160009d509a505b505050505050505050509250925092565b606080606060008692508585036040519080825280601f01601f1916602001820160405280156142c6578160200160208202803883390190505b5091508590505b848110156143265782818151811015156142e357fe5b90602001015160f860020a900460f860020a028287830381518110151561430657fe5b906020010190600160f860020a031916908160001a9053506001016142cd565b5095945050505050565b614338614c01565b6060614342614c01565b60608060405190810160405280600081526020016000815260200160001981525091508460405190808252806020026020018201604052801561439f57816020015b61438c614bca565b8152602001906001900390816143845790505b5091959194509092505050565b60006143b6614bca565b6143be614bca565b83516020860151106143f25760008460018651038151811015156143de57fe5b602090810290910101519093509150614455565b506040805160c08101825260008082526020808301829052928201819052606082018190526080820181905260a082015290850151845182918691811061443557fe5b602090810290910181019190915285018051600190810190915292509050805b509250929050565b600080600061446a614bca565b8651600181018852925060005b8551885110156147fd5787518651879190811061449057fe5b016020015160f860020a908190040290507f2200000000000000000000000000000000000000000000000000000000000000600160f860020a031982161415614512576144dd88886143ac565b90935091508215156144f55783885260039450614805565b614509826003866001018b60000151614a47565b60009450614805565b605c60ff60f860020a83041614801561452f575085518851600101105b156147f15787516001018089528651879190811061454957fe5b90602001015160f860020a900460f860020a02600160f860020a0319167f220000000000000000000000000000000000000000000000000000000000000014806145dd575087518651879190811061459d57fe5b90602001015160f860020a900460f860020a02600160f860020a0319167f2f00000000000000000000000000000000000000000000000000000000000000145b8061463257508751865187919081106145f257fe5b90602001015160f860020a900460f860020a02600160f860020a0319167f5c00000000000000000000000000000000000000000000000000000000000000145b80614687575087518651879190811061464757fe5b90602001015160f860020a900460f860020a02600160f860020a0319167f6600000000000000000000000000000000000000000000000000000000000000145b806146dc575087518651879190811061469c57fe5b90602001015160f860020a900460f860020a02600160f860020a0319167f7200000000000000000000000000000000000000000000000000000000000000145b8061473157508751865187919081106146f157fe5b90602001015160f860020a900460f860020a02600160f860020a0319167f6e00000000000000000000000000000000000000000000000000000000000000145b80614786575087518651879190811061474657fe5b90602001015160f860020a900460f860020a02600160f860020a0319167f6200000000000000000000000000000000000000000000000000000000000000145b806147db575087518651879190811061479b57fe5b90602001015160f860020a900460f860020a02600160f860020a0319167f7400000000000000000000000000000000000000000000000000000000000000145b156147e5576147f1565b83885260019450614805565b87516001018852614477565b838852600294505b505050509392505050565b6000806000806000614820614bca565b88516000955093505b8651895110156149e85788518751889190811061484257fe5b016020015160f860020a9081900402925060fd60020a600160f860020a03198416148061489857507f0900000000000000000000000000000000000000000000000000000000000000600160f860020a03198416145b806148cc57507f0a00000000000000000000000000000000000000000000000000000000000000600160f860020a03198416145b8061490057507f0d00000000000000000000000000000000000000000000000000000000000000600160f860020a03198416145b8061493457507f2c00000000000000000000000000000000000000000000000000000000000000600160f860020a03198416145b8061496857507f7d00000000000000000000000000000000000000000000000000000000000000600160f860020a03198416145b8061499c57507f5d00000000000000000000000000000000000000000000000000000000000000600160f860020a03198416145b156149aa57600194506149e8565b602060ff60f860020a85041610806149cb5750607f60ff60f860020a850416115b156149dc5783895260019550614a3b565b88516001018952614829565b8415156149fb5783895260029550614a3b565b614a0589896143ac565b9092509050811515614a1d5783895260039550614a3b565b614a2e816004868c60000151614a47565b8851600019018952600095505b50505050509392505050565b83836004811115614a5457fe5b90816004811115614a6157fe5b90525060208401919091526001604084018190526060840191909152608083015250600060a090910152565b6060604051908101604052806000600160a060020a0316815260200160008152602001600081525090565b50805460018160011615610100020316600290046000825580601f10614ade5750614afc565b601f016020900490600052602060002090810190614afc9190614c23565b50565b828054600181600116156101000203166002900490600052602060002090601f016020900481019282601f10614b4057805160ff1916838001178555614b6d565b82800160010185558215614b6d579182015b82811115614b6d578251825591602001919060010190614b52565b50614b79929150614c23565b5090565b815481835581811115610da057600302816003028360005260206000209182019101610da09190614c3d565b5080546000825560030290600052602060002090810190614afc9190614c3d565b6040805160c08101909152806000815260006020820181905260408201819052606082018190526080820181905260a09091015290565b6060604051908101604052806000815260200160008152602001600081525090565b612fd591905b80821115614b795760008155600101614c29565b612fd591905b80821115614b7957805473ffffffffffffffffffffffffffffffffffffffff191681556000600182018190556002820155600301614c4356004e6f742072656769737465726564206f72206c6f636b65642e00000000000000556e7265636f676e697a656420757365722e0000000000000000000000000000a165627a7a72305820783b5e938331f68a27f1dc65f2f9aaccf0845431eab9f4c25452aadf1a9fe99c0029",
  "source": "pragma solidity >=0.4.21 <0.5.0;\n\nimport \"./Utils.sol\";\nimport \"./Base64.sol\";\n\nimport \"./Global.sol\";\nimport \"./Register.sol\";\nimport \"./Authenticate.sol\";\n\n\ncontract Manager {\n\n\t// ======================================================================================================================== //\n\n\t// server;\n\tuint _randNonce;\n\n\tstruct Txn {\n\n\t\taddress _to;\n\t\tuint _amount;\n\t\tuint _validTime;\n\n\t}\n\n\tstruct User {\n\t\tbool _known;\n\t\t// u2f data;\n\t\tbytes _enroll;\n\t\tbytes _sign;\n\t\tbytes _registeredKey;\n\t\tbytes _lastVerified;\n\t\t// policy data;\n\t\tuint _policy;\n\t\t/*\n\t\t\t0: strict;\n\t\t\t1: history;\n\t\t*/\n\t\tuint _expire;\n\t\tuint _pendingTime;\n\n\t\tuint _limit;\n\t\t// account data;\n\t\tbool _lock;\n\t\tbool _registered;\n\t\tbool _signed;\n\t\t// history;\n\t\tmapping(address => uint) _txnHistory;\n\t\t// delayed transaction;\n\t\tTxn[] _pendingTxns;\n\t}\n\n\tmapping(address => User) _users;\n\taddress _owner;\n\n\t// event Transfer(address from, address to, uint amount);\n\tevent Lock(address owner, address manager);\n\tevent Unlock(address owner, address manager);\n\n\tevent RegistrationRequest(address user, string request, string appId);\n\tevent RegistrationComplete(address user, string device, string appId);\n\tevent SignRequest(address user, string request, string appId);\n\tevent SignComplete(address user, string information, string appId);\n\n\tconstructor() public {\n\t\t_randNonce = 0;\n\t\t_owner = msg.sender;\n\t}\n\n\tmodifier onlyOwner {\n\n\t\trequire(msg.sender == _owner, \"Option granted only to owner.\");\n\t\t_;\n\n\t}\n\n\tmodifier onlyKnownUser {\n\n\t\trequire(_users[msg.sender]._known, \"Unrecognized user.\");\n\t\t_;\n\n\t}\n\n\tmodifier checkReady {\n\n\t\trequire(_users[msg.sender]._registered && !_users[msg.sender]._lock, \"Not registered or locked.\");\n\t\t_;\n\n\t}\n\n\tmodifier checkSigned {\n\n\t\trequire(_users[msg.sender]._signed, \"Not signed.\");\n\t\t_users[msg.sender]._signed = false;\n\t\t_;\n\n\t}\n\n\tfunction close() onlyOwner public {\n\n\t\tselfdestruct(_owner);\n\n\t}\n\n\tfunction getUserInfo() onlyKnownUser public view returns (bool known, uint policy, uint expire, uint limit, bool lock, bool registered, bool signed) {\n\n\t\tknown = _users[msg.sender]._known;\n\t\tpolicy = _users[msg.sender]._policy;\n\t\texpire = _users[msg.sender]._expire;\n\t\tlimit = _users[msg.sender]._limit;\n\t\tlock = _users[msg.sender]._lock;\n\t\tregistered = _users[msg.sender]._registered;\n\t\tsigned = _users[msg.sender]._signed;\n\n\t}\n\n\tfunction getUserU2F() onlyKnownUser public view returns (bytes enroll, bytes registeredKey, bytes sign, bytes lastVerified) {\n\n\t\tenroll = _users[msg.sender]._enroll;\n\t\tregisteredKey = _users[msg.sender]._registeredKey;\n\t\tsign = _users[msg.sender]._sign;\n\t\tlastVerified = _users[msg.sender]._lastVerified;\n\n\t}\n\n\tfunction getUserHistory(address to) public view returns (uint history) {\n\n\t\thistory =  _users[msg.sender]._txnHistory[to];\n\n\t}\n\n\t// ======================================================================================================================== //\n\n\t// u2f;\n\tfunction client(string clientData, string appId, uint typ) onlyKnownUser public view returns (bytes) {\n\t    \n\t    bytes memory challengeParameter;\n\t    \n\t    if (typ == 0) {\n\t        require(_users[msg.sender]._enroll.length > 0, \"No current registration request.\");\n\t        challengeParameter = Global.validateClientData(string(_users[msg.sender]._enroll), string(Base64.fromHex(clientData)), Global.getRegisterType(), appId);\n\t    }\n\t    \n\t    else {\n\t        require(_users[msg.sender]._sign.length > 0, \"No current Authentication request.\");\n\t        challengeParameter = Global.validateClientData(string(_users[msg.sender]._sign), string(Base64.fromHex(clientData)), Global.getSignType(), appId);\n\t    }\n\t    \n\t    return challengeParameter;\n\t    \n\t}\n\t\n\n\tfunction enroll(string appId) onlyKnownUser public {\n\n\t\tstring memory request = Register.beginRegistration(appId, _randNonce++);\n\t\t_users[msg.sender]._enroll = bytes(request);\n\n\t\temit RegistrationRequest(msg.sender, request, appId);\n\n\t}\n\n\n    // decoded and parsed response with format validation;\n\tfunction bind(string appId, string challengeParameter, string pubKey, string keyHandle, string certKey, string signature) onlyKnownUser public {\n        \n\t\trequire(_users[msg.sender]._enroll.length > 0, \"No current registration request.\");\n\t\t\t\t\n\t\tbytes memory device = Register.completeRegistration(Base64.fromHex(challengeParameter), pubKey, keyHandle, certKey, signature, appId);\n\n\t\tdelete _users[msg.sender]._enroll;\n\t\t\n\t\t_users[msg.sender]._registeredKey = device;\n\n\t\t_users[msg.sender]._registered = true;\n\t\t\n\t\temit RegistrationComplete(msg.sender, string(device), appId);\n\n\t}\n\n\tfunction sign(string appId) onlyKnownUser public {\n\n\t\trequire(_users[msg.sender]._registeredKey.length > 0, \"No registered key.\");\n\n\t\t// Might include algorithms for finding a key with the correct version;\n\t\tstring memory request = Authenticate.beginAuthentication(appId, _users[msg.sender]._registeredKey, _randNonce++);\n\n\t\t_users[msg.sender]._sign = bytes(request);\n\n\t\temit SignRequest(msg.sender, request, appId);\n\n\t}\n\n    // decoded and parsed signature data;\n\tfunction verify(string appId, string challengeParameter, string decodedSignatureData, string keyHandle) onlyKnownUser public {\n\n\t\trequire(_users[msg.sender]._sign.length > 0, \"No current registration request.\");\n\t\t\n\t\tbytes memory message;\n\n\t\tmessage = Authenticate.completeAuthentication(_users[msg.sender]._sign, Base64.fromHex(challengeParameter), decodedSignatureData, keyHandle, appId);\n\n\t\tdelete _users[msg.sender]._sign;\n\n\t\t_users[msg.sender]._lastVerified = message;\n\n\t\t_users[msg.sender]._signed = true;\n\t\t\n\t\temit SignComplete(msg.sender, string(message), appId);\n\n\t}\n\n\n\t// ======================================================================================================================== //\n\n\t// users;\n\tfunction registerForUser() public {\n\n\t\t_users[msg.sender]._known = true;\n\t\t_users[msg.sender]._expire = 24;\n\t\t_users[msg.sender]._pendingTime = 24;\n\t\t_users[msg.sender]._limit = 10000;\n\n\t}\n\n\tfunction setLimit(uint limit) onlyKnownUser public {\n\n\t\t_users[msg.sender]._limit = limit;\n\n\t}\n\n\tfunction setPolicy(uint policy, uint expire, uint pendingTime) onlyKnownUser checkSigned public {\n\n\t\t_users[msg.sender]._policy = policy;\n\t\t_users[msg.sender]._expire = expire;\n\t\t_users[msg.sender]._pendingTime = pendingTime;\n\n\t}\n\n\tfunction lockAccount() onlyKnownUser checkSigned public {\n\n\t\t_users[msg.sender]._lock = true;\n\n\t\temit Lock(msg.sender, address(this));\n\n\t}\n\n\tfunction unlockAccount() onlyKnownUser checkSigned public {\n\n\t\t_users[msg.sender]._lock = false;\n\n\t\temit Unlock(msg.sender, address(this));\n\n\t}\n\n\t// ======================================================================================================================== //\n\t// function;\n\tfunction transferViaManager(address to, uint amount) checkReady public payable {\n\n\t\trequire(amount <= msg.value, \"Not enough balance sent.\");\n\n\t\tif (amount > _users[msg.sender]._limit) {\n\t\t\tif ((_users[msg.sender]._policy == 0) ||\n\t\t\t\t(_users[msg.sender]._policy == 1 && (_users[msg.sender]._txnHistory[to] == 0 || now >= _users[msg.sender]._txnHistory[to] + _users[msg.sender]._expire * 1 hours))) {\n\t\t\t\t\n\t\t\t\trequire(_users[msg.sender]._signed, \"Authentication required.\");\n\t\t\t\t_users[msg.sender]._signed = false;\n\t\t\t\t_users[msg.sender]._txnHistory[to] = now;\n\t\t\t}\n\t\t\tif (amount > 2 * _users[msg.sender]._limit) {\n\n\t\t\t\tTxn memory txn = Txn({_to: to, _amount: amount, _validTime: now + _users[msg.sender]._pendingTime * 1 hours});\n\t\t\t\t_users[msg.sender]._pendingTxns.push(txn);\n\n\t\t\t\treturn;\n\t\t\t}\n\t\t}\n\n\t\tto.transfer(amount);\n\n\t}\n\n\tfunction validatePendingTxns() checkReady public payable {\n\n\t\tuint validated = 0;\n\t\tuint i = 0;\n\t\tfor (i = 0; i < _users[msg.sender]._pendingTxns.length; i++) {\n\n\t\t\tif (_users[msg.sender]._pendingTxns[i]._validTime <= now) {\n\n\t\t\t\trequire(_users[msg.sender]._pendingTxns[i]._amount <= address(this).balance, \"Not enough balance.\");\n\n\t\t\t\t_users[msg.sender]._pendingTxns[i]._to.transfer(_users[msg.sender]._pendingTxns[i]._amount);\n\t\t\t\tvalidated++;\n\n\t\t\t}\n\n\t\t}\n\n\t\tfor (i = 0; i < (_users[msg.sender]._pendingTxns.length - validated); i++) {\n\t\t\t_users[msg.sender]._pendingTxns[i] = _users[msg.sender]._pendingTxns[i + validated];\n\t\t}\n\n\t\t_users[msg.sender]._pendingTxns.length -= validated;\n\n\t}\n\n\tfunction cancelPendingTxn(uint id) checkReady public payable {\n\n\t\trequire(_users[msg.sender]._pendingTxns[id]._amount <= address(this).balance, \"Not enough balance.\");\n\n\t\tmsg.sender.transfer(_users[msg.sender]._pendingTxns[id]._amount);\n\n\t\tuint i;\n\t\tfor (i = id; i < _users[msg.sender]._pendingTxns.length - 1; i++) {\n\t\t\t_users[msg.sender]._pendingTxns[i] = _users[msg.sender]._pendingTxns[i + 1];\n\t\t}\n\n\t\t_users[msg.sender]._pendingTxns.length--;\n\n\t}\n\n\tfunction clearPendingTxns() checkReady public payable {\n\n\t\tuint i;\n\t\tuint amount = 0;\n\t\tfor (i = 0; i < _users[msg.sender]._pendingTxns.length; i++) {\n\n\t\t\tamount += _users[msg.sender]._pendingTxns[i]._amount;\n\n\t\t}\n\n\t\trequire(amount <= address(this).balance, \"Not enough balance.\");\n\n\t\tmsg.sender.transfer(amount);\n\n\t\tdelete _users[msg.sender]._pendingTxns;\n\t\t\n\t}\n\n\n}",
  "sourcePath": "/home/chxw/Desktop/worksite/develop/u2f-ethereum/contracts/Manager.sol",
  "compiler": {
    "name": "solc",
    "version": "0.4.24+commit.e67f0147.Emscripten.clang"
  },
  "schemaVersion": "3.0.5",
  "updatedAt": "2019-05-16T05:00:50.264Z",
  "devdoc": {
    "methods": {}
  },
  "userdoc": {
    "methods": {}
  }
}