{
  "contractName": "Manager",
  "abi": [
    {
      "inputs": [],
      "payable": false,
      "stateMutability": "nonpayable",
      "type": "constructor",
      "signature": "constructor"
    },
    {
      "anonymous": false,
      "inputs": [
        {
          "indexed": false,
          "name": "owner",
          "type": "address"
        },
        {
          "indexed": false,
          "name": "manager",
          "type": "address"
        }
      ],
      "name": "Lock",
      "type": "event",
      "signature": "0xfe91b4a3f0b869e79b842bb3b107673cc2b3f2c942484d11cc2ae2a5723e5ea6"
    },
    {
      "anonymous": false,
      "inputs": [
        {
          "indexed": false,
          "name": "owner",
          "type": "address"
        },
        {
          "indexed": false,
          "name": "manager",
          "type": "address"
        }
      ],
      "name": "Unlock",
      "type": "event",
      "signature": "0xe1a73032dbcf93360e474ead69c6b929f25a0ae7beaed38e82112cf2a98168f4"
    },
    {
      "anonymous": false,
      "inputs": [
        {
          "indexed": false,
          "name": "user",
          "type": "address"
        },
        {
          "indexed": false,
          "name": "request",
          "type": "string"
        },
        {
          "indexed": false,
          "name": "appId",
          "type": "string"
        }
      ],
      "name": "RegistrationRequest",
      "type": "event",
      "signature": "0x1cefe4453e9ec198729183687f6e99ed38995a433c3e3070cfcc7dfad77055b4"
    },
    {
      "anonymous": false,
      "inputs": [
        {
          "indexed": false,
          "name": "user",
          "type": "address"
        },
        {
          "indexed": false,
          "name": "device",
          "type": "string"
        },
        {
          "indexed": false,
          "name": "appId",
          "type": "string"
        }
      ],
      "name": "RegistrationComplete",
      "type": "event",
      "signature": "0xe8461f495cb4293de7658c3cb856de2f1c9b6e3cd46d865a64e205e22eb4c535"
    },
    {
      "anonymous": false,
      "inputs": [
        {
          "indexed": false,
          "name": "user",
          "type": "address"
        },
        {
          "indexed": false,
          "name": "request",
          "type": "string"
        },
        {
          "indexed": false,
          "name": "appId",
          "type": "string"
        }
      ],
      "name": "SignRequest",
      "type": "event",
      "signature": "0xd73e437175cd7a018e2398c622fddbc388b661efc2dbb45407b27a2a70f7cda8"
    },
    {
      "anonymous": false,
      "inputs": [
        {
          "indexed": false,
          "name": "user",
          "type": "address"
        },
        {
          "indexed": false,
          "name": "information",
          "type": "string"
        },
        {
          "indexed": false,
          "name": "appId",
          "type": "string"
        }
      ],
      "name": "SignComplete",
      "type": "event",
      "signature": "0xc4b916698af61452f078afbfdcf971767a64792536944b074201d595ad8e2c47"
    },
    {
      "constant": false,
      "inputs": [],
      "name": "close",
      "outputs": [],
      "payable": false,
      "stateMutability": "nonpayable",
      "type": "function",
      "signature": "0x43d726d6"
    },
    {
      "constant": true,
      "inputs": [],
      "name": "getUserInfo",
      "outputs": [
        {
          "name": "known",
          "type": "bool"
        },
        {
          "name": "policy",
          "type": "uint256"
        },
        {
          "name": "expire",
          "type": "uint256"
        },
        {
          "name": "limit",
          "type": "uint256"
        },
        {
          "name": "lock",
          "type": "bool"
        },
        {
          "name": "registered",
          "type": "bool"
        },
        {
          "name": "signed",
          "type": "bool"
        }
      ],
      "payable": false,
      "stateMutability": "view",
      "type": "function",
      "signature": "0x5d8d1585"
    },
    {
      "constant": true,
      "inputs": [],
      "name": "getUserU2F",
      "outputs": [
        {
          "name": "enroll",
          "type": "bytes"
        },
        {
          "name": "registeredKey",
          "type": "bytes"
        },
        {
          "name": "sign",
          "type": "bytes"
        },
        {
          "name": "lastVerified",
          "type": "bytes"
        }
      ],
      "payable": false,
      "stateMutability": "view",
      "type": "function",
      "signature": "0x9165e2d0"
    },
    {
      "constant": true,
      "inputs": [
        {
          "name": "to",
          "type": "address"
        }
      ],
      "name": "getUserHistory",
      "outputs": [
        {
          "name": "history",
          "type": "uint256"
        }
      ],
      "payable": false,
      "stateMutability": "view",
      "type": "function",
      "signature": "0x4fb3d3b1"
    },
    {
      "constant": true,
      "inputs": [
        {
          "name": "clientData",
          "type": "bytes"
        },
        {
          "name": "appId",
          "type": "string"
        },
        {
          "name": "typ",
          "type": "uint256"
        }
      ],
      "name": "client",
      "outputs": [
        {
          "name": "",
          "type": "bytes"
        }
      ],
      "payable": false,
      "stateMutability": "view",
      "type": "function",
      "signature": "0x729a2bd1"
    },
    {
      "constant": false,
      "inputs": [
        {
          "name": "appId",
          "type": "string"
        }
      ],
      "name": "enroll",
      "outputs": [],
      "payable": false,
      "stateMutability": "nonpayable",
      "type": "function",
      "signature": "0x67b09cdb"
    },
    {
      "constant": false,
      "inputs": [
        {
          "name": "appId",
          "type": "string"
        },
        {
          "name": "challengeParameter",
          "type": "bytes"
        },
        {
          "name": "pubKey",
          "type": "bytes"
        },
        {
          "name": "keyHandle",
          "type": "bytes"
        },
        {
          "name": "certKey",
          "type": "bytes"
        },
        {
          "name": "signature",
          "type": "bytes"
        }
      ],
      "name": "bind",
      "outputs": [],
      "payable": false,
      "stateMutability": "nonpayable",
      "type": "function",
      "signature": "0x907918a7"
    },
    {
      "constant": false,
      "inputs": [
        {
          "name": "appId",
          "type": "string"
        }
      ],
      "name": "sign",
      "outputs": [],
      "payable": false,
      "stateMutability": "nonpayable",
      "type": "function",
      "signature": "0x79d6348d"
    },
    {
      "constant": false,
      "inputs": [
        {
          "name": "appId",
          "type": "string"
        },
        {
          "name": "challengeParameter",
          "type": "bytes"
        },
        {
          "name": "decodedSignatureData",
          "type": "bytes"
        },
        {
          "name": "keyHandle",
          "type": "string"
        }
      ],
      "name": "verify",
      "outputs": [],
      "payable": false,
      "stateMutability": "nonpayable",
      "type": "function",
      "signature": "0x41908f3a"
    },
    {
      "constant": false,
      "inputs": [],
      "name": "registerForUser",
      "outputs": [],
      "payable": false,
      "stateMutability": "nonpayable",
      "type": "function",
      "signature": "0xe888949e"
    },
    {
      "constant": false,
      "inputs": [
        {
          "name": "limit",
          "type": "uint256"
        }
      ],
      "name": "setLimit",
      "outputs": [],
      "payable": false,
      "stateMutability": "nonpayable",
      "type": "function",
      "signature": "0x27ea6f2b"
    },
    {
      "constant": false,
      "inputs": [
        {
          "name": "policy",
          "type": "uint256"
        },
        {
          "name": "expire",
          "type": "uint256"
        },
        {
          "name": "pendingTime",
          "type": "uint256"
        }
      ],
      "name": "setPolicy",
      "outputs": [],
      "payable": false,
      "stateMutability": "nonpayable",
      "type": "function",
      "signature": "0x0bae7ad6"
    },
    {
      "constant": false,
      "inputs": [],
      "name": "lockAccount",
      "outputs": [],
      "payable": false,
      "stateMutability": "nonpayable",
      "type": "function",
      "signature": "0x06e1976c"
    },
    {
      "constant": false,
      "inputs": [],
      "name": "unlockAccount",
      "outputs": [],
      "payable": false,
      "stateMutability": "nonpayable",
      "type": "function",
      "signature": "0x11d7b2fe"
    },
    {
      "constant": false,
      "inputs": [
        {
          "name": "to",
          "type": "address"
        },
        {
          "name": "amount",
          "type": "uint256"
        }
      ],
      "name": "transferViaManager",
      "outputs": [],
      "payable": true,
      "stateMutability": "payable",
      "type": "function",
      "signature": "0x0e891ac4"
    },
    {
      "constant": false,
      "inputs": [],
      "name": "validatePendingTxns",
      "outputs": [],
      "payable": true,
      "stateMutability": "payable",
      "type": "function",
      "signature": "0x840da0f2"
    },
    {
      "constant": false,
      "inputs": [
        {
          "name": "id",
          "type": "uint256"
        }
      ],
      "name": "cancelPendingTxn",
      "outputs": [],
      "payable": true,
      "stateMutability": "payable",
      "type": "function",
      "signature": "0xf9cda3b2"
    },
    {
      "constant": false,
      "inputs": [],
      "name": "clearPendingTxns",
      "outputs": [],
      "payable": true,
      "stateMutability": "payable",
      "type": "function",
      "signature": "0xbe62600d"
    }
  ],
  "bytecode": "0x608060405234801561001057600080fd5b506000805560028054600160a060020a03191633179055614a7b806100366000396000f3006080604052600436106100e25763ffffffff60e060020a60003504166306e1976c81146100e75780630bae7ad6146100fe5780630e891ac41461011c57806311d7b2fe1461013357806327ea6f2b1461014857806341908f3a1461016057806343d726d6146102735780634fb3d3b1146102885780635d8d1585146102bb57806367b09cdb14610310578063729a2bd11461036957806379d6348d14610477578063840da0f2146104d0578063907918a7146104d85780639165e2d014610667578063be62600d14610826578063e888949e1461082e578063f9cda3b214610843575b600080fd5b3480156100f357600080fd5b506100fc61084e565b005b34801561010a57600080fd5b506100fc600435602435604435610973565b6100fc600160a060020a0360043516602435610a71565b34801561013f57600080fd5b506100fc610da5565b34801561015457600080fd5b506100fc600435610ec6565b34801561016c57600080fd5b506040805160206004803580820135601f81018490048402850184019095528484526100fc94369492936024939284019190819084018382808284375050604080516020601f89358b018035918201839004830284018301909452808352979a99988101979196509182019450925082915084018382808284375050604080516020601f89358b018035918201839004830284018301909452808352979a99988101979196509182019450925082915084018382808284375050604080516020601f89358b018035918201839004830284018301909452808352979a999881019791965091820194509250829150840183828082843750949750610f329650505050505050565b34801561027f57600080fd5b506100fc6114a1565b34801561029457600080fd5b506102a9600160a060020a0360043516611511565b60408051918252519081900360200190f35b3480156102c757600080fd5b506102d061153d565b604080519715158852602088019690965286860194909452606086019290925215156080850152151560a0840152151560c0830152519081900360e00190f35b34801561031c57600080fd5b506040805160206004803580820135601f81018490048402850184019095528484526100fc9436949293602493928401919081908401838280828437509497506115f09650505050505050565b34801561037557600080fd5b506040805160206004803580820135601f810184900484028501840190955284845261040294369492936024939284019190819084018382808284375050604080516020601f89358b018035918201839004830284018301909452808352979a99988101979196509182019450925082915084018382808284375094975050933594506118e09350505050565b6040805160208082528351818301528351919283929083019185019080838360005b8381101561043c578181015183820152602001610424565b50505050905090810190601f1680156104695780820380516001836020036101000a031916815260200191505b509250505060405180910390f35b34801561048357600080fd5b506040805160206004803580820135601f81018490048402850184019095528484526100fc943694929360249392840191908190840183828082843750949750611bc19650505050505050565b6100fc611f2d565b3480156104e457600080fd5b506040805160206004803580820135601f81018490048402850184019095528484526100fc94369492936024939284019190819084018382808284375050604080516020601f89358b018035918201839004830284018301909452808352979a99988101979196509182019450925082915084018382808284375050604080516020601f89358b018035918201839004830284018301909452808352979a99988101979196509182019450925082915084018382808284375050604080516020601f89358b018035918201839004830284018301909452808352979a99988101979196509182019450925082915084018382808284375050604080516020601f89358b018035918201839004830284018301909452808352979a99988101979196509182019450925082915084018382808284375050604080516020601f89358b018035918201839004830284018301909452808352979a99988101979196509182019450925082915084018382808284375094975061222c9650505050505050565b34801561067357600080fd5b5061067c6127b9565b6040518080602001806020018060200180602001858103855289818151815260200191508051906020019080838360005b838110156106c55781810151838201526020016106ad565b50505050905090810190601f1680156106f25780820380516001836020036101000a031916815260200191505b5085810384528851815288516020918201918a019080838360005b8381101561072557818101518382015260200161070d565b50505050905090810190601f1680156107525780820380516001836020036101000a031916815260200191505b50858103835287518152875160209182019189019080838360005b8381101561078557818101518382015260200161076d565b50505050905090810190601f1680156107b25780820380516001836020036101000a031916815260200191505b50858103825286518152865160209182019188019080838360005b838110156107e55781810151838201526020016107cd565b50505050905090810190601f1680156108125780820380516001836020036101000a031916815260200191505b509850505050505050505060405180910390f35b6100fc612a9c565b34801561083a57600080fd5b506100fc612c22565b6100fc600435612c58565b3360009081526001602052604090205460ff1615156108a5576040805160e560020a62461bcd0281526020600482015260126024820152600080516020614a30833981519152604482015290519081900360640190fd5b3360009081526001602052604090206009015462010000900460ff161515610917576040805160e560020a62461bcd02815260206004820152600b60248201527f4e6f74207369676e65642e000000000000000000000000000000000000000000604482015290519081900360640190fd5b33600081815260016020818152604092839020600901805462ff00ff19169092179091558151928352309083015280517ffe91b4a3f0b869e79b842bb3b107673cc2b3f2c942484d11cc2ae2a5723e5ea69281900390910190a1565b3360009081526001602052604090205460ff1615156109ca576040805160e560020a62461bcd0281526020600482015260126024820152600080516020614a30833981519152604482015290519081900360640190fd5b3360009081526001602052604090206009015462010000900460ff161515610a3c576040805160e560020a62461bcd02815260206004820152600b60248201527f4e6f74207369676e65642e000000000000000000000000000000000000000000604482015290519081900360640190fd5b33600090815260016020526040902060098101805462ff00001916905560058101939093556006830191909155600790910155565b610a79614820565b33600090815260016020526040902060090154610100900460ff168015610ab357503360009081526001602052604090206009015460ff16155b1515610af7576040805160e560020a62461bcd0281526020600482015260196024820152600080516020614a10833981519152604482015290519081900360640190fd5b34821115610b4f576040805160e560020a62461bcd02815260206004820152601860248201527f4e6f7420656e6f7567682062616c616e63652073656e742e0000000000000000604482015290519081900360640190fd5b33600090815260016020526040902060080154821115610d6857336000908152600160205260409020600501541580610c09575033600090815260016020819052604090912060050154148015610c095750336000908152600160209081526040808320600160a060020a0387168452600a019091529020541580610c0957503360009081526001602090815260408083206006810154600160a060020a0388168552600a90910190925290912054610e10909102014210155b15610cb8573360009081526001602052604090206009015462010000900460ff161515610c80576040805160e560020a62461bcd02815260206004820152601860248201527f41757468656e7469636174696f6e2072657175697265642e0000000000000000604482015290519081900360640190fd5b33600090815260016020908152604080832060098101805462ff000019169055600160a060020a0387168452600a0190915290204290555b33600090815260016020526040902060080154600202821115610d68575060408051606081018252600160a060020a038481168252602080830185815233600090815260018084528682206007810154610e10024201978701978852818552600b0180548083018255908352939091208551600390940201805473ffffffffffffffffffffffffffffffffffffffff19169390941692909217835551908201559151600290920191909155610da0565b604051600160a060020a0384169083156108fc029084906000818181858888f19350505050158015610d9e573d6000803e3d6000fd5b505b505050565b3360009081526001602052604090205460ff161515610dfc576040805160e560020a62461bcd0281526020600482015260126024820152600080516020614a30833981519152604482015290519081900360640190fd5b3360009081526001602052604090206009015462010000900460ff161515610e6e576040805160e560020a62461bcd02815260206004820152600b60248201527f4e6f74207369676e65642e000000000000000000000000000000000000000000604482015290519081900360640190fd5b33600081815260016020908152604091829020600901805462ff00ff191690558151928352309083015280517fe1a73032dbcf93360e474ead69c6b929f25a0ae7beaed38e82112cf2a98168f49281900390910190a1565b3360009081526001602052604090205460ff161515610f1d576040805160e560020a62461bcd0281526020600482015260126024820152600080516020614a30833981519152604482015290519081900360640190fd5b33600090815260016020526040902060080155565b3360009081526001602052604090205460609060ff161515610f8c576040805160e560020a62461bcd0281526020600482015260126024820152600080516020614a30833981519152604482015290519081900360640190fd5b33600090815260016020819052604082206002908101549182161561010002600019019091160411611008576040805160e560020a62461bcd02815260206004820181905260248201527f4e6f2063757272656e7420726567697374726174696f6e20726571756573742e604482015290519081900360640190fd5b73__Authenticate__________________________63e18c79706001600033600160a060020a0316600160a060020a031681526020019081526020016000206002018686868a6040518663ffffffff1660e060020a02815260040180806020018060200180602001806020018060200186810386528b8181546001816001161561010002031660029004815260200191508054600181600116156101000203166002900480156110f95780601f106110ce576101008083540402835291602001916110f9565b820191906000526020600020905b8154815290600101906020018083116110dc57829003601f168201915b505086810385528a5181528a516020918201918c019080838360005b8381101561112d578181015183820152602001611115565b50505050905090810190601f16801561115a5780820380516001836020036101000a031916815260200191505b5086810384528951815289516020918201918b019080838360005b8381101561118d578181015183820152602001611175565b50505050905090810190601f1680156111ba5780820380516001836020036101000a031916815260200191505b5086810383528851815288516020918201918a019080838360005b838110156111ed5781810151838201526020016111d5565b50505050905090810190601f16801561121a5780820380516001836020036101000a031916815260200191505b50868103825287518152875160209182019189019080838360005b8381101561124d578181015183820152602001611235565b50505050905090810190601f16801561127a5780820380516001836020036101000a031916815260200191505b509a505050505050505050505060006040518083038186803b15801561129f57600080fd5b505af41580156112b3573d6000803e3d6000fd5b505050506040513d6000823e601f3d908101601f1916820160405260208110156112dc57600080fd5b8101908080516401000000008111156112f457600080fd5b8201602081018481111561130757600080fd5b815164010000000081118282018710171561132157600080fd5b5050336000908152600160205260408120919550611348945060029091019250905061484b565b336000908152600160209081526040909120825161136e92600490920191840190614892565b50336000818152600160209081526040808320600901805462ff00001916620100001790558051848152606081840181815287519183019190915286517fc4b916698af61452f078afbfdcf971767a64792536944b074201d595ad8e2c47969588958d958501926080860192918801918190849084905b838110156113fd5781810151838201526020016113e5565b50505050905090810190601f16801561142a5780820380516001836020036101000a031916815260200191505b50838103825284518152845160209182019186019080838360005b8381101561145d578181015183820152602001611445565b50505050905090810190601f16801561148a5780820380516001836020036101000a031916815260200191505b509550505050505060405180910390a15050505050565b600254600160a060020a03163314611503576040805160e560020a62461bcd02815260206004820152601d60248201527f4f7074696f6e206772616e746564206f6e6c7920746f206f776e65722e000000604482015290519081900360640190fd5b600254600160a060020a0316ff5b336000908152600160209081526040808320600160a060020a03949094168352600a9093019052205490565b3360009081526001602052604081205481908190819081908190819060ff1615156115a0576040805160e560020a62461bcd0281526020600482015260126024820152600080516020614a30833981519152604482015290519081900360640190fd5b5050336000908152600160205260409020805460058201546006830154600884015460099094015460ff9384169a9299509097509295508282169450610100830482169350620100009092041690565b3360009081526001602052604090205460609060ff16151561164a576040805160e560020a62461bcd0281526020600482015260126024820152600080516020614a30833981519152604482015290519081900360640190fd5b73__Register______________________________63c55c724383600080815480929190600101919050556040518363ffffffff1660e060020a0281526004018080602001838152602001828103825284818151815260200191508051906020019080838360005b838110156116ca5781810151838201526020016116b2565b50505050905090810190601f1680156116f75780820380516001836020036101000a031916815260200191505b50935050505060006040518083038186803b15801561171557600080fd5b505af4158015611729573d6000803e3d6000fd5b505050506040513d6000823e601f3d908101601f19168201604052602081101561175257600080fd5b81019080805164010000000081111561176a57600080fd5b8201602081018481111561177d57600080fd5b815164010000000081118282018710171561179757600080fd5b505033600090815260016020818152604090922083519397506117c1965001935085019150614892565b507f1cefe4453e9ec198729183687f6e99ed38995a433c3e3070cfcc7dfad77055b43382846040518084600160a060020a0316600160a060020a031681526020018060200180602001838103835285818151815260200191508051906020019080838360005b8381101561183f578181015183820152602001611827565b50505050905090810190601f16801561186c5780820380516001836020036101000a031916815260200191505b50838103825284518152845160209182019186019080838360005b8381101561189f578181015183820152602001611887565b50505050905090810190601f1680156118cc5780820380516001836020036101000a031916815260200191505b509550505050505060405180910390a15050565b33600090815260016020526040902054606090819060ff16151561193c576040805160e560020a62461bcd0281526020600482015260126024820152600080516020614a30833981519152604482015290519081900360640190fd5b821515611a6f57336000908152600160208190526040822081015460029181161561010002600019011604116119bc576040805160e560020a62461bcd02815260206004820181905260248201527f4e6f2063757272656e7420726567697374726174696f6e20726571756573742e604482015290519081900360640190fd5b33600090815260016020818152604092839020820180548451600294821615610100026000190190911693909304601f8101839004830284018301909452838352611a68939091830182828015611a545780601f10611a2957610100808354040283529160200191611a54565b820191906000526020600020905b815481529060010190602001808311611a3757829003601f168201915b505050505086611a62612eb6565b87612eee565b9050611bb9565b33600090815260016020819052604082206002908101549182161561010002600019019091160411611b11576040805160e560020a62461bcd02815260206004820152602260248201527f4e6f2063757272656e742041757468656e7469636174696f6e2072657175657360448201527f742e000000000000000000000000000000000000000000000000000000000000606482015290519081900360840190fd5b336000908152600160208181526040928390206002908101805485519481161561010002600019011691909104601f8101839004830284018301909452838352611bb6939091830182828015611ba85780601f10611b7d57610100808354040283529160200191611ba8565b820191906000526020600020905b815481529060010190602001808311611b8b57829003601f168201915b505050505086611a626133d5565b90505b949350505050565b3360009081526001602052604090205460609060ff161515611c1b576040805160e560020a62461bcd0281526020600482015260126024820152600080516020614a30833981519152604482015290519081900360640190fd5b3360009081526001602081905260408220600301546002918116156101000260001901160411611c95576040805160e560020a62461bcd02815260206004820152601260248201527f4e6f2072656769737465726564206b65792e0000000000000000000000000000604482015290519081900360640190fd5b3360009081526001602081815260408084208454938401855590517f66138f970000000000000000000000000000000000000000000000000000000081526044810184905260606004820190815287516064830152875173__Authenticate__________________________966366138f97968a966003909601959094849360248201936084909201928901918190849084905b83811015611d41578181015183820152602001611d29565b50505050905090810190601f168015611d6e5780820380516001836020036101000a031916815260200191505b50838103825285546002600019610100600184161502019091160480825260209091019086908015611de15780601f10611db657610100808354040283529160200191611de1565b820191906000526020600020905b815481529060010190602001808311611dc457829003601f168201915b50509550505050505060006040518083038186803b158015611e0257600080fd5b505af4158015611e16573d6000803e3d6000fd5b505050506040513d6000823e601f3d908101601f191682016040526020811015611e3f57600080fd5b810190808051640100000000811115611e5757600080fd5b82016020810184811115611e6a57600080fd5b8151640100000000811182820187101715611e8457600080fd5b50503360009081526001602090815260409091208251929650611eb09550600201935085019150614892565b507fd73e437175cd7a018e2398c622fddbc388b661efc2dbb45407b27a2a70f7cda83382846040518084600160a060020a0316600160a060020a031681526020018060200180602001838103835285818151815260200191508051906020019080838360008381101561183f578181015183820152602001611827565b336000908152600160205260408120600901548190610100900460ff168015611f6957503360009081526001602052604090206009015460ff16155b1515611fad576040805160e560020a62461bcd0281526020600482015260196024820152600080516020614a10833981519152604482015290519081900360640190fd5b5060009050805b336000908152600160205260409020600b015481101561213f57336000908152600160205260409020600b01805442919083908110611fef57fe5b90600052602060002090600302016002015411151561213757336000908152600160205260409020600b018054303191908390811061202a57fe5b90600052602060002090600302016001015411151515612094576040805160e560020a62461bcd02815260206004820152601360248201527f4e6f7420656e6f7567682062616c616e63652e00000000000000000000000000604482015290519081900360640190fd5b336000908152600160205260409020600b018054829081106120b257fe5b6000918252602080832060039092029091015433835260019091526040909120600b018054600160a060020a03909216916108fc9190849081106120f257fe5b9060005260206000209060030201600101549081150290604051600060405180830381858888f1935050505015801561212f573d6000803e3d6000fd5b506001909101905b600101611fb4565b5060005b336000908152600160205260409020600b015482900381101561220a57336000908152600160205260409020600b01805482840190811061218057fe5b6000918252602080832033845260019091526040909220600b01805460039092029092019190839081106121b057fe5b600091825260209091208254600390920201805473ffffffffffffffffffffffffffffffffffffffff1916600160a060020a0390921691909117815560018083015481830155600292830154929091019190915501612143565b336000908152600160205260409020600b01805483900390610da09082614910565b3360009081526001602052604090205460609060ff161515612286576040805160e560020a62461bcd0281526020600482015260126024820152600080516020614a30833981519152604482015290519081900360640190fd5b336000908152600160208190526040822081015460029181161561010002600019011604116122ff576040805160e560020a62461bcd02815260206004820181905260248201527f4e6f2063757272656e7420726567697374726174696f6e20726571756573742e604482015290519081900360640190fd5b73__Register______________________________63eb47002e87878787878d6040518763ffffffff1660e060020a0281526004018080602001806020018060200180602001806020018060200187810387528d818151815260200191508051906020019080838360005b8381101561238257818101518382015260200161236a565b50505050905090810190601f1680156123af5780820380516001836020036101000a031916815260200191505b5087810386528c5181528c516020918201918e019080838360005b838110156123e25781810151838201526020016123ca565b50505050905090810190601f16801561240f5780820380516001836020036101000a031916815260200191505b5087810385528b5181528b516020918201918d019080838360005b8381101561244257818101518382015260200161242a565b50505050905090810190601f16801561246f5780820380516001836020036101000a031916815260200191505b5087810384528a5181528a516020918201918c019080838360005b838110156124a257818101518382015260200161248a565b50505050905090810190601f1680156124cf5780820380516001836020036101000a031916815260200191505b5087810383528951815289516020918201918b019080838360005b838110156125025781810151838201526020016124ea565b50505050905090810190601f16801561252f5780820380516001836020036101000a031916815260200191505b5087810382528851815288516020918201918a019080838360005b8381101561256257818101518382015260200161254a565b50505050905090810190601f16801561258f5780820380516001836020036101000a031916815260200191505b509c5050505050505050505050505060006040518083038186803b1580156125b657600080fd5b505af41580156125ca573d6000803e3d6000fd5b505050506040513d6000823e601f3d908101601f1916820160405260208110156125f357600080fd5b81019080805164010000000081111561260b57600080fd5b8201602081018481111561261e57600080fd5b815164010000000081118282018710171561263857600080fd5b505033600090815260016020819052604082209296506126609550919091019250905061484b565b336000908152600160209081526040909120825161268692600390920191840190614892565b50336000818152600160209081526040808320600901805461ff0019166101001790558051848152606081840181815287519183019190915286517fe8461f495cb4293de7658c3cb856de2f1c9b6e3cd46d865a64e205e22eb4c535969588958f958501926080860192918801918190849084905b838110156127135781810151838201526020016126fb565b50505050905090810190601f1680156127405780820380516001836020036101000a031916815260200191505b50838103825284518152845160209182019186019080838360005b8381101561277357818101518382015260200161275b565b50505050905090810190601f1680156127a05780820380516001836020036101000a031916815260200191505b509550505050505060405180910390a150505050505050565b3360009081526001602052604090205460609081908190819060ff161515612819576040805160e560020a62461bcd0281526020600482015260126024820152600080516020614a30833981519152604482015290519081900360640190fd5b33600090815260016020818152604092839020820180548451600294821615610100026000190190911693909304601f81018390048302840183019094528383529192908301828280156128ae5780601f10612883576101008083540402835291602001916128ae565b820191906000526020600020905b81548152906001019060200180831161289157829003601f168201915b50503360009081526001602081815260409283902060030180548451600294821615610100026000190190911693909304601f8101839004830284018301909452838352969a5090959450909250840190508282801561294f5780601f106129245761010080835404028352916020019161294f565b820191906000526020600020905b81548152906001019060200180831161293257829003601f168201915b5050336000908152600160208181526040928390206002908101805485519481161561010002600019011691909104601f81018390048302840183019094528383529699509095945090925084019050828280156129ee5780601f106129c3576101008083540402835291602001916129ee565b820191906000526020600020905b8154815290600101906020018083116129d157829003601f168201915b50503360009081526001602081815260409283902060040180548451600294821615610100026000190190911693909304601f8101839004830284018301909452838352969850909594509092508401905082828015612a8f5780601f10612a6457610100808354040283529160200191612a8f565b820191906000526020600020905b815481529060010190602001808311612a7257829003601f168201915b5050505050905090919293565b336000908152600160205260408120600901548190610100900460ff168015612ad857503360009081526001602052604090206009015460ff16155b1515612b1c576040805160e560020a62461bcd0281526020600482015260196024820152600080516020614a10833981519152604482015290519081900360640190fd5b5060009050805b336000908152600160205260409020600b0154821015612b7957336000908152600160205260409020600b01805483908110612b5b57fe5b60009182526020909120600160039092020181015492019101612b23565b3031811115612bd2576040805160e560020a62461bcd02815260206004820152601360248201527f4e6f7420656e6f7567682062616c616e63652e00000000000000000000000000604482015290519081900360640190fd5b604051339082156108fc029083906000818181858888f19350505050158015612bff573d6000803e3d6000fd5b50336000908152600160205260408120612c1e91600b9091019061493c565b5050565b336000908152600160208190526040909120805460ff191690911781556018600682018190556007820155612710600890910155565b33600090815260016020526040812060090154610100900460ff168015612c9257503360009081526001602052604090206009015460ff16155b1515612cd6576040805160e560020a62461bcd0281526020600482015260196024820152600080516020614a10833981519152604482015290519081900360640190fd5b336000908152600160205260409020600b0180543031919084908110612cf857fe5b90600052602060002090600302016001015411151515612d62576040805160e560020a62461bcd02815260206004820152601360248201527f4e6f7420656e6f7567682062616c616e63652e00000000000000000000000000604482015290519081900360640190fd5b336000818152600160205260409020600b0180546108fc919085908110612d8557fe5b9060005260206000209060030201600101549081150290604051600060405180830381858888f19350505050158015612dc2573d6000803e3d6000fd5b508190505b336000908152600160205260409020600b015460001901811015612e9357336000908152600160208190526040909120600b01805490918301908110612e0957fe5b6000918252602080832033845260019091526040909220600b0180546003909202909201919083908110612e3957fe5b600091825260209091208254600390920201805473ffffffffffffffffffffffffffffffffffffffff1916600160a060020a0390921691909117815560018083015481830155600292830154929091019190915501612dc7565b336000908152600160205260409020600b01805490610da0906000198301614910565b60408051808201909152601d81527f6e6176696761746f722e69642e66696e697368456e726f6c6c6d656e7400000060208201525b90565b6060806060846040518082805190602001908083835b60208310612f235780518252601f199092019160209182019101612f04565b51815160209384036101000a600019018019909216911617905260408051929094018290038220828501909452600382527f747970000000000000000000000000000000000000000000000000000000000090820152919350612f919250899050612f8c61340c565b613411565b6040518082805190602001908083835b60208310612fc05780518252601f199092019160209182019101612fa1565b6001836020036101000a038019825116818451168082178552505050505050905001915050604051809103902060001916141515613048576040805160e560020a62461bcd02815260206004820152600b60248201527f57726f6e6720747970652e000000000000000000000000000000000000000000604482015290519081900360640190fd5b61308a6040805190810160405280600981526020017f6368616c6c656e6765000000000000000000000000000000000000000000000081525088612f8c61340c565b91506130ce6040805190810160405280600981526020017f6368616c6c656e6765000000000000000000000000000000000000000000000081525087612f8c61340c565b9050806040518082805190602001908083835b602083106131005780518252601f1990920191602091820191016130e1565b51815160209384036101000a6000190180199092169116179052604051919093018190038120875190955087945090928392508401908083835b602083106131595780518252601f19909201916020918201910161313a565b6001836020036101000a0380198251168184511680821785525050505050509050019150506040518091039020600019161415156131e1576040805160e560020a62461bcd02815260206004820152601060248201527f57726f6e67206368616c6c656e67652e00000000000000000000000000000000604482015290519081900360640190fd5b83511561333857836040518082805190602001908083835b602083106132185780518252601f1990920191602091820191016131f9565b51815160209384036101000a600019018019909216911617905260408051929094018290038220828501909452600682527f6f726967696e0000000000000000000000000000000000000000000000000000908201529193506132819250899050612f8c61340c565b6040518082805190602001908083835b602083106132b05780518252601f199092019160209182019101613291565b6001836020036101000a038019825116818451168082178552505050505050905001915050604051809103902060001916141515613338576040805160e560020a62461bcd02815260206004820152600e60248201527f496e76616c69642066616365742e000000000000000000000000000000000000604482015290519081900360640190fd5b6133ca6002876040518082805190602001908083835b6020831061336d5780518252601f19909201916020918201910161334e565b51815160209384036101000a600019018019909216911617905260405191909301945091925050808303816000865af11580156133ae573d6000803e3d6000fd5b5050506040513d60208110156133c357600080fd5b505161364c565b979650505050505050565b60408051808201909152601981527f6e6176696761746f722e69642e676574417373657274696f6e00000000000000602082015290565b600b90565b6060600080606061342061495d565b6060600061342e89896136f7565b919750909550935085156134b2576040805160e560020a62461bcd02815260206004820152602260248201527f4a534f4e20706172736572206e6f742070726f7065726c792072657475726e6560448201527f642e000000000000000000000000000000000000000000000000000000000000606482015290519081900360840190fd5b5060005b848110156135ef5783818151811015156134cc57fe5b9060200190602002015192506134eb898460200151856060015161401f565b9150816040518082805190602001908083835b6020831061351d5780518252601f1990920191602091820191016134fe565b51815160209384036101000a60001901801990921691161790526040519190930181900381208f519095508f945090928392508401908083835b602083106135765780518252601f199092019160209182019101613557565b6001836020036101000a03801982511681845116808217855250505050505090500191505060405180910390206000191614156135e75783816001018151811015156135be57fe5b9060200190602002015192506135dd898460200151856060015161401f565b915081965061363f565b6001016134b6565b6040805160e560020a62461bcd02815260206004820152601060248201527f4669656c64206e6f7420666f756e642e00000000000000000000000000000000604482015290519081900360640190fd5b5050505050509392505050565b60408051602080825281830190925260609182916000918291829180820161040080388339019050509350859150600090505b60208110156136ed5780601f0360080260020a8281151561369c57fe5b06925080601f0360080260020a8383038115156136b557fe5b0460f860020a0284828151811015156136ca57fe5b906020010190600160f860020a031916908160001a90535082915060010161367f565b5091949350505050565b60006060600060606000613709614994565b600080600061371661495d565b60008060008e99506137278e6140c3565b6020820151909d5090985095505b8951885110156140025787518a518b9190811061374e57fe5b016020015160f860020a908190040292507f7b00000000000000000000000000000000000000000000000000000000000000600160f860020a0319841614806137c057507f5b00000000000000000000000000000000000000000000000000000000000000600160f860020a03198416145b156138a5576001909501946137d5888d61413f565b90995093508815156137ee5760039c5060009a5061400e565b604088015160001914613826578b886040015181518110151561380d57fe5b602090810291909101015160a001805160010160ff1690525b7f7b00000000000000000000000000000000000000000000000000000000000000600160f860020a031984161461385e576002613861565b60015b8490600481111561386e57fe5b9081600481111561387b57fe5b90525087516020808601919091526001604080870191909152908901516000190190890152613ff6565b7f7d00000000000000000000000000000000000000000000000000000000000000600160f860020a03198416148061390657507f5d00000000000000000000000000000000000000000000000000000000000000600160f860020a03198416145b15613ade577f7d00000000000000000000000000000000000000000000000000000000000000600160f860020a0319841614613943576002613946565b60015b915060009050600188602001510394505b60008510613a20578b8581518110151561396d57fe5b9060200190602002015193508360400151801561398c57508360800151155b15613a145781600481111561399d57fe5b845160048111156139aa57fe5b146139bc5760019c5060009a5061400e565b600019604089015287518c516001909101908d90879081106139da57fe5b60209081029091010151606001528b516001908d90879081106139f957fe5b60209081029091010151901515608090910152506001613a20565b60001990940193613957565b801515613a345760019c5060009a5061400e565b6000851115613a87578b85815181101515613a4b57fe5b90602001906020020151935083604001518015613a6a57508360800151155b15613a7b5760408801859052613a87565b60001990940193613a34565b841515613ad9578b85815181101515613a9c57fe5b90602001906020020151935083604001518015613abb57508360800151155b15613ad9576fffffffffffffffffffffffffffffffff851660408901525b613ff6565b7f2200000000000000000000000000000000000000000000000000000000000000600160f860020a031984161415613b7357613b1b888d8c6141f0565b96508615613b3157959b50600099508b9561400e565b604088015160019096019560001914613ad9578b8860400151815181101515613b5657fe5b602090810291909101015160a001805160010160ff169052613ff6565b60fd60020a600160f860020a031984161480613bb857507f1100000000000000000000000000000000000000000000000000000000000000600160f860020a03198416145b80613bec57507f1200000000000000000000000000000000000000000000000000000000000000600160f860020a03198416145b80613c2057507f1400000000000000000000000000000000000000000000000000000000000000600160f860020a03198416145b15613c2a57613ff6565b7f3a00000000000000000000000000000000000000000000000000000000000000600160f860020a031984161415613c6f576020880151600019016040890152613ff6565b7f2c00000000000000000000000000000000000000000000000000000000000000600160f860020a031984161415613de357876040015160001914158015613cdf575060028c8960400151815181101515613cc657fe5b60209081029091010151516004811115613cdc57fe5b14155b8015613d13575060018c8960400151815181101515613cfa57fe5b60209081029091010151516004811115613d1057fe5b14155b15613ad957600188602001510394505b60008510613ad95760028c86815181101515613d3b57fe5b60209081029091010151516004811115613d5157fe5b1480613d80575060018c86815181101515613d6857fe5b60209081029091010151516004811115613d7e57fe5b145b15613dd7578b85815181101515613d9357fe5b90602001906020020151604001518015613dc657508b85815181101515613db657fe5b9060200190602002015160800151155b15613dd75760408801859052613ad9565b60001990940193613d23565b7f3000000000000000000000000000000000000000000000000000000000000000600160f860020a0319841610801590613e4757507f3900000000000000000000000000000000000000000000000000000000000000600160f860020a0319841611155b80613e7b57507f2d00000000000000000000000000000000000000000000000000000000000000600160f860020a03198416145b80613eaf57507f6600000000000000000000000000000000000000000000000000000000000000600160f860020a03198416145b80613ee357507f7400000000000000000000000000000000000000000000000000000000000000600160f860020a03198416145b80613f1757507f6e00000000000000000000000000000000000000000000000000000000000000600160f860020a03198416145b15613f9c57604088015160001914613f91578b8860400151815181101515613f3b57fe5b602090810290910101519350600184516004811115613f5657fe5b1480613f7f5750600384516004811115613f6c57fe5b148015613f7f575060a084015160ff1615155b15613f915760019c5060009a5061400e565b613b1b888d8c6145a3565b60fd60020a600160f860020a0319841610801590613fe457507f7e00000000000000000000000000000000000000000000000000000000000000600160f860020a0319841611155b15613ff65760019c5060009a5061400e565b87516001018852613735565b602088015160009d509a505b505050505050505050509250925092565b606080606060008692508585036040519080825280601f01601f191660200182016040528015614059578160200160208202803883390190505b5091508590505b848110156140b957828181518110151561407657fe5b90602001015160f860020a900460f860020a028287830381518110151561409957fe5b906020010190600160f860020a031916908160001a905350600101614060565b5095945050505050565b6140cb614994565b60606140d5614994565b60608060405190810160405280600081526020016000815260200160001981525091508460405190808252806020026020018201604052801561413257816020015b61411f61495d565b8152602001906001900390816141175790505b5091959194509092505050565b600061414961495d565b61415161495d565b835160208601511061418557600084600186510381518110151561417157fe5b6020908102909101015190935091506141e8565b506040805160c08101825260008082526020808301829052928201819052606082018190526080820181905260a08201529085015184518291869181106141c857fe5b602090810290910181019190915285018051600190810190915292509050805b509250929050565b60008060006141fd61495d565b8651600181018852925060005b8551885110156145905787518651879190811061422357fe5b016020015160f860020a908190040290507f2200000000000000000000000000000000000000000000000000000000000000600160f860020a0319821614156142a557614270888861413f565b90935091508215156142885783885260039450614598565b61429c826003866001018b600001516147da565b60009450614598565b605c60ff60f860020a8304161480156142c2575085518851600101105b15614584578751600101808952865187919081106142dc57fe5b90602001015160f860020a900460f860020a02600160f860020a0319167f22000000000000000000000000000000000000000000000000000000000000001480614370575087518651879190811061433057fe5b90602001015160f860020a900460f860020a02600160f860020a0319167f2f00000000000000000000000000000000000000000000000000000000000000145b806143c5575087518651879190811061438557fe5b90602001015160f860020a900460f860020a02600160f860020a0319167f5c00000000000000000000000000000000000000000000000000000000000000145b8061441a57508751865187919081106143da57fe5b90602001015160f860020a900460f860020a02600160f860020a0319167f6600000000000000000000000000000000000000000000000000000000000000145b8061446f575087518651879190811061442f57fe5b90602001015160f860020a900460f860020a02600160f860020a0319167f7200000000000000000000000000000000000000000000000000000000000000145b806144c4575087518651879190811061448457fe5b90602001015160f860020a900460f860020a02600160f860020a0319167f6e00000000000000000000000000000000000000000000000000000000000000145b8061451957508751865187919081106144d957fe5b90602001015160f860020a900460f860020a02600160f860020a0319167f6200000000000000000000000000000000000000000000000000000000000000145b8061456e575087518651879190811061452e57fe5b90602001015160f860020a900460f860020a02600160f860020a0319167f7400000000000000000000000000000000000000000000000000000000000000145b1561457857614584565b83885260019450614598565b8751600101885261420a565b838852600294505b505050509392505050565b60008060008060006145b361495d565b88516000955093505b86518951101561477b578851875188919081106145d557fe5b016020015160f860020a9081900402925060fd60020a600160f860020a03198416148061462b57507f0900000000000000000000000000000000000000000000000000000000000000600160f860020a03198416145b8061465f57507f0a00000000000000000000000000000000000000000000000000000000000000600160f860020a03198416145b8061469357507f0d00000000000000000000000000000000000000000000000000000000000000600160f860020a03198416145b806146c757507f2c00000000000000000000000000000000000000000000000000000000000000600160f860020a03198416145b806146fb57507f7d00000000000000000000000000000000000000000000000000000000000000600160f860020a03198416145b8061472f57507f5d00000000000000000000000000000000000000000000000000000000000000600160f860020a03198416145b1561473d576001945061477b565b602060ff60f860020a850416108061475e5750607f60ff60f860020a850416115b1561476f57838952600195506147ce565b885160010189526145bc565b84151561478e57838952600295506147ce565b614798898961413f565b90925090508115156147b057838952600395506147ce565b6147c1816004868c600001516147da565b8851600019018952600095505b50505050509392505050565b838360048111156147e757fe5b908160048111156147f457fe5b90525060208401919091526001604084018190526060840191909152608083015250600060a090910152565b6060604051908101604052806000600160a060020a0316815260200160008152602001600081525090565b50805460018160011615610100020316600290046000825580601f10614871575061488f565b601f01602090049060005260206000209081019061488f91906149b6565b50565b828054600181600116156101000203166002900490600052602060002090601f016020900481019282601f106148d357805160ff1916838001178555614900565b82800160010185558215614900579182015b828111156149005782518255916020019190600101906148e5565b5061490c9291506149b6565b5090565b815481835581811115610da057600302816003028360005260206000209182019101610da091906149d0565b508054600082556003029060005260206000209081019061488f91906149d0565b6040805160c08101909152806000815260006020820181905260408201819052606082018190526080820181905260a09091015290565b6060604051908101604052806000815260200160008152602001600081525090565b612eeb91905b8082111561490c57600081556001016149bc565b612eeb91905b8082111561490c57805473ffffffffffffffffffffffffffffffffffffffff1916815560006001820181905560028201556003016149d656004e6f742072656769737465726564206f72206c6f636b65642e00000000000000556e7265636f676e697a656420757365722e0000000000000000000000000000a165627a7a7230582062dbc5d5885a76a0d4f3a7fac8081ebe6d1e91d87c85e80d5b1b80bafc897dc40029",
  "source": "pragma solidity >=0.4.21 <0.5.0;\n\nimport \"./Utils.sol\";\nimport \"./Base64.sol\";\n\nimport \"./Global.sol\";\nimport \"./Register.sol\";\nimport \"./Authenticate.sol\";\n\n\ncontract Manager {\n\n\t// ======================================================================================================================== //\n\n\t// server;\n\tuint _randNonce;\n\n\tstruct Txn {\n\n\t\taddress _to;\n\t\tuint _amount;\n\t\tuint _validTime;\n\n\t}\n\n\tstruct User {\n\t\tbool _known;\n\t\t// u2f data;\n\t\tbytes _enroll;\n\t\tbytes _sign;\n\t\tbytes _registeredKey;\n\t\tbytes _lastVerified;\n\t\t// policy data;\n\t\tuint _policy;\n\t\t/*\n\t\t\t0: strict;\n\t\t\t1: history;\n\t\t*/\n\t\tuint _expire;\n\t\tuint _pendingTime;\n\n\t\tuint _limit;\n\t\t// account data;\n\t\tbool _lock;\n\t\tbool _registered;\n\t\tbool _signed;\n\t\t// history;\n\t\tmapping(address => uint) _txnHistory;\n\t\t// delayed transaction;\n\t\tTxn[] _pendingTxns;\n\t}\n\n\tmapping(address => User) _users;\n\taddress _owner;\n\n\t// event Transfer(address from, address to, uint amount);\n\tevent Lock(address owner, address manager);\n\tevent Unlock(address owner, address manager);\n\n\tevent RegistrationRequest(address user, string request, string appId);\n\tevent RegistrationComplete(address user, string device, string appId);\n\tevent SignRequest(address user, string request, string appId);\n\tevent SignComplete(address user, string information, string appId);\n\n\tconstructor() public {\n\t\t_randNonce = 0;\n\t\t_owner = msg.sender;\n\t}\n\n\tmodifier onlyOwner {\n\n\t\trequire(msg.sender == _owner, \"Option granted only to owner.\");\n\t\t_;\n\n\t}\n\n\tmodifier onlyKnownUser {\n\n\t\trequire(_users[msg.sender]._known, \"Unrecognized user.\");\n\t\t_;\n\n\t}\n\n\tmodifier checkReady {\n\n\t\trequire(_users[msg.sender]._registered && !_users[msg.sender]._lock, \"Not registered or locked.\");\n\t\t_;\n\n\t}\n\n\tmodifier checkSigned {\n\n\t\trequire(_users[msg.sender]._signed, \"Not signed.\");\n\t\t_users[msg.sender]._signed = false;\n\t\t_;\n\n\t}\n\n\tfunction close() onlyOwner public {\n\n\t\tselfdestruct(_owner);\n\n\t}\n\n\tfunction getUserInfo() onlyKnownUser public view returns (bool known, uint policy, uint expire, uint limit, bool lock, bool registered, bool signed) {\n\n\t\tknown = _users[msg.sender]._known;\n\t\tpolicy = _users[msg.sender]._policy;\n\t\texpire = _users[msg.sender]._expire;\n\t\tlimit = _users[msg.sender]._limit;\n\t\tlock = _users[msg.sender]._lock;\n\t\tregistered = _users[msg.sender]._registered;\n\t\tsigned = _users[msg.sender]._signed;\n\n\t}\n\n\tfunction getUserU2F() onlyKnownUser public view returns (bytes enroll, bytes registeredKey, bytes sign, bytes lastVerified) {\n\n\t\tenroll = _users[msg.sender]._enroll;\n\t\tregisteredKey = _users[msg.sender]._registeredKey;\n\t\tsign = _users[msg.sender]._sign;\n\t\tlastVerified = _users[msg.sender]._lastVerified;\n\n\t}\n\n\tfunction getUserHistory(address to) public view returns (uint history) {\n\n\t\thistory =  _users[msg.sender]._txnHistory[to];\n\n\t}\n\n\t// ======================================================================================================================== //\n\n\t// u2f;\n\t// changed decodedClientData to bytes;\n\tfunction client(bytes clientData, string appId, uint typ) onlyKnownUser public view returns (bytes) {\n\t    \n\t    bytes memory challengeParameter;\n\t    \n\t    if (typ == 0) {\n\t        require(_users[msg.sender]._enroll.length > 0, \"No current registration request.\");\n\t        challengeParameter = Global.validateClientData(string(_users[msg.sender]._enroll), string(clientData), Global.getRegisterType(), appId);\n\t    }\n\t    \n\t    else {\n\t        require(_users[msg.sender]._sign.length > 0, \"No current Authentication request.\");\n\t        challengeParameter = Global.validateClientData(string(_users[msg.sender]._sign), string(clientData), Global.getSignType(), appId);\n\t    }\n\t    \n\t    return challengeParameter;\n\t    \n\t}\n\t\n\n\tfunction enroll(string appId) onlyKnownUser public {\n\n\t\tstring memory request = Register.beginRegistration(appId, _randNonce++);\n\t\t_users[msg.sender]._enroll = bytes(request);\n\n\t\temit RegistrationRequest(msg.sender, request, appId);\n\n\t}\n\n\n    // decoded and parsed response with format validation;\n\tfunction bind(string appId, bytes challengeParameter, bytes pubKey, bytes keyHandle, bytes certKey, bytes signature) onlyKnownUser public {\n        \n\t\trequire(_users[msg.sender]._enroll.length > 0, \"No current registration request.\");\n\t\t\t\t\n\t\tbytes memory device = Register.completeRegistration(challengeParameter, pubKey, keyHandle, certKey, signature, appId);\n\n\t\tdelete _users[msg.sender]._enroll;\n\t\t\n\t\t_users[msg.sender]._registeredKey = device;\n\n\t\t_users[msg.sender]._registered = true;\n\t\t\n\t\temit RegistrationComplete(msg.sender, string(device), appId);\n\n\t}\n\n\tfunction sign(string appId) onlyKnownUser public {\n\n\t\trequire(_users[msg.sender]._registeredKey.length > 0, \"No registered key.\");\n\n\t\t// Might include algorithms for finding a key with the correct version;\n\t\tstring memory request = Authenticate.beginAuthentication(appId, _users[msg.sender]._registeredKey, _randNonce++);\n\n\t\t_users[msg.sender]._sign = bytes(request);\n\n\t\temit SignRequest(msg.sender, request, appId);\n\n\t}\n\n    // decoded and parsed signature data;\n\tfunction verify(string appId, bytes challengeParameter, bytes decodedSignatureData, string keyHandle) onlyKnownUser public {\n\n\t\trequire(_users[msg.sender]._sign.length > 0, \"No current registration request.\");\n\t\t\n\t\tbytes memory message;\n\n\t\tmessage = Authenticate.completeAuthentication(_users[msg.sender]._sign, challengeParameter, decodedSignatureData, keyHandle, appId);\n\n\t\tdelete _users[msg.sender]._sign;\n\n\t\t_users[msg.sender]._lastVerified = message;\n\n\t\t_users[msg.sender]._signed = true;\n\t\t\n\t\temit SignComplete(msg.sender, string(message), appId);\n\n\t}\n\n\n\t// ======================================================================================================================== //\n\n\t// users;\n\tfunction registerForUser() public {\n\n\t\t_users[msg.sender]._known = true;\n\t\t_users[msg.sender]._expire = 24;\n\t\t_users[msg.sender]._pendingTime = 24;\n\t\t_users[msg.sender]._limit = 10000;\n\n\t}\n\n\tfunction setLimit(uint limit) onlyKnownUser public {\n\n\t\t_users[msg.sender]._limit = limit;\n\n\t}\n\n\tfunction setPolicy(uint policy, uint expire, uint pendingTime) onlyKnownUser checkSigned public {\n\n\t\t_users[msg.sender]._policy = policy;\n\t\t_users[msg.sender]._expire = expire;\n\t\t_users[msg.sender]._pendingTime = pendingTime;\n\n\t}\n\n\tfunction lockAccount() onlyKnownUser checkSigned public {\n\n\t\t_users[msg.sender]._lock = true;\n\n\t\temit Lock(msg.sender, address(this));\n\n\t}\n\n\tfunction unlockAccount() onlyKnownUser checkSigned public {\n\n\t\t_users[msg.sender]._lock = false;\n\n\t\temit Unlock(msg.sender, address(this));\n\n\t}\n\n\t// ======================================================================================================================== //\n\t// function;\n\tfunction transferViaManager(address to, uint amount) checkReady public payable {\n\n\t\trequire(amount <= msg.value, \"Not enough balance sent.\");\n\n\t\tif (amount > _users[msg.sender]._limit) {\n\t\t\tif ((_users[msg.sender]._policy == 0) ||\n\t\t\t\t(_users[msg.sender]._policy == 1 && (_users[msg.sender]._txnHistory[to] == 0 || now >= _users[msg.sender]._txnHistory[to] + _users[msg.sender]._expire * 1 hours))) {\n\t\t\t\t\n\t\t\t\trequire(_users[msg.sender]._signed, \"Authentication required.\");\n\t\t\t\t_users[msg.sender]._signed = false;\n\t\t\t\t_users[msg.sender]._txnHistory[to] = now;\n\t\t\t}\n\t\t\tif (amount > 2 * _users[msg.sender]._limit) {\n\n\t\t\t\tTxn memory txn = Txn({_to: to, _amount: amount, _validTime: now + _users[msg.sender]._pendingTime * 1 hours});\n\t\t\t\t_users[msg.sender]._pendingTxns.push(txn);\n\n\t\t\t\treturn;\n\t\t\t}\n\t\t}\n\n\t\tto.transfer(amount);\n\n\t}\n\n\tfunction validatePendingTxns() checkReady public payable {\n\n\t\tuint validated = 0;\n\t\tuint i = 0;\n\t\tfor (i = 0; i < _users[msg.sender]._pendingTxns.length; i++) {\n\n\t\t\tif (_users[msg.sender]._pendingTxns[i]._validTime <= now) {\n\n\t\t\t\trequire(_users[msg.sender]._pendingTxns[i]._amount <= address(this).balance, \"Not enough balance.\");\n\n\t\t\t\t_users[msg.sender]._pendingTxns[i]._to.transfer(_users[msg.sender]._pendingTxns[i]._amount);\n\t\t\t\tvalidated++;\n\n\t\t\t}\n\n\t\t}\n\n\t\tfor (i = 0; i < (_users[msg.sender]._pendingTxns.length - validated); i++) {\n\t\t\t_users[msg.sender]._pendingTxns[i] = _users[msg.sender]._pendingTxns[i + validated];\n\t\t}\n\n\t\t_users[msg.sender]._pendingTxns.length -= validated;\n\n\t}\n\n\tfunction cancelPendingTxn(uint id) checkReady public payable {\n\n\t\trequire(_users[msg.sender]._pendingTxns[id]._amount <= address(this).balance, \"Not enough balance.\");\n\n\t\tmsg.sender.transfer(_users[msg.sender]._pendingTxns[id]._amount);\n\n\t\tuint i;\n\t\tfor (i = id; i < _users[msg.sender]._pendingTxns.length - 1; i++) {\n\t\t\t_users[msg.sender]._pendingTxns[i] = _users[msg.sender]._pendingTxns[i + 1];\n\t\t}\n\n\t\t_users[msg.sender]._pendingTxns.length--;\n\n\t}\n\n\tfunction clearPendingTxns() checkReady public payable {\n\n\t\tuint i;\n\t\tuint amount = 0;\n\t\tfor (i = 0; i < _users[msg.sender]._pendingTxns.length; i++) {\n\n\t\t\tamount += _users[msg.sender]._pendingTxns[i]._amount;\n\n\t\t}\n\n\t\trequire(amount <= address(this).balance, \"Not enough balance.\");\n\n\t\tmsg.sender.transfer(amount);\n\n\t\tdelete _users[msg.sender]._pendingTxns;\n\t\t\n\t}\n\n\n}",
  "sourcePath": "/home/chxw/Desktop/worksite/develop/u2f-ethereum/contracts/Manager.sol",
  "compiler": {
    "name": "solc",
    "version": "0.4.24+commit.e67f0147.Emscripten.clang"
  },
  "schemaVersion": "3.0.5",
  "updatedAt": "2019-05-25T00:57:41.627Z",
  "devdoc": {
    "methods": {}
  },
  "userdoc": {
    "methods": {}
  }
}