{
  "contractName": "Manager",
  "abi": [
    {
      "inputs": [],
      "payable": false,
      "stateMutability": "nonpayable",
      "type": "constructor",
      "signature": "constructor"
    },
    {
      "anonymous": false,
      "inputs": [
        {
          "indexed": false,
          "name": "from",
          "type": "address"
        },
        {
          "indexed": false,
          "name": "to",
          "type": "address"
        },
        {
          "indexed": false,
          "name": "amount",
          "type": "uint256"
        }
      ],
      "name": "Transfer",
      "type": "event",
      "signature": "0xddf252ad1be2c89b69c2b068fc378daa952ba7f163c4a11628f55a4df523b3ef"
    },
    {
      "anonymous": false,
      "inputs": [
        {
          "indexed": false,
          "name": "owner",
          "type": "address"
        },
        {
          "indexed": false,
          "name": "bank",
          "type": "address"
        }
      ],
      "name": "Lock",
      "type": "event",
      "signature": "0xfe91b4a3f0b869e79b842bb3b107673cc2b3f2c942484d11cc2ae2a5723e5ea6"
    },
    {
      "anonymous": false,
      "inputs": [
        {
          "indexed": false,
          "name": "user",
          "type": "address"
        },
        {
          "indexed": false,
          "name": "request",
          "type": "string"
        },
        {
          "indexed": false,
          "name": "appId",
          "type": "string"
        }
      ],
      "name": "RegistrationRequest",
      "type": "event",
      "signature": "0x1cefe4453e9ec198729183687f6e99ed38995a433c3e3070cfcc7dfad77055b4"
    },
    {
      "anonymous": false,
      "inputs": [
        {
          "indexed": false,
          "name": "user",
          "type": "address"
        },
        {
          "indexed": false,
          "name": "device",
          "type": "string"
        },
        {
          "indexed": false,
          "name": "appId",
          "type": "string"
        }
      ],
      "name": "RegistrationComplete",
      "type": "event",
      "signature": "0xe8461f495cb4293de7658c3cb856de2f1c9b6e3cd46d865a64e205e22eb4c535"
    },
    {
      "anonymous": false,
      "inputs": [
        {
          "indexed": false,
          "name": "user",
          "type": "address"
        },
        {
          "indexed": false,
          "name": "request",
          "type": "string"
        },
        {
          "indexed": false,
          "name": "appId",
          "type": "string"
        }
      ],
      "name": "SignRequest",
      "type": "event",
      "signature": "0xd73e437175cd7a018e2398c622fddbc388b661efc2dbb45407b27a2a70f7cda8"
    },
    {
      "anonymous": false,
      "inputs": [
        {
          "indexed": false,
          "name": "user",
          "type": "address"
        },
        {
          "indexed": false,
          "name": "information",
          "type": "string"
        },
        {
          "indexed": false,
          "name": "appId",
          "type": "string"
        }
      ],
      "name": "SignComplete",
      "type": "event",
      "signature": "0xc4b916698af61452f078afbfdcf971767a64792536944b074201d595ad8e2c47"
    },
    {
      "constant": false,
      "inputs": [],
      "name": "close",
      "outputs": [],
      "payable": false,
      "stateMutability": "nonpayable",
      "type": "function",
      "signature": "0x43d726d6"
    },
    {
      "constant": true,
      "inputs": [],
      "name": "getUserInfo",
      "outputs": [
        {
          "name": "known",
          "type": "bool"
        },
        {
          "name": "policy",
          "type": "uint256"
        },
        {
          "name": "expire",
          "type": "uint256"
        },
        {
          "name": "limit",
          "type": "uint256"
        },
        {
          "name": "lock",
          "type": "bool"
        },
        {
          "name": "registered",
          "type": "bool"
        },
        {
          "name": "signed",
          "type": "bool"
        }
      ],
      "payable": false,
      "stateMutability": "view",
      "type": "function",
      "signature": "0x5d8d1585"
    },
    {
      "constant": true,
      "inputs": [],
      "name": "getUserU2F",
      "outputs": [
        {
          "name": "enroll",
          "type": "bytes"
        },
        {
          "name": "registeredKey",
          "type": "bytes"
        },
        {
          "name": "sign",
          "type": "bytes"
        },
        {
          "name": "lastVerified",
          "type": "bytes"
        }
      ],
      "payable": false,
      "stateMutability": "view",
      "type": "function",
      "signature": "0x9165e2d0"
    },
    {
      "constant": true,
      "inputs": [
        {
          "name": "to",
          "type": "address"
        }
      ],
      "name": "getUserHistory",
      "outputs": [
        {
          "name": "history",
          "type": "uint256"
        }
      ],
      "payable": false,
      "stateMutability": "view",
      "type": "function",
      "signature": "0x4fb3d3b1"
    },
    {
      "constant": true,
      "inputs": [
        {
          "name": "clientData",
          "type": "string"
        },
        {
          "name": "appId",
          "type": "string"
        },
        {
          "name": "typ",
          "type": "uint256"
        }
      ],
      "name": "client",
      "outputs": [
        {
          "name": "",
          "type": "bytes"
        }
      ],
      "payable": false,
      "stateMutability": "view",
      "type": "function",
      "signature": "0x48c9be48"
    },
    {
      "constant": false,
      "inputs": [
        {
          "name": "appId",
          "type": "string"
        }
      ],
      "name": "enroll",
      "outputs": [],
      "payable": false,
      "stateMutability": "nonpayable",
      "type": "function",
      "signature": "0x67b09cdb"
    },
    {
      "constant": false,
      "inputs": [
        {
          "name": "appId",
          "type": "string"
        },
        {
          "name": "challengeParameter",
          "type": "string"
        },
        {
          "name": "pubKey",
          "type": "string"
        },
        {
          "name": "keyHandle",
          "type": "string"
        },
        {
          "name": "certKey",
          "type": "string"
        },
        {
          "name": "signature",
          "type": "string"
        }
      ],
      "name": "bind",
      "outputs": [],
      "payable": false,
      "stateMutability": "nonpayable",
      "type": "function",
      "signature": "0xfb6bf622"
    },
    {
      "constant": false,
      "inputs": [
        {
          "name": "appId",
          "type": "string"
        }
      ],
      "name": "sign",
      "outputs": [],
      "payable": false,
      "stateMutability": "nonpayable",
      "type": "function",
      "signature": "0x79d6348d"
    },
    {
      "constant": false,
      "inputs": [
        {
          "name": "appId",
          "type": "string"
        },
        {
          "name": "challengeParameter",
          "type": "string"
        },
        {
          "name": "decodedSignatureData",
          "type": "string"
        },
        {
          "name": "keyHandle",
          "type": "string"
        }
      ],
      "name": "verify",
      "outputs": [],
      "payable": false,
      "stateMutability": "nonpayable",
      "type": "function",
      "signature": "0x1ede74c3"
    },
    {
      "constant": false,
      "inputs": [],
      "name": "registerForUser",
      "outputs": [],
      "payable": false,
      "stateMutability": "nonpayable",
      "type": "function",
      "signature": "0xe888949e"
    },
    {
      "constant": false,
      "inputs": [
        {
          "name": "limit",
          "type": "uint256"
        }
      ],
      "name": "setLimit",
      "outputs": [],
      "payable": false,
      "stateMutability": "nonpayable",
      "type": "function",
      "signature": "0x27ea6f2b"
    },
    {
      "constant": false,
      "inputs": [
        {
          "name": "policy",
          "type": "uint256"
        },
        {
          "name": "expire",
          "type": "uint256"
        }
      ],
      "name": "setPolicy",
      "outputs": [],
      "payable": false,
      "stateMutability": "nonpayable",
      "type": "function",
      "signature": "0x59cc0be3"
    },
    {
      "constant": false,
      "inputs": [],
      "name": "lockAccount",
      "outputs": [],
      "payable": false,
      "stateMutability": "nonpayable",
      "type": "function",
      "signature": "0x06e1976c"
    },
    {
      "constant": false,
      "inputs": [],
      "name": "unlockAccount",
      "outputs": [],
      "payable": false,
      "stateMutability": "nonpayable",
      "type": "function",
      "signature": "0x11d7b2fe"
    },
    {
      "constant": false,
      "inputs": [
        {
          "name": "to",
          "type": "address"
        },
        {
          "name": "amount",
          "type": "uint256"
        }
      ],
      "name": "transferViaManager",
      "outputs": [],
      "payable": true,
      "stateMutability": "payable",
      "type": "function",
      "signature": "0x0e891ac4"
    }
  ],
  "bytecode": "0x608060405234801561001057600080fd5b506000805560028054600160a060020a031916331790556143c6806100366000396000f3006080604052600436106100c15763ffffffff60e060020a60003504166306e1976c81146100c65780630e891ac4146100dd57806311d7b2fe146100f45780631ede74c31461010957806327ea6f2b1461021c57806343d726d61461023457806348c9be48146102495780634fb3d3b11461035757806359cc0be31461038a5780635d8d1585146103a557806367b09cdb146103fa57806379d6348d146104535780639165e2d0146104ac578063e888949e1461066b578063fb6bf62214610680575b600080fd5b3480156100d257600080fd5b506100db61080f565b005b6100db600160a060020a03600435166024356108fc565b34801561010057600080fd5b506100db610b88565b34801561011557600080fd5b506040805160206004803580820135601f81018490048402850184019095528484526100db94369492936024939284019190819084018382808284375050604080516020601f89358b018035918201839004830284018301909452808352979a99988101979196509182019450925082915084018382808284375050604080516020601f89358b018035918201839004830284018301909452808352979a99988101979196509182019450925082915084018382808284375050604080516020601f89358b018035918201839004830284018301909452808352979a999881019791965091820194509250829150840183828082843750949750610c6f9650505050505050565b34801561022857600080fd5b506100db6004356111ce565b34801561024057600080fd5b506100db61123a565b34801561025557600080fd5b506040805160206004803580820135601f81018490048402850184019095528484526102e294369492936024939284019190819084018382808284375050604080516020601f89358b018035918201839004830284018301909452808352979a99988101979196509182019450925082915084018382808284375094975050933594506112aa9350505050565b6040805160208082528351818301528351919283929083019185019080838360005b8381101561031c578181015183820152602001610304565b50505050905090810190601f1680156103495780820380516001836020036101000a031916815260200191505b509250505060405180910390f35b34801561036357600080fd5b50610378600160a060020a036004351661159b565b60408051918252519081900360200190f35b34801561039657600080fd5b506100db6004356024356115c7565b3480156103b157600080fd5b506103ba6116bd565b604080519715158852602088019690965286860194909452606086019290925215156080850152151560a0840152151560c0830152519081900360e00190f35b34801561040657600080fd5b506040805160206004803580820135601f81018490048402850184019095528484526100db9436949293602493928401919081908401838280828437509497506117709650505050505050565b34801561045f57600080fd5b506040805160206004803580820135601f81018490048402850184019095528484526100db943694929360249392840191908190840183828082843750949750611a609650505050505050565b3480156104b857600080fd5b506104c1611dcc565b6040518080602001806020018060200180602001858103855289818151815260200191508051906020019080838360005b8381101561050a5781810151838201526020016104f2565b50505050905090810190601f1680156105375780820380516001836020036101000a031916815260200191505b5085810384528851815288516020918201918a019080838360005b8381101561056a578181015183820152602001610552565b50505050905090810190601f1680156105975780820380516001836020036101000a031916815260200191505b50858103835287518152875160209182019189019080838360005b838110156105ca5781810151838201526020016105b2565b50505050905090810190601f1680156105f75780820380516001836020036101000a031916815260200191505b50858103825286518152865160209182019188019080838360005b8381101561062a578181015183820152602001610612565b50505050905090810190601f1680156106575780820380516001836020036101000a031916815260200191505b509850505050505050505060405180910390f35b34801561067757600080fd5b506100db6120af565b34801561068c57600080fd5b506040805160206004803580820135601f81018490048402850184019095528484526100db94369492936024939284019190819084018382808284375050604080516020601f89358b018035918201839004830284018301909452808352979a99988101979196509182019450925082915084018382808284375050604080516020601f89358b018035918201839004830284018301909452808352979a99988101979196509182019450925082915084018382808284375050604080516020601f89358b018035918201839004830284018301909452808352979a99988101979196509182019450925082915084018382808284375050604080516020601f89358b018035918201839004830284018301909452808352979a99988101979196509182019450925082915084018382808284375050604080516020601f89358b018035918201839004830284018301909452808352979a9998810197919650918201945092508291508401838280828437509497506120de9650505050505050565b3360009081526001602052604090205460ff161515610866576040805160e560020a62461bcd028152602060048201526012602482015260008051602061437b833981519152604482015290519081900360640190fd5b3360009081526001602052604090206008015462010000900460ff1615156108d8576040805160e560020a62461bcd02815260206004820152600b60248201527f4e6f74207369676e65642e000000000000000000000000000000000000000000604482015290519081900360640190fd5b336000908152600160208190526040909120600801805462ff00ff19169091179055565b33600090815260016020526040902060080154610100900460ff16801561093657503360009081526001602052604090206008015460ff16155b151561098c576040805160e560020a62461bcd02815260206004820152601960248201527f4e6f742072656769737465726564206f72206c6f636b65642e00000000000000604482015290519081900360640190fd5b348111156109e4576040805160e560020a62461bcd02815260206004820152601860248201527f4e6f7420656e6f7567682062616c616e63652073656e742e0000000000000000604482015290519081900360640190fd5b33600090815260016020526040902060070154811115610b4d57336000908152600160205260409020600501541580610a9e575033600090815260016020819052604090912060050154148015610a9e5750336000908152600160209081526040808320600160a060020a03861684526009019091529020541580610a9e57503360009081526001602090815260408083206006810154600160a060020a0387168552600990910190925290912054610e10909102014210155b15610b4d573360009081526001602052604090206008015462010000900460ff161515610b15576040805160e560020a62461bcd02815260206004820152601860248201527f41757468656e7469636174696f6e2072657175697265642e0000000000000000604482015290519081900360640190fd5b33600090815260016020908152604080832060088101805462ff000019169055600160a060020a038616845260090190915290204290555b604051600160a060020a0383169082156108fc029083906000818181858888f19350505050158015610b83573d6000803e3d6000fd5b505050565b3360009081526001602052604090205460ff161515610bdf576040805160e560020a62461bcd028152602060048201526012602482015260008051602061437b833981519152604482015290519081900360640190fd5b3360009081526001602052604090206008015462010000900460ff161515610c51576040805160e560020a62461bcd02815260206004820152600b60248201527f4e6f74207369676e65642e000000000000000000000000000000000000000000604482015290519081900360640190fd5b336000908152600160205260409020600801805462ff00ff19169055565b3360009081526001602052604090205460609060ff161515610cc9576040805160e560020a62461bcd028152602060048201526012602482015260008051602061437b833981519152604482015290519081900360640190fd5b33600090815260016020819052604082206002908101549182161561010002600019019091160411610d45576040805160e560020a62461bcd02815260206004820181905260248201527f4e6f2063757272656e7420726567697374726174696f6e20726571756573742e604482015290519081900360640190fd5b33600090815260016020526040902073__Authenticate__________________________9063b90fdda690600201610d7c87612673565b60405160e060020a63ffffffff851602815260a06004820190815283546002600019610100600184161502019091160460a48301819052899289928d9290918291602482019160448101916064820191608481019160c4909101908c908015610e265780601f10610dfb57610100808354040283529160200191610e26565b820191906000526020600020905b815481529060010190602001808311610e0957829003601f168201915b505086810385528a5181528a516020918201918c019080838360005b83811015610e5a578181015183820152602001610e42565b50505050905090810190601f168015610e875780820380516001836020036101000a031916815260200191505b5086810384528951815289516020918201918b019080838360005b83811015610eba578181015183820152602001610ea2565b50505050905090810190601f168015610ee75780820380516001836020036101000a031916815260200191505b5086810383528851815288516020918201918a019080838360005b83811015610f1a578181015183820152602001610f02565b50505050905090810190601f168015610f475780820380516001836020036101000a031916815260200191505b50868103825287518152875160209182019189019080838360005b83811015610f7a578181015183820152602001610f62565b50505050905090810190601f168015610fa75780820380516001836020036101000a031916815260200191505b509a505050505050505050505060006040518083038186803b158015610fcc57600080fd5b505af4158015610fe0573d6000803e3d6000fd5b505050506040513d6000823e601f3d908101601f19168201604052602081101561100957600080fd5b81019080805164010000000081111561102157600080fd5b8201602081018481111561103457600080fd5b815164010000000081118282018710171561104e57600080fd5b50503360009081526001602052604081209195506110759450600290910192509050614242565b336000908152600160209081526040909120825161109b92600490920191840190614289565b50336000818152600160209081526040808320600801805462ff00001916620100001790558051848152606081840181815287519183019190915286517fc4b916698af61452f078afbfdcf971767a64792536944b074201d595ad8e2c47969588958d958501926080860192918801918190849084905b8381101561112a578181015183820152602001611112565b50505050905090810190601f1680156111575780820380516001836020036101000a031916815260200191505b50838103825284518152845160209182019186019080838360005b8381101561118a578181015183820152602001611172565b50505050905090810190601f1680156111b75780820380516001836020036101000a031916815260200191505b509550505050505060405180910390a15050505050565b3360009081526001602052604090205460ff161515611225576040805160e560020a62461bcd028152602060048201526012602482015260008051602061437b833981519152604482015290519081900360640190fd5b33600090815260016020526040902060070155565b600254600160a060020a0316331461129c576040805160e560020a62461bcd02815260206004820152601d60248201527f4f7074696f6e206772616e746564206f6e6c7920746f206f776e65722e000000604482015290519081900360640190fd5b600254600160a060020a0316ff5b33600090815260016020526040902054606090819060ff161515611306576040805160e560020a62461bcd028152602060048201526012602482015260008051602061437b833981519152604482015290519081900360640190fd5b8215156114415733600090815260016020819052604082208101546002918116156101000260001901160411611386576040805160e560020a62461bcd02815260206004820181905260248201527f4e6f2063757272656e7420726567697374726174696f6e20726571756573742e604482015290519081900360640190fd5b33600090815260016020818152604092839020820180548451600294821615610100026000190190911693909304601f810183900483028401830190945283835261143a93909183018282801561141e5780601f106113f35761010080835404028352916020019161141e565b820191906000526020600020905b81548152906001019060200180831161140157829003601f168201915b505050505061142c87612673565b611434612755565b8761278d565b9050611593565b336000908152600160208190526040822060029081015491821615610100026000190190911604116114e3576040805160e560020a62461bcd02815260206004820152602260248201527f4e6f2063757272656e742041757468656e7469636174696f6e2072657175657360448201527f742e000000000000000000000000000000000000000000000000000000000000606482015290519081900360840190fd5b336000908152600160208181526040928390206002908101805485519481161561010002600019011691909104601f810183900483028401830190945283835261159093909183018282801561157a5780601f1061154f5761010080835404028352916020019161157a565b820191906000526020600020905b81548152906001019060200180831161155d57829003601f168201915b505050505061158887612673565b611434612c74565b90505b949350505050565b336000908152600160209081526040808320600160a060020a0394909416835260099093019052205490565b3360009081526001602052604090205460ff16151561161e576040805160e560020a62461bcd028152602060048201526012602482015260008051602061437b833981519152604482015290519081900360640190fd5b3360009081526001602052604090206008015462010000900460ff161515611690576040805160e560020a62461bcd02815260206004820152600b60248201527f4e6f74207369676e65642e000000000000000000000000000000000000000000604482015290519081900360640190fd5b33600090815260016020526040902060088101805462ff0000191690556005810192909255600690910155565b3360009081526001602052604081205481908190819081908190819060ff161515611720576040805160e560020a62461bcd028152602060048201526012602482015260008051602061437b833981519152604482015290519081900360640190fd5b5050336000908152600160205260409020805460058201546006830154600784015460089094015460ff9384169a9299509097509295508282169450610100830482169350620100009092041690565b3360009081526001602052604090205460609060ff1615156117ca576040805160e560020a62461bcd028152602060048201526012602482015260008051602061437b833981519152604482015290519081900360640190fd5b73__Register______________________________63c55c724383600080815480929190600101919050556040518363ffffffff1660e060020a0281526004018080602001838152602001828103825284818151815260200191508051906020019080838360005b8381101561184a578181015183820152602001611832565b50505050905090810190601f1680156118775780820380516001836020036101000a031916815260200191505b50935050505060006040518083038186803b15801561189557600080fd5b505af41580156118a9573d6000803e3d6000fd5b505050506040513d6000823e601f3d908101601f1916820160405260208110156118d257600080fd5b8101908080516401000000008111156118ea57600080fd5b820160208101848111156118fd57600080fd5b815164010000000081118282018710171561191757600080fd5b50503360009081526001602081815260409092208351939750611941965001935085019150614289565b507f1cefe4453e9ec198729183687f6e99ed38995a433c3e3070cfcc7dfad77055b43382846040518084600160a060020a0316600160a060020a031681526020018060200180602001838103835285818151815260200191508051906020019080838360005b838110156119bf5781810151838201526020016119a7565b50505050905090810190601f1680156119ec5780820380516001836020036101000a031916815260200191505b50838103825284518152845160209182019186019080838360005b83811015611a1f578181015183820152602001611a07565b50505050905090810190601f168015611a4c5780820380516001836020036101000a031916815260200191505b509550505050505060405180910390a15050565b3360009081526001602052604090205460609060ff161515611aba576040805160e560020a62461bcd028152602060048201526012602482015260008051602061437b833981519152604482015290519081900360640190fd5b3360009081526001602081905260408220600301546002918116156101000260001901160411611b34576040805160e560020a62461bcd02815260206004820152601260248201527f4e6f2072656769737465726564206b65792e0000000000000000000000000000604482015290519081900360640190fd5b3360009081526001602081815260408084208454938401855590517f66138f970000000000000000000000000000000000000000000000000000000081526044810184905260606004820190815287516064830152875173__Authenticate__________________________966366138f97968a966003909601959094849360248201936084909201928901918190849084905b83811015611be0578181015183820152602001611bc8565b50505050905090810190601f168015611c0d5780820380516001836020036101000a031916815260200191505b50838103825285546002600019610100600184161502019091160480825260209091019086908015611c805780601f10611c5557610100808354040283529160200191611c80565b820191906000526020600020905b815481529060010190602001808311611c6357829003601f168201915b50509550505050505060006040518083038186803b158015611ca157600080fd5b505af4158015611cb5573d6000803e3d6000fd5b505050506040513d6000823e601f3d908101601f191682016040526020811015611cde57600080fd5b810190808051640100000000811115611cf657600080fd5b82016020810184811115611d0957600080fd5b8151640100000000811182820187101715611d2357600080fd5b50503360009081526001602090815260409091208251929650611d4f9550600201935085019150614289565b507fd73e437175cd7a018e2398c622fddbc388b661efc2dbb45407b27a2a70f7cda83382846040518084600160a060020a0316600160a060020a03168152602001806020018060200183810383528581815181526020019150805190602001908083836000838110156119bf5781810151838201526020016119a7565b3360009081526001602052604090205460609081908190819060ff161515611e2c576040805160e560020a62461bcd028152602060048201526012602482015260008051602061437b833981519152604482015290519081900360640190fd5b33600090815260016020818152604092839020820180548451600294821615610100026000190190911693909304601f8101839004830284018301909452838352919290830182828015611ec15780601f10611e9657610100808354040283529160200191611ec1565b820191906000526020600020905b815481529060010190602001808311611ea457829003601f168201915b50503360009081526001602081815260409283902060030180548451600294821615610100026000190190911693909304601f8101839004830284018301909452838352969a50909594509092508401905082828015611f625780601f10611f3757610100808354040283529160200191611f62565b820191906000526020600020905b815481529060010190602001808311611f4557829003601f168201915b5050336000908152600160208181526040928390206002908101805485519481161561010002600019011691909104601f81018390048302840183019094528383529699509095945090925084019050828280156120015780601f10611fd657610100808354040283529160200191612001565b820191906000526020600020905b815481529060010190602001808311611fe457829003601f168201915b50503360009081526001602081815260409283902060040180548451600294821615610100026000190190911693909304601f81018390048302840183019094528383529698509095945090925084019050828280156120a25780601f10612077576101008083540402835291602001916120a2565b820191906000526020600020905b81548152906001019060200180831161208557829003601f168201915b5050505050905090919293565b336000908152600160208190526040909120805460ff1916909117815560186006820155612710600790910155565b3360009081526001602052604090205460609060ff161515612138576040805160e560020a62461bcd028152602060048201526012602482015260008051602061437b833981519152604482015290519081900360640190fd5b336000908152600160208190526040822081015460029181161561010002600019011604116121b1576040805160e560020a62461bcd02815260206004820181905260248201527f4e6f2063757272656e7420726567697374726174696f6e20726571756573742e604482015290519081900360640190fd5b73__Register______________________________63c8bf169e6121d488612673565b878787878d6040518763ffffffff1660e060020a0281526004018080602001806020018060200180602001806020018060200187810387528d818151815260200191508051906020019080838360005b8381101561223c578181015183820152602001612224565b50505050905090810190601f1680156122695780820380516001836020036101000a031916815260200191505b5087810386528c5181528c516020918201918e019080838360005b8381101561229c578181015183820152602001612284565b50505050905090810190601f1680156122c95780820380516001836020036101000a031916815260200191505b5087810385528b5181528b516020918201918d019080838360005b838110156122fc5781810151838201526020016122e4565b50505050905090810190601f1680156123295780820380516001836020036101000a031916815260200191505b5087810384528a5181528a516020918201918c019080838360005b8381101561235c578181015183820152602001612344565b50505050905090810190601f1680156123895780820380516001836020036101000a031916815260200191505b5087810383528951815289516020918201918b019080838360005b838110156123bc5781810151838201526020016123a4565b50505050905090810190601f1680156123e95780820380516001836020036101000a031916815260200191505b5087810382528851815288516020918201918a019080838360005b8381101561241c578181015183820152602001612404565b50505050905090810190601f1680156124495780820380516001836020036101000a031916815260200191505b509c5050505050505050505050505060006040518083038186803b15801561247057600080fd5b505af4158015612484573d6000803e3d6000fd5b505050506040513d6000823e601f3d908101601f1916820160405260208110156124ad57600080fd5b8101908080516401000000008111156124c557600080fd5b820160208101848111156124d857600080fd5b81516401000000008111828201871017156124f257600080fd5b5050336000908152600160208190526040822092965061251a95509190910192509050614242565b336000908152600160209081526040909120825161254092600390920191840190614289565b50336000818152600160209081526040808320600801805461ff0019166101001790558051848152606081840181815287519183019190915286517fe8461f495cb4293de7658c3cb856de2f1c9b6e3cd46d865a64e205e22eb4c535969588958f958501926080860192918801918190849084905b838110156125cd5781810151838201526020016125b5565b50505050905090810190601f1680156125fa5780820380516001836020036101000a031916815260200191505b50838103825284518152845160209182019186019080838360005b8381101561262d578181015183820152602001612615565b50505050905090810190601f16801561265a5780820380516001836020036101000a031916815260200191505b509550505050505060405180910390a150505050505050565b8051606090829082906000906001161561268c57600080fd5b8251600290046040519080825280601f01601f1916602001820160405280156126bf578160200160208202803883390190505b509150600090505b82516002900481101561274d5761270183826002026001018151811015156126eb57fe5b016020015160f860020a90819004810204612cab565b61271584836002028151811015156126eb57fe5b6010020160f860020a02828281518110151561272d57fe5b906020010190600160f860020a031916908160001a9053506001016126c7565b509392505050565b60408051808201909152601d81527f6e6176696761746f722e69642e66696e697368456e726f6c6c6d656e7400000060208201525b90565b6060806060846040518082805190602001908083835b602083106127c25780518252601f1990920191602091820191016127a3565b51815160209384036101000a600019018019909216911617905260408051929094018290038220828501909452600382527f747970000000000000000000000000000000000000000000000000000000000090820152919350612830925089905061282b612e2e565b612e33565b6040518082805190602001908083835b6020831061285f5780518252601f199092019160209182019101612840565b6001836020036101000a0380198251168184511680821785525050505050509050019150506040518091039020600019161415156128e7576040805160e560020a62461bcd02815260206004820152600b60248201527f57726f6e6720747970652e000000000000000000000000000000000000000000604482015290519081900360640190fd5b6129296040805190810160405280600981526020017f6368616c6c656e676500000000000000000000000000000000000000000000008152508861282b612e2e565b915061296d6040805190810160405280600981526020017f6368616c6c656e676500000000000000000000000000000000000000000000008152508761282b612e2e565b9050806040518082805190602001908083835b6020831061299f5780518252601f199092019160209182019101612980565b51815160209384036101000a6000190180199092169116179052604051919093018190038120875190955087945090928392508401908083835b602083106129f85780518252601f1990920191602091820191016129d9565b6001836020036101000a038019825116818451168082178552505050505050905001915050604051809103902060001916141515612a80576040805160e560020a62461bcd02815260206004820152601060248201527f57726f6e67206368616c6c656e67652e00000000000000000000000000000000604482015290519081900360640190fd5b835115612bd757836040518082805190602001908083835b60208310612ab75780518252601f199092019160209182019101612a98565b51815160209384036101000a600019018019909216911617905260408051929094018290038220828501909452600682527f6f726967696e000000000000000000000000000000000000000000000000000090820152919350612b20925089905061282b612e2e565b6040518082805190602001908083835b60208310612b4f5780518252601f199092019160209182019101612b30565b6001836020036101000a038019825116818451168082178552505050505050905001915050604051809103902060001916141515612bd7576040805160e560020a62461bcd02815260206004820152600e60248201527f496e76616c69642066616365742e000000000000000000000000000000000000604482015290519081900360640190fd5b612c696002876040518082805190602001908083835b60208310612c0c5780518252601f199092019160209182019101612bed565b51815160209384036101000a600019018019909216911617905260405191909301945091925050808303816000865af1158015612c4d573d6000803e3d6000fd5b5050506040513d6020811015612c6257600080fd5b505161306e565b979650505050505050565b60408051808201909152601981527f6e6176696761746f722e69642e676574417373657274696f6e00000000000000602082015290565b60007f300000000000000000000000000000000000000000000000000000000000000060f860020a8302600160f860020a03191610801590612d1d57507f390000000000000000000000000000000000000000000000000000000000000060f860020a8302600160f860020a03191611155b15612d2d5750602f198101612e29565b7f610000000000000000000000000000000000000000000000000000000000000060f860020a8302600160f860020a03191610801590612d9d57507f660000000000000000000000000000000000000000000000000000000000000060f860020a8302600160f860020a03191611155b15612dad57506056198101612e29565b7f410000000000000000000000000000000000000000000000000000000000000060f860020a8302600160f860020a03191610801590612e1d57507f460000000000000000000000000000000000000000000000000000000000000060f860020a8302600160f860020a03191611155b15612e29575060361981015b919050565b600b90565b60606000806060612e42614307565b60606000612e508989613119565b91975090955093508515612ed4576040805160e560020a62461bcd02815260206004820152602260248201527f4a534f4e20706172736572206e6f742070726f7065726c792072657475726e6560448201527f642e000000000000000000000000000000000000000000000000000000000000606482015290519081900360840190fd5b5060005b84811015613011578381815181101515612eee57fe5b906020019060200201519250612f0d8984602001518560600151613a41565b9150816040518082805190602001908083835b60208310612f3f5780518252601f199092019160209182019101612f20565b51815160209384036101000a60001901801990921691161790526040519190930181900381208f519095508f945090928392508401908083835b60208310612f985780518252601f199092019160209182019101612f79565b6001836020036101000a0380198251168184511680821785525050505050509050019150506040518091039020600019161415613009578381600101815181101515612fe057fe5b906020019060200201519250612fff8984602001518560600151613a41565b9150819650613061565b600101612ed8565b6040805160e560020a62461bcd02815260206004820152601060248201527f4669656c64206e6f7420666f756e642e00000000000000000000000000000000604482015290519081900360640190fd5b5050505050509392505050565b60408051602080825281830190925260609182916000918291829180820161040080388339019050509350859150600090505b602081101561310f5780601f0360080260020a828115156130be57fe5b06925080601f0360080260020a8383038115156130d757fe5b0460f860020a0284828151811015156130ec57fe5b906020010190600160f860020a031916908160001a9053508291506001016130a1565b5091949350505050565b6000606060006060600061312b61433e565b6000806000613138614307565b60008060008e99506131498e613ae5565b6020820151909d5090985095505b895188511015613a245787518a518b9190811061317057fe5b016020015160f860020a908190040292507f7b00000000000000000000000000000000000000000000000000000000000000600160f860020a0319841614806131e257507f5b00000000000000000000000000000000000000000000000000000000000000600160f860020a03198416145b156132c7576001909501946131f7888d613b61565b90995093508815156132105760039c5060009a50613a30565b604088015160001914613248578b886040015181518110151561322f57fe5b602090810291909101015160a001805160010160ff1690525b7f7b00000000000000000000000000000000000000000000000000000000000000600160f860020a0319841614613280576002613283565b60015b8490600481111561329057fe5b9081600481111561329d57fe5b90525087516020808601919091526001604080870191909152908901516000190190890152613a18565b7f7d00000000000000000000000000000000000000000000000000000000000000600160f860020a03198416148061332857507f5d00000000000000000000000000000000000000000000000000000000000000600160f860020a03198416145b15613500577f7d00000000000000000000000000000000000000000000000000000000000000600160f860020a0319841614613365576002613368565b60015b915060009050600188602001510394505b60008510613442578b8581518110151561338f57fe5b906020019060200201519350836040015180156133ae57508360800151155b15613436578160048111156133bf57fe5b845160048111156133cc57fe5b146133de5760019c5060009a50613a30565b600019604089015287518c516001909101908d90879081106133fc57fe5b60209081029091010151606001528b516001908d908790811061341b57fe5b60209081029091010151901515608090910152506001613442565b60001990940193613379565b8015156134565760019c5060009a50613a30565b60008511156134a9578b8581518110151561346d57fe5b9060200190602002015193508360400151801561348c57508360800151155b1561349d57604088018590526134a9565b60001990940193613456565b8415156134fb578b858151811015156134be57fe5b906020019060200201519350836040015180156134dd57508360800151155b156134fb576fffffffffffffffffffffffffffffffff851660408901525b613a18565b7f2200000000000000000000000000000000000000000000000000000000000000600160f860020a0319841614156135955761353d888d8c613c12565b9650861561355357959b50600099508b95613a30565b6040880151600190960195600019146134fb578b886040015181518110151561357857fe5b602090810291909101015160a001805160010160ff169052613a18565b60fd60020a600160f860020a0319841614806135da57507f1100000000000000000000000000000000000000000000000000000000000000600160f860020a03198416145b8061360e57507f1200000000000000000000000000000000000000000000000000000000000000600160f860020a03198416145b8061364257507f1400000000000000000000000000000000000000000000000000000000000000600160f860020a03198416145b1561364c57613a18565b7f3a00000000000000000000000000000000000000000000000000000000000000600160f860020a031984161415613691576020880151600019016040890152613a18565b7f2c00000000000000000000000000000000000000000000000000000000000000600160f860020a03198416141561380557876040015160001914158015613701575060028c89604001518151811015156136e857fe5b602090810290910101515160048111156136fe57fe5b14155b8015613735575060018c896040015181518110151561371c57fe5b6020908102909101015151600481111561373257fe5b14155b156134fb57600188602001510394505b600085106134fb5760028c8681518110151561375d57fe5b6020908102909101015151600481111561377357fe5b14806137a2575060018c8681518110151561378a57fe5b602090810290910101515160048111156137a057fe5b145b156137f9578b858151811015156137b557fe5b906020019060200201516040015180156137e857508b858151811015156137d857fe5b9060200190602002015160800151155b156137f957604088018590526134fb565b60001990940193613745565b7f3000000000000000000000000000000000000000000000000000000000000000600160f860020a031984161080159061386957507f3900000000000000000000000000000000000000000000000000000000000000600160f860020a0319841611155b8061389d57507f2d00000000000000000000000000000000000000000000000000000000000000600160f860020a03198416145b806138d157507f6600000000000000000000000000000000000000000000000000000000000000600160f860020a03198416145b8061390557507f7400000000000000000000000000000000000000000000000000000000000000600160f860020a03198416145b8061393957507f6e00000000000000000000000000000000000000000000000000000000000000600160f860020a03198416145b156139be576040880151600019146139b3578b886040015181518110151561395d57fe5b60209081029091010151935060018451600481111561397857fe5b14806139a1575060038451600481111561398e57fe5b1480156139a1575060a084015160ff1615155b156139b35760019c5060009a50613a30565b61353d888d8c613fc5565b60fd60020a600160f860020a0319841610801590613a0657507f7e00000000000000000000000000000000000000000000000000000000000000600160f860020a0319841611155b15613a185760019c5060009a50613a30565b87516001018852613157565b602088015160009d509a505b505050505050505050509250925092565b606080606060008692508585036040519080825280601f01601f191660200182016040528015613a7b578160200160208202803883390190505b5091508590505b84811015613adb578281815181101515613a9857fe5b90602001015160f860020a900460f860020a0282878303815181101515613abb57fe5b906020010190600160f860020a031916908160001a905350600101613a82565b5095945050505050565b613aed61433e565b6060613af761433e565b606080604051908101604052806000815260200160008152602001600019815250915084604051908082528060200260200182016040528015613b5457816020015b613b41614307565b815260200190600190039081613b395790505b5091959194509092505050565b6000613b6b614307565b613b73614307565b8351602086015110613ba7576000846001865103815181101515613b9357fe5b602090810290910101519093509150613c0a565b506040805160c08101825260008082526020808301829052928201819052606082018190526080820181905260a0820152908501518451829186918110613bea57fe5b602090810290910181019190915285018051600190810190915292509050805b509250929050565b6000806000613c1f614307565b8651600181018852925060005b855188511015613fb257875186518791908110613c4557fe5b016020015160f860020a908190040290507f2200000000000000000000000000000000000000000000000000000000000000600160f860020a031982161415613cc757613c928888613b61565b9093509150821515613caa5783885260039450613fba565b613cbe826003866001018b600001516141fc565b60009450613fba565b605c60ff60f860020a830416148015613ce4575085518851600101105b15613fa657875160010180895286518791908110613cfe57fe5b90602001015160f860020a900460f860020a02600160f860020a0319167f22000000000000000000000000000000000000000000000000000000000000001480613d925750875186518791908110613d5257fe5b90602001015160f860020a900460f860020a02600160f860020a0319167f2f00000000000000000000000000000000000000000000000000000000000000145b80613de75750875186518791908110613da757fe5b90602001015160f860020a900460f860020a02600160f860020a0319167f5c00000000000000000000000000000000000000000000000000000000000000145b80613e3c5750875186518791908110613dfc57fe5b90602001015160f860020a900460f860020a02600160f860020a0319167f6600000000000000000000000000000000000000000000000000000000000000145b80613e915750875186518791908110613e5157fe5b90602001015160f860020a900460f860020a02600160f860020a0319167f7200000000000000000000000000000000000000000000000000000000000000145b80613ee65750875186518791908110613ea657fe5b90602001015160f860020a900460f860020a02600160f860020a0319167f6e00000000000000000000000000000000000000000000000000000000000000145b80613f3b5750875186518791908110613efb57fe5b90602001015160f860020a900460f860020a02600160f860020a0319167f6200000000000000000000000000000000000000000000000000000000000000145b80613f905750875186518791908110613f5057fe5b90602001015160f860020a900460f860020a02600160f860020a0319167f7400000000000000000000000000000000000000000000000000000000000000145b15613f9a57613fa6565b83885260019450613fba565b87516001018852613c2c565b838852600294505b505050509392505050565b6000806000806000613fd5614307565b88516000955093505b86518951101561419d57885187518891908110613ff757fe5b016020015160f860020a9081900402925060fd60020a600160f860020a03198416148061404d57507f0900000000000000000000000000000000000000000000000000000000000000600160f860020a03198416145b8061408157507f0a00000000000000000000000000000000000000000000000000000000000000600160f860020a03198416145b806140b557507f0d00000000000000000000000000000000000000000000000000000000000000600160f860020a03198416145b806140e957507f2c00000000000000000000000000000000000000000000000000000000000000600160f860020a03198416145b8061411d57507f7d00000000000000000000000000000000000000000000000000000000000000600160f860020a03198416145b8061415157507f5d00000000000000000000000000000000000000000000000000000000000000600160f860020a03198416145b1561415f576001945061419d565b602060ff60f860020a85041610806141805750607f60ff60f860020a850416115b1561419157838952600195506141f0565b88516001018952613fde565b8415156141b057838952600295506141f0565b6141ba8989613b61565b90925090508115156141d257838952600395506141f0565b6141e3816004868c600001516141fc565b8851600019018952600095505b50505050509392505050565b8383600481111561420957fe5b9081600481111561421657fe5b90525060208401919091526001604084018190526060840191909152608083015250600060a090910152565b50805460018160011615610100020316600290046000825580601f106142685750614286565b601f0160209004906000526020600020908101906142869190614360565b50565b828054600181600116156101000203166002900490600052602060002090601f016020900481019282601f106142ca57805160ff19168380011785556142f7565b828001600101855582156142f7579182015b828111156142f75782518255916020019190600101906142dc565b50614303929150614360565b5090565b6040805160c08101909152806000815260006020820181905260408201819052606082018190526080820181905260a09091015290565b6060604051908101604052806000815260200160008152602001600081525090565b61278a91905b8082111561430357600081556001016143665600556e7265636f676e697a656420757365722e0000000000000000000000000000a165627a7a723058200e3196588121b17c530d74dd281ce30cf37af0664f5a95636e537a62278966f50029",
  "source": "pragma solidity >=0.4.21 <0.5.0;\n\nimport \"./Utils.sol\";\nimport \"./Base64.sol\";\n\nimport \"./Global.sol\";\nimport \"./Register.sol\";\nimport \"./Authenticate.sol\";\n\n\ncontract Manager {\n\n\t// ======================================================================================================================== //\n\n\t// server;\n\tuint _randNonce;\n\n\tstruct User {\n\t\tbool _known;\n\t\t// u2f data;\n\t\tbytes _enroll;\n\t\tbytes _sign;\n\t\tbytes _registeredKey;\n\t\tbytes _lastVerified;\n\t\t// policy data;\n\t\tuint _policy;\n\t\t/*\n\t\t\t0: strict;\n\t\t\t1: history;\n\t\t*/\n\t\tuint _expire;\n\t\tuint _limit;\n\t\t// account data;\n\t\tbool _lock;\n\t\tbool _registered;\n\t\tbool _signed;\n\t\t// history;\n\t\tmapping(address => uint) _txnHistory;\n\t}\n\n\tmapping(address => User) _users;\n\taddress _owner;\n\n\tevent Transfer(address from, address to, uint amount);\n\tevent Lock(address owner, address bank);\n\n\tevent RegistrationRequest(address user, string request, string appId);\n\tevent RegistrationComplete(address user, string device, string appId);\n\tevent SignRequest(address user, string request, string appId);\n\tevent SignComplete(address user, string information, string appId);\n\n\tconstructor() public {\n\t\t_randNonce = 0;\n\t\t_owner = msg.sender;\n\t}\n\n\tmodifier onlyOwner {\n\n\t\trequire(msg.sender == _owner, \"Option granted only to owner.\");\n\t\t_;\n\n\t}\n\n\tmodifier onlyKnownUser {\n\n\t\trequire(_users[msg.sender]._known, \"Unrecognized user.\");\n\t\t_;\n\n\t}\n\n\tmodifier checkReady {\n\n\t\trequire(_users[msg.sender]._registered && !_users[msg.sender]._lock, \"Not registered or locked.\");\n\t\t_;\n\n\t}\n\n\tmodifier checkSigned {\n\n\t\trequire(_users[msg.sender]._signed, \"Not signed.\");\n\t\t_users[msg.sender]._signed = false;\n\t\t_;\n\n\t}\n\n\tfunction close() onlyOwner public {\n\n\t\tselfdestruct(_owner);\n\n\t}\n\n\tfunction getUserInfo() onlyKnownUser public view returns (bool known, uint policy, uint expire, uint limit, bool lock, bool registered, bool signed) {\n\n\t\tknown = _users[msg.sender]._known;\n\t\tpolicy = _users[msg.sender]._policy;\n\t\texpire = _users[msg.sender]._expire;\n\t\tlimit = _users[msg.sender]._limit;\n\t\tlock = _users[msg.sender]._lock;\n\t\tregistered = _users[msg.sender]._registered;\n\t\tsigned = _users[msg.sender]._signed;\n\n\t}\n\n\tfunction getUserU2F() onlyKnownUser public view returns (bytes enroll, bytes registeredKey, bytes sign, bytes lastVerified) {\n\n\t\tenroll = _users[msg.sender]._enroll;\n\t\tregisteredKey = _users[msg.sender]._registeredKey;\n\t\tsign = _users[msg.sender]._sign;\n\t\tlastVerified = _users[msg.sender]._lastVerified;\n\n\t}\n\n\tfunction getUserHistory(address to) public view returns (uint history) {\n\n\t\thistory =  _users[msg.sender]._txnHistory[to];\n\n\t}\n\n\t// ======================================================================================================================== //\n\n\t// u2f;\n\tfunction client(string clientData, string appId, uint typ) onlyKnownUser public view returns (bytes) {\n\t    \n\t    bytes memory challengeParameter;\n\t    \n\t    if (typ == 0) {\n\t        require(_users[msg.sender]._enroll.length > 0, \"No current registration request.\");\n\t        challengeParameter = Global.validateClientData(string(_users[msg.sender]._enroll), string(Base64.fromHex(clientData)), Global.getRegisterType(), appId);\n\t    }\n\t    \n\t    else {\n\t        require(_users[msg.sender]._sign.length > 0, \"No current Authentication request.\");\n\t        challengeParameter = Global.validateClientData(string(_users[msg.sender]._sign), string(Base64.fromHex(clientData)), Global.getSignType(), appId);\n\t    }\n\t    \n\t    return challengeParameter;\n\t    \n\t}\n\t\n\n\tfunction enroll(string appId) onlyKnownUser public {\n\n\t\tstring memory request = Register.beginRegistration(appId, _randNonce++);\n\t\t_users[msg.sender]._enroll = bytes(request);\n\n\t\temit RegistrationRequest(msg.sender, request, appId);\n\n\t}\n\n\n    // decoded and parsed response with format validation;\n\tfunction bind(string appId, string challengeParameter, string pubKey, string keyHandle, string certKey, string signature) onlyKnownUser public {\n        \n\t\trequire(_users[msg.sender]._enroll.length > 0, \"No current registration request.\");\n\t\t\t\t\n\t\tbytes memory device = Register.completeRegistration(Base64.fromHex(challengeParameter), pubKey, keyHandle, certKey, signature, appId);\n\n\t\tdelete _users[msg.sender]._enroll;\n\t\t\n\t\t_users[msg.sender]._registeredKey = device;\n\n\t\t_users[msg.sender]._registered = true;\n\t\t\n\t\temit RegistrationComplete(msg.sender, string(device), appId);\n\n\t}\n\n\tfunction sign(string appId) onlyKnownUser public {\n\n\t\trequire(_users[msg.sender]._registeredKey.length > 0, \"No registered key.\");\n\n\t\t// Might include algorithms for finding a key with the correct version;\n\t\tstring memory request = Authenticate.beginAuthentication(appId, _users[msg.sender]._registeredKey, _randNonce++);\n\n\t\t_users[msg.sender]._sign = bytes(request);\n\n\t\temit SignRequest(msg.sender, request, appId);\n\n\t}\n\n    // decoded and parsed signature data;\n\tfunction verify(string appId, string challengeParameter, string decodedSignatureData, string keyHandle) onlyKnownUser public {\n\n\t\trequire(_users[msg.sender]._sign.length > 0, \"No current registration request.\");\n\t\t\n\t\tbytes memory message;\n\n\t\tmessage = Authenticate.completeAuthentication(_users[msg.sender]._sign, Base64.fromHex(challengeParameter), decodedSignatureData, keyHandle, appId);\n\n\t\tdelete _users[msg.sender]._sign;\n\n\t\t_users[msg.sender]._lastVerified = message;\n\n\t\t_users[msg.sender]._signed = true;\n\t\t\n\t\temit SignComplete(msg.sender, string(message), appId);\n\n\t}\n\n\n\t// ======================================================================================================================== //\n\n\t// users;\n\tfunction registerForUser() public {\n\n\t\t_users[msg.sender]._known = true;\n\t\t_users[msg.sender]._expire = 24;\n\t\t_users[msg.sender]._limit = 10000;\n\n\t}\n\n\tfunction setLimit(uint limit) onlyKnownUser public {\n\n\t\t_users[msg.sender]._limit = limit;\n\n\t}\n\n\tfunction setPolicy(uint policy, uint expire) onlyKnownUser checkSigned public {\n\n\t\t_users[msg.sender]._policy = policy;\n\t\t_users[msg.sender]._expire = expire;\n\n\t}\n\n\tfunction lockAccount() onlyKnownUser checkSigned public {\n\n\t\t_users[msg.sender]._lock = true;\n\n\t}\n\n\tfunction unlockAccount() onlyKnownUser checkSigned public {\n\n\t\t_users[msg.sender]._lock = false;\n\n\t}\n\n\t// ======================================================================================================================== //\n\t// function;\n\tfunction transferViaManager(address to, uint amount) checkReady public payable {\n\n\t\trequire(amount <= msg.value, \"Not enough balance sent.\");\n\n\t\tif (amount > _users[msg.sender]._limit) {\n\t\t\tif ((_users[msg.sender]._policy == 0) ||\n\t\t\t\t(_users[msg.sender]._policy == 1 && (_users[msg.sender]._txnHistory[to] == 0 || now >= _users[msg.sender]._txnHistory[to] + _users[msg.sender]._expire * 1 hours))) {\n\t\t\t\t\n\t\t\t\trequire(_users[msg.sender]._signed, \"Authentication required.\");\n\t\t\t\t_users[msg.sender]._signed = false;\n\t\t\t\t_users[msg.sender]._txnHistory[to] = now;\n\t\t\t}\n\t\t}\n\n\t\tto.transfer(amount);\n\n\t}\n\n\n}",
  "sourcePath": "/home/chxw/Desktop/worksite/develop/u2f-ethereum/contracts/Manager.sol",
  "compiler": {
    "name": "solc",
    "version": "0.4.24+commit.e67f0147.Emscripten.clang"
  },
  "schemaVersion": "3.0.5",
  "updatedAt": "2019-04-21T21:22:39.502Z",
  "devdoc": {
    "methods": {}
  },
  "userdoc": {
    "methods": {}
  }
}