{
  "contractName": "Manager",
  "abi": [
    {
      "inputs": [],
      "payable": false,
      "stateMutability": "nonpayable",
      "type": "constructor",
      "signature": "constructor"
    },
    {
      "anonymous": false,
      "inputs": [
        {
          "indexed": false,
          "name": "from",
          "type": "address"
        },
        {
          "indexed": false,
          "name": "to",
          "type": "address"
        },
        {
          "indexed": false,
          "name": "amount",
          "type": "uint256"
        }
      ],
      "name": "Transfer",
      "type": "event",
      "signature": "0xddf252ad1be2c89b69c2b068fc378daa952ba7f163c4a11628f55a4df523b3ef"
    },
    {
      "anonymous": false,
      "inputs": [
        {
          "indexed": false,
          "name": "owner",
          "type": "address"
        },
        {
          "indexed": false,
          "name": "bank",
          "type": "address"
        }
      ],
      "name": "Lock",
      "type": "event",
      "signature": "0xfe91b4a3f0b869e79b842bb3b107673cc2b3f2c942484d11cc2ae2a5723e5ea6"
    },
    {
      "anonymous": false,
      "inputs": [
        {
          "indexed": false,
          "name": "user",
          "type": "address"
        },
        {
          "indexed": false,
          "name": "request",
          "type": "string"
        },
        {
          "indexed": false,
          "name": "appId",
          "type": "string"
        }
      ],
      "name": "RegistrationRequest",
      "type": "event",
      "signature": "0x1cefe4453e9ec198729183687f6e99ed38995a433c3e3070cfcc7dfad77055b4"
    },
    {
      "anonymous": false,
      "inputs": [
        {
          "indexed": false,
          "name": "user",
          "type": "address"
        },
        {
          "indexed": false,
          "name": "device",
          "type": "string"
        },
        {
          "indexed": false,
          "name": "appId",
          "type": "string"
        }
      ],
      "name": "RegistrationComplete",
      "type": "event",
      "signature": "0xe8461f495cb4293de7658c3cb856de2f1c9b6e3cd46d865a64e205e22eb4c535"
    },
    {
      "anonymous": false,
      "inputs": [
        {
          "indexed": false,
          "name": "user",
          "type": "address"
        },
        {
          "indexed": false,
          "name": "request",
          "type": "string"
        },
        {
          "indexed": false,
          "name": "appId",
          "type": "string"
        }
      ],
      "name": "SignRequest",
      "type": "event",
      "signature": "0xd73e437175cd7a018e2398c622fddbc388b661efc2dbb45407b27a2a70f7cda8"
    },
    {
      "anonymous": false,
      "inputs": [
        {
          "indexed": false,
          "name": "user",
          "type": "address"
        },
        {
          "indexed": false,
          "name": "information",
          "type": "string"
        },
        {
          "indexed": false,
          "name": "appId",
          "type": "string"
        }
      ],
      "name": "SignComplete",
      "type": "event",
      "signature": "0xc4b916698af61452f078afbfdcf971767a64792536944b074201d595ad8e2c47"
    },
    {
      "constant": false,
      "inputs": [],
      "name": "close",
      "outputs": [],
      "payable": false,
      "stateMutability": "nonpayable",
      "type": "function",
      "signature": "0x43d726d6"
    },
    {
      "constant": true,
      "inputs": [],
      "name": "getUserInfo",
      "outputs": [
        {
          "name": "known",
          "type": "bool"
        },
        {
          "name": "policy",
          "type": "uint256"
        },
        {
          "name": "expire",
          "type": "uint256"
        },
        {
          "name": "limit",
          "type": "uint256"
        },
        {
          "name": "lock",
          "type": "bool"
        },
        {
          "name": "registered",
          "type": "bool"
        },
        {
          "name": "signed",
          "type": "bool"
        }
      ],
      "payable": false,
      "stateMutability": "view",
      "type": "function",
      "signature": "0x5d8d1585"
    },
    {
      "constant": true,
      "inputs": [],
      "name": "getUserU2F",
      "outputs": [
        {
          "name": "enroll",
          "type": "bytes"
        },
        {
          "name": "registeredKey",
          "type": "bytes"
        },
        {
          "name": "sign",
          "type": "bytes"
        },
        {
          "name": "lastVerified",
          "type": "bytes"
        }
      ],
      "payable": false,
      "stateMutability": "view",
      "type": "function",
      "signature": "0x9165e2d0"
    },
    {
      "constant": true,
      "inputs": [
        {
          "name": "to",
          "type": "address"
        }
      ],
      "name": "getUserHistory",
      "outputs": [
        {
          "name": "history",
          "type": "uint256"
        }
      ],
      "payable": false,
      "stateMutability": "view",
      "type": "function",
      "signature": "0x4fb3d3b1"
    },
    {
      "constant": true,
      "inputs": [
        {
          "name": "clientData",
          "type": "string"
        },
        {
          "name": "appId",
          "type": "string"
        },
        {
          "name": "typ",
          "type": "uint256"
        }
      ],
      "name": "client",
      "outputs": [
        {
          "name": "",
          "type": "bytes"
        }
      ],
      "payable": false,
      "stateMutability": "view",
      "type": "function",
      "signature": "0x48c9be48"
    },
    {
      "constant": false,
      "inputs": [
        {
          "name": "appId",
          "type": "string"
        }
      ],
      "name": "enroll",
      "outputs": [],
      "payable": false,
      "stateMutability": "nonpayable",
      "type": "function",
      "signature": "0x67b09cdb"
    },
    {
      "constant": false,
      "inputs": [
        {
          "name": "appId",
          "type": "string"
        },
        {
          "name": "challengeParameter",
          "type": "string"
        },
        {
          "name": "pubKey",
          "type": "string"
        },
        {
          "name": "keyHandle",
          "type": "string"
        },
        {
          "name": "certKey",
          "type": "string"
        },
        {
          "name": "signature",
          "type": "string"
        }
      ],
      "name": "bind",
      "outputs": [],
      "payable": false,
      "stateMutability": "nonpayable",
      "type": "function",
      "signature": "0xfb6bf622"
    },
    {
      "constant": false,
      "inputs": [
        {
          "name": "appId",
          "type": "string"
        }
      ],
      "name": "sign",
      "outputs": [],
      "payable": false,
      "stateMutability": "nonpayable",
      "type": "function",
      "signature": "0x79d6348d"
    },
    {
      "constant": false,
      "inputs": [
        {
          "name": "appId",
          "type": "string"
        },
        {
          "name": "challengeParameter",
          "type": "string"
        },
        {
          "name": "decodedSignatureData",
          "type": "string"
        },
        {
          "name": "keyHandle",
          "type": "string"
        }
      ],
      "name": "verify",
      "outputs": [],
      "payable": false,
      "stateMutability": "nonpayable",
      "type": "function",
      "signature": "0x1ede74c3"
    },
    {
      "constant": false,
      "inputs": [],
      "name": "registerForUser",
      "outputs": [],
      "payable": false,
      "stateMutability": "nonpayable",
      "type": "function",
      "signature": "0xe888949e"
    },
    {
      "constant": false,
      "inputs": [
        {
          "name": "limit",
          "type": "uint256"
        }
      ],
      "name": "setLimit",
      "outputs": [],
      "payable": false,
      "stateMutability": "nonpayable",
      "type": "function",
      "signature": "0x27ea6f2b"
    },
    {
      "constant": false,
      "inputs": [
        {
          "name": "policy",
          "type": "uint256"
        },
        {
          "name": "expire",
          "type": "uint256"
        }
      ],
      "name": "setPolicy",
      "outputs": [],
      "payable": false,
      "stateMutability": "nonpayable",
      "type": "function",
      "signature": "0x59cc0be3"
    },
    {
      "constant": false,
      "inputs": [],
      "name": "lockAccount",
      "outputs": [],
      "payable": false,
      "stateMutability": "nonpayable",
      "type": "function",
      "signature": "0x06e1976c"
    },
    {
      "constant": false,
      "inputs": [],
      "name": "unlockAccount",
      "outputs": [],
      "payable": false,
      "stateMutability": "nonpayable",
      "type": "function",
      "signature": "0x11d7b2fe"
    },
    {
      "constant": false,
      "inputs": [
        {
          "name": "to",
          "type": "address"
        },
        {
          "name": "amount",
          "type": "uint256"
        },
        {
          "name": "pendingTime",
          "type": "uint256"
        }
      ],
      "name": "transferViaManager",
      "outputs": [],
      "payable": true,
      "stateMutability": "payable",
      "type": "function",
      "signature": "0xe8c99514"
    },
    {
      "constant": false,
      "inputs": [],
      "name": "validatePendingTxns",
      "outputs": [],
      "payable": true,
      "stateMutability": "payable",
      "type": "function",
      "signature": "0x840da0f2"
    },
    {
      "constant": false,
      "inputs": [
        {
          "name": "id",
          "type": "uint256"
        }
      ],
      "name": "cancelPendingTxn",
      "outputs": [],
      "payable": true,
      "stateMutability": "payable",
      "type": "function",
      "signature": "0xf9cda3b2"
    },
    {
      "constant": false,
      "inputs": [],
      "name": "clearPendingTxns",
      "outputs": [],
      "payable": true,
      "stateMutability": "payable",
      "type": "function",
      "signature": "0xbe62600d"
    }
  ],
  "bytecode": "0x608060405234801561001057600080fd5b506000805560028054600160a060020a03191633179055614c54806100366000396000f3006080604052600436106100e25763ffffffff60e060020a60003504166306e1976c81146100e757806311d7b2fe146100fe5780631ede74c31461011357806327ea6f2b1461022657806343d726d61461023e57806348c9be48146102535780634fb3d3b11461036157806359cc0be3146103945780635d8d1585146103af57806367b09cdb1461040457806379d6348d1461045d578063840da0f2146104b65780639165e2d0146104be578063be62600d1461067d578063e888949e14610685578063e8c995141461069a578063f9cda3b2146106b4578063fb6bf622146106bf575b600080fd5b3480156100f357600080fd5b506100fc61084e565b005b34801561010a57600080fd5b506100fc61093b565b34801561011f57600080fd5b506040805160206004803580820135601f81018490048402850184019095528484526100fc94369492936024939284019190819084018382808284375050604080516020601f89358b018035918201839004830284018301909452808352979a99988101979196509182019450925082915084018382808284375050604080516020601f89358b018035918201839004830284018301909452808352979a99988101979196509182019450925082915084018382808284375050604080516020601f89358b018035918201839004830284018301909452808352979a999881019791965091820194509250829150840183828082843750949750610a229650505050505050565b34801561023257600080fd5b506100fc600435610f81565b34801561024a57600080fd5b506100fc610fed565b34801561025f57600080fd5b506040805160206004803580820135601f81018490048402850184019095528484526102ec94369492936024939284019190819084018382808284375050604080516020601f89358b018035918201839004830284018301909452808352979a999881019791965091820194509250829150840183828082843750949750509335945061105d9350505050565b6040805160208082528351818301528351919283929083019185019080838360005b8381101561032657818101518382015260200161030e565b50505050905090810190601f1680156103535780820380516001836020036101000a031916815260200191505b509250505060405180910390f35b34801561036d57600080fd5b50610382600160a060020a036004351661134e565b60408051918252519081900360200190f35b3480156103a057600080fd5b506100fc60043560243561137a565b3480156103bb57600080fd5b506103c4611470565b604080519715158852602088019690965286860194909452606086019290925215156080850152151560a0840152151560c0830152519081900360e00190f35b34801561041057600080fd5b506040805160206004803580820135601f81018490048402850184019095528484526100fc9436949293602493928401919081908401838280828437509497506115239650505050505050565b34801561046957600080fd5b506040805160206004803580820135601f81018490048402850184019095528484526100fc9436949293602493928401919081908401838280828437509497506118139650505050505050565b6100fc611b7f565b3480156104ca57600080fd5b506104d3611e83565b6040518080602001806020018060200180602001858103855289818151815260200191508051906020019080838360005b8381101561051c578181015183820152602001610504565b50505050905090810190601f1680156105495780820380516001836020036101000a031916815260200191505b5085810384528851815288516020918201918a019080838360005b8381101561057c578181015183820152602001610564565b50505050905090810190601f1680156105a95780820380516001836020036101000a031916815260200191505b50858103835287518152875160209182019189019080838360005b838110156105dc5781810151838201526020016105c4565b50505050905090810190601f1680156106095780820380516001836020036101000a031916815260200191505b50858103825286518152865160209182019188019080838360005b8381101561063c578181015183820152602001610624565b50505050905090810190601f1680156106695780820380516001836020036101000a031916815260200191505b509850505050505050505060405180910390f35b6100fc612166565b34801561069157600080fd5b506100fc6122ec565b6100fc600160a060020a036004351660243560443561231b565b6100fc600435612637565b3480156106cb57600080fd5b506040805160206004803580820135601f81018490048402850184019095528484526100fc94369492936024939284019190819084018382808284375050604080516020601f89358b018035918201839004830284018301909452808352979a99988101979196509182019450925082915084018382808284375050604080516020601f89358b018035918201839004830284018301909452808352979a99988101979196509182019450925082915084018382808284375050604080516020601f89358b018035918201839004830284018301909452808352979a99988101979196509182019450925082915084018382808284375050604080516020601f89358b018035918201839004830284018301909452808352979a99988101979196509182019450925082915084018382808284375050604080516020601f89358b018035918201839004830284018301909452808352979a9998810197919650918201945092508291508401838280828437509497506128959650505050505050565b3360009081526001602052604090205460ff1615156108a5576040805160e560020a62461bcd0281526020600482015260126024820152600080516020614c09833981519152604482015290519081900360640190fd5b3360009081526001602052604090206008015462010000900460ff161515610917576040805160e560020a62461bcd02815260206004820152600b60248201527f4e6f74207369676e65642e000000000000000000000000000000000000000000604482015290519081900360640190fd5b336000908152600160208190526040909120600801805462ff00ff19169091179055565b3360009081526001602052604090205460ff161515610992576040805160e560020a62461bcd0281526020600482015260126024820152600080516020614c09833981519152604482015290519081900360640190fd5b3360009081526001602052604090206008015462010000900460ff161515610a04576040805160e560020a62461bcd02815260206004820152600b60248201527f4e6f74207369676e65642e000000000000000000000000000000000000000000604482015290519081900360640190fd5b336000908152600160205260409020600801805462ff00ff19169055565b3360009081526001602052604090205460609060ff161515610a7c576040805160e560020a62461bcd0281526020600482015260126024820152600080516020614c09833981519152604482015290519081900360640190fd5b33600090815260016020819052604082206002908101549182161561010002600019019091160411610af8576040805160e560020a62461bcd02815260206004820181905260248201527f4e6f2063757272656e7420726567697374726174696f6e20726571756573742e604482015290519081900360640190fd5b33600090815260016020526040902073__Authenticate__________________________9063b90fdda690600201610b2f87612e2a565b60405160e060020a63ffffffff851602815260a06004820190815283546002600019610100600184161502019091160460a48301819052899289928d9290918291602482019160448101916064820191608481019160c4909101908c908015610bd95780601f10610bae57610100808354040283529160200191610bd9565b820191906000526020600020905b815481529060010190602001808311610bbc57829003601f168201915b505086810385528a5181528a516020918201918c019080838360005b83811015610c0d578181015183820152602001610bf5565b50505050905090810190601f168015610c3a5780820380516001836020036101000a031916815260200191505b5086810384528951815289516020918201918b019080838360005b83811015610c6d578181015183820152602001610c55565b50505050905090810190601f168015610c9a5780820380516001836020036101000a031916815260200191505b5086810383528851815288516020918201918a019080838360005b83811015610ccd578181015183820152602001610cb5565b50505050905090810190601f168015610cfa5780820380516001836020036101000a031916815260200191505b50868103825287518152875160209182019189019080838360005b83811015610d2d578181015183820152602001610d15565b50505050905090810190601f168015610d5a5780820380516001836020036101000a031916815260200191505b509a505050505050505050505060006040518083038186803b158015610d7f57600080fd5b505af4158015610d93573d6000803e3d6000fd5b505050506040513d6000823e601f3d908101601f191682016040526020811015610dbc57600080fd5b810190808051640100000000811115610dd457600080fd5b82016020810184811115610de757600080fd5b8151640100000000811182820187101715610e0157600080fd5b5050336000908152600160205260408120919550610e2894506002909101925090506149f9565b3360009081526001602090815260409091208251610e4e92600490920191840190614a40565b50336000818152600160209081526040808320600801805462ff00001916620100001790558051848152606081840181815287519183019190915286517fc4b916698af61452f078afbfdcf971767a64792536944b074201d595ad8e2c47969588958d958501926080860192918801918190849084905b83811015610edd578181015183820152602001610ec5565b50505050905090810190601f168015610f0a5780820380516001836020036101000a031916815260200191505b50838103825284518152845160209182019186019080838360005b83811015610f3d578181015183820152602001610f25565b50505050905090810190601f168015610f6a5780820380516001836020036101000a031916815260200191505b509550505050505060405180910390a15050505050565b3360009081526001602052604090205460ff161515610fd8576040805160e560020a62461bcd0281526020600482015260126024820152600080516020614c09833981519152604482015290519081900360640190fd5b33600090815260016020526040902060070155565b600254600160a060020a0316331461104f576040805160e560020a62461bcd02815260206004820152601d60248201527f4f7074696f6e206772616e746564206f6e6c7920746f206f776e65722e000000604482015290519081900360640190fd5b600254600160a060020a0316ff5b33600090815260016020526040902054606090819060ff1615156110b9576040805160e560020a62461bcd0281526020600482015260126024820152600080516020614c09833981519152604482015290519081900360640190fd5b8215156111f45733600090815260016020819052604082208101546002918116156101000260001901160411611139576040805160e560020a62461bcd02815260206004820181905260248201527f4e6f2063757272656e7420726567697374726174696f6e20726571756573742e604482015290519081900360640190fd5b33600090815260016020818152604092839020820180548451600294821615610100026000190190911693909304601f81018390048302840183019094528383526111ed9390918301828280156111d15780601f106111a6576101008083540402835291602001916111d1565b820191906000526020600020905b8154815290600101906020018083116111b457829003601f168201915b50505050506111df87612e2a565b6111e7612f0c565b87612f44565b9050611346565b33600090815260016020819052604082206002908101549182161561010002600019019091160411611296576040805160e560020a62461bcd02815260206004820152602260248201527f4e6f2063757272656e742041757468656e7469636174696f6e2072657175657360448201527f742e000000000000000000000000000000000000000000000000000000000000606482015290519081900360840190fd5b336000908152600160208181526040928390206002908101805485519481161561010002600019011691909104601f810183900483028401830190945283835261134393909183018282801561132d5780601f106113025761010080835404028352916020019161132d565b820191906000526020600020905b81548152906001019060200180831161131057829003601f168201915b505050505061133b87612e2a565b6111e761342b565b90505b949350505050565b336000908152600160209081526040808320600160a060020a0394909416835260099093019052205490565b3360009081526001602052604090205460ff1615156113d1576040805160e560020a62461bcd0281526020600482015260126024820152600080516020614c09833981519152604482015290519081900360640190fd5b3360009081526001602052604090206008015462010000900460ff161515611443576040805160e560020a62461bcd02815260206004820152600b60248201527f4e6f74207369676e65642e000000000000000000000000000000000000000000604482015290519081900360640190fd5b33600090815260016020526040902060088101805462ff0000191690556005810192909255600690910155565b3360009081526001602052604081205481908190819081908190819060ff1615156114d3576040805160e560020a62461bcd0281526020600482015260126024820152600080516020614c09833981519152604482015290519081900360640190fd5b5050336000908152600160205260409020805460058201546006830154600784015460089094015460ff9384169a9299509097509295508282169450610100830482169350620100009092041690565b3360009081526001602052604090205460609060ff16151561157d576040805160e560020a62461bcd0281526020600482015260126024820152600080516020614c09833981519152604482015290519081900360640190fd5b73__Register______________________________63c55c724383600080815480929190600101919050556040518363ffffffff1660e060020a0281526004018080602001838152602001828103825284818151815260200191508051906020019080838360005b838110156115fd5781810151838201526020016115e5565b50505050905090810190601f16801561162a5780820380516001836020036101000a031916815260200191505b50935050505060006040518083038186803b15801561164857600080fd5b505af415801561165c573d6000803e3d6000fd5b505050506040513d6000823e601f3d908101601f19168201604052602081101561168557600080fd5b81019080805164010000000081111561169d57600080fd5b820160208101848111156116b057600080fd5b81516401000000008111828201871017156116ca57600080fd5b505033600090815260016020818152604090922083519397506116f4965001935085019150614a40565b507f1cefe4453e9ec198729183687f6e99ed38995a433c3e3070cfcc7dfad77055b43382846040518084600160a060020a0316600160a060020a031681526020018060200180602001838103835285818151815260200191508051906020019080838360005b8381101561177257818101518382015260200161175a565b50505050905090810190601f16801561179f5780820380516001836020036101000a031916815260200191505b50838103825284518152845160209182019186019080838360005b838110156117d25781810151838201526020016117ba565b50505050905090810190601f1680156117ff5780820380516001836020036101000a031916815260200191505b509550505050505060405180910390a15050565b3360009081526001602052604090205460609060ff16151561186d576040805160e560020a62461bcd0281526020600482015260126024820152600080516020614c09833981519152604482015290519081900360640190fd5b33600090815260016020819052604082206003015460029181161561010002600019011604116118e7576040805160e560020a62461bcd02815260206004820152601260248201527f4e6f2072656769737465726564206b65792e0000000000000000000000000000604482015290519081900360640190fd5b3360009081526001602081815260408084208454938401855590517f66138f970000000000000000000000000000000000000000000000000000000081526044810184905260606004820190815287516064830152875173__Authenticate__________________________966366138f97968a966003909601959094849360248201936084909201928901918190849084905b8381101561199357818101518382015260200161197b565b50505050905090810190601f1680156119c05780820380516001836020036101000a031916815260200191505b50838103825285546002600019610100600184161502019091160480825260209091019086908015611a335780601f10611a0857610100808354040283529160200191611a33565b820191906000526020600020905b815481529060010190602001808311611a1657829003601f168201915b50509550505050505060006040518083038186803b158015611a5457600080fd5b505af4158015611a68573d6000803e3d6000fd5b505050506040513d6000823e601f3d908101601f191682016040526020811015611a9157600080fd5b810190808051640100000000811115611aa957600080fd5b82016020810184811115611abc57600080fd5b8151640100000000811182820187101715611ad657600080fd5b50503360009081526001602090815260409091208251929650611b029550600201935085019150614a40565b507fd73e437175cd7a018e2398c622fddbc388b661efc2dbb45407b27a2a70f7cda83382846040518084600160a060020a0316600160a060020a031681526020018060200180602001838103835285818151815260200191508051906020019080838360008381101561177257818101518382015260200161175a565b336000908152600160205260408120600801548190610100900460ff168015611bbb57503360009081526001602052604090206008015460ff16155b1515611bff576040805160e560020a62461bcd0281526020600482015260196024820152600080516020614be9833981519152604482015290519081900360640190fd5b5060009050805b336000908152600160205260409020600a0154811015611d9157336000908152600160205260409020600a01805442919083908110611c4157fe5b906000526020600020906003020160020154111515611d8957336000908152600160205260409020600a0180543031919083908110611c7c57fe5b90600052602060002090600302016001015411151515611ce6576040805160e560020a62461bcd02815260206004820152601360248201527f4e6f7420656e6f7567682062616c616e63652e00000000000000000000000000604482015290519081900360640190fd5b336000908152600160205260409020600a01805482908110611d0457fe5b6000918252602080832060039092029091015433835260019091526040909120600a018054600160a060020a03909216916108fc919084908110611d4457fe5b9060005260206000209060030201600101549081150290604051600060405180830381858888f19350505050158015611d81573d6000803e3d6000fd5b506001909101905b600101611c06565b5060005b336000908152600160205260409020600a0154829003811015611e5c57336000908152600160205260409020600a018054828401908110611dd257fe5b6000918252602080832033845260019091526040909220600a0180546003909202909201919083908110611e0257fe5b600091825260209091208254600390920201805473ffffffffffffffffffffffffffffffffffffffff1916600160a060020a0390921691909117815560018083015481830155600292830154929091019190915501611d95565b336000908152600160205260409020600a01805483900390611e7e9082614abe565b505050565b3360009081526001602052604090205460609081908190819060ff161515611ee3576040805160e560020a62461bcd0281526020600482015260126024820152600080516020614c09833981519152604482015290519081900360640190fd5b33600090815260016020818152604092839020820180548451600294821615610100026000190190911693909304601f8101839004830284018301909452838352919290830182828015611f785780601f10611f4d57610100808354040283529160200191611f78565b820191906000526020600020905b815481529060010190602001808311611f5b57829003601f168201915b50503360009081526001602081815260409283902060030180548451600294821615610100026000190190911693909304601f8101839004830284018301909452838352969a509095945090925084019050828280156120195780601f10611fee57610100808354040283529160200191612019565b820191906000526020600020905b815481529060010190602001808311611ffc57829003601f168201915b5050336000908152600160208181526040928390206002908101805485519481161561010002600019011691909104601f81018390048302840183019094528383529699509095945090925084019050828280156120b85780601f1061208d576101008083540402835291602001916120b8565b820191906000526020600020905b81548152906001019060200180831161209b57829003601f168201915b50503360009081526001602081815260409283902060040180548451600294821615610100026000190190911693909304601f81018390048302840183019094528383529698509095945090925084019050828280156121595780601f1061212e57610100808354040283529160200191612159565b820191906000526020600020905b81548152906001019060200180831161213c57829003601f168201915b5050505050905090919293565b336000908152600160205260408120600801548190610100900460ff1680156121a257503360009081526001602052604090206008015460ff16155b15156121e6576040805160e560020a62461bcd0281526020600482015260196024820152600080516020614be9833981519152604482015290519081900360640190fd5b5060009050805b336000908152600160205260409020600a015482101561224357336000908152600160205260409020600a0180548390811061222557fe5b600091825260209091206001600390920201810154920191016121ed565b303181111561229c576040805160e560020a62461bcd02815260206004820152601360248201527f4e6f7420656e6f7567682062616c616e63652e00000000000000000000000000604482015290519081900360640190fd5b604051339082156108fc029083906000818181858888f193505050501580156122c9573d6000803e3d6000fd5b503360009081526001602052604081206122e891600a90910190614aea565b5050565b336000908152600160208190526040909120805460ff1916909117815560186006820155612710600790910155565b612323614b0b565b33600090815260016020526040902060080154610100900460ff16801561235d57503360009081526001602052604090206008015460ff16155b15156123a1576040805160e560020a62461bcd0281526020600482015260196024820152600080516020614be9833981519152604482015290519081900360640190fd5b348311156123f9576040805160e560020a62461bcd02815260206004820152601860248201527f4e6f7420656e6f7567682062616c616e63652073656e742e0000000000000000604482015290519081900360640190fd5b336000908152600160205260409020600701548311156125f9573360009081526001602052604090206005015415806124b35750336000908152600160208190526040909120600501541480156124b35750336000908152600160209081526040808320600160a060020a038816845260090190915290205415806124b357503360009081526001602090815260408083206006810154600160a060020a0389168552600990910190925290912054610e10909102014210155b15612562573360009081526001602052604090206008015462010000900460ff16151561252a576040805160e560020a62461bcd02815260206004820152601860248201527f41757468656e7469636174696f6e2072657175697265642e0000000000000000604482015290519081900360640190fd5b33600090815260016020908152604080832060088101805462ff000019169055600160a060020a038816845260090190915290204290555b60008211156125f9575060408051606081018252600160a060020a0385811682526020808301868152610e10860242018486019081523360009081526001808552968120600a01805480890182559082529390208551600390940201805473ffffffffffffffffffffffffffffffffffffffff19169390941692909217835551938201939093559151600290920191909155612631565b604051600160a060020a0385169084156108fc029085906000818181858888f1935050505015801561262f573d6000803e3d6000fd5b505b50505050565b33600090815260016020526040812060080154610100900460ff16801561267157503360009081526001602052604090206008015460ff16155b15156126b5576040805160e560020a62461bcd0281526020600482015260196024820152600080516020614be9833981519152604482015290519081900360640190fd5b336000908152600160205260409020600a01805430319190849081106126d757fe5b90600052602060002090600302016001015411151515612741576040805160e560020a62461bcd02815260206004820152601360248201527f4e6f7420656e6f7567682062616c616e63652e00000000000000000000000000604482015290519081900360640190fd5b336000818152600160205260409020600a0180546108fc91908590811061276457fe5b9060005260206000209060030201600101549081150290604051600060405180830381858888f193505050501580156127a1573d6000803e3d6000fd5b508190505b336000908152600160205260409020600a01546000190181101561287257336000908152600160208190526040909120600a018054909183019081106127e857fe5b6000918252602080832033845260019091526040909220600a018054600390920290920191908390811061281857fe5b600091825260209091208254600390920201805473ffffffffffffffffffffffffffffffffffffffff1916600160a060020a03909216919091178155600180830154818301556002928301549290910191909155016127a6565b336000908152600160205260409020600a01805490611e7e906000198301614abe565b3360009081526001602052604090205460609060ff1615156128ef576040805160e560020a62461bcd0281526020600482015260126024820152600080516020614c09833981519152604482015290519081900360640190fd5b33600090815260016020819052604082208101546002918116156101000260001901160411612968576040805160e560020a62461bcd02815260206004820181905260248201527f4e6f2063757272656e7420726567697374726174696f6e20726571756573742e604482015290519081900360640190fd5b73__Register______________________________63c8bf169e61298b88612e2a565b878787878d6040518763ffffffff1660e060020a0281526004018080602001806020018060200180602001806020018060200187810387528d818151815260200191508051906020019080838360005b838110156129f35781810151838201526020016129db565b50505050905090810190601f168015612a205780820380516001836020036101000a031916815260200191505b5087810386528c5181528c516020918201918e019080838360005b83811015612a53578181015183820152602001612a3b565b50505050905090810190601f168015612a805780820380516001836020036101000a031916815260200191505b5087810385528b5181528b516020918201918d019080838360005b83811015612ab3578181015183820152602001612a9b565b50505050905090810190601f168015612ae05780820380516001836020036101000a031916815260200191505b5087810384528a5181528a516020918201918c019080838360005b83811015612b13578181015183820152602001612afb565b50505050905090810190601f168015612b405780820380516001836020036101000a031916815260200191505b5087810383528951815289516020918201918b019080838360005b83811015612b73578181015183820152602001612b5b565b50505050905090810190601f168015612ba05780820380516001836020036101000a031916815260200191505b5087810382528851815288516020918201918a019080838360005b83811015612bd3578181015183820152602001612bbb565b50505050905090810190601f168015612c005780820380516001836020036101000a031916815260200191505b509c5050505050505050505050505060006040518083038186803b158015612c2757600080fd5b505af4158015612c3b573d6000803e3d6000fd5b505050506040513d6000823e601f3d908101601f191682016040526020811015612c6457600080fd5b810190808051640100000000811115612c7c57600080fd5b82016020810184811115612c8f57600080fd5b8151640100000000811182820187101715612ca957600080fd5b50503360009081526001602081905260408220929650612cd1955091909101925090506149f9565b3360009081526001602090815260409091208251612cf792600390920191840190614a40565b50336000818152600160209081526040808320600801805461ff0019166101001790558051848152606081840181815287519183019190915286517fe8461f495cb4293de7658c3cb856de2f1c9b6e3cd46d865a64e205e22eb4c535969588958f958501926080860192918801918190849084905b83811015612d84578181015183820152602001612d6c565b50505050905090810190601f168015612db15780820380516001836020036101000a031916815260200191505b50838103825284518152845160209182019186019080838360005b83811015612de4578181015183820152602001612dcc565b50505050905090810190601f168015612e115780820380516001836020036101000a031916815260200191505b509550505050505060405180910390a150505050505050565b80516060908290829060009060011615612e4357600080fd5b8251600290046040519080825280601f01601f191660200182016040528015612e76578160200160208202803883390190505b509150600090505b825160029004811015612f0457612eb88382600202600101815181101515612ea257fe5b016020015160f860020a90819004810204613462565b612ecc8483600202815181101515612ea257fe5b6010020160f860020a028282815181101515612ee457fe5b906020010190600160f860020a031916908160001a905350600101612e7e565b509392505050565b60408051808201909152601d81527f6e6176696761746f722e69642e66696e697368456e726f6c6c6d656e7400000060208201525b90565b6060806060846040518082805190602001908083835b60208310612f795780518252601f199092019160209182019101612f5a565b51815160209384036101000a600019018019909216911617905260408051929094018290038220828501909452600382527f747970000000000000000000000000000000000000000000000000000000000090820152919350612fe79250899050612fe26135e5565b6135ea565b6040518082805190602001908083835b602083106130165780518252601f199092019160209182019101612ff7565b6001836020036101000a03801982511681845116808217855250505050505090500191505060405180910390206000191614151561309e576040805160e560020a62461bcd02815260206004820152600b60248201527f57726f6e6720747970652e000000000000000000000000000000000000000000604482015290519081900360640190fd5b6130e06040805190810160405280600981526020017f6368616c6c656e6765000000000000000000000000000000000000000000000081525088612fe26135e5565b91506131246040805190810160405280600981526020017f6368616c6c656e6765000000000000000000000000000000000000000000000081525087612fe26135e5565b9050806040518082805190602001908083835b602083106131565780518252601f199092019160209182019101613137565b51815160209384036101000a6000190180199092169116179052604051919093018190038120875190955087945090928392508401908083835b602083106131af5780518252601f199092019160209182019101613190565b6001836020036101000a038019825116818451168082178552505050505050905001915050604051809103902060001916141515613237576040805160e560020a62461bcd02815260206004820152601060248201527f57726f6e67206368616c6c656e67652e00000000000000000000000000000000604482015290519081900360640190fd5b83511561338e57836040518082805190602001908083835b6020831061326e5780518252601f19909201916020918201910161324f565b51815160209384036101000a600019018019909216911617905260408051929094018290038220828501909452600682527f6f726967696e0000000000000000000000000000000000000000000000000000908201529193506132d79250899050612fe26135e5565b6040518082805190602001908083835b602083106133065780518252601f1990920191602091820191016132e7565b6001836020036101000a03801982511681845116808217855250505050505090500191505060405180910390206000191614151561338e576040805160e560020a62461bcd02815260206004820152600e60248201527f496e76616c69642066616365742e000000000000000000000000000000000000604482015290519081900360640190fd5b6134206002876040518082805190602001908083835b602083106133c35780518252601f1990920191602091820191016133a4565b51815160209384036101000a600019018019909216911617905260405191909301945091925050808303816000865af1158015613404573d6000803e3d6000fd5b5050506040513d602081101561341957600080fd5b5051613825565b979650505050505050565b60408051808201909152601981527f6e6176696761746f722e69642e676574417373657274696f6e00000000000000602082015290565b60007f300000000000000000000000000000000000000000000000000000000000000060f860020a8302600160f860020a031916108015906134d457507f390000000000000000000000000000000000000000000000000000000000000060f860020a8302600160f860020a03191611155b156134e45750602f1981016135e0565b7f610000000000000000000000000000000000000000000000000000000000000060f860020a8302600160f860020a0319161080159061355457507f660000000000000000000000000000000000000000000000000000000000000060f860020a8302600160f860020a03191611155b15613564575060561981016135e0565b7f410000000000000000000000000000000000000000000000000000000000000060f860020a8302600160f860020a031916108015906135d457507f460000000000000000000000000000000000000000000000000000000000000060f860020a8302600160f860020a03191611155b156135e0575060361981015b919050565b600b90565b606060008060606135f9614b36565b6060600061360789896138d0565b9197509095509350851561368b576040805160e560020a62461bcd02815260206004820152602260248201527f4a534f4e20706172736572206e6f742070726f7065726c792072657475726e6560448201527f642e000000000000000000000000000000000000000000000000000000000000606482015290519081900360840190fd5b5060005b848110156137c85783818151811015156136a557fe5b9060200190602002015192506136c489846020015185606001516141f8565b9150816040518082805190602001908083835b602083106136f65780518252601f1990920191602091820191016136d7565b51815160209384036101000a60001901801990921691161790526040519190930181900381208f519095508f945090928392508401908083835b6020831061374f5780518252601f199092019160209182019101613730565b6001836020036101000a03801982511681845116808217855250505050505090500191505060405180910390206000191614156137c057838160010181518110151561379757fe5b9060200190602002015192506137b689846020015185606001516141f8565b9150819650613818565b60010161368f565b6040805160e560020a62461bcd02815260206004820152601060248201527f4669656c64206e6f7420666f756e642e00000000000000000000000000000000604482015290519081900360640190fd5b5050505050509392505050565b60408051602080825281830190925260609182916000918291829180820161040080388339019050509350859150600090505b60208110156138c65780601f0360080260020a8281151561387557fe5b06925080601f0360080260020a83830381151561388e57fe5b0460f860020a0284828151811015156138a357fe5b906020010190600160f860020a031916908160001a905350829150600101613858565b5091949350505050565b600060606000606060006138e2614b6d565b60008060006138ef614b36565b60008060008e99506139008e61429c565b6020820151909d5090985095505b8951885110156141db5787518a518b9190811061392757fe5b016020015160f860020a908190040292507f7b00000000000000000000000000000000000000000000000000000000000000600160f860020a03198416148061399957507f5b00000000000000000000000000000000000000000000000000000000000000600160f860020a03198416145b15613a7e576001909501946139ae888d614318565b90995093508815156139c75760039c5060009a506141e7565b6040880151600019146139ff578b88604001518151811015156139e657fe5b602090810291909101015160a001805160010160ff1690525b7f7b00000000000000000000000000000000000000000000000000000000000000600160f860020a0319841614613a37576002613a3a565b60015b84906004811115613a4757fe5b90816004811115613a5457fe5b905250875160208086019190915260016040808701919091529089015160001901908901526141cf565b7f7d00000000000000000000000000000000000000000000000000000000000000600160f860020a031984161480613adf57507f5d00000000000000000000000000000000000000000000000000000000000000600160f860020a03198416145b15613cb7577f7d00000000000000000000000000000000000000000000000000000000000000600160f860020a0319841614613b1c576002613b1f565b60015b915060009050600188602001510394505b60008510613bf9578b85815181101515613b4657fe5b90602001906020020151935083604001518015613b6557508360800151155b15613bed57816004811115613b7657fe5b84516004811115613b8357fe5b14613b955760019c5060009a506141e7565b600019604089015287518c516001909101908d9087908110613bb357fe5b60209081029091010151606001528b516001908d9087908110613bd257fe5b60209081029091010151901515608090910152506001613bf9565b60001990940193613b30565b801515613c0d5760019c5060009a506141e7565b6000851115613c60578b85815181101515613c2457fe5b90602001906020020151935083604001518015613c4357508360800151155b15613c545760408801859052613c60565b60001990940193613c0d565b841515613cb2578b85815181101515613c7557fe5b90602001906020020151935083604001518015613c9457508360800151155b15613cb2576fffffffffffffffffffffffffffffffff851660408901525b6141cf565b7f2200000000000000000000000000000000000000000000000000000000000000600160f860020a031984161415613d4c57613cf4888d8c6143c9565b96508615613d0a57959b50600099508b956141e7565b604088015160019096019560001914613cb2578b8860400151815181101515613d2f57fe5b602090810291909101015160a001805160010160ff1690526141cf565b60fd60020a600160f860020a031984161480613d9157507f1100000000000000000000000000000000000000000000000000000000000000600160f860020a03198416145b80613dc557507f1200000000000000000000000000000000000000000000000000000000000000600160f860020a03198416145b80613df957507f1400000000000000000000000000000000000000000000000000000000000000600160f860020a03198416145b15613e03576141cf565b7f3a00000000000000000000000000000000000000000000000000000000000000600160f860020a031984161415613e485760208801516000190160408901526141cf565b7f2c00000000000000000000000000000000000000000000000000000000000000600160f860020a031984161415613fbc57876040015160001914158015613eb8575060028c8960400151815181101515613e9f57fe5b60209081029091010151516004811115613eb557fe5b14155b8015613eec575060018c8960400151815181101515613ed357fe5b60209081029091010151516004811115613ee957fe5b14155b15613cb257600188602001510394505b60008510613cb25760028c86815181101515613f1457fe5b60209081029091010151516004811115613f2a57fe5b1480613f59575060018c86815181101515613f4157fe5b60209081029091010151516004811115613f5757fe5b145b15613fb0578b85815181101515613f6c57fe5b90602001906020020151604001518015613f9f57508b85815181101515613f8f57fe5b9060200190602002015160800151155b15613fb05760408801859052613cb2565b60001990940193613efc565b7f3000000000000000000000000000000000000000000000000000000000000000600160f860020a031984161080159061402057507f3900000000000000000000000000000000000000000000000000000000000000600160f860020a0319841611155b8061405457507f2d00000000000000000000000000000000000000000000000000000000000000600160f860020a03198416145b8061408857507f6600000000000000000000000000000000000000000000000000000000000000600160f860020a03198416145b806140bc57507f7400000000000000000000000000000000000000000000000000000000000000600160f860020a03198416145b806140f057507f6e00000000000000000000000000000000000000000000000000000000000000600160f860020a03198416145b156141755760408801516000191461416a578b886040015181518110151561411457fe5b60209081029091010151935060018451600481111561412f57fe5b1480614158575060038451600481111561414557fe5b148015614158575060a084015160ff1615155b1561416a5760019c5060009a506141e7565b613cf4888d8c61477c565b60fd60020a600160f860020a03198416108015906141bd57507f7e00000000000000000000000000000000000000000000000000000000000000600160f860020a0319841611155b156141cf5760019c5060009a506141e7565b8751600101885261390e565b602088015160009d509a505b505050505050505050509250925092565b606080606060008692508585036040519080825280601f01601f191660200182016040528015614232578160200160208202803883390190505b5091508590505b8481101561429257828181518110151561424f57fe5b90602001015160f860020a900460f860020a028287830381518110151561427257fe5b906020010190600160f860020a031916908160001a905350600101614239565b5095945050505050565b6142a4614b6d565b60606142ae614b6d565b60608060405190810160405280600081526020016000815260200160001981525091508460405190808252806020026020018201604052801561430b57816020015b6142f8614b36565b8152602001906001900390816142f05790505b5091959194509092505050565b6000614322614b36565b61432a614b36565b835160208601511061435e57600084600186510381518110151561434a57fe5b6020908102909101015190935091506143c1565b506040805160c08101825260008082526020808301829052928201819052606082018190526080820181905260a08201529085015184518291869181106143a157fe5b602090810290910181019190915285018051600190810190915292509050805b509250929050565b60008060006143d6614b36565b8651600181018852925060005b855188511015614769578751865187919081106143fc57fe5b016020015160f860020a908190040290507f2200000000000000000000000000000000000000000000000000000000000000600160f860020a03198216141561447e576144498888614318565b90935091508215156144615783885260039450614771565b614475826003866001018b600001516149b3565b60009450614771565b605c60ff60f860020a83041614801561449b575085518851600101105b1561475d578751600101808952865187919081106144b557fe5b90602001015160f860020a900460f860020a02600160f860020a0319167f22000000000000000000000000000000000000000000000000000000000000001480614549575087518651879190811061450957fe5b90602001015160f860020a900460f860020a02600160f860020a0319167f2f00000000000000000000000000000000000000000000000000000000000000145b8061459e575087518651879190811061455e57fe5b90602001015160f860020a900460f860020a02600160f860020a0319167f5c00000000000000000000000000000000000000000000000000000000000000145b806145f357508751865187919081106145b357fe5b90602001015160f860020a900460f860020a02600160f860020a0319167f6600000000000000000000000000000000000000000000000000000000000000145b80614648575087518651879190811061460857fe5b90602001015160f860020a900460f860020a02600160f860020a0319167f7200000000000000000000000000000000000000000000000000000000000000145b8061469d575087518651879190811061465d57fe5b90602001015160f860020a900460f860020a02600160f860020a0319167f6e00000000000000000000000000000000000000000000000000000000000000145b806146f257508751865187919081106146b257fe5b90602001015160f860020a900460f860020a02600160f860020a0319167f6200000000000000000000000000000000000000000000000000000000000000145b80614747575087518651879190811061470757fe5b90602001015160f860020a900460f860020a02600160f860020a0319167f7400000000000000000000000000000000000000000000000000000000000000145b156147515761475d565b83885260019450614771565b875160010188526143e3565b838852600294505b505050509392505050565b600080600080600061478c614b36565b88516000955093505b865189511015614954578851875188919081106147ae57fe5b016020015160f860020a9081900402925060fd60020a600160f860020a03198416148061480457507f0900000000000000000000000000000000000000000000000000000000000000600160f860020a03198416145b8061483857507f0a00000000000000000000000000000000000000000000000000000000000000600160f860020a03198416145b8061486c57507f0d00000000000000000000000000000000000000000000000000000000000000600160f860020a03198416145b806148a057507f2c00000000000000000000000000000000000000000000000000000000000000600160f860020a03198416145b806148d457507f7d00000000000000000000000000000000000000000000000000000000000000600160f860020a03198416145b8061490857507f5d00000000000000000000000000000000000000000000000000000000000000600160f860020a03198416145b156149165760019450614954565b602060ff60f860020a85041610806149375750607f60ff60f860020a850416115b1561494857838952600195506149a7565b88516001018952614795565b84151561496757838952600295506149a7565b6149718989614318565b909250905081151561498957838952600395506149a7565b61499a816004868c600001516149b3565b8851600019018952600095505b50505050509392505050565b838360048111156149c057fe5b908160048111156149cd57fe5b90525060208401919091526001604084018190526060840191909152608083015250600060a090910152565b50805460018160011615610100020316600290046000825580601f10614a1f5750614a3d565b601f016020900490600052602060002090810190614a3d9190614b8f565b50565b828054600181600116156101000203166002900490600052602060002090601f016020900481019282601f10614a8157805160ff1916838001178555614aae565b82800160010185558215614aae579182015b82811115614aae578251825591602001919060010190614a93565b50614aba929150614b8f565b5090565b815481835581811115611e7e57600302816003028360005260206000209182019101611e7e9190614ba9565b5080546000825560030290600052602060002090810190614a3d9190614ba9565b6060604051908101604052806000600160a060020a0316815260200160008152602001600081525090565b6040805160c08101909152806000815260006020820181905260408201819052606082018190526080820181905260a09091015290565b6060604051908101604052806000815260200160008152602001600081525090565b612f4191905b80821115614aba5760008155600101614b95565b612f4191905b80821115614aba57805473ffffffffffffffffffffffffffffffffffffffff191681556000600182018190556002820155600301614baf56004e6f742072656769737465726564206f72206c6f636b65642e00000000000000556e7265636f676e697a656420757365722e0000000000000000000000000000a165627a7a723058208b13f8c29f8083c220c31c4537e6599613b180224d7f3aa6255ed9056e6322fe0029",
  "source": "pragma solidity >=0.4.21 <0.5.0;\n\nimport \"./Utils.sol\";\nimport \"./Base64.sol\";\n\nimport \"./Global.sol\";\nimport \"./Register.sol\";\nimport \"./Authenticate.sol\";\n\n\ncontract Manager {\n\n\t// ======================================================================================================================== //\n\n\t// server;\n\tuint _randNonce;\n\n\tstruct Txn {\n\n\t\taddress _to;\n\t\tuint _amount;\n\t\tuint _validTime;\n\n\t}\n\n\tstruct User {\n\t\tbool _known;\n\t\t// u2f data;\n\t\tbytes _enroll;\n\t\tbytes _sign;\n\t\tbytes _registeredKey;\n\t\tbytes _lastVerified;\n\t\t// policy data;\n\t\tuint _policy;\n\t\t/*\n\t\t\t0: strict;\n\t\t\t1: history;\n\t\t*/\n\t\tuint _expire;\n\t\tuint _limit;\n\t\t// account data;\n\t\tbool _lock;\n\t\tbool _registered;\n\t\tbool _signed;\n\t\t// history;\n\t\tmapping(address => uint) _txnHistory;\n\t\t// delayed transaction;\n\t\tTxn[] _pendingTxns;\n\t}\n\n\tmapping(address => User) _users;\n\taddress _owner;\n\n\tevent Transfer(address from, address to, uint amount);\n\tevent Lock(address owner, address bank);\n\n\tevent RegistrationRequest(address user, string request, string appId);\n\tevent RegistrationComplete(address user, string device, string appId);\n\tevent SignRequest(address user, string request, string appId);\n\tevent SignComplete(address user, string information, string appId);\n\n\tconstructor() public {\n\t\t_randNonce = 0;\n\t\t_owner = msg.sender;\n\t}\n\n\tmodifier onlyOwner {\n\n\t\trequire(msg.sender == _owner, \"Option granted only to owner.\");\n\t\t_;\n\n\t}\n\n\tmodifier onlyKnownUser {\n\n\t\trequire(_users[msg.sender]._known, \"Unrecognized user.\");\n\t\t_;\n\n\t}\n\n\tmodifier checkReady {\n\n\t\trequire(_users[msg.sender]._registered && !_users[msg.sender]._lock, \"Not registered or locked.\");\n\t\t_;\n\n\t}\n\n\tmodifier checkSigned {\n\n\t\trequire(_users[msg.sender]._signed, \"Not signed.\");\n\t\t_users[msg.sender]._signed = false;\n\t\t_;\n\n\t}\n\n\tfunction close() onlyOwner public {\n\n\t\tselfdestruct(_owner);\n\n\t}\n\n\tfunction getUserInfo() onlyKnownUser public view returns (bool known, uint policy, uint expire, uint limit, bool lock, bool registered, bool signed) {\n\n\t\tknown = _users[msg.sender]._known;\n\t\tpolicy = _users[msg.sender]._policy;\n\t\texpire = _users[msg.sender]._expire;\n\t\tlimit = _users[msg.sender]._limit;\n\t\tlock = _users[msg.sender]._lock;\n\t\tregistered = _users[msg.sender]._registered;\n\t\tsigned = _users[msg.sender]._signed;\n\n\t}\n\n\tfunction getUserU2F() onlyKnownUser public view returns (bytes enroll, bytes registeredKey, bytes sign, bytes lastVerified) {\n\n\t\tenroll = _users[msg.sender]._enroll;\n\t\tregisteredKey = _users[msg.sender]._registeredKey;\n\t\tsign = _users[msg.sender]._sign;\n\t\tlastVerified = _users[msg.sender]._lastVerified;\n\n\t}\n\n\tfunction getUserHistory(address to) public view returns (uint history) {\n\n\t\thistory =  _users[msg.sender]._txnHistory[to];\n\n\t}\n\n\t// ======================================================================================================================== //\n\n\t// u2f;\n\tfunction client(string clientData, string appId, uint typ) onlyKnownUser public view returns (bytes) {\n\t    \n\t    bytes memory challengeParameter;\n\t    \n\t    if (typ == 0) {\n\t        require(_users[msg.sender]._enroll.length > 0, \"No current registration request.\");\n\t        challengeParameter = Global.validateClientData(string(_users[msg.sender]._enroll), string(Base64.fromHex(clientData)), Global.getRegisterType(), appId);\n\t    }\n\t    \n\t    else {\n\t        require(_users[msg.sender]._sign.length > 0, \"No current Authentication request.\");\n\t        challengeParameter = Global.validateClientData(string(_users[msg.sender]._sign), string(Base64.fromHex(clientData)), Global.getSignType(), appId);\n\t    }\n\t    \n\t    return challengeParameter;\n\t    \n\t}\n\t\n\n\tfunction enroll(string appId) onlyKnownUser public {\n\n\t\tstring memory request = Register.beginRegistration(appId, _randNonce++);\n\t\t_users[msg.sender]._enroll = bytes(request);\n\n\t\temit RegistrationRequest(msg.sender, request, appId);\n\n\t}\n\n\n    // decoded and parsed response with format validation;\n\tfunction bind(string appId, string challengeParameter, string pubKey, string keyHandle, string certKey, string signature) onlyKnownUser public {\n        \n\t\trequire(_users[msg.sender]._enroll.length > 0, \"No current registration request.\");\n\t\t\t\t\n\t\tbytes memory device = Register.completeRegistration(Base64.fromHex(challengeParameter), pubKey, keyHandle, certKey, signature, appId);\n\n\t\tdelete _users[msg.sender]._enroll;\n\t\t\n\t\t_users[msg.sender]._registeredKey = device;\n\n\t\t_users[msg.sender]._registered = true;\n\t\t\n\t\temit RegistrationComplete(msg.sender, string(device), appId);\n\n\t}\n\n\tfunction sign(string appId) onlyKnownUser public {\n\n\t\trequire(_users[msg.sender]._registeredKey.length > 0, \"No registered key.\");\n\n\t\t// Might include algorithms for finding a key with the correct version;\n\t\tstring memory request = Authenticate.beginAuthentication(appId, _users[msg.sender]._registeredKey, _randNonce++);\n\n\t\t_users[msg.sender]._sign = bytes(request);\n\n\t\temit SignRequest(msg.sender, request, appId);\n\n\t}\n\n    // decoded and parsed signature data;\n\tfunction verify(string appId, string challengeParameter, string decodedSignatureData, string keyHandle) onlyKnownUser public {\n\n\t\trequire(_users[msg.sender]._sign.length > 0, \"No current registration request.\");\n\t\t\n\t\tbytes memory message;\n\n\t\tmessage = Authenticate.completeAuthentication(_users[msg.sender]._sign, Base64.fromHex(challengeParameter), decodedSignatureData, keyHandle, appId);\n\n\t\tdelete _users[msg.sender]._sign;\n\n\t\t_users[msg.sender]._lastVerified = message;\n\n\t\t_users[msg.sender]._signed = true;\n\t\t\n\t\temit SignComplete(msg.sender, string(message), appId);\n\n\t}\n\n\n\t// ======================================================================================================================== //\n\n\t// users;\n\tfunction registerForUser() public {\n\n\t\t_users[msg.sender]._known = true;\n\t\t_users[msg.sender]._expire = 24;\n\t\t_users[msg.sender]._limit = 10000;\n\n\t}\n\n\tfunction setLimit(uint limit) onlyKnownUser public {\n\n\t\t_users[msg.sender]._limit = limit;\n\n\t}\n\n\tfunction setPolicy(uint policy, uint expire) onlyKnownUser checkSigned public {\n\n\t\t_users[msg.sender]._policy = policy;\n\t\t_users[msg.sender]._expire = expire;\n\n\t}\n\n\tfunction lockAccount() onlyKnownUser checkSigned public {\n\n\t\t_users[msg.sender]._lock = true;\n\n\t}\n\n\tfunction unlockAccount() onlyKnownUser checkSigned public {\n\n\t\t_users[msg.sender]._lock = false;\n\n\t}\n\n\t// ======================================================================================================================== //\n\t// function;\n\tfunction transferViaManager(address to, uint amount, uint pendingTime) checkReady public payable {\n\n\t\trequire(amount <= msg.value, \"Not enough balance sent.\");\n\n\t\tif (amount > _users[msg.sender]._limit) {\n\t\t\tif ((_users[msg.sender]._policy == 0) ||\n\t\t\t\t(_users[msg.sender]._policy == 1 && (_users[msg.sender]._txnHistory[to] == 0 || now >= _users[msg.sender]._txnHistory[to] + _users[msg.sender]._expire * 1 hours))) {\n\t\t\t\t\n\t\t\t\trequire(_users[msg.sender]._signed, \"Authentication required.\");\n\t\t\t\t_users[msg.sender]._signed = false;\n\t\t\t\t_users[msg.sender]._txnHistory[to] = now;\n\t\t\t}\n\t\t\tif (pendingTime > 0) {\n\n\t\t\t\tTxn memory txn = Txn({_to: to, _amount: amount, _validTime: now + pendingTime * 1 hours});\n\t\t\t\t_users[msg.sender]._pendingTxns.push(txn);\n\n\t\t\t\treturn;\n\t\t\t}\n\t\t}\n\n\t\tto.transfer(amount);\n\n\t}\n\n\tfunction validatePendingTxns() checkReady public payable {\n\n\t\tuint validated = 0;\n\t\tuint i = 0;\n\t\tfor (i = 0; i < _users[msg.sender]._pendingTxns.length; i++) {\n\n\t\t\tif (_users[msg.sender]._pendingTxns[i]._validTime <= now) {\n\n\t\t\t\trequire(_users[msg.sender]._pendingTxns[i]._amount <= address(this).balance, \"Not enough balance.\");\n\n\t\t\t\t_users[msg.sender]._pendingTxns[i]._to.transfer(_users[msg.sender]._pendingTxns[i]._amount);\n\t\t\t\tvalidated++;\n\n\t\t\t}\n\n\t\t}\n\n\t\tfor (i = 0; i < (_users[msg.sender]._pendingTxns.length - validated); i++) {\n\t\t\t_users[msg.sender]._pendingTxns[i] = _users[msg.sender]._pendingTxns[i + validated];\n\t\t}\n\n\t\t_users[msg.sender]._pendingTxns.length -= validated;\n\n\t}\n\n\tfunction cancelPendingTxn(uint id) checkReady public payable {\n\n\t\trequire(_users[msg.sender]._pendingTxns[id]._amount <= address(this).balance, \"Not enough balance.\");\n\n\t\tmsg.sender.transfer(_users[msg.sender]._pendingTxns[id]._amount);\n\n\t\tuint i;\n\t\tfor (i = id; i < _users[msg.sender]._pendingTxns.length - 1; i++) {\n\t\t\t_users[msg.sender]._pendingTxns[i] = _users[msg.sender]._pendingTxns[i + 1];\n\t\t}\n\n\t\t_users[msg.sender]._pendingTxns.length--;\n\n\t}\n\n\tfunction clearPendingTxns() checkReady public payable {\n\n\t\tuint i;\n\t\tuint amount = 0;\n\t\tfor (i = 0; i < _users[msg.sender]._pendingTxns.length; i++) {\n\n\t\t\tamount += _users[msg.sender]._pendingTxns[i]._amount;\n\n\t\t}\n\n\t\trequire(amount <= address(this).balance, \"Not enough balance.\");\n\n\t\tmsg.sender.transfer(amount);\n\n\t\tdelete _users[msg.sender]._pendingTxns;\n\t\t\n\t}\n\n\n}",
  "sourcePath": "/home/chxw/Desktop/worksite/develop/u2f-ethereum/contracts/Manager.sol",
  "compiler": {
    "name": "solc",
    "version": "0.4.24+commit.e67f0147.Emscripten.clang"
  },
  "schemaVersion": "3.0.5",
  "updatedAt": "2019-04-28T22:30:00.672Z",
  "devdoc": {
    "methods": {}
  },
  "userdoc": {
    "methods": {}
  }
}