{
  "contractName": "Register",
  "abi": [
    {
      "constant": true,
      "inputs": [
        {
          "name": "appId",
          "type": "string"
        },
        {
          "name": "randNonce",
          "type": "uint256"
        }
      ],
      "name": "beginRegistration",
      "outputs": [
        {
          "name": "",
          "type": "string"
        }
      ],
      "payable": false,
      "stateMutability": "view",
      "type": "function",
      "signature": "0xc55c7243"
    },
    {
      "constant": true,
      "inputs": [
        {
          "name": "challengeParameter",
          "type": "bytes"
        },
        {
          "name": "pubKey",
          "type": "string"
        },
        {
          "name": "keyHandle",
          "type": "string"
        },
        {
          "name": "certKey",
          "type": "string"
        },
        {
          "name": "signature",
          "type": "string"
        },
        {
          "name": "facet",
          "type": "string"
        }
      ],
      "name": "completeRegistration",
      "outputs": [
        {
          "name": "",
          "type": "bytes"
        }
      ],
      "payable": false,
      "stateMutability": "pure",
      "type": "function",
      "signature": "0xc8bf169e"
    },
    {
      "constant": true,
      "inputs": [
        {
          "name": "pubKey",
          "type": "bytes"
        },
        {
          "name": "keyHandle",
          "type": "bytes"
        },
        {
          "name": "certKey",
          "type": "bytes"
        },
        {
          "name": "signature",
          "type": "bytes"
        },
        {
          "name": "appId",
          "type": "string"
        },
        {
          "name": "challengeParameter",
          "type": "bytes"
        }
      ],
      "name": "registerVerify",
      "outputs": [
        {
          "name": "",
          "type": "bytes"
        }
      ],
      "payable": false,
      "stateMutability": "pure",
      "type": "function",
      "signature": "0xab4f83ce"
    }
  ],
  "bytecode": "0x6137f9610030600b82828239805160001a6073146000811461002057610022565bfe5b5030600052607381538281f300730000000000000000000000000000000000000000301460806040526004361061006d5763ffffffff7c0100000000000000000000000000000000000000000000000000000000600035041663ab4f83ce8114610072578063c55c724314610269578063c8bf169e146102b7575b600080fd5b6040805160206004803580820135601f81018490048402850184019095528484526101f494369492936024939284019190819084018382808284375050604080516020601f89358b018035918201839004830284018301909452808352979a99988101979196509182019450925082915084018382808284375050604080516020601f89358b018035918201839004830284018301909452808352979a99988101979196509182019450925082915084018382808284375050604080516020601f89358b018035918201839004830284018301909452808352979a99988101979196509182019450925082915084018382808284375050604080516020601f89358b018035918201839004830284018301909452808352979a99988101979196509182019450925082915084018382808284375050604080516020601f89358b018035918201839004830284018301909452808352979a9998810197919650918201945092508291508401838280828437509497506104399650505050505050565b6040805160208082528351818301528351919283929083019185019080838360005b8381101561022e578181015183820152602001610216565b50505050905090810190601f16801561025b5780820380516001836020036101000a031916815260200191505b509250505060405180910390f35b6040805160206004803580820135601f81018490048402850184019095528484526101f4943694929360249392840191908190840183828082843750949750509335945061079b9350505050565b6040805160206004803580820135601f81018490048402850184019095528484526101f494369492936024939284019190819084018382808284375050604080516020601f89358b018035918201839004830284018301909452808352979a99988101979196509182019450925082915084018382808284375050604080516020601f89358b018035918201839004830284018301909452808352979a99988101979196509182019450925082915084018382808284375050604080516020601f89358b018035918201839004830284018301909452808352979a99988101979196509182019450925082915084018382808284375050604080516020601f89358b018035918201839004830284018301909452808352979a99988101979196509182019450925082915084018382808284375050604080516020601f89358b018035918201839004830284018301909452808352979a9998810197919650918201945092508291508401838280828437509497506109969650505050505050565b606080610444613735565b60606104e36104db6002886040518082805190602001908083835b6020831061047e5780518252601f19909201916020918201910161045f565b51815160209384036101000a600019018019909216911617905260405191909301945091925050808303816000865af11580156104bf573d6000803e3d6000fd5b5050506040513d60208110156104d457600080fd5b50516109d1565b868b8d610a7c565b92506104f087848a610c88565b15610545576040805160e560020a62461bcd02815260206004820152601260248201527f496e76616c6964207369676e61747572652e0000000000000000000000000000604482015290519081900360640190fd5b60408051600480825260a0820190925290816020015b606081526020019060019003908161055b575050825260408051600480825260a0820190925290602082015b606081526020019060019003908161058757505060208084019190915260408051808201909152600781527f76657273696f6e00000000000000000000000000000000000000000000000000918101919091528251805160009081106105e957fe5b906020019060200201819052506040805190810160405280600981526020017f6b657948616e646c6500000000000000000000000000000000000000000000008152508260000151600181518110151561063f57fe5b906020019060200201819052506040805190810160405280600581526020017f61707049640000000000000000000000000000000000000000000000000000008152508260000151600281518110151561069557fe5b906020019060200201819052506040805190810160405280600981526020017f7075626c69634b65790000000000000000000000000000000000000000000000815250826000015160038151811015156106eb57fe5b602090810290910101526106fd610ea0565b60208301518051600090811061070f57fe5b6020908102909101015261072289610ed7565b60208301518051600190811061073457fe5b90602001906020020181905250858260200151600281518110151561075557fe5b602090810290910101526107688a610ed7565b60208301518051600390811061077a57fe5b6020908102909101015261078d82610fbe565b9a9950505050505050505050565b6060806107a6613735565b60606107c16107bc6107b78761144f565b6109d1565b611508565b60408051600380825260808201909252919450816020015b60608152602001906001900390816107d957505082526040805160038082526080820190925290602082015b606081526020019060019003908161080557505060208084019190915260408051808201909152600981527f6368616c6c656e676500000000000000000000000000000000000000000000009181019190915282518051600090811061086757fe5b906020019060200201819052506040805190810160405280600781526020017f76657273696f6e00000000000000000000000000000000000000000000000000815250826000015160018151811015156108bd57fe5b906020019060200201819052506040805190810160405280600581526020017f61707049640000000000000000000000000000000000000000000000000000008152508260000151600281518110151561091357fe5b90602001906020020181905250828260200151600081518110151561093457fe5b60209081029091010152610946610ea0565b60208301518051600190811061095857fe5b90602001906020020181905250858260200151600281518110151561097957fe5b6020908102909101015261098c82610fbe565b9695505050505050565b60606109c66109a48761151d565b6109ad8761151d565b6109b68761151d565b6109bf8761151d565b868c610439565b979650505050505050565b60408051602080825281830190925260609182916000918291829180820161040080388339019050509350859150600090505b6020811015610a725780601f0360080260020a82811515610a2157fe5b06925080601f0360080260020a838303811515610a3a57fe5b0460f860020a028482815181101515610a4f57fe5b906020010190600160f860020a031916908160001a905350829150600101610a04565b5091949350505050565b6060806000808451865188518a516001010101016040519080825280601f01601f191660200182016040528015610abd578160200160208202803883390190505b509250600060f860020a02836000815181101515610ad757fe5b906020010190600160f860020a031916908160001a90535060019150600090505b8751811015610b56578781815181101515610b0f57fe5b90602001015160f860020a900460f860020a028383806001019450815181101515610b3657fe5b906020010190600160f860020a031916908160001a905350600101610af8565b5060005b8651811015610bb8578681815181101515610b7157fe5b90602001015160f860020a900460f860020a028383806001019450815181101515610b9857fe5b906020010190600160f860020a031916908160001a905350600101610b5a565b5060005b8551811015610c1a578581815181101515610bd357fe5b90602001015160f860020a900460f860020a028383806001019450815181101515610bfa57fe5b906020010190600160f860020a031916908160001a905350600101610bbc565b5060005b8451811015610c7c578481815181101515610c3557fe5b90602001015160f860020a900460f860020a028383806001019450815181101515610c5c57fe5b906020010190600160f860020a031916908160001a905350600101610c1e565b50909695505050505050565b600080600080600080600080886000815181101515610ca357fe5b90602001015160f860020a900460f860020a02600160f860020a031916600460f860020a02141515610d1f576040805160e560020a62461bcd02815260206004820152601360248201527f496e76616c6964207075626c6963206b65792e00000000000000000000000000604482015290519081900360640190fd5b6000965060009550610d308b6115ff565b909550935060019250600091505b6020821015610d875781601f0360080260020a8984806001019550815181101515610d6557fe5b016020015160f860020a90819004810204029690960195600190910190610d3e565b600091505b6020821015610dd55781601f0360080260020a8984806001019550815181101515610db357fe5b016020015160f860020a90819004810204029590950194600190910190610d8c565b610e8c60028b6040518082805190602001908083835b60208310610e0a5780518252601f199092019160209182019101610deb565b51815160209384036101000a600019018019909216911617905260405191909301945091925050808303816000865af1158015610e4b573d6000803e3d6000fd5b5050506040513d6020811015610e6057600080fd5b5051604080518082018252888152602081810189905282518084019093528b835282018a9052906118eb565b90508097505b505050505050509392505050565b60408051808201909152600681527f5532465f56320000000000000000000000000000000000000000000000000000602082015290565b606080600080600085516002026040519080825280601f01601f191660200182016040528015610f11578160200160208202803883390190505b509350600090505b8551811015610a72578581815181101515610f3057fe5b016020015160f860020a908190048102049250601083049150610f5282611a93565b8482600202815181101515610f6357fe5b906020010190600160f860020a031916908160001a905350601083069150610f8a82611a93565b8482600202600101815181101515610f9e57fe5b906020010190600160f860020a031916908160001a905350600101610f19565b8051516060906000198101600290810260068302010160008381805b8584101561102d578751805185908110610ff057fe5b90602001906020020151518501945087602001518481518110151561101157fe5b9060200190602002015151850194508380600101945050610fda565b846040519080825280601f01601f19166020018201604052801561105b578160200160208202803883390190505b508051909350600192507f7b00000000000000000000000000000000000000000000000000000000000000908490600090811061109457fe5b906020010190600160f860020a031916908160001a905350600090505b858110156113f7578251600183019260f960020a6011029185919081106110d457fe5b906020010190600160f860020a031916908160001a905350600093505b87518051829081106110ff57fe5b906020019060200201515184101561118057875180518290811061111f57fe5b906020019060200201518481518110151561113657fe5b90602001015160f860020a900460f860020a02838380600101945081518110151561115d57fe5b906020010190600160f860020a031916908160001a9053506001909301926110f1565b8251600183019260f960020a60110291859190811061119b57fe5b906020010190600160f860020a031916908160001a905350825160018301927f3a000000000000000000000000000000000000000000000000000000000000009185919081106111e757fe5b906020010190600160f860020a031916908160001a905350825160018301927f200000000000000000000000000000000000000000000000000000000000000091859190811061123357fe5b906020010190600160f860020a031916908160001a9053508251600183019260f960020a60110291859190811061126657fe5b906020010190600160f860020a031916908160001a905350600093505b602088015180518290811061129457fe5b90602001906020020151518410156113185760208801518051829081106112b757fe5b90602001906020020151848151811015156112ce57fe5b90602001015160f860020a900460f860020a0283838060010194508151811015156112f557fe5b906020010190600160f860020a031916908160001a905350600190930192611283565b8251600183019260f960020a60110291859190811061133357fe5b906020010190600160f860020a031916908160001a905350600019860181146113ef57825160018301927f2c0000000000000000000000000000000000000000000000000000000000000091859190811061138a57fe5b906020010190600160f860020a031916908160001a905350825160018301927f20000000000000000000000000000000000000000000000000000000000000009185919081106113d657fe5b906020010190600160f860020a031916908160001a9053505b6001016110b1565b825160018301927f7d0000000000000000000000000000000000000000000000000000000000000091859190811061142b57fe5b906020010190600160f860020a031916908160001a90535091979650505050505050565b604080516c0100000000000000000000000033810260208084019190915260001943014060348401524191909102605483015244606883015260888083018590528351808403909101815260a8909201928390528151600093849392909182918401908083835b602083106114d55780518252601f1990920191602091820191016114b6565b5181516020939093036101000a600019018019909116921691909117905260405192018290039091209695505050505050565b6060611515826000611ac7565b90505b919050565b8051606090829082906000906001161561153657600080fd5b8251600290046040519080825280601f01601f191660200182016040528015611569578160200160208202803883390190505b509150600090505b8251600290048110156115f7576115ab838260020260010181518110151561159557fe5b016020015160f860020a90819004810204611cb6565b6115bf848360020281518110151561159557fe5b6010020160f860020a0282828151811015156115d757fe5b906020010190600160f860020a031916908160001a905350600101611571565b509392505050565b6000806000806060611612600187611e38565b81519097509091508190600090811061162757fe5b90602001015160f860020a900460f860020a02600160f860020a031916603060f860020a021415156116a3576040805160e560020a62461bcd02815260206004820152600560248201527f307833302e000000000000000000000000000000000000000000000000000000604482015290519081900360640190fd5b6116ae600187611e38565b80518251919850919250829060009081106116c557fe5b016020015160f860020a908190048102041461172b576040805160e560020a62461bcd02815260206004820152601560248201527f556e657175616c20746f74616c206c656e6774682e0000000000000000000000604482015290519081900360640190fd5b611736600187611e38565b81519097509091508190600090811061174b57fe5b90602001015160f860020a900460f860020a02600160f860020a031916600260f860020a021415156117c7576040805160e560020a62461bcd02815260206004820152600560248201527f307830322e000000000000000000000000000000000000000000000000000000604482015290519081900360640190fd5b6117d2600187611e38565b815190975090915061180290829060009081106117eb57fe5b016020015160f860020a9081900481020487611e38565b9650905061180f81611f77565b925061181c600187611e38565b81519097509091508190600090811061183157fe5b90602001015160f860020a900460f860020a02600160f860020a031916600260f860020a021415156118ad576040805160e560020a62461bcd02815260206004820152600560248201527f307830322e000000000000000000000000000000000000000000000000000000604482015290519081900360640190fd5b6118b8600187611e38565b81519097509091506118d190829060009081106117eb57fe5b965090506118de81611f77565b9296929550919350505050565b6000806000806000806118fc61374c565b8851600090158061191c5750895160008051602061378e83398151915211155b80611929575060208a0151155b156119375760009750610e92565b885160208a01516119489190611fc6565b15156119575760019750610e92565b60208a01516119749060008051602061378e8339815191526120c2565b92506119d27f6b17d1f2e12c4247f8bce6e563a440f277037d812deb33a0f4a13945d898c2967f4fe342e2fe1a7f9b8ee7eb4a7c0f9e162bce33576b315ececbb6406837bf51f560008051602061378e833981519152868f0961215e565b8a5160208c01518d51939a50919750611a009290919060008051602061378e8339815191529087900961215e565b9096509350611a1187868887612233565b60408101519092501515611a285760029750610e92565b6040820151611a45906000805160206137ae8339815191526120c2565b90506000805160206137ae833981519152808283098351098a5190915060008051602061378e83398151915282061415611a825760009750610e92565b5060039a9950505050505050505050565b6000600a821015611aae575060f860020a6030820102611518565b601082101561006d575060f860020a6057820102611518565b606061376b8180600080808080891515611ae5576122599750611aeb565b61248897505b60c88b511115611b0957611b028b8963ffffffff16565b9850611ca8565b6040805160208101909152600081528b5190975060c880820496506001955090061515611b3557600093505b600091505b84821015611bed576040805160c88082526101008201909252906020820161190080388339019050509550600092505b60c8831015611bca578a8360c8840201815181101515611b8657fe5b90602001015160f860020a900460f860020a028684815181101515611ba757fe5b906020010190600160f860020a031916908160001a905350600190920191611b6a565b611be087611bdb888b63ffffffff16565b612666565b9650600190910190611b3a565b8315611ca4578a5160c890069050806040519080825280601f01601f191660200182016040528015611c29578160200160208202803883390190505b509550600092505b80831015611c90578a8360c8870201815181101515611c4c57fe5b90602001015160f860020a900460f860020a028684815181101515611c6d57fe5b906020010190600160f860020a031916908160001a905350600190920191611c31565b611ca187611bdb888b63ffffffff16565b96505b8698505b505050505050505092915050565b60007f300000000000000000000000000000000000000000000000000000000000000060f860020a8302600160f860020a03191610801590611d2857507f390000000000000000000000000000000000000000000000000000000000000060f860020a8302600160f860020a03191611155b15611d385750602f198101611518565b7f610000000000000000000000000000000000000000000000000000000000000060f860020a8302600160f860020a03191610801590611da857507f660000000000000000000000000000000000000000000000000000000000000060f860020a8302600160f860020a03191611155b15611db857506056198101611518565b7f410000000000000000000000000000000000000000000000000000000000000060f860020a8302600160f860020a03191610801590611e2857507f460000000000000000000000000000000000000000000000000000000000000060f860020a8302600160f860020a03191611155b1561151857506036198101611518565b606080606080600080878751036040519080825280601f01601f191660200182016040528015611e72578160200160208202803883390190505b509350876040519080825280601f01601f191660200182016040528015611ea3578160200160208202803883390190505b50925060009150600090505b8251811015611f0a578651600183019288918110611ec957fe5b90602001015160f860020a900460f860020a028382815181101515611eea57fe5b906020010190600160f860020a031916908160001a905350600101611eaf565b5060005b8351811015611f69578651600183019288918110611f2857fe5b90602001015160f860020a900460f860020a028482815181101515611f4957fe5b906020010190600160f860020a031916908160001a905350600101611f0e565b509096919550909350505050565b600080805b8351811015611fbf578060010184510360080260020a8482815181101515611fa057fe5b016020015160f860020a90819004810204029190910190600101611f7c565b5092915050565b60008080841580611fe457506000805160206137ae83398151915285145b80611fed575083155b8061200557506000805160206137ae83398151915284145b1561201357600092506120ba565b6000805160206137ae83398151915284850991506000805160206137ae833981519152856000805160206137ae8339815191528788090990506000805160206137ae833981519152807bfffffffeffffffffffffffffffffffff000000000000000000000003198709820890506000805160206137ae8339815191527f5ac635d8aa3a93e7b3ebbd55769886bc651d06b0cc53b0f63bce3c3e27d2604b8208905080821492505b505092915050565b600080808080808715806120d557508688145b806120de575086155b156120ec5760009550612153565b868811156121035786888115156120ff57fe5b0697505b600193508692508791505b811561213957818381151561211f57fe5b94959404858102909403939192838302900391905061210e565b600085121561214f578460000387039550612153565b8495505b505050505092915050565b6000808080808086151561217d57612174612774565b95509550612227565b866001141561219157888895509550612227565b86600214156121a457612174898961277b565b5087945086935084925083915060019050806002870615156121c857600094508495505b6002909604955b6000871115612217576121e38484846127aa565b91955093509150600287066001141561220c576122048484848989866129ef565b919750955090505b6002909604956121cf565b612222868683612ae8565b955095505b50505050935093915050565b61223b61374c565b60008061224a87878787612b38565b90925090506109c68282612b6d565b606080600080606061226a86612bc6565b935060009250600091505b83518210156123eb5783517f2b00000000000000000000000000000000000000000000000000000000000000908590849081106122ae57fe5b90602001015160f860020a900460f860020a02600160f860020a031916141561231d577f2d00000000000000000000000000000000000000000000000000000000000000848381518110151561230057fe5b906020010190600160f860020a031916908160001a9053506123e0565b83517f2f000000000000000000000000000000000000000000000000000000000000009085908490811061234d57fe5b90602001015160f860020a900460f860020a02600160f860020a031916141561239f577f5f00000000000000000000000000000000000000000000000000000000000000848381518110151561230057fe5b835160f860020a603d02908590849081106123b657fe5b90602001015160f860020a900460f860020a02600160f860020a03191614156123e0576001909201915b600190910190612275565b828451036040519080825280601f01601f19166020018201604052801561241c578160200160208202803883390190505b509050600091505b805182101561247f57838281518110151561243b57fe5b90602001015160f860020a900460f860020a02818381518110151561245c57fe5b906020010190600160f860020a031916908160001a905350600190910190612424565b95945050505050565b6060600080825b84518310156125dd5784517f2d00000000000000000000000000000000000000000000000000000000000000908690859081106124c857fe5b90602001015160f860020a900460f860020a02600160f860020a0319161415612537577f2b00000000000000000000000000000000000000000000000000000000000000858481518110151561251a57fe5b906020010190600160f860020a031916908160001a9053506125d2565b84517f5f000000000000000000000000000000000000000000000000000000000000009086908590811061256757fe5b90602001015160f860020a900460f860020a02600160f860020a03191614156125d2577f2f0000000000000000000000000000000000000000000000000000000000000085848151811015156125b957fe5b906020010190600160f860020a031916908160001a9053505b60019092019161248f565b84516004906000036040805160018082528183019092529290910693506020808301908038833901905050905060f860020a603d0281600081518110151561262157fe5b906020010190600160f860020a031916908160001a905350600092505b8183101561265d576126508582612666565b945060019092019161263e565b61247f85612f45565b60608060008084518651016040519080825280601f01601f19166020018201604052801561269e578160200160208202803883390190505b50925060009150600090505b85518110156127085785818151811015156126c157fe5b90602001015160f860020a900460f860020a0283838060010194508151811015156126e857fe5b906020010190600160f860020a031916908160001a9053506001016126aa565b5060005b845181101561276a57848181518110151561272357fe5b90602001015160f860020a900460f860020a02838380600101945081518110151561274a57fe5b906020010190600160f860020a031916908160001a90535060010161270c565b5090949350505050565b6000809091565b600080600061278c858560016127aa565b9196509450905061279e858583612ae8565b92509250509250929050565b60008060008060008060006127bf8a8a61355d565b156127d7576127cc613582565b9650965096506129e2565b6000805160206137ae833981519152888a0992506000805160206137ae8339815191526002840992506000805160206137ae8339815191528a840991506000805160206137ae83398151915289830991506000805160206137ae8339815191526002830991506000805160206137ae8339815191528a8b0999506000805160206137ae83398151915260038b0993506000805160206137ae83398151915288890997506000805160206137ae8339815191527bfffffffeffffffffffffffffffffffff00000000000000000000000319890997506000805160206137ae83398151915288850893506000805160206137ae83398151915284850990506000805160206137ae8339815191528260020999506000805160206137ae8339815191528a6000805160206137ae83398151915203820890506000805160206137ae833981519152816000805160206137ae83398151915203830899506000805160206137ae8339815191528a850999506000805160206137ae833981519152838a0998506000805160206137ae833981519152898a0998506000805160206137ae8339815191528960020998506000805160206137ae833981519152896000805160206137ae833981519152038b0895506000805160206137ae83398151915281840996506000805160206137ae83398151915283840994506000805160206137ae83398151915283860994505b5050505093509350939050565b6000806000806000806000612a048d8d61355d565b15612a1757898989965096509650612ad8565b612a218a8a61355d565b15612a34578c8c8c965096509650612ad8565b6000805160206137ae833981519152888d0993506000805160206137ae8339815191528b8a0992506000805160206137ae833981519152888e0991506000805160206137ae8339815191528b8b09905080821415612ab25782841415612aaa57612a9f8d8d8d6127aa565b965096509650612ad8565b612a9f613582565b612ad06000805160206137ae833981519152898d098383868861358c565b919850965094505b5050505096509650969350505050565b6000806000612b05846000805160206137ae8339815191526120c2565b90506000805160206137ae83398151915281870992506000805160206137ae833981519152818609915050935093915050565b6000806000612b4d87876001888860016129ef565b91985096509050612b5f878783612ae8565b925092505094509492505050565b612b7561374c565b6000805160206137ae8339815191526001600008604082018190526000805160206137ae833981519152908409815260408101516000805160206137ae833981519152908309602082015292915050565b60408051606081810183528282527f4142434445464748494a4b4c4d4e4f505152535455565758595a61626364656660208301527f6768696a6b6c6d6e6f707172737475767778797a303132333435363738392b2f82840152825160038082528185019094529092839182918291600091829182918160200160208202803883395050604080516001808252818301909252929850905060208083019080388339019050509450602060405190810160405280600081525093505b8851600311612d3d57612c9560038a611e38565b99509550612ca286611f77565b9250600091505b6004821015612d38578160030360400a83811515612cc357fe5b069050868260030360400a828503811515612cda57fe5b04815181101515612ce757fe5b90602001015160f860020a900460f860020a02856000815181101515612d0957fe5b906020010190600160f860020a031916908160001a905350612d2b8486612666565b9350915060010181612ca9565b612c81565b88511515612d4d57839750612f39565b885160011415612e5757612d6089611f77565b62010000029250600091505b6002821015612dfb578160030360400a83811515612d8657fe5b069050868260030360400a828503811515612d9d57fe5b04815181101515612daa57fe5b90602001015160f860020a900460f860020a02856000815181101515612dcc57fe5b906020010190600160f860020a031916908160001a905350612dee8486612666565b9350915060010181612d6c565b60f860020a603d02856000815181101515612e1257fe5b906020010190600160f860020a031916908160001a905350600091505b6002821015612e4f57612e428486612666565b9350600190910190612e2f565b839750612f39565b612e6089611f77565b610100029250600091505b6003821015612efa578160030360400a83811515612e8557fe5b069050868260030360400a828503811515612e9c57fe5b04815181101515612ea957fe5b90602001015160f860020a900460f860020a02856000815181101515612ecb57fe5b906020010190600160f860020a031916908160001a905350612eed8486612666565b9350915060010181612e6b565b60f860020a603d02856000815181101515612f1157fe5b906020010190600160f860020a031916908160001a905350612f338486612666565b93508397505b50505050505050919050565b6060612f4f61376d565b50604080516110008101825260001980825260208083018290528284018290526060808401839052608080850184905260a0850184905260c0850184905260e08501849052610100850184905261012085018490526101408501849052610160850184905261018085018490526101a085018490526101c085018490526101e08501849052610200850184905261022085018490526102408501849052610260850184905261028085018490526102a085018490526102c085018490526102e08501849052610300850184905261032085018490526103408501849052610360850184905261038085018490526103a085018490526103c085018490526103e08501849052610400850184905261042085018490526104408501849052610460850184905261048085018490526104a085018490526104c085018490526104e08501849052610500850184905261052085018490526105408501849052603e61056086015261058085018490526105a085018490526105c08501849052603f6105e08601526034610600860152603561062086015260366106408601526037610660860152603861068086015260396106a0860152603a6106c0860152603b6106e0860152603c610700860152603d61072086015261074085018490526107608501849052610780850184905260006107a086018190526107c086018590526107e086018590526108008601859052610820860181905260016108408701526002610860870152600361088087015260046108a0870181905260056108c088015260066108e0880152600761090088015260086109208801526009610940880152600a610960880152600b610980880152600c6109a0880152600d6109c0880152600e6109e0880152600f610a008801526010610a208801526011610a408801526012610a608801526013610a808801526014610aa08801526015610ac08801526016610ae08801526017610b008801526018610b208801526019610b40880152610b608701869052610b808701869052610ba08701869052610bc08701869052610be08701869052610c008701869052601a610c20880152601b610c40880152601c610c60880152601d610c80880152601e610ca0880152601f610cc0880152610ce087018590526021610d008801526022610d208801526023610d408801526024610d608801526025610d808801526026610da08801526027610dc08801526028610de08801526029610e00880152602a610e20880152602b610e40880152602c610e60880152602d610e80880152602e610ea0880152602f610ec08801526030610ee08801526031610f008801526032610f208801526033610f40880152610f608701869052610f808701869052610fa08701869052610fc08701869052610fe08701959095528851875180860189528281528851878152808a01909952969791968796879692819004958795929490938493879391830190803883395050604080516001808252818301909252929550905060208083019080388339019050509150600090505b8581101561354d57600097506133d160048d611e38565b9c506000995092505b600489101561348c5789838a8151811015156133f257fe5b016020015160f860020a908190048102046080811061340d57fe5b60200201519450600085810b121561346f576040805160e560020a62461bcd02815260206004820152600e60248201527f496e76616c696420696e6465782e000000000000000000000000000000000000604482015290519081900360640190fd5b8860030360400a8560000b028801975088806001019950506133da565b600098505b600389101561354557886002036101000a888115156134ac57fe5b069650886002036101000a8789038115156134c357fe5b0460f860020a028260008151811015156134d957fe5b906020010190600160f860020a031916908160001a90535081600081518110151561350057fe5b016020015160f860020a9081900481020415801561352057506001860381145b1561352a5761353a565b6135348483612666565b93508697505b600190980197613491565b6001016133ba565b50919a9950505050505050505050565b60008215801561356b575081155b156135785750600161357c565b5060005b92915050565b6000600181909192565b6000808080808080806000805160206137ae8339815191528a6000805160206137ae833981519152038a0890506000805160206137ae8339815191528b6000805160206137ae833981519152038d0894506000805160206137ae83398151915285860993506000805160206137ae83398151915281820991506000805160206137ae8339815191528d830991506000805160206137ae8339815191528c8c089a506000805160206137ae833981519152848c099a506000805160206137ae8339815191528b6000805160206137ae83398151915203830891506000805160206137ae83398151915282860997506000805160206137ae83398151915285850992506000805160206137ae833981519152848d099b506000805160206137ae833981519152826000805160206137ae833981519152038d089b506000805160206137ae8339815191528c820990506000805160206137ae833981519152838a0998506000805160206137ae833981519152896000805160206137ae83398151915203820896506000805160206137ae8339815191528d840995505050505050955095509592505050565b604080518082019091526060808252602082015290565b6060604051908101604052806003906020820280388339509192915050565bfe5b6110006040519081016040528060809060208202803883395091929150505600ffffffff00000000ffffffffffffffffbce6faada7179e84f3b9cac2fc632551ffffffff00000001000000000000000000000000ffffffffffffffffffffffffa165627a7a72305820455665c3d1f1bf72c71e49a21df100e7be137f70748c1972c85c86efc337efaf0029",
  "source": "pragma solidity >=0.4.21 <0.5.0;\n\nimport \"./Utils.sol\";\nimport \"./EllipticCurve.sol\";\nimport \"./Base64.sol\";\n\nimport \"./Global.sol\";\n\nlibrary Register {\n\n\n\t// ================================================================================================== //\n\t// registration;\n\n\n\t/*\n\t- IN: appId, registeredKeys;\n\t- OUT: [appId, registerRequests[version, challenge], registeredKeys];\n\t*/\n\tfunction beginRegistration(string appId, uint randNonce) public view returns (string) {\n\n\t\tstring memory challenge = string(Base64.websafeEncode(Base64.bytes32ToBytes(Tools.random32(randNonce))));\n\n\t\tTools.Dict memory dict;\n\t\tdict._fields = new string[](3);\n\t\tdict._data = new string[](3);\n\n\t\tdict._fields[0] = 'challenge';\n\t\tdict._fields[1] = 'version';\n\t\tdict._fields[2] = 'appId';\n\n\t\tdict._data[0] = challenge;\n\t\tdict._data[1] = Global.getVersion();\n\t\t//! Fixing might be unnecessary!\n\t\t// dict._data[2] = Base64.fixOrigin(appId);\n\t\tdict._data[2] = appId;\n\n\t\tstring memory request = Tools.dictToJson(dict);\n\n\t\treturn request;\n\n\t}\n\n\t// pubKey, keyHandle should be decoded;\n\tfunction completeRegistration(bytes challengeParameter, string pubKey, string keyHandle, string certKey, string signature, string facet) public pure returns (bytes) {\n\n\t\t// bytes memory decodedClientData = Base64.fromHex(decodedClientDataStr);\n\t\t\n\t\t// Global.validateClientData(string(request), string(decodedClientData), Global.getRegisterType(), facet);\n\n\t\t// verify response and application parameter;\n\t\treturn registerVerify(Base64.fromHex(pubKey), Base64.fromHex(keyHandle), Base64.fromHex(certKey), Base64.fromHex(signature), facet, challengeParameter);\n\n\t}\n\n    /*\n     +-------------------------------------------------------------------+\n     | 1 |     65    | 1 |    L    |    implied               | 64       |\n     +-------------------------------------------------------------------+\n     0x05\n     public key (first byte 0x04)\n     key handle length\n     key handle\n     attestation cert\n     signature\n   */\n\tfunction registerVerify(bytes pubKey, bytes keyHandle, bytes certKey, bytes signature, string appId, bytes challengeParameter) public pure returns (bytes) {\n\n\t\t// verify;\n\t\t// IN: appParameter, challengeParameter, keyHandle, pubKey;\n\t\tbytes memory verifyData = getRegisterVerifyData(Base64.bytes32ToBytes(sha256(bytes(appId))), challengeParameter, keyHandle, pubKey);\n\n\t\t// IN: signature, verifyData, pk from certificate;\n\t\trequire(Global.verifyECDSA(signature, verifyData, certKey) == 0, \"Invalid signature.\");\n\n\t    Tools.Dict memory device;\n\n\t\tdevice._fields = new string[](4);\n\t\tdevice._data = new string[](4);\n\n\t\tdevice._fields[0] = 'version';\n\t\tdevice._fields[1] = 'keyHandle';\n\t\tdevice._fields[2] = 'appId';\n\t\tdevice._fields[3] = 'publicKey';\n\n\t\tdevice._data[0] = Global.getVersion();\n\t\t//! removed websafe encode/decode;\n\t\t// device._data[1] = string(Base64.websafeEncode(keyHandle));\n\t\tdevice._data[1] = Base64.bytesToHexStr(keyHandle);\n\t\tdevice._data[2] = appId;\n\t\t// device._data[3] = string(Base64.websafeEncode(pubKey));\n\t\tdevice._data[3] = Base64.bytesToHexStr(pubKey);\n\n\t\tstring memory deviceRegistrationData = Tools.dictToJson(device);\n\n\t\treturn bytes(deviceRegistrationData);\n\n\t}\n\n\n\tfunction getRegisterVerifyData(bytes appPara, bytes challengeParameter, bytes keyHandle, bytes pubKey) internal pure returns (bytes) {\n\n\t\tbytes memory verifyData = new bytes(1 + appPara.length + challengeParameter.length + keyHandle.length + pubKey.length);\n\n\t\tverifyData[0] = byte(0);\n\t\tuint k = 1;\n\t\tfor (uint i = 0; i < appPara.length; i++) {\n\t\t\tverifyData[k++] = appPara[i];\n\t\t}\n\t\tfor (i = 0; i < challengeParameter.length; i++) {\n\t\t\tverifyData[k++] = challengeParameter[i];\n\t\t}\n\t\tfor (i = 0; i < keyHandle.length; i++) {\n\t\t\tverifyData[k++] = keyHandle[i];\n\t\t}\n\t\tfor (i = 0; i < pubKey.length; i++) {\n\t\t\tverifyData[k++] = pubKey[i];\n\t\t}\n\n\t\treturn verifyData;\n\n\t}\n\n}\n",
  "sourcePath": "/home/chxw/Desktop/worksite/develop/u2f-ethereum/contracts/Register.sol",
  "compiler": {
    "name": "solc",
    "version": "0.4.24+commit.e67f0147.Emscripten.clang"
  },
  "schemaVersion": "3.0.5",
  "updatedAt": "2019-05-16T05:00:50.225Z",
  "devdoc": {
    "methods": {}
  },
  "userdoc": {
    "methods": {}
  }
}