{
  "contractName": "Register",
  "abi": [
    {
      "constant": true,
      "inputs": [
        {
          "name": "appId",
          "type": "string"
        },
        {
          "name": "randNonce",
          "type": "uint256"
        }
      ],
      "name": "beginRegistration",
      "outputs": [
        {
          "name": "",
          "type": "string"
        }
      ],
      "payable": false,
      "stateMutability": "view",
      "type": "function"
    },
    {
      "constant": true,
      "inputs": [
        {
          "name": "challengeParameter",
          "type": "bytes"
        },
        {
          "name": "pubKey",
          "type": "bytes"
        },
        {
          "name": "keyHandle",
          "type": "bytes"
        },
        {
          "name": "certKey",
          "type": "bytes"
        },
        {
          "name": "signature",
          "type": "bytes"
        },
        {
          "name": "facet",
          "type": "string"
        }
      ],
      "name": "completeRegistration",
      "outputs": [
        {
          "name": "",
          "type": "bytes"
        }
      ],
      "payable": false,
      "stateMutability": "pure",
      "type": "function"
    },
    {
      "constant": true,
      "inputs": [
        {
          "name": "pubKey",
          "type": "bytes"
        },
        {
          "name": "keyHandle",
          "type": "bytes"
        },
        {
          "name": "certKey",
          "type": "bytes"
        },
        {
          "name": "signature",
          "type": "bytes"
        },
        {
          "name": "appId",
          "type": "string"
        },
        {
          "name": "challengeParameter",
          "type": "bytes"
        }
      ],
      "name": "registerVerify",
      "outputs": [
        {
          "name": "",
          "type": "bytes"
        }
      ],
      "payable": false,
      "stateMutability": "pure",
      "type": "function"
    }
  ],
  "bytecode": "0x6129ff610030600b82828239805160001a6073146000811461002057610022565bfe5b5030600052607381538281f300730000000000000000000000000000000000000000301460806040526004361061006d5763ffffffff7c0100000000000000000000000000000000000000000000000000000000600035041663ab4f83ce8114610072578063c55c724314610269578063eb47002e146102b7575b600080fd5b6040805160206004803580820135601f81018490048402850184019095528484526101f494369492936024939284019190819084018382808284375050604080516020601f89358b018035918201839004830284018301909452808352979a99988101979196509182019450925082915084018382808284375050604080516020601f89358b018035918201839004830284018301909452808352979a99988101979196509182019450925082915084018382808284375050604080516020601f89358b018035918201839004830284018301909452808352979a99988101979196509182019450925082915084018382808284375050604080516020601f89358b018035918201839004830284018301909452808352979a99988101979196509182019450925082915084018382808284375050604080516020601f89358b018035918201839004830284018301909452808352979a9998810197919650918201945092508291508401838280828437509497506104399650505050505050565b6040805160208082528351818301528351919283929083019185019080838360005b8381101561022e578181015183820152602001610216565b50505050905090810190601f16801561025b5780820380516001836020036101000a031916815260200191505b509250505060405180910390f35b6040805160206004803580820135601f81018490048402850184019095528484526101f494369492936024939284019190819084018382808284375094975050933594506107b29350505050565b6040805160206004803580820135601f81018490048402850184019095528484526101f494369492936024939284019190819084018382808284375050604080516020601f89358b018035918201839004830284018301909452808352979a99988101979196509182019450925082915084018382808284375050604080516020601f89358b018035918201839004830284018301909452808352979a99988101979196509182019450925082915084018382808284375050604080516020601f89358b018035918201839004830284018301909452808352979a99988101979196509182019450925082915084018382808284375050604080516020601f89358b018035918201839004830284018301909452808352979a99988101979196509182019450925082915084018382808284375050604080516020601f89358b018035918201839004830284018301909452808352979a9998810197919650918201945092508291508401838280828437509497506109ad9650505050505050565b60608061044461299a565b60606104e36104db6002886040518082805190602001908083835b6020831061047e5780518252601f19909201916020918201910161045f565b51815160209384036101000a600019018019909216911617905260405191909301945091925050808303816000865af11580156104bf573d6000803e3d6000fd5b5050506040513d60208110156104d457600080fd5b50516109c8565b868b8d610a73565b92506104f087848a610c7f565b1561055c57604080517f08c379a000000000000000000000000000000000000000000000000000000000815260206004820152601260248201527f496e76616c6964207369676e61747572652e0000000000000000000000000000604482015290519081900360640190fd5b60408051600480825260a0820190925290816020015b6060815260200190600190039081610572575050825260408051600480825260a0820190925290602082015b606081526020019060019003908161059e57505060208084019190915260408051808201909152600781527f76657273696f6e000000000000000000000000000000000000000000000000009181019190915282518051600090811061060057fe5b906020019060200201819052506040805190810160405280600981526020017f6b657948616e646c6500000000000000000000000000000000000000000000008152508260000151600181518110151561065657fe5b906020019060200201819052506040805190810160405280600581526020017f6170704964000000000000000000000000000000000000000000000000000000815250826000015160028151811015156106ac57fe5b906020019060200201819052506040805190810160405280600981526020017f7075626c69634b657900000000000000000000000000000000000000000000008152508260000151600381518110151561070257fe5b60209081029091010152610714610faf565b60208301518051600090811061072657fe5b6020908102909101015261073989610fe6565b60208301518051600190811061074b57fe5b90602001906020020181905250858260200151600281518110151561076c57fe5b6020908102909101015261077f8a610fe6565b60208301518051600390811061079157fe5b602090810290910101526107a4826110cd565b9a9950505050505050505050565b6060806107bd61299a565b60606107d86107d36107ce8761155e565b6109c8565b611617565b60408051600380825260808201909252919450816020015b60608152602001906001900390816107f057505082526040805160038082526080820190925290602082015b606081526020019060019003908161081c57505060208084019190915260408051808201909152600981527f6368616c6c656e676500000000000000000000000000000000000000000000009181019190915282518051600090811061087e57fe5b906020019060200201819052506040805190810160405280600781526020017f76657273696f6e00000000000000000000000000000000000000000000000000815250826000015160018151811015156108d457fe5b906020019060200201819052506040805190810160405280600581526020017f61707049640000000000000000000000000000000000000000000000000000008152508260000151600281518110151561092a57fe5b90602001906020020181905250828260200151600081518110151561094b57fe5b6020908102909101015261095d610faf565b60208301518051600190811061096f57fe5b90602001906020020181905250858260200151600281518110151561099057fe5b602090810290910101526109a3826110cd565b9695505050505050565b60606109bd86868686868c610439565b979650505050505050565b60408051602080825281830190925260609182916000918291829180820161040080388339019050509350859150600090505b6020811015610a695780601f0360080260020a82811515610a1857fe5b06925080601f0360080260020a838303811515610a3157fe5b0460f860020a028482815181101515610a4657fe5b906020010190600160f860020a031916908160001a9053508291506001016109fb565b5091949350505050565b6060806000808451865188518a516001010101016040519080825280601f01601f191660200182016040528015610ab4578160200160208202803883390190505b509250600060f860020a02836000815181101515610ace57fe5b906020010190600160f860020a031916908160001a90535060019150600090505b8751811015610b4d578781815181101515610b0657fe5b90602001015160f860020a900460f860020a028383806001019450815181101515610b2d57fe5b906020010190600160f860020a031916908160001a905350600101610aef565b5060005b8651811015610baf578681815181101515610b6857fe5b90602001015160f860020a900460f860020a028383806001019450815181101515610b8f57fe5b906020010190600160f860020a031916908160001a905350600101610b51565b5060005b8551811015610c11578581815181101515610bca57fe5b90602001015160f860020a900460f860020a028383806001019450815181101515610bf157fe5b906020010190600160f860020a031916908160001a905350600101610bb3565b5060005b8451811015610c73578481815181101515610c2c57fe5b90602001015160f860020a900460f860020a028383806001019450815181101515610c5357fe5b906020010190600160f860020a031916908160001a905350600101610c15565b50909695505050505050565b6000606080600060606000806060610c968a610fe6565b9650610ce36040805190810160405280601a81526020017f19457468657265756d205369676e6564204d6573736167653a0a000000000000815250610cde8c5160020261162c565b61171a565b9550610cef868861171a565b95508a6040815181101515610d0057fe5b90602001015160f860020a900460f860020a0260f860020a90049450610d2760208c611828565b9b509350610d3484611967565b9250610d4160208c611828565b9b509350610d4e84611967565b91506001866040518082805190602001908083835b60208310610d825780518252601f199092019160209182019101610d63565b51815160209384036101000a60001901801990921691161790526040805192909401829003822060008084528383018087529190915260ff8d1683860152606083018b9052608083018a9052935160a08084019750919550601f1981019492819003909101925090865af1158015610dfe573d6000803e3d6000fd5b505060408051601f1981015173ffffffffffffffffffffffffffffffffffffffff166c010000000000000000000000000260208201528151601481830301815260349091019091529150610e55905060018a611828565b905080995050610ec0896040518082805190602001908083835b60208310610e8e5780518252601f199092019160209182019101610e6f565b6001836020036101000a03801982511681845116808217855250505050505090500191505060405180910390206109c8565b9850610ecd600c8a611828565b905080995050806040518082805190602001908083835b60208310610f035780518252601f199092019160209182019101610ee4565b51815160209384036101000a60001901801990921691161790526040519190930181900381208e519095508e945090928392508401908083835b60208310610f5c5780518252601f199092019160209182019101610f3d565b6001836020036101000a0380198251168184511680821785525050505050509050019150506040518091039020600019161415610f9c5760009750610fa1565b600197505b505050505050509392505050565b60408051808201909152600681527f5532465f56320000000000000000000000000000000000000000000000000000602082015290565b606080600080600085516002026040519080825280601f01601f191660200182016040528015611020578160200160208202803883390190505b509350600090505b8551811015610a6957858181518110151561103f57fe5b016020015160f860020a90819004810204925060108304915061106182611972565b848260020281518110151561107257fe5b906020010190600160f860020a031916908160001a90535060108306915061109982611972565b84826002026001018151811015156110ad57fe5b906020010190600160f860020a031916908160001a905350600101611028565b8051516060906000198101600290810260068302010160008381805b8584101561113c5787518051859081106110ff57fe5b90602001906020020151518501945087602001518481518110151561112057fe5b90602001906020020151518501945083806001019450506110e9565b846040519080825280601f01601f19166020018201604052801561116a578160200160208202803883390190505b508051909350600192507f7b0000000000000000000000000000000000000000000000000000000000000090849060009081106111a357fe5b906020010190600160f860020a031916908160001a905350600090505b85811015611506578251600183019260f960020a6011029185919081106111e357fe5b906020010190600160f860020a031916908160001a905350600093505b875180518290811061120e57fe5b906020019060200201515184101561128f57875180518290811061122e57fe5b906020019060200201518481518110151561124557fe5b90602001015160f860020a900460f860020a02838380600101945081518110151561126c57fe5b906020010190600160f860020a031916908160001a905350600190930192611200565b8251600183019260f960020a6011029185919081106112aa57fe5b906020010190600160f860020a031916908160001a905350825160018301927f3a000000000000000000000000000000000000000000000000000000000000009185919081106112f657fe5b906020010190600160f860020a031916908160001a905350825160018301927f200000000000000000000000000000000000000000000000000000000000000091859190811061134257fe5b906020010190600160f860020a031916908160001a9053508251600183019260f960020a60110291859190811061137557fe5b906020010190600160f860020a031916908160001a905350600093505b60208801518051829081106113a357fe5b90602001906020020151518410156114275760208801518051829081106113c657fe5b90602001906020020151848151811015156113dd57fe5b90602001015160f860020a900460f860020a02838380600101945081518110151561140457fe5b906020010190600160f860020a031916908160001a905350600190930192611392565b8251600183019260f960020a60110291859190811061144257fe5b906020010190600160f860020a031916908160001a905350600019860181146114fe57825160018301927f2c0000000000000000000000000000000000000000000000000000000000000091859190811061149957fe5b906020010190600160f860020a031916908160001a905350825160018301927f20000000000000000000000000000000000000000000000000000000000000009185919081106114e557fe5b906020010190600160f860020a031916908160001a9053505b6001016111c0565b825160018301927f7d0000000000000000000000000000000000000000000000000000000000000091859190811061153a57fe5b906020010190600160f860020a031916908160001a90535091979650505050505050565b604080516c0100000000000000000000000033810260208084019190915260001943014060348401524191909102605483015244606883015260888083018590528351808403909101815260a8909201928390528151600093849392909182918401908083835b602083106115e45780518252601f1990920191602091820191016115c5565b5181516020939093036101000a600019018019909116921691909117905260405192018290039091209695505050505050565b60606116248260006119a6565b90505b919050565b6060600080828415156116745760408051808201909152600181527f300000000000000000000000000000000000000000000000000000000000000060208201529350611712565b8492505b821561168f57600190910190600a83049250611678565b816040519080825280601f01601f1916602001820160405280156116bd578160200160208202803883390190505b5090506001820391505b841561170e576116d9600a8606611972565b8151600019840193839181106116eb57fe5b906020010190600160f860020a031916908160001a905350600a850494506116c7565b8093505b505050919050565b60608060008084518651016040519080825280601f01601f191660200182016040528015611752578160200160208202803883390190505b50925060009150600090505b85518110156117bc57858181518110151561177557fe5b90602001015160f860020a900460f860020a02838380600101945081518110151561179c57fe5b906020010190600160f860020a031916908160001a90535060010161175e565b5060005b845181101561181e5784818151811015156117d757fe5b90602001015160f860020a900460f860020a0283838060010194508151811015156117fe57fe5b906020010190600160f860020a031916908160001a9053506001016117c0565b5090949350505050565b606080606080600080878751036040519080825280601f01601f191660200182016040528015611862578160200160208202803883390190505b509350876040519080825280601f01601f191660200182016040528015611893578160200160208202803883390190505b50925060009150600090505b82518110156118fa5786516001830192889181106118b957fe5b90602001015160f860020a900460f860020a0283828151811015156118da57fe5b906020010190600160f860020a031916908160001a90535060010161189f565b5060005b835181101561195957865160018301928891811061191857fe5b90602001015160f860020a900460f860020a02848281518110151561193957fe5b906020010190600160f860020a031916908160001a9053506001016118fe565b509096919550909350505050565b600061162482611b90565b6000600a82101561198d575060f860020a6030820102611627565b601082101561006d575060f860020a6057820102611627565b60606129b181806000808080808915156119c457611bdf97506119ca565b611e0e97505b60c88b5111156119e8576119e18b8963ffffffff16565b9850611b82565b6040805160208101909152600081528b5190975060c880820496506001955090061515611a1457600093505b600091505b84821015611ac7576040805160c88082526101008201909252906020820161190080388339019050509550600092505b60c8831015611aa9578a8360c8840201815181101515611a6557fe5b90602001015160f860020a900460f860020a028684815181101515611a8657fe5b906020010190600160f860020a031916908160001a905350600190920191611a49565b611aba87610cde888b63ffffffff16565b9650600190910190611a19565b8315611b7e578a5160c890069050806040519080825280601f01601f191660200182016040528015611b03578160200160208202803883390190505b509550600092505b80831015611b6a578a8360c8870201815181101515611b2657fe5b90602001015160f860020a900460f860020a028684815181101515611b4757fe5b906020010190600160f860020a031916908160001a905350600190920191611b0b565b611b7b87610cde888b63ffffffff16565b96505b8698505b505050505050505092915050565b600080805b8351811015611bd8578060010184510360080260020a8482815181101515611bb957fe5b016020015160f860020a90819004810204029190910190600101611b95565b5092915050565b6060806000806060611bf086611fec565b935060009250600091505b8351821015611d715783517f2b0000000000000000000000000000000000000000000000000000000000000090859084908110611c3457fe5b90602001015160f860020a900460f860020a02600160f860020a0319161415611ca3577f2d000000000000000000000000000000000000000000000000000000000000008483815181101515611c8657fe5b906020010190600160f860020a031916908160001a905350611d66565b83517f2f0000000000000000000000000000000000000000000000000000000000000090859084908110611cd357fe5b90602001015160f860020a900460f860020a02600160f860020a0319161415611d25577f5f000000000000000000000000000000000000000000000000000000000000008483815181101515611c8657fe5b835160f860020a603d0290859084908110611d3c57fe5b90602001015160f860020a900460f860020a02600160f860020a0319161415611d66576001909201915b600190910190611bfb565b828451036040519080825280601f01601f191660200182016040528015611da2578160200160208202803883390190505b509050600091505b8051821015611e05578382815181101515611dc157fe5b90602001015160f860020a900460f860020a028183815181101515611de257fe5b906020010190600160f860020a031916908160001a905350600190910190611daa565b95945050505050565b6060600080825b8451831015611f635784517f2d0000000000000000000000000000000000000000000000000000000000000090869085908110611e4e57fe5b90602001015160f860020a900460f860020a02600160f860020a0319161415611ebd577f2b000000000000000000000000000000000000000000000000000000000000008584815181101515611ea057fe5b906020010190600160f860020a031916908160001a905350611f58565b84517f5f0000000000000000000000000000000000000000000000000000000000000090869085908110611eed57fe5b90602001015160f860020a900460f860020a02600160f860020a0319161415611f58577f2f000000000000000000000000000000000000000000000000000000000000008584815181101515611f3f57fe5b906020010190600160f860020a031916908160001a9053505b600190920191611e15565b84516004906000036040805160018082528183019092529290910693506020808301908038833901905050905060f860020a603d02816000815181101515611fa757fe5b906020010190600160f860020a031916908160001a905350600092505b81831015611fe357611fd6858261171a565b9450600190920191611fc4565b611e058561236b565b60408051606081810183528282527f4142434445464748494a4b4c4d4e4f505152535455565758595a61626364656660208301527f6768696a6b6c6d6e6f707172737475767778797a303132333435363738392b2f82840152825160038082528185019094529092839182918291600091829182918160200160208202803883395050604080516001808252818301909252929850905060208083019080388339019050509450602060405190810160405280600081525093505b8851600311612163576120bb60038a611828565b995095506120c886611b90565b9250600091505b600482101561215e578160030360400a838115156120e957fe5b069050868260030360400a82850381151561210057fe5b0481518110151561210d57fe5b90602001015160f860020a900460f860020a0285600081518110151561212f57fe5b906020010190600160f860020a031916908160001a905350612151848661171a565b93509150600101816120cf565b6120a7565b885115156121735783975061235f565b88516001141561227d5761218689611b90565b62010000029250600091505b6002821015612221578160030360400a838115156121ac57fe5b069050868260030360400a8285038115156121c357fe5b048151811015156121d057fe5b90602001015160f860020a900460f860020a028560008151811015156121f257fe5b906020010190600160f860020a031916908160001a905350612214848661171a565b9350915060010181612192565b60f860020a603d0285600081518110151561223857fe5b906020010190600160f860020a031916908160001a905350600091505b600282101561227557612268848661171a565b9350600190910190612255565b83975061235f565b61228689611b90565b610100029250600091505b6003821015612320578160030360400a838115156122ab57fe5b069050868260030360400a8285038115156122c257fe5b048151811015156122cf57fe5b90602001015160f860020a900460f860020a028560008151811015156122f157fe5b906020010190600160f860020a031916908160001a905350612313848661171a565b9350915060010181612291565b60f860020a603d0285600081518110151561233757fe5b906020010190600160f860020a031916908160001a905350612359848661171a565b93508397505b50505050505050919050565b60606123756129b3565b50604080516110008101825260001980825260208083018290528284018290526060808401839052608080850184905260a0850184905260c0850184905260e08501849052610100850184905261012085018490526101408501849052610160850184905261018085018490526101a085018490526101c085018490526101e08501849052610200850184905261022085018490526102408501849052610260850184905261028085018490526102a085018490526102c085018490526102e08501849052610300850184905261032085018490526103408501849052610360850184905261038085018490526103a085018490526103c085018490526103e08501849052610400850184905261042085018490526104408501849052610460850184905261048085018490526104a085018490526104c085018490526104e08501849052610500850184905261052085018490526105408501849052603e61056086015261058085018490526105a085018490526105c08501849052603f6105e08601526034610600860152603561062086015260366106408601526037610660860152603861068086015260396106a0860152603a6106c0860152603b6106e0860152603c610700860152603d61072086015261074085018490526107608501849052610780850184905260006107a086018190526107c086018590526107e086018590526108008601859052610820860181905260016108408701526002610860870152600361088087015260046108a0870181905260056108c088015260066108e0880152600761090088015260086109208801526009610940880152600a610960880152600b610980880152600c6109a0880152600d6109c0880152600e6109e0880152600f610a008801526010610a208801526011610a408801526012610a608801526013610a808801526014610aa08801526015610ac08801526016610ae08801526017610b008801526018610b208801526019610b40880152610b608701869052610b808701869052610ba08701869052610bc08701869052610be08701869052610c008701869052601a610c20880152601b610c40880152601c610c60880152601d610c80880152601e610ca0880152601f610cc0880152610ce087018590526021610d008801526022610d208801526023610d408801526024610d608801526025610d808801526026610da08801526027610dc08801526028610de08801526029610e00880152602a610e20880152602b610e40880152602c610e60880152602d610e80880152602e610ea0880152602f610ec08801526030610ee08801526031610f008801526032610f208801526033610f40880152610f608701869052610f808701869052610fa08701869052610fc08701869052610fe08701959095528851875180860189528281528851878152808a01909952969791968796879692819004958795929490938493879391830190803883395050604080516001808252818301909252929550905060208083019080388339019050509150600090505b8581101561298a57600097506127f760048d611828565b9c506000995092505b60048910156128c95789838a81518110151561281857fe5b016020015160f860020a908190048102046080811061283357fe5b60200201519450600085810b12156128ac57604080517f08c379a000000000000000000000000000000000000000000000000000000000815260206004820152600e60248201527f496e76616c696420696e6465782e000000000000000000000000000000000000604482015290519081900360640190fd5b8860030360400a8560000b02880197508880600101995050612800565b600098505b600389101561298257886002036101000a888115156128e957fe5b069650886002036101000a87890381151561290057fe5b0460f860020a0282600081518110151561291657fe5b906020010190600160f860020a031916908160001a90535081600081518110151561293d57fe5b016020015160f860020a9081900481020415801561295d57506001860381145b1561296757612977565b612971848361171a565b93508697505b6001909801976128ce565b6001016127e0565b50919a9950505050505050505050565b604080518082019091526060808252602082015290565bfe5b6110006040519081016040528060809060208202803883395091929150505600a165627a7a723058201ebb11c05f10f9724c2f6ac825416d213a70b0992f0fcd62e318375abf94bc640029",
  "source": "pragma solidity >=0.4.21 <0.5.0;\n\nimport \"./Utils.sol\";\nimport \"./EllipticCurve.sol\";\nimport \"./Base64.sol\";\n\nimport \"./Global.sol\";\n\nlibrary Register {\n\n\n\t// ================================================================================================== //\n\t// registration;\n\n\n\t/*\n\t- IN: appId, registeredKeys;\n\t- OUT: [appId, registerRequests[version, challenge], registeredKeys];\n\t*/\n\tfunction beginRegistration(string appId, uint randNonce) public view returns (string) {\n\n\t\tstring memory challenge = string(Base64.websafeEncode(Base64.bytes32ToBytes(Tools.random32(randNonce))));\n\n\t\tTools.Dict memory dict;\n\t\tdict._fields = new string[](3);\n\t\tdict._data = new string[](3);\n\n\t\tdict._fields[0] = 'challenge';\n\t\tdict._fields[1] = 'version';\n\t\tdict._fields[2] = 'appId';\n\n\t\tdict._data[0] = challenge;\n\t\tdict._data[1] = Global.getVersion();\n\t\t//! Fixing might be unnecessary!\n\t\t// dict._data[2] = Base64.fixOrigin(appId);\n\t\tdict._data[2] = appId;\n\n\t\tstring memory request = Tools.dictToJson(dict);\n\n\t\treturn request;\n\n\t}\n\n\t// pubKey, keyHandle, certKey, signature changed to bytes;\n\tfunction completeRegistration(bytes challengeParameter, bytes pubKey, bytes keyHandle, bytes certKey, bytes signature, string facet) public pure returns (bytes) {\n\n\t\t// bytes memory decodedClientData = Base64.fromHex(decodedClientDataStr);\n\t\t\n\t\t// Global.validateClientData(string(request), string(decodedClientData), Global.getRegisterType(), facet);\n\n\t\t// verify response and application parameter;\n\t\t// public key that is used for verification should have no `04` as the first byte;\n\t\treturn registerVerify(pubKey, keyHandle, certKey, signature, facet, challengeParameter);\n\n\t}\n\n    /*\n     +-------------------------------------------------------------------+\n     | 1 |     65    | 1 |    L    |    implied               | 64       |\n     +-------------------------------------------------------------------+\n     0x05\n     public key (first byte 0x04)\n     key handle length\n     key handle\n     attestation cert\n     signature\n   */\n\tfunction registerVerify(bytes pubKey, bytes keyHandle, bytes certKey, bytes signature, string appId, bytes challengeParameter) public pure returns (bytes) {\n\n\t\t// verify;\n\t\t// IN: appParameter, challengeParameter, keyHandle, pubKey;\n\t\tbytes memory verifyData = getRegisterVerifyData(Base64.bytes32ToBytes(sha256(bytes(appId))), challengeParameter, keyHandle, pubKey);\n\n\t\t// IN: signature, verifyData, pk from certificate;\n\t\t// secp256r1;\n\t\t// secp256k1;\n\t\trequire(Global.verifySecp256k1(signature, verifyData, certKey) == 0, \"Invalid signature.\");\n\n\t    Tools.Dict memory device;\n\n\t\tdevice._fields = new string[](4);\n\t\tdevice._data = new string[](4);\n\n\t\tdevice._fields[0] = 'version';\n\t\tdevice._fields[1] = 'keyHandle';\n\t\tdevice._fields[2] = 'appId';\n\t\tdevice._fields[3] = 'publicKey';\n\n\t\tdevice._data[0] = Global.getVersion();\n\t\t//! removed websafe encode/decode;\n\t\t// device._data[1] = string(Base64.websafeEncode(keyHandle));\n\t\tdevice._data[1] = Base64.bytesToHexStr(keyHandle);\n\t\tdevice._data[2] = appId;\n\t\t// device._data[3] = string(Base64.websafeEncode(pubKey));\n\t\tdevice._data[3] = Base64.bytesToHexStr(pubKey);\n\n\t\tstring memory deviceRegistrationData = Tools.dictToJson(device);\n\n\t\treturn bytes(deviceRegistrationData);\n\n\t}\n\n\n\tfunction getRegisterVerifyData(bytes appPara, bytes challengeParameter, bytes keyHandle, bytes pubKey) internal pure returns (bytes) {\n\n\t\tbytes memory verifyData = new bytes(1 + appPara.length + challengeParameter.length + keyHandle.length + pubKey.length);\n\n\t\tverifyData[0] = byte(0);\n\t\tuint k = 1;\n\t\tfor (uint i = 0; i < appPara.length; i++) {\n\t\t\tverifyData[k++] = appPara[i];\n\t\t}\n\t\tfor (i = 0; i < challengeParameter.length; i++) {\n\t\t\tverifyData[k++] = challengeParameter[i];\n\t\t}\n\t\tfor (i = 0; i < keyHandle.length; i++) {\n\t\t\tverifyData[k++] = keyHandle[i];\n\t\t}\n\t\tfor (i = 0; i < pubKey.length; i++) {\n\t\t\tverifyData[k++] = pubKey[i];\n\t\t}\n\n\t\treturn verifyData;\n\n\t}\n\n}\n",
  "sourcePath": "/home/chxw/Desktop/develop/u2f-ethereum/contracts/Register.sol",
  "compiler": {
    "name": "solc",
    "version": "0.4.24+commit.e67f0147.Emscripten.clang"
  },
  "schemaVersion": "3.0.9",
  "updatedAt": "2019-05-28T06:48:02.825Z",
  "devdoc": {
    "methods": {}
  },
  "userdoc": {
    "methods": {}
  }
}