{
  "contractName": "Register",
  "abi": [
    {
      "constant": true,
      "inputs": [
        {
          "name": "appId",
          "type": "string"
        },
        {
          "name": "randNonce",
          "type": "uint256"
        }
      ],
      "name": "beginRegistration",
      "outputs": [
        {
          "name": "",
          "type": "string"
        }
      ],
      "payable": false,
      "stateMutability": "view",
      "type": "function",
      "signature": "0xc55c7243"
    },
    {
      "constant": true,
      "inputs": [
        {
          "name": "challengeParameter",
          "type": "bytes"
        },
        {
          "name": "pubKey",
          "type": "string"
        },
        {
          "name": "keyHandle",
          "type": "string"
        },
        {
          "name": "certKey",
          "type": "string"
        },
        {
          "name": "signature",
          "type": "string"
        },
        {
          "name": "facet",
          "type": "string"
        }
      ],
      "name": "completeRegistration",
      "outputs": [
        {
          "name": "",
          "type": "bytes"
        }
      ],
      "payable": false,
      "stateMutability": "pure",
      "type": "function",
      "signature": "0xc8bf169e"
    },
    {
      "constant": true,
      "inputs": [
        {
          "name": "pubKey",
          "type": "bytes"
        },
        {
          "name": "keyHandle",
          "type": "bytes"
        },
        {
          "name": "certKey",
          "type": "bytes"
        },
        {
          "name": "signature",
          "type": "bytes"
        },
        {
          "name": "appId",
          "type": "string"
        },
        {
          "name": "challengeParameter",
          "type": "bytes"
        }
      ],
      "name": "registerVerify",
      "outputs": [
        {
          "name": "",
          "type": "bytes"
        }
      ],
      "payable": false,
      "stateMutability": "pure",
      "type": "function",
      "signature": "0xab4f83ce"
    }
  ],
  "bytecode": "0x6136ed610030600b82828239805160001a6073146000811461002057610022565bfe5b5030600052607381538281f300730000000000000000000000000000000000000000301460806040526004361061006d5763ffffffff7c0100000000000000000000000000000000000000000000000000000000600035041663ab4f83ce8114610072578063c55c724314610269578063c8bf169e146102b7575b600080fd5b6040805160206004803580820135601f81018490048402850184019095528484526101f494369492936024939284019190819084018382808284375050604080516020601f89358b018035918201839004830284018301909452808352979a99988101979196509182019450925082915084018382808284375050604080516020601f89358b018035918201839004830284018301909452808352979a99988101979196509182019450925082915084018382808284375050604080516020601f89358b018035918201839004830284018301909452808352979a99988101979196509182019450925082915084018382808284375050604080516020601f89358b018035918201839004830284018301909452808352979a99988101979196509182019450925082915084018382808284375050604080516020601f89358b018035918201839004830284018301909452808352979a9998810197919650918201945092508291508401838280828437509497506104399650505050505050565b6040805160208082528351818301528351919283929083019185019080838360005b8381101561022e578181015183820152602001610216565b50505050905090810190601f16801561025b5780820380516001836020036101000a031916815260200191505b509250505060405180910390f35b6040805160206004803580820135601f81018490048402850184019095528484526101f4943694929360249392840191908190840183828082843750949750509335945061079b9350505050565b6040805160206004803580820135601f81018490048402850184019095528484526101f494369492936024939284019190819084018382808284375050604080516020601f89358b018035918201839004830284018301909452808352979a99988101979196509182019450925082915084018382808284375050604080516020601f89358b018035918201839004830284018301909452808352979a99988101979196509182019450925082915084018382808284375050604080516020601f89358b018035918201839004830284018301909452808352979a99988101979196509182019450925082915084018382808284375050604080516020601f89358b018035918201839004830284018301909452808352979a99988101979196509182019450925082915084018382808284375050604080516020601f89358b018035918201839004830284018301909452808352979a9998810197919650918201945092508291508401838280828437509497506109969650505050505050565b606080610444613629565b60606104e36104db6002886040518082805190602001908083835b6020831061047e5780518252601f19909201916020918201910161045f565b51815160209384036101000a600019018019909216911617905260405191909301945091925050808303816000865af11580156104bf573d6000803e3d6000fd5b5050506040513d60208110156104d457600080fd5b50516109d1565b868b8d610a7c565b92506104f087848a610c88565b15610545576040805160e560020a62461bcd02815260206004820152601260248201527f496e76616c6964207369676e61747572652e0000000000000000000000000000604482015290519081900360640190fd5b60408051600480825260a0820190925290816020015b606081526020019060019003908161055b575050825260408051600480825260a0820190925290602082015b606081526020019060019003908161058757505060208084019190915260408051808201909152600781527f76657273696f6e00000000000000000000000000000000000000000000000000918101919091528251805160009081106105e957fe5b906020019060200201819052506040805190810160405280600981526020017f6b657948616e646c6500000000000000000000000000000000000000000000008152508260000151600181518110151561063f57fe5b906020019060200201819052506040805190810160405280600581526020017f61707049640000000000000000000000000000000000000000000000000000008152508260000151600281518110151561069557fe5b906020019060200201819052506040805190810160405280600981526020017f7075626c69634b65790000000000000000000000000000000000000000000000815250826000015160038151811015156106eb57fe5b602090810290910101526106fd610ea0565b60208301518051600090811061070f57fe5b6020908102909101015261072289610ed7565b60208301518051600190811061073457fe5b90602001906020020181905250858260200151600281518110151561075557fe5b602090810290910101526107688a610ed7565b60208301518051600390811061077a57fe5b6020908102909101015261078d82610eec565b9a9950505050505050505050565b6060806107a6613629565b60606107c16107bc6107b78761137d565b6109d1565b610ed7565b60408051600380825260808201909252919450816020015b60608152602001906001900390816107d957505082526040805160038082526080820190925290602082015b606081526020019060019003908161080557505060208084019190915260408051808201909152600981527f6368616c6c656e676500000000000000000000000000000000000000000000009181019190915282518051600090811061086757fe5b906020019060200201819052506040805190810160405280600781526020017f76657273696f6e00000000000000000000000000000000000000000000000000815250826000015160018151811015156108bd57fe5b906020019060200201819052506040805190810160405280600581526020017f61707049640000000000000000000000000000000000000000000000000000008152508260000151600281518110151561091357fe5b90602001906020020181905250828260200151600081518110151561093457fe5b60209081029091010152610946610ea0565b60208301518051600190811061095857fe5b90602001906020020181905250858260200151600281518110151561097957fe5b6020908102909101015261098c82610eec565b9695505050505050565b60606109c66109a487611445565b6109ad87611445565b6109b687611445565b6109bf87611445565b868c610439565b979650505050505050565b60408051602080825281830190925260609182916000918291829180820161040080388339019050509350859150600090505b6020811015610a725780601f0360080260020a82811515610a2157fe5b06925080601f0360080260020a838303811515610a3a57fe5b0460f860020a028482815181101515610a4f57fe5b906020010190600160f860020a031916908160001a905350829150600101610a04565b5091949350505050565b6060806000808451865188518a516001010101016040519080825280601f01601f191660200182016040528015610abd578160200160208202803883390190505b509250600060f860020a02836000815181101515610ad757fe5b906020010190600160f860020a031916908160001a90535060019150600090505b8751811015610b56578781815181101515610b0f57fe5b90602001015160f860020a900460f860020a028383806001019450815181101515610b3657fe5b906020010190600160f860020a031916908160001a905350600101610af8565b5060005b8651811015610bb8578681815181101515610b7157fe5b90602001015160f860020a900460f860020a028383806001019450815181101515610b9857fe5b906020010190600160f860020a031916908160001a905350600101610b5a565b5060005b8551811015610c1a578581815181101515610bd357fe5b90602001015160f860020a900460f860020a028383806001019450815181101515610bfa57fe5b906020010190600160f860020a031916908160001a905350600101610bbc565b5060005b8451811015610c7c578481815181101515610c3557fe5b90602001015160f860020a900460f860020a028383806001019450815181101515610c5c57fe5b906020010190600160f860020a031916908160001a905350600101610c1e565b50909695505050505050565b600080600080600080600080886000815181101515610ca357fe5b90602001015160f860020a900460f860020a02600160f860020a031916600460f860020a02141515610d1f576040805160e560020a62461bcd02815260206004820152601360248201527f496e76616c6964207075626c6963206b65792e00000000000000000000000000604482015290519081900360640190fd5b6000965060009550610d308b611527565b909550935060019250600091505b6020821015610d875781601f0360080260020a8984806001019550815181101515610d6557fe5b016020015160f860020a90819004810204029690960195600190910190610d3e565b600091505b6020821015610dd55781601f0360080260020a8984806001019550815181101515610db357fe5b016020015160f860020a90819004810204029590950194600190910190610d8c565b610e8c60028b6040518082805190602001908083835b60208310610e0a5780518252601f199092019160209182019101610deb565b51815160209384036101000a600019018019909216911617905260405191909301945091925050808303816000865af1158015610e4b573d6000803e3d6000fd5b5050506040513d6020811015610e6057600080fd5b5051604080518082018252888152602081810189905282518084019093528b835282018a905290611813565b90508097505b505050505050509392505050565b60408051808201909152600681527f5532465f56320000000000000000000000000000000000000000000000000000602082015290565b6060610ee48260006119bb565b90505b919050565b8051516060906000198101600290810260068302010160008381805b85841015610f5b578751805185908110610f1e57fe5b906020019060200201515185019450876020015184815181101515610f3f57fe5b9060200190602002015151850194508380600101945050610f08565b846040519080825280601f01601f191660200182016040528015610f89578160200160208202803883390190505b508051909350600192507f7b000000000000000000000000000000000000000000000000000000000000009084906000908110610fc257fe5b906020010190600160f860020a031916908160001a905350600090505b85811015611325578251600183019260f960020a60110291859190811061100257fe5b906020010190600160f860020a031916908160001a905350600093505b875180518290811061102d57fe5b90602001906020020151518410156110ae57875180518290811061104d57fe5b906020019060200201518481518110151561106457fe5b90602001015160f860020a900460f860020a02838380600101945081518110151561108b57fe5b906020010190600160f860020a031916908160001a90535060019093019261101f565b8251600183019260f960020a6011029185919081106110c957fe5b906020010190600160f860020a031916908160001a905350825160018301927f3a0000000000000000000000000000000000000000000000000000000000000091859190811061111557fe5b906020010190600160f860020a031916908160001a905350825160018301927f200000000000000000000000000000000000000000000000000000000000000091859190811061116157fe5b906020010190600160f860020a031916908160001a9053508251600183019260f960020a60110291859190811061119457fe5b906020010190600160f860020a031916908160001a905350600093505b60208801518051829081106111c257fe5b90602001906020020151518410156112465760208801518051829081106111e557fe5b90602001906020020151848151811015156111fc57fe5b90602001015160f860020a900460f860020a02838380600101945081518110151561122357fe5b906020010190600160f860020a031916908160001a9053506001909301926111b1565b8251600183019260f960020a60110291859190811061126157fe5b906020010190600160f860020a031916908160001a9053506000198601811461131d57825160018301927f2c000000000000000000000000000000000000000000000000000000000000009185919081106112b857fe5b906020010190600160f860020a031916908160001a905350825160018301927f200000000000000000000000000000000000000000000000000000000000000091859190811061130457fe5b906020010190600160f860020a031916908160001a9053505b600101610fdf565b825160018301927f7d0000000000000000000000000000000000000000000000000000000000000091859190811061135957fe5b906020010190600160f860020a031916908160001a90535091979650505050505050565b6000803383604051602001808373ffffffffffffffffffffffffffffffffffffffff1673ffffffffffffffffffffffffffffffffffffffff166c01000000000000000000000000028152601401828152602001925050506040516020818303038152906040526040518082805190602001908083835b602083106114125780518252601f1990920191602091820191016113f3565b5181516020939093036101000a600019018019909116921691909117905260405192018290039091209695505050505050565b8051606090829082906000906001161561145e57600080fd5b8251600290046040519080825280601f01601f191660200182016040528015611491578160200160208202803883390190505b509150600090505b82516002900481101561151f576114d383826002026001018151811015156114bd57fe5b016020015160f860020a90819004810204611baa565b6114e784836002028151811015156114bd57fe5b6010020160f860020a0282828151811015156114ff57fe5b906020010190600160f860020a031916908160001a905350600101611499565b509392505050565b600080600080606061153a600187611d2c565b81519097509091508190600090811061154f57fe5b90602001015160f860020a900460f860020a02600160f860020a031916603060f860020a021415156115cb576040805160e560020a62461bcd02815260206004820152600560248201527f307833302e000000000000000000000000000000000000000000000000000000604482015290519081900360640190fd5b6115d6600187611d2c565b80518251919850919250829060009081106115ed57fe5b016020015160f860020a9081900481020414611653576040805160e560020a62461bcd02815260206004820152601560248201527f556e657175616c20746f74616c206c656e6774682e0000000000000000000000604482015290519081900360640190fd5b61165e600187611d2c565b81519097509091508190600090811061167357fe5b90602001015160f860020a900460f860020a02600160f860020a031916600260f860020a021415156116ef576040805160e560020a62461bcd02815260206004820152600560248201527f307830322e000000000000000000000000000000000000000000000000000000604482015290519081900360640190fd5b6116fa600187611d2c565b815190975090915061172a908290600090811061171357fe5b016020015160f860020a9081900481020487611d2c565b9650905061173781611e6b565b9250611744600187611d2c565b81519097509091508190600090811061175957fe5b90602001015160f860020a900460f860020a02600160f860020a031916600260f860020a021415156117d5576040805160e560020a62461bcd02815260206004820152600560248201527f307830322e000000000000000000000000000000000000000000000000000000604482015290519081900360640190fd5b6117e0600187611d2c565b81519097509091506117f9908290600090811061171357fe5b9650905061180681611e6b565b9296929550919350505050565b600080600080600080611824613640565b885160009015806118445750895160008051602061368283398151915211155b80611851575060208a0151155b1561185f5760009750610e92565b885160208a01516118709190611eba565b151561187f5760019750610e92565b60208a015161189c90600080516020613682833981519152611fb6565b92506118fa7f6b17d1f2e12c4247f8bce6e563a440f277037d812deb33a0f4a13945d898c2967f4fe342e2fe1a7f9b8ee7eb4a7c0f9e162bce33576b315ececbb6406837bf51f5600080516020613682833981519152868f09612052565b8a5160208c01518d51939a509197506119289290919060008051602061368283398151915290879009612052565b909650935061193987868887612127565b604081015190925015156119505760029750610e92565b604082015161196d906000805160206136a2833981519152611fb6565b90506000805160206136a2833981519152808283098351098a51909150600080516020613682833981519152820614156119aa5760009750610e92565b5060039a9950505050505050505050565b606061365f81806000808080808915156119d95761214d97506119df565b61237c97505b60c88b5111156119fd576119f68b8963ffffffff16565b9850611b9c565b6040805160208101909152600081528b5190975060c880820496506001955090061515611a2957600093505b600091505b84821015611ae1576040805160c88082526101008201909252906020820161190080388339019050509550600092505b60c8831015611abe578a8360c8840201815181101515611a7a57fe5b90602001015160f860020a900460f860020a028684815181101515611a9b57fe5b906020010190600160f860020a031916908160001a905350600190920191611a5e565b611ad487611acf888b63ffffffff16565b61255a565b9650600190910190611a2e565b8315611b98578a5160c890069050806040519080825280601f01601f191660200182016040528015611b1d578160200160208202803883390190505b509550600092505b80831015611b84578a8360c8870201815181101515611b4057fe5b90602001015160f860020a900460f860020a028684815181101515611b6157fe5b906020010190600160f860020a031916908160001a905350600190920191611b25565b611b9587611acf888b63ffffffff16565b96505b8698505b505050505050505092915050565b60007f300000000000000000000000000000000000000000000000000000000000000060f860020a8302600160f860020a03191610801590611c1c57507f390000000000000000000000000000000000000000000000000000000000000060f860020a8302600160f860020a03191611155b15611c2c5750602f198101610ee7565b7f610000000000000000000000000000000000000000000000000000000000000060f860020a8302600160f860020a03191610801590611c9c57507f660000000000000000000000000000000000000000000000000000000000000060f860020a8302600160f860020a03191611155b15611cac57506056198101610ee7565b7f410000000000000000000000000000000000000000000000000000000000000060f860020a8302600160f860020a03191610801590611d1c57507f460000000000000000000000000000000000000000000000000000000000000060f860020a8302600160f860020a03191611155b15610ee757506036198101610ee7565b606080606080600080878751036040519080825280601f01601f191660200182016040528015611d66578160200160208202803883390190505b509350876040519080825280601f01601f191660200182016040528015611d97578160200160208202803883390190505b50925060009150600090505b8251811015611dfe578651600183019288918110611dbd57fe5b90602001015160f860020a900460f860020a028382815181101515611dde57fe5b906020010190600160f860020a031916908160001a905350600101611da3565b5060005b8351811015611e5d578651600183019288918110611e1c57fe5b90602001015160f860020a900460f860020a028482815181101515611e3d57fe5b906020010190600160f860020a031916908160001a905350600101611e02565b509096919550909350505050565b600080805b8351811015611eb3578060010184510360080260020a8482815181101515611e9457fe5b016020015160f860020a90819004810204029190910190600101611e70565b5092915050565b60008080841580611ed857506000805160206136a283398151915285145b80611ee1575083155b80611ef957506000805160206136a283398151915284145b15611f075760009250611fae565b6000805160206136a283398151915284850991506000805160206136a2833981519152856000805160206136a28339815191528788090990506000805160206136a2833981519152807bfffffffeffffffffffffffffffffffff000000000000000000000003198709820890506000805160206136a28339815191527f5ac635d8aa3a93e7b3ebbd55769886bc651d06b0cc53b0f63bce3c3e27d2604b8208905080821492505b505092915050565b60008080808080871580611fc957508688145b80611fd2575086155b15611fe05760009550612047565b86881115611ff7578688811515611ff357fe5b0697505b600193508692508791505b811561202d57818381151561201357fe5b949594048581029094039391928383029003919050612002565b6000851215612043578460000387039550612047565b8495505b505050505092915050565b6000808080808086151561207157612068612668565b9550955061211b565b86600114156120855788889550955061211b565b866002141561209857612068898961266f565b5087945086935084925083915060019050806002870615156120bc57600094508495505b6002909604955b600087111561210b576120d784848461269e565b919550935091506002870660011415612100576120f88484848989866128e3565b919750955090505b6002909604956120c3565b6121168686836129dc565b955095505b50505050935093915050565b61212f613640565b60008061213e87878787612a2c565b90925090506109c68282612a61565b606080600080606061215e86612aba565b935060009250600091505b83518210156122df5783517f2b00000000000000000000000000000000000000000000000000000000000000908590849081106121a257fe5b90602001015160f860020a900460f860020a02600160f860020a0319161415612211577f2d0000000000000000000000000000000000000000000000000000000000000084838151811015156121f457fe5b906020010190600160f860020a031916908160001a9053506122d4565b83517f2f000000000000000000000000000000000000000000000000000000000000009085908490811061224157fe5b90602001015160f860020a900460f860020a02600160f860020a0319161415612293577f5f0000000000000000000000000000000000000000000000000000000000000084838151811015156121f457fe5b835160f860020a603d02908590849081106122aa57fe5b90602001015160f860020a900460f860020a02600160f860020a03191614156122d4576001909201915b600190910190612169565b828451036040519080825280601f01601f191660200182016040528015612310578160200160208202803883390190505b509050600091505b805182101561237357838281518110151561232f57fe5b90602001015160f860020a900460f860020a02818381518110151561235057fe5b906020010190600160f860020a031916908160001a905350600190910190612318565b95945050505050565b6060600080825b84518310156124d15784517f2d00000000000000000000000000000000000000000000000000000000000000908690859081106123bc57fe5b90602001015160f860020a900460f860020a02600160f860020a031916141561242b577f2b00000000000000000000000000000000000000000000000000000000000000858481518110151561240e57fe5b906020010190600160f860020a031916908160001a9053506124c6565b84517f5f000000000000000000000000000000000000000000000000000000000000009086908590811061245b57fe5b90602001015160f860020a900460f860020a02600160f860020a03191614156124c6577f2f0000000000000000000000000000000000000000000000000000000000000085848151811015156124ad57fe5b906020010190600160f860020a031916908160001a9053505b600190920191612383565b84516004906000036040805160018082528183019092529290910693506020808301908038833901905050905060f860020a603d0281600081518110151561251557fe5b906020010190600160f860020a031916908160001a905350600092505b8183101561255157612544858261255a565b9450600190920191612532565b61237385612e39565b60608060008084518651016040519080825280601f01601f191660200182016040528015612592578160200160208202803883390190505b50925060009150600090505b85518110156125fc5785818151811015156125b557fe5b90602001015160f860020a900460f860020a0283838060010194508151811015156125dc57fe5b906020010190600160f860020a031916908160001a90535060010161259e565b5060005b845181101561265e57848181518110151561261757fe5b90602001015160f860020a900460f860020a02838380600101945081518110151561263e57fe5b906020010190600160f860020a031916908160001a905350600101612600565b5090949350505050565b6000809091565b60008060006126808585600161269e565b919650945090506126928585836129dc565b92509250509250929050565b60008060008060008060006126b38a8a613451565b156126cb576126c0613476565b9650965096506128d6565b6000805160206136a2833981519152888a0992506000805160206136a28339815191526002840992506000805160206136a28339815191528a840991506000805160206136a283398151915289830991506000805160206136a28339815191526002830991506000805160206136a28339815191528a8b0999506000805160206136a283398151915260038b0993506000805160206136a283398151915288890997506000805160206136a28339815191527bfffffffeffffffffffffffffffffffff00000000000000000000000319890997506000805160206136a283398151915288850893506000805160206136a283398151915284850990506000805160206136a28339815191528260020999506000805160206136a28339815191528a6000805160206136a283398151915203820890506000805160206136a2833981519152816000805160206136a283398151915203830899506000805160206136a28339815191528a850999506000805160206136a2833981519152838a0998506000805160206136a2833981519152898a0998506000805160206136a28339815191528960020998506000805160206136a2833981519152896000805160206136a2833981519152038b0895506000805160206136a283398151915281840996506000805160206136a283398151915283840994506000805160206136a283398151915283860994505b5050505093509350939050565b60008060008060008060006128f88d8d613451565b1561290b578989899650965096506129cc565b6129158a8a613451565b15612928578c8c8c9650965096506129cc565b6000805160206136a2833981519152888d0993506000805160206136a28339815191528b8a0992506000805160206136a2833981519152888e0991506000805160206136a28339815191528b8b099050808214156129a6578284141561299e576129938d8d8d61269e565b9650965096506129cc565b612993613476565b6129c46000805160206136a2833981519152898d0983838688613480565b919850965094505b5050505096509650969350505050565b60008060006129f9846000805160206136a2833981519152611fb6565b90506000805160206136a283398151915281870992506000805160206136a2833981519152818609915050935093915050565b6000806000612a4187876001888860016128e3565b91985096509050612a538787836129dc565b925092505094509492505050565b612a69613640565b6000805160206136a28339815191526001600008604082018190526000805160206136a2833981519152908409815260408101516000805160206136a2833981519152908309602082015292915050565b60408051606081810183528282527f4142434445464748494a4b4c4d4e4f505152535455565758595a61626364656660208301527f6768696a6b6c6d6e6f707172737475767778797a303132333435363738392b2f82840152825160038082528185019094529092839182918291600091829182918160200160208202803883395050604080516001808252818301909252929850905060208083019080388339019050509450602060405190810160405280600081525093505b8851600311612c3157612b8960038a611d2c565b99509550612b9686611e6b565b9250600091505b6004821015612c2c578160030360400a83811515612bb757fe5b069050868260030360400a828503811515612bce57fe5b04815181101515612bdb57fe5b90602001015160f860020a900460f860020a02856000815181101515612bfd57fe5b906020010190600160f860020a031916908160001a905350612c1f848661255a565b9350915060010181612b9d565b612b75565b88511515612c4157839750612e2d565b885160011415612d4b57612c5489611e6b565b62010000029250600091505b6002821015612cef578160030360400a83811515612c7a57fe5b069050868260030360400a828503811515612c9157fe5b04815181101515612c9e57fe5b90602001015160f860020a900460f860020a02856000815181101515612cc057fe5b906020010190600160f860020a031916908160001a905350612ce2848661255a565b9350915060010181612c60565b60f860020a603d02856000815181101515612d0657fe5b906020010190600160f860020a031916908160001a905350600091505b6002821015612d4357612d36848661255a565b9350600190910190612d23565b839750612e2d565b612d5489611e6b565b610100029250600091505b6003821015612dee578160030360400a83811515612d7957fe5b069050868260030360400a828503811515612d9057fe5b04815181101515612d9d57fe5b90602001015160f860020a900460f860020a02856000815181101515612dbf57fe5b906020010190600160f860020a031916908160001a905350612de1848661255a565b9350915060010181612d5f565b60f860020a603d02856000815181101515612e0557fe5b906020010190600160f860020a031916908160001a905350612e27848661255a565b93508397505b50505050505050919050565b6060612e43613661565b50604080516110008101825260001980825260208083018290528284018290526060808401839052608080850184905260a0850184905260c0850184905260e08501849052610100850184905261012085018490526101408501849052610160850184905261018085018490526101a085018490526101c085018490526101e08501849052610200850184905261022085018490526102408501849052610260850184905261028085018490526102a085018490526102c085018490526102e08501849052610300850184905261032085018490526103408501849052610360850184905261038085018490526103a085018490526103c085018490526103e08501849052610400850184905261042085018490526104408501849052610460850184905261048085018490526104a085018490526104c085018490526104e08501849052610500850184905261052085018490526105408501849052603e61056086015261058085018490526105a085018490526105c08501849052603f6105e08601526034610600860152603561062086015260366106408601526037610660860152603861068086015260396106a0860152603a6106c0860152603b6106e0860152603c610700860152603d61072086015261074085018490526107608501849052610780850184905260006107a086018190526107c086018590526107e086018590526108008601859052610820860181905260016108408701526002610860870152600361088087015260046108a0870181905260056108c088015260066108e0880152600761090088015260086109208801526009610940880152600a610960880152600b610980880152600c6109a0880152600d6109c0880152600e6109e0880152600f610a008801526010610a208801526011610a408801526012610a608801526013610a808801526014610aa08801526015610ac08801526016610ae08801526017610b008801526018610b208801526019610b40880152610b608701869052610b808701869052610ba08701869052610bc08701869052610be08701869052610c008701869052601a610c20880152601b610c40880152601c610c60880152601d610c80880152601e610ca0880152601f610cc0880152610ce087018590526021610d008801526022610d208801526023610d408801526024610d608801526025610d808801526026610da08801526027610dc08801526028610de08801526029610e00880152602a610e20880152602b610e40880152602c610e60880152602d610e80880152602e610ea0880152602f610ec08801526030610ee08801526031610f008801526032610f208801526033610f40880152610f608701869052610f808701869052610fa08701869052610fc08701869052610fe08701959095528851875180860189528281528851878152808a01909952969791968796879692819004958795929490938493879391830190803883395050604080516001808252818301909252929550905060208083019080388339019050509150600090505b8581101561344157600097506132c560048d611d2c565b9c506000995092505b60048910156133805789838a8151811015156132e657fe5b016020015160f860020a908190048102046080811061330157fe5b60200201519450600085810b1215613363576040805160e560020a62461bcd02815260206004820152600e60248201527f496e76616c696420696e6465782e000000000000000000000000000000000000604482015290519081900360640190fd5b8860030360400a8560000b028801975088806001019950506132ce565b600098505b600389101561343957886002036101000a888115156133a057fe5b069650886002036101000a8789038115156133b757fe5b0460f860020a028260008151811015156133cd57fe5b906020010190600160f860020a031916908160001a9053508160008151811015156133f457fe5b016020015160f860020a9081900481020415801561341457506001860381145b1561341e5761342e565b613428848361255a565b93508697505b600190980197613385565b6001016132ae565b50919a9950505050505050505050565b60008215801561345f575081155b1561346c57506001613470565b5060005b92915050565b6000600181909192565b6000808080808080806000805160206136a28339815191528a6000805160206136a2833981519152038a0890506000805160206136a28339815191528b6000805160206136a2833981519152038d0894506000805160206136a283398151915285860993506000805160206136a283398151915281820991506000805160206136a28339815191528d830991506000805160206136a28339815191528c8c089a506000805160206136a2833981519152848c099a506000805160206136a28339815191528b6000805160206136a283398151915203830891506000805160206136a283398151915282860997506000805160206136a283398151915285850992506000805160206136a2833981519152848d099b506000805160206136a2833981519152826000805160206136a2833981519152038d089b506000805160206136a28339815191528c820990506000805160206136a2833981519152838a0998506000805160206136a2833981519152896000805160206136a283398151915203820896506000805160206136a28339815191528d840995505050505050955095509592505050565b604080518082019091526060808252602082015290565b6060604051908101604052806003906020820280388339509192915050565bfe5b6110006040519081016040528060809060208202803883395091929150505600ffffffff00000000ffffffffffffffffbce6faada7179e84f3b9cac2fc632551ffffffff00000001000000000000000000000000ffffffffffffffffffffffffa165627a7a72305820b2bb80dd14dc1ff32db6662572774e87edca146f5ccc23f465b253ba9faaaa600029",
  "source": "pragma solidity >=0.4.21 <0.5.0;\n\nimport \"./Utils.sol\";\nimport \"./EllipticCurve.sol\";\nimport \"./Base64.sol\";\n\nimport \"./Global.sol\";\n\nlibrary Register {\n\n\n\t// ================================================================================================== //\n\t// registration;\n\n\n\t/*\n\t- IN: appId, registeredKeys;\n\t- OUT: [appId, registerRequests[version, challenge], registeredKeys];\n\t*/\n\tfunction beginRegistration(string appId, uint randNonce) public view returns (string) {\n\n\t\tstring memory challenge = string(Base64.websafeEncode(Base64.bytes32ToBytes(Tools.random32(randNonce))));\n\n\t\tTools.Dict memory dict;\n\t\tdict._fields = new string[](3);\n\t\tdict._data = new string[](3);\n\n\t\tdict._fields[0] = 'challenge';\n\t\tdict._fields[1] = 'version';\n\t\tdict._fields[2] = 'appId';\n\n\t\tdict._data[0] = challenge;\n\t\tdict._data[1] = Global.getVersion();\n\t\t//! Fixing might be unnecessary!\n\t\t// dict._data[2] = Base64.fixOrigin(appId);\n\t\tdict._data[2] = appId;\n\n\t\tstring memory request = Tools.dictToJson(dict);\n\n\t\treturn request;\n\n\t}\n\n\tfunction completeRegistration(bytes challengeParameter, string pubKey, string keyHandle, string certKey, string signature, string facet) public pure returns (bytes) {\n\n\t\t// bytes memory decodedClientData = Base64.fromHex(decodedClientDataStr);\n\t\t\n\t\t// Global.validateClientData(string(request), string(decodedClientData), Global.getRegisterType(), facet);\n\n\t\t// verify response and application parameter;\n\t\treturn registerVerify(Base64.fromHex(pubKey), Base64.fromHex(keyHandle), Base64.fromHex(certKey), Base64.fromHex(signature), facet, challengeParameter);\n\n\t}\n\n    /*\n     +-------------------------------------------------------------------+\n     | 1 |     65    | 1 |    L    |    implied               | 64       |\n     +-------------------------------------------------------------------+\n     0x05\n     public key (first byte 0x04)\n     key handle length\n     key handle\n     attestation cert\n     signature\n   */\n\tfunction registerVerify(bytes pubKey, bytes keyHandle, bytes certKey, bytes signature, string appId, bytes challengeParameter) public pure returns (bytes) {\n\n\t\t// verify;\n\t\t// IN: appParameter, challengeParameter, keyHandle, pubKey;\n\t\tbytes memory verifyData = getRegisterVerifyData(Base64.bytes32ToBytes(sha256(bytes(appId))), challengeParameter, keyHandle, pubKey);\n\n\t\t// IN: signature, verifyData, pk from certificate;\n\t\trequire(Global.verifyECDSA(signature, verifyData, certKey) == 0, \"Invalid signature.\");\n\n\t    Tools.Dict memory device;\n\n\t\tdevice._fields = new string[](4);\n\t\tdevice._data = new string[](4);\n\n\t\tdevice._fields[0] = 'version';\n\t\tdevice._fields[1] = 'keyHandle';\n\t\tdevice._fields[2] = 'appId';\n\t\tdevice._fields[3] = 'publicKey';\n\n\t\tdevice._data[0] = Global.getVersion();\n\t\tdevice._data[1] = string(Base64.websafeEncode(keyHandle));\n\t\tdevice._data[2] = appId;\n\t\tdevice._data[3] = string(Base64.websafeEncode(pubKey));\n\n\t\tstring memory deviceRegistrationData = Tools.dictToJson(device);\n\n\t\treturn bytes(deviceRegistrationData);\n\n\t}\n\n\n\tfunction getRegisterVerifyData(bytes appPara, bytes challengeParameter, bytes keyHandle, bytes pubKey) internal pure returns (bytes) {\n\n\t\tbytes memory verifyData = new bytes(1 + appPara.length + challengeParameter.length + keyHandle.length + pubKey.length);\n\n\t\tverifyData[0] = byte(0);\n\t\tuint k = 1;\n\t\tfor (uint i = 0; i < appPara.length; i++) {\n\t\t\tverifyData[k++] = appPara[i];\n\t\t}\n\t\tfor (i = 0; i < challengeParameter.length; i++) {\n\t\t\tverifyData[k++] = challengeParameter[i];\n\t\t}\n\t\tfor (i = 0; i < keyHandle.length; i++) {\n\t\t\tverifyData[k++] = keyHandle[i];\n\t\t}\n\t\tfor (i = 0; i < pubKey.length; i++) {\n\t\t\tverifyData[k++] = pubKey[i];\n\t\t}\n\n\t\treturn verifyData;\n\n\t}\n\n}\n",
  "sourcePath": "/home/chxw/Desktop/worksite/develop/u2f-ethereum/contracts/Register.sol",
  "compiler": {
    "name": "solc",
    "version": "0.4.24+commit.e67f0147.Emscripten.clang"
  },
  "schemaVersion": "3.0.5",
  "updatedAt": "2019-04-03T01:16:15.740Z",
  "devdoc": {
    "methods": {}
  },
  "userdoc": {
    "methods": {}
  }
}