{
  "contractName": "Register",
  "abi": [
    {
      "constant": true,
      "inputs": [
        {
          "name": "appId",
          "type": "string"
        },
        {
          "name": "randNonce",
          "type": "uint256"
        }
      ],
      "name": "beginRegistration",
      "outputs": [
        {
          "name": "",
          "type": "string"
        }
      ],
      "payable": false,
      "stateMutability": "view",
      "type": "function",
      "signature": "0xc55c7243"
    },
    {
      "constant": true,
      "inputs": [
        {
          "name": "challengeParameter",
          "type": "bytes"
        },
        {
          "name": "pubKey",
          "type": "bytes"
        },
        {
          "name": "keyHandle",
          "type": "bytes"
        },
        {
          "name": "certKey",
          "type": "bytes"
        },
        {
          "name": "signature",
          "type": "bytes"
        },
        {
          "name": "facet",
          "type": "string"
        }
      ],
      "name": "completeRegistration",
      "outputs": [
        {
          "name": "",
          "type": "bytes"
        }
      ],
      "payable": false,
      "stateMutability": "pure",
      "type": "function",
      "signature": "0xeb47002e"
    },
    {
      "constant": true,
      "inputs": [
        {
          "name": "pubKey",
          "type": "bytes"
        },
        {
          "name": "keyHandle",
          "type": "bytes"
        },
        {
          "name": "certKey",
          "type": "bytes"
        },
        {
          "name": "signature",
          "type": "bytes"
        },
        {
          "name": "appId",
          "type": "string"
        },
        {
          "name": "challengeParameter",
          "type": "bytes"
        }
      ],
      "name": "registerVerify",
      "outputs": [
        {
          "name": "",
          "type": "bytes"
        }
      ],
      "payable": false,
      "stateMutability": "pure",
      "type": "function",
      "signature": "0xab4f83ce"
    }
  ],
  "bytecode": "0x613575610030600b82828239805160001a6073146000811461002057610022565bfe5b5030600052607381538281f300730000000000000000000000000000000000000000301460806040526004361061006d5763ffffffff7c0100000000000000000000000000000000000000000000000000000000600035041663ab4f83ce8114610072578063c55c724314610269578063eb47002e146102b7575b600080fd5b6040805160206004803580820135601f81018490048402850184019095528484526101f494369492936024939284019190819084018382808284375050604080516020601f89358b018035918201839004830284018301909452808352979a99988101979196509182019450925082915084018382808284375050604080516020601f89358b018035918201839004830284018301909452808352979a99988101979196509182019450925082915084018382808284375050604080516020601f89358b018035918201839004830284018301909452808352979a99988101979196509182019450925082915084018382808284375050604080516020601f89358b018035918201839004830284018301909452808352979a99988101979196509182019450925082915084018382808284375050604080516020601f89358b018035918201839004830284018301909452808352979a9998810197919650918201945092508291508401838280828437509497506104399650505050505050565b6040805160208082528351818301528351919283929083019185019080838360005b8381101561022e578181015183820152602001610216565b50505050905090810190601f16801561025b5780820380516001836020036101000a031916815260200191505b509250505060405180910390f35b6040805160206004803580820135601f81018490048402850184019095528484526101f4943694929360249392840191908190840183828082843750949750509335945061079b9350505050565b6040805160206004803580820135601f81018490048402850184019095528484526101f494369492936024939284019190819084018382808284375050604080516020601f89358b018035918201839004830284018301909452808352979a99988101979196509182019450925082915084018382808284375050604080516020601f89358b018035918201839004830284018301909452808352979a99988101979196509182019450925082915084018382808284375050604080516020601f89358b018035918201839004830284018301909452808352979a99988101979196509182019450925082915084018382808284375050604080516020601f89358b018035918201839004830284018301909452808352979a99988101979196509182019450925082915084018382808284375050604080516020601f89358b018035918201839004830284018301909452808352979a9998810197919650918201945092508291508401838280828437509497506109969650505050505050565b6060806104446134b1565b60606104e36104db6002886040518082805190602001908083835b6020831061047e5780518252601f19909201916020918201910161045f565b51815160209384036101000a600019018019909216911617905260405191909301945091925050808303816000865af11580156104bf573d6000803e3d6000fd5b5050506040513d60208110156104d457600080fd5b50516109b1565b868b8d610a5c565b92506104f087848a610c68565b15610545576040805160e560020a62461bcd02815260206004820152601260248201527f496e76616c6964207369676e61747572652e0000000000000000000000000000604482015290519081900360640190fd5b60408051600480825260a0820190925290816020015b606081526020019060019003908161055b575050825260408051600480825260a0820190925290602082015b606081526020019060019003908161058757505060208084019190915260408051808201909152600781527f76657273696f6e00000000000000000000000000000000000000000000000000918101919091528251805160009081106105e957fe5b906020019060200201819052506040805190810160405280600981526020017f6b657948616e646c6500000000000000000000000000000000000000000000008152508260000151600181518110151561063f57fe5b906020019060200201819052506040805190810160405280600581526020017f61707049640000000000000000000000000000000000000000000000000000008152508260000151600281518110151561069557fe5b906020019060200201819052506040805190810160405280600981526020017f7075626c69634b65790000000000000000000000000000000000000000000000815250826000015160038151811015156106eb57fe5b602090810290910101526106fd610e80565b60208301518051600090811061070f57fe5b6020908102909101015261072289610eb7565b60208301518051600190811061073457fe5b90602001906020020181905250858260200151600281518110151561075557fe5b602090810290910101526107688a610eb7565b60208301518051600390811061077a57fe5b6020908102909101015261078d82610f9e565b9a9950505050505050505050565b6060806107a66134b1565b60606107c16107bc6107b78761142f565b6109b1565b6114e8565b60408051600380825260808201909252919450816020015b60608152602001906001900390816107d957505082526040805160038082526080820190925290602082015b606081526020019060019003908161080557505060208084019190915260408051808201909152600981527f6368616c6c656e676500000000000000000000000000000000000000000000009181019190915282518051600090811061086757fe5b906020019060200201819052506040805190810160405280600781526020017f76657273696f6e00000000000000000000000000000000000000000000000000815250826000015160018151811015156108bd57fe5b906020019060200201819052506040805190810160405280600581526020017f61707049640000000000000000000000000000000000000000000000000000008152508260000151600281518110151561091357fe5b90602001906020020181905250828260200151600081518110151561093457fe5b60209081029091010152610946610e80565b60208301518051600190811061095857fe5b90602001906020020181905250858260200151600281518110151561097957fe5b6020908102909101015261098c82610f9e565b9695505050505050565b60606109a686868686868c610439565b979650505050505050565b60408051602080825281830190925260609182916000918291829180820161040080388339019050509350859150600090505b6020811015610a525780601f0360080260020a82811515610a0157fe5b06925080601f0360080260020a838303811515610a1a57fe5b0460f860020a028482815181101515610a2f57fe5b906020010190600160f860020a031916908160001a9053508291506001016109e4565b5091949350505050565b6060806000808451865188518a516001010101016040519080825280601f01601f191660200182016040528015610a9d578160200160208202803883390190505b509250600060f860020a02836000815181101515610ab757fe5b906020010190600160f860020a031916908160001a90535060019150600090505b8751811015610b36578781815181101515610aef57fe5b90602001015160f860020a900460f860020a028383806001019450815181101515610b1657fe5b906020010190600160f860020a031916908160001a905350600101610ad8565b5060005b8651811015610b98578681815181101515610b5157fe5b90602001015160f860020a900460f860020a028383806001019450815181101515610b7857fe5b906020010190600160f860020a031916908160001a905350600101610b3a565b5060005b8551811015610bfa578581815181101515610bb357fe5b90602001015160f860020a900460f860020a028383806001019450815181101515610bda57fe5b906020010190600160f860020a031916908160001a905350600101610b9c565b5060005b8451811015610c5c578481815181101515610c1557fe5b90602001015160f860020a900460f860020a028383806001019450815181101515610c3c57fe5b906020010190600160f860020a031916908160001a905350600101610bfe565b50909695505050505050565b600080600080600080600080886000815181101515610c8357fe5b90602001015160f860020a900460f860020a02600160f860020a031916600460f860020a02141515610cff576040805160e560020a62461bcd02815260206004820152601360248201527f496e76616c6964207075626c6963206b65792e00000000000000000000000000604482015290519081900360640190fd5b6000965060009550610d108b6114fd565b909550935060019250600091505b6020821015610d675781601f0360080260020a8984806001019550815181101515610d4557fe5b016020015160f860020a90819004810204029690960195600190910190610d1e565b600091505b6020821015610db55781601f0360080260020a8984806001019550815181101515610d9357fe5b016020015160f860020a90819004810204029590950194600190910190610d6c565b610e6c60028b6040518082805190602001908083835b60208310610dea5780518252601f199092019160209182019101610dcb565b51815160209384036101000a600019018019909216911617905260405191909301945091925050808303816000865af1158015610e2b573d6000803e3d6000fd5b5050506040513d6020811015610e4057600080fd5b5051604080518082018252888152602081810189905282518084019093528b835282018a9052906117e9565b90508097505b505050505050509392505050565b60408051808201909152600681527f5532465f56320000000000000000000000000000000000000000000000000000602082015290565b606080600080600085516002026040519080825280601f01601f191660200182016040528015610ef1578160200160208202803883390190505b509350600090505b8551811015610a52578581815181101515610f1057fe5b016020015160f860020a908190048102049250601083049150610f3282611991565b8482600202815181101515610f4357fe5b906020010190600160f860020a031916908160001a905350601083069150610f6a82611991565b8482600202600101815181101515610f7e57fe5b906020010190600160f860020a031916908160001a905350600101610ef9565b8051516060906000198101600290810260068302010160008381805b8584101561100d578751805185908110610fd057fe5b906020019060200201515185019450876020015184815181101515610ff157fe5b9060200190602002015151850194508380600101945050610fba565b846040519080825280601f01601f19166020018201604052801561103b578160200160208202803883390190505b508051909350600192507f7b00000000000000000000000000000000000000000000000000000000000000908490600090811061107457fe5b906020010190600160f860020a031916908160001a905350600090505b858110156113d7578251600183019260f960020a6011029185919081106110b457fe5b906020010190600160f860020a031916908160001a905350600093505b87518051829081106110df57fe5b90602001906020020151518410156111605787518051829081106110ff57fe5b906020019060200201518481518110151561111657fe5b90602001015160f860020a900460f860020a02838380600101945081518110151561113d57fe5b906020010190600160f860020a031916908160001a9053506001909301926110d1565b8251600183019260f960020a60110291859190811061117b57fe5b906020010190600160f860020a031916908160001a905350825160018301927f3a000000000000000000000000000000000000000000000000000000000000009185919081106111c757fe5b906020010190600160f860020a031916908160001a905350825160018301927f200000000000000000000000000000000000000000000000000000000000000091859190811061121357fe5b906020010190600160f860020a031916908160001a9053508251600183019260f960020a60110291859190811061124657fe5b906020010190600160f860020a031916908160001a905350600093505b602088015180518290811061127457fe5b90602001906020020151518410156112f857602088015180518290811061129757fe5b90602001906020020151848151811015156112ae57fe5b90602001015160f860020a900460f860020a0283838060010194508151811015156112d557fe5b906020010190600160f860020a031916908160001a905350600190930192611263565b8251600183019260f960020a60110291859190811061131357fe5b906020010190600160f860020a031916908160001a905350600019860181146113cf57825160018301927f2c0000000000000000000000000000000000000000000000000000000000000091859190811061136a57fe5b906020010190600160f860020a031916908160001a905350825160018301927f20000000000000000000000000000000000000000000000000000000000000009185919081106113b657fe5b906020010190600160f860020a031916908160001a9053505b600101611091565b825160018301927f7d0000000000000000000000000000000000000000000000000000000000000091859190811061140b57fe5b906020010190600160f860020a031916908160001a90535091979650505050505050565b604080516c0100000000000000000000000033810260208084019190915260001943014060348401524191909102605483015244606883015260888083018590528351808403909101815260a8909201928390528151600093849392909182918401908083835b602083106114b55780518252601f199092019160209182019101611496565b5181516020939093036101000a600019018019909116921691909117905260405192018290039091209695505050505050565b60606114f58260006119c5565b90505b919050565b6000806000806060611510600187611bb4565b81519097509091508190600090811061152557fe5b90602001015160f860020a900460f860020a02600160f860020a031916603060f860020a021415156115a1576040805160e560020a62461bcd02815260206004820152600560248201527f307833302e000000000000000000000000000000000000000000000000000000604482015290519081900360640190fd5b6115ac600187611bb4565b80518251919850919250829060009081106115c357fe5b016020015160f860020a9081900481020414611629576040805160e560020a62461bcd02815260206004820152601560248201527f556e657175616c20746f74616c206c656e6774682e0000000000000000000000604482015290519081900360640190fd5b611634600187611bb4565b81519097509091508190600090811061164957fe5b90602001015160f860020a900460f860020a02600160f860020a031916600260f860020a021415156116c5576040805160e560020a62461bcd02815260206004820152600560248201527f307830322e000000000000000000000000000000000000000000000000000000604482015290519081900360640190fd5b6116d0600187611bb4565b815190975090915061170090829060009081106116e957fe5b016020015160f860020a9081900481020487611bb4565b9650905061170d81611cf3565b925061171a600187611bb4565b81519097509091508190600090811061172f57fe5b90602001015160f860020a900460f860020a02600160f860020a031916600260f860020a021415156117ab576040805160e560020a62461bcd02815260206004820152600560248201527f307830322e000000000000000000000000000000000000000000000000000000604482015290519081900360640190fd5b6117b6600187611bb4565b81519097509091506117cf90829060009081106116e957fe5b965090506117dc81611cf3565b9296929550919350505050565b6000806000806000806117fa6134c8565b8851600090158061181a5750895160008051602061350a83398151915211155b80611827575060208a0151155b156118355760009750610e72565b885160208a01516118469190611d42565b15156118555760019750610e72565b60208a01516118729060008051602061350a833981519152611e3e565b92506118d07f6b17d1f2e12c4247f8bce6e563a440f277037d812deb33a0f4a13945d898c2967f4fe342e2fe1a7f9b8ee7eb4a7c0f9e162bce33576b315ececbb6406837bf51f560008051602061350a833981519152868f09611eda565b8a5160208c01518d51939a509197506118fe9290919060008051602061350a83398151915290879009611eda565b909650935061190f87868887611faf565b604081015190925015156119265760029750610e72565b60408201516119439060008051602061352a833981519152611e3e565b905060008051602061352a833981519152808283098351098a5190915060008051602061350a833981519152820614156119805760009750610e72565b5060039a9950505050505050505050565b6000600a8210156119ac575060f860020a60308201026114f8565b601082101561006d575060f860020a60578201026114f8565b60606134e781806000808080808915156119e357611fd597506119e9565b61220497505b60c88b511115611a0757611a008b8963ffffffff16565b9850611ba6565b6040805160208101909152600081528b5190975060c880820496506001955090061515611a3357600093505b600091505b84821015611aeb576040805160c88082526101008201909252906020820161190080388339019050509550600092505b60c8831015611ac8578a8360c8840201815181101515611a8457fe5b90602001015160f860020a900460f860020a028684815181101515611aa557fe5b906020010190600160f860020a031916908160001a905350600190920191611a68565b611ade87611ad9888b63ffffffff16565b6123e2565b9650600190910190611a38565b8315611ba2578a5160c890069050806040519080825280601f01601f191660200182016040528015611b27578160200160208202803883390190505b509550600092505b80831015611b8e578a8360c8870201815181101515611b4a57fe5b90602001015160f860020a900460f860020a028684815181101515611b6b57fe5b906020010190600160f860020a031916908160001a905350600190920191611b2f565b611b9f87611ad9888b63ffffffff16565b96505b8698505b505050505050505092915050565b606080606080600080878751036040519080825280601f01601f191660200182016040528015611bee578160200160208202803883390190505b509350876040519080825280601f01601f191660200182016040528015611c1f578160200160208202803883390190505b50925060009150600090505b8251811015611c86578651600183019288918110611c4557fe5b90602001015160f860020a900460f860020a028382815181101515611c6657fe5b906020010190600160f860020a031916908160001a905350600101611c2b565b5060005b8351811015611ce5578651600183019288918110611ca457fe5b90602001015160f860020a900460f860020a028482815181101515611cc557fe5b906020010190600160f860020a031916908160001a905350600101611c8a565b509096919550909350505050565b600080805b8351811015611d3b578060010184510360080260020a8482815181101515611d1c57fe5b016020015160f860020a90819004810204029190910190600101611cf8565b5092915050565b60008080841580611d60575060008051602061352a83398151915285145b80611d69575083155b80611d81575060008051602061352a83398151915284145b15611d8f5760009250611e36565b60008051602061352a833981519152848509915060008051602061352a8339815191528560008051602061352a83398151915287880909905060008051602061352a833981519152807bfffffffeffffffffffffffffffffffff0000000000000000000000031987098208905060008051602061352a8339815191527f5ac635d8aa3a93e7b3ebbd55769886bc651d06b0cc53b0f63bce3c3e27d2604b8208905080821492505b505092915050565b60008080808080871580611e5157508688145b80611e5a575086155b15611e685760009550611ecf565b86881115611e7f578688811515611e7b57fe5b0697505b600193508692508791505b8115611eb5578183811515611e9b57fe5b949594048581029094039391928383029003919050611e8a565b6000851215611ecb578460000387039550611ecf565b8495505b505050505092915050565b60008080808080861515611ef957611ef06124f0565b95509550611fa3565b8660011415611f0d57888895509550611fa3565b8660021415611f2057611ef089896124f7565b508794508693508492508391506001905080600287061515611f4457600094508495505b6002909604955b6000871115611f9357611f5f848484612526565b919550935091506002870660011415611f8857611f8084848489898661276b565b919750955090505b600290960495611f4b565b611f9e868683612864565b955095505b50505050935093915050565b611fb76134c8565b600080611fc6878787876128b4565b90925090506109a682826128e9565b6060806000806060611fe686612942565b935060009250600091505b83518210156121675783517f2b000000000000000000000000000000000000000000000000000000000000009085908490811061202a57fe5b90602001015160f860020a900460f860020a02600160f860020a0319161415612099577f2d00000000000000000000000000000000000000000000000000000000000000848381518110151561207c57fe5b906020010190600160f860020a031916908160001a90535061215c565b83517f2f00000000000000000000000000000000000000000000000000000000000000908590849081106120c957fe5b90602001015160f860020a900460f860020a02600160f860020a031916141561211b577f5f00000000000000000000000000000000000000000000000000000000000000848381518110151561207c57fe5b835160f860020a603d029085908490811061213257fe5b90602001015160f860020a900460f860020a02600160f860020a031916141561215c576001909201915b600190910190611ff1565b828451036040519080825280601f01601f191660200182016040528015612198578160200160208202803883390190505b509050600091505b80518210156121fb5783828151811015156121b757fe5b90602001015160f860020a900460f860020a0281838151811015156121d857fe5b906020010190600160f860020a031916908160001a9053506001909101906121a0565b95945050505050565b6060600080825b84518310156123595784517f2d000000000000000000000000000000000000000000000000000000000000009086908590811061224457fe5b90602001015160f860020a900460f860020a02600160f860020a03191614156122b3577f2b00000000000000000000000000000000000000000000000000000000000000858481518110151561229657fe5b906020010190600160f860020a031916908160001a90535061234e565b84517f5f00000000000000000000000000000000000000000000000000000000000000908690859081106122e357fe5b90602001015160f860020a900460f860020a02600160f860020a031916141561234e577f2f00000000000000000000000000000000000000000000000000000000000000858481518110151561233557fe5b906020010190600160f860020a031916908160001a9053505b60019092019161220b565b84516004906000036040805160018082528183019092529290910693506020808301908038833901905050905060f860020a603d0281600081518110151561239d57fe5b906020010190600160f860020a031916908160001a905350600092505b818310156123d9576123cc85826123e2565b94506001909201916123ba565b6121fb85612cc1565b60608060008084518651016040519080825280601f01601f19166020018201604052801561241a578160200160208202803883390190505b50925060009150600090505b855181101561248457858181518110151561243d57fe5b90602001015160f860020a900460f860020a02838380600101945081518110151561246457fe5b906020010190600160f860020a031916908160001a905350600101612426565b5060005b84518110156124e657848181518110151561249f57fe5b90602001015160f860020a900460f860020a0283838060010194508151811015156124c657fe5b906020010190600160f860020a031916908160001a905350600101612488565b5090949350505050565b6000809091565b600080600061250885856001612526565b9196509450905061251a858583612864565b92509250509250929050565b600080600080600080600061253b8a8a6132d9565b15612553576125486132fe565b96509650965061275e565b60008051602061352a833981519152888a09925060008051602061352a83398151915260028409925060008051602061352a8339815191528a8409915060008051602061352a833981519152898309915060008051602061352a83398151915260028309915060008051602061352a8339815191528a8b09995060008051602061352a83398151915260038b09935060008051602061352a833981519152888909975060008051602061352a8339815191527bfffffffeffffffffffffffffffffffff000000000000000000000003198909975060008051602061352a833981519152888508935060008051602061352a833981519152848509905060008051602061352a83398151915282600209995060008051602061352a8339815191528a60008051602061352a833981519152038208905060008051602061352a8339815191528160008051602061352a833981519152038308995060008051602061352a8339815191528a8509995060008051602061352a833981519152838a09985060008051602061352a833981519152898a09985060008051602061352a83398151915289600209985060008051602061352a8339815191528960008051602061352a833981519152038b08955060008051602061352a833981519152818409965060008051602061352a833981519152838409945060008051602061352a83398151915283860994505b5050505093509350939050565b60008060008060008060006127808d8d6132d9565b1561279357898989965096509650612854565b61279d8a8a6132d9565b156127b0578c8c8c965096509650612854565b60008051602061352a833981519152888d09935060008051602061352a8339815191528b8a09925060008051602061352a833981519152888e09915060008051602061352a8339815191528b8b0990508082141561282e57828414156128265761281b8d8d8d612526565b965096509650612854565b61281b6132fe565b61284c60008051602061352a833981519152898d0983838688613308565b919850965094505b5050505096509650969350505050565b60008060006128818460008051602061352a833981519152611e3e565b905060008051602061352a833981519152818709925060008051602061352a833981519152818609915050935093915050565b60008060006128c9878760018888600161276b565b919850965090506128db878783612864565b925092505094509492505050565b6128f16134c8565b60008051602061352a83398151915260016000086040820181905260008051602061352a8339815191529084098152604081015160008051602061352a833981519152908309602082015292915050565b60408051606081810183528282527f4142434445464748494a4b4c4d4e4f505152535455565758595a61626364656660208301527f6768696a6b6c6d6e6f707172737475767778797a303132333435363738392b2f82840152825160038082528185019094529092839182918291600091829182918160200160208202803883395050604080516001808252818301909252929850905060208083019080388339019050509450602060405190810160405280600081525093505b8851600311612ab957612a1160038a611bb4565b99509550612a1e86611cf3565b9250600091505b6004821015612ab4578160030360400a83811515612a3f57fe5b069050868260030360400a828503811515612a5657fe5b04815181101515612a6357fe5b90602001015160f860020a900460f860020a02856000815181101515612a8557fe5b906020010190600160f860020a031916908160001a905350612aa784866123e2565b9350915060010181612a25565b6129fd565b88511515612ac957839750612cb5565b885160011415612bd357612adc89611cf3565b62010000029250600091505b6002821015612b77578160030360400a83811515612b0257fe5b069050868260030360400a828503811515612b1957fe5b04815181101515612b2657fe5b90602001015160f860020a900460f860020a02856000815181101515612b4857fe5b906020010190600160f860020a031916908160001a905350612b6a84866123e2565b9350915060010181612ae8565b60f860020a603d02856000815181101515612b8e57fe5b906020010190600160f860020a031916908160001a905350600091505b6002821015612bcb57612bbe84866123e2565b9350600190910190612bab565b839750612cb5565b612bdc89611cf3565b610100029250600091505b6003821015612c76578160030360400a83811515612c0157fe5b069050868260030360400a828503811515612c1857fe5b04815181101515612c2557fe5b90602001015160f860020a900460f860020a02856000815181101515612c4757fe5b906020010190600160f860020a031916908160001a905350612c6984866123e2565b9350915060010181612be7565b60f860020a603d02856000815181101515612c8d57fe5b906020010190600160f860020a031916908160001a905350612caf84866123e2565b93508397505b50505050505050919050565b6060612ccb6134e9565b50604080516110008101825260001980825260208083018290528284018290526060808401839052608080850184905260a0850184905260c0850184905260e08501849052610100850184905261012085018490526101408501849052610160850184905261018085018490526101a085018490526101c085018490526101e08501849052610200850184905261022085018490526102408501849052610260850184905261028085018490526102a085018490526102c085018490526102e08501849052610300850184905261032085018490526103408501849052610360850184905261038085018490526103a085018490526103c085018490526103e08501849052610400850184905261042085018490526104408501849052610460850184905261048085018490526104a085018490526104c085018490526104e08501849052610500850184905261052085018490526105408501849052603e61056086015261058085018490526105a085018490526105c08501849052603f6105e08601526034610600860152603561062086015260366106408601526037610660860152603861068086015260396106a0860152603a6106c0860152603b6106e0860152603c610700860152603d61072086015261074085018490526107608501849052610780850184905260006107a086018190526107c086018590526107e086018590526108008601859052610820860181905260016108408701526002610860870152600361088087015260046108a0870181905260056108c088015260066108e0880152600761090088015260086109208801526009610940880152600a610960880152600b610980880152600c6109a0880152600d6109c0880152600e6109e0880152600f610a008801526010610a208801526011610a408801526012610a608801526013610a808801526014610aa08801526015610ac08801526016610ae08801526017610b008801526018610b208801526019610b40880152610b608701869052610b808701869052610ba08701869052610bc08701869052610be08701869052610c008701869052601a610c20880152601b610c40880152601c610c60880152601d610c80880152601e610ca0880152601f610cc0880152610ce087018590526021610d008801526022610d208801526023610d408801526024610d608801526025610d808801526026610da08801526027610dc08801526028610de08801526029610e00880152602a610e20880152602b610e40880152602c610e60880152602d610e80880152602e610ea0880152602f610ec08801526030610ee08801526031610f008801526032610f208801526033610f40880152610f608701869052610f808701869052610fa08701869052610fc08701869052610fe08701959095528851875180860189528281528851878152808a01909952969791968796879692819004958795929490938493879391830190803883395050604080516001808252818301909252929550905060208083019080388339019050509150600090505b858110156132c9576000975061314d60048d611bb4565b9c506000995092505b60048910156132085789838a81518110151561316e57fe5b016020015160f860020a908190048102046080811061318957fe5b60200201519450600085810b12156131eb576040805160e560020a62461bcd02815260206004820152600e60248201527f496e76616c696420696e6465782e000000000000000000000000000000000000604482015290519081900360640190fd5b8860030360400a8560000b02880197508880600101995050613156565b600098505b60038910156132c157886002036101000a8881151561322857fe5b069650886002036101000a87890381151561323f57fe5b0460f860020a0282600081518110151561325557fe5b906020010190600160f860020a031916908160001a90535081600081518110151561327c57fe5b016020015160f860020a9081900481020415801561329c57506001860381145b156132a6576132b6565b6132b084836123e2565b93508697505b60019098019761320d565b600101613136565b50919a9950505050505050505050565b6000821580156132e7575081155b156132f4575060016132f8565b5060005b92915050565b6000600181909192565b60008080808080808060008051602061352a8339815191528a60008051602061352a833981519152038a08905060008051602061352a8339815191528b60008051602061352a833981519152038d08945060008051602061352a833981519152858609935060008051602061352a833981519152818209915060008051602061352a8339815191528d8309915060008051602061352a8339815191528c8c089a5060008051602061352a833981519152848c099a5060008051602061352a8339815191528b60008051602061352a833981519152038308915060008051602061352a833981519152828609975060008051602061352a833981519152858509925060008051602061352a833981519152848d099b5060008051602061352a8339815191528260008051602061352a833981519152038d089b5060008051602061352a8339815191528c8209905060008051602061352a833981519152838a09985060008051602061352a8339815191528960008051602061352a833981519152038208965060008051602061352a8339815191528d840995505050505050955095509592505050565b604080518082019091526060808252602082015290565b6060604051908101604052806003906020820280388339509192915050565bfe5b6110006040519081016040528060809060208202803883395091929150505600ffffffff00000000ffffffffffffffffbce6faada7179e84f3b9cac2fc632551ffffffff00000001000000000000000000000000ffffffffffffffffffffffffa165627a7a723058203a6200182285b26ecbf9e7bc61c8f9ac603ea223fc7e0e6e8ec0e45f5dbd822c0029",
  "source": "pragma solidity >=0.4.21 <0.5.0;\n\nimport \"./Utils.sol\";\nimport \"./EllipticCurve.sol\";\nimport \"./Base64.sol\";\n\nimport \"./Global.sol\";\n\nlibrary Register {\n\n\n\t// ================================================================================================== //\n\t// registration;\n\n\n\t/*\n\t- IN: appId, registeredKeys;\n\t- OUT: [appId, registerRequests[version, challenge], registeredKeys];\n\t*/\n\tfunction beginRegistration(string appId, uint randNonce) public view returns (string) {\n\n\t\tstring memory challenge = string(Base64.websafeEncode(Base64.bytes32ToBytes(Tools.random32(randNonce))));\n\n\t\tTools.Dict memory dict;\n\t\tdict._fields = new string[](3);\n\t\tdict._data = new string[](3);\n\n\t\tdict._fields[0] = 'challenge';\n\t\tdict._fields[1] = 'version';\n\t\tdict._fields[2] = 'appId';\n\n\t\tdict._data[0] = challenge;\n\t\tdict._data[1] = Global.getVersion();\n\t\t//! Fixing might be unnecessary!\n\t\t// dict._data[2] = Base64.fixOrigin(appId);\n\t\tdict._data[2] = appId;\n\n\t\tstring memory request = Tools.dictToJson(dict);\n\n\t\treturn request;\n\n\t}\n\n\t// pubKey, keyHandle, certKey, signature changed to bytes;\n\tfunction completeRegistration(bytes challengeParameter, bytes pubKey, bytes keyHandle, bytes certKey, bytes signature, string facet) public pure returns (bytes) {\n\n\t\t// bytes memory decodedClientData = Base64.fromHex(decodedClientDataStr);\n\t\t\n\t\t// Global.validateClientData(string(request), string(decodedClientData), Global.getRegisterType(), facet);\n\n\t\t// verify response and application parameter;\n\t\treturn registerVerify(pubKey, keyHandle, certKey, signature, facet, challengeParameter);\n\n\t}\n\n    /*\n     +-------------------------------------------------------------------+\n     | 1 |     65    | 1 |    L    |    implied               | 64       |\n     +-------------------------------------------------------------------+\n     0x05\n     public key (first byte 0x04)\n     key handle length\n     key handle\n     attestation cert\n     signature\n   */\n\tfunction registerVerify(bytes pubKey, bytes keyHandle, bytes certKey, bytes signature, string appId, bytes challengeParameter) public pure returns (bytes) {\n\n\t\t// verify;\n\t\t// IN: appParameter, challengeParameter, keyHandle, pubKey;\n\t\tbytes memory verifyData = getRegisterVerifyData(Base64.bytes32ToBytes(sha256(bytes(appId))), challengeParameter, keyHandle, pubKey);\n\n\t\t// IN: signature, verifyData, pk from certificate;\n\t\trequire(Global.verifyECDSA(signature, verifyData, certKey) == 0, \"Invalid signature.\");\n\n\t    Tools.Dict memory device;\n\n\t\tdevice._fields = new string[](4);\n\t\tdevice._data = new string[](4);\n\n\t\tdevice._fields[0] = 'version';\n\t\tdevice._fields[1] = 'keyHandle';\n\t\tdevice._fields[2] = 'appId';\n\t\tdevice._fields[3] = 'publicKey';\n\n\t\tdevice._data[0] = Global.getVersion();\n\t\t//! removed websafe encode/decode;\n\t\t// device._data[1] = string(Base64.websafeEncode(keyHandle));\n\t\tdevice._data[1] = Base64.bytesToHexStr(keyHandle);\n\t\tdevice._data[2] = appId;\n\t\t// device._data[3] = string(Base64.websafeEncode(pubKey));\n\t\tdevice._data[3] = Base64.bytesToHexStr(pubKey);\n\n\t\tstring memory deviceRegistrationData = Tools.dictToJson(device);\n\n\t\treturn bytes(deviceRegistrationData);\n\n\t}\n\n\n\tfunction getRegisterVerifyData(bytes appPara, bytes challengeParameter, bytes keyHandle, bytes pubKey) internal pure returns (bytes) {\n\n\t\tbytes memory verifyData = new bytes(1 + appPara.length + challengeParameter.length + keyHandle.length + pubKey.length);\n\n\t\tverifyData[0] = byte(0);\n\t\tuint k = 1;\n\t\tfor (uint i = 0; i < appPara.length; i++) {\n\t\t\tverifyData[k++] = appPara[i];\n\t\t}\n\t\tfor (i = 0; i < challengeParameter.length; i++) {\n\t\t\tverifyData[k++] = challengeParameter[i];\n\t\t}\n\t\tfor (i = 0; i < keyHandle.length; i++) {\n\t\t\tverifyData[k++] = keyHandle[i];\n\t\t}\n\t\tfor (i = 0; i < pubKey.length; i++) {\n\t\t\tverifyData[k++] = pubKey[i];\n\t\t}\n\n\t\treturn verifyData;\n\n\t}\n\n}\n",
  "sourcePath": "/home/chxw/Desktop/worksite/develop/u2f-ethereum/contracts/Register.sol",
  "compiler": {
    "name": "solc",
    "version": "0.4.24+commit.e67f0147.Emscripten.clang"
  },
  "schemaVersion": "3.0.5",
  "updatedAt": "2019-05-25T00:57:41.609Z",
  "devdoc": {
    "methods": {}
  },
  "userdoc": {
    "methods": {}
  }
}