{
  "contractName": "Server",
  "abi": [
    {
      "inputs": [],
      "payable": false,
      "stateMutability": "nonpayable",
      "type": "constructor"
    },
    {
      "anonymous": false,
      "inputs": [
        {
          "indexed": false,
          "name": "user",
          "type": "address"
        },
        {
          "indexed": false,
          "name": "request",
          "type": "string"
        },
        {
          "indexed": false,
          "name": "appId",
          "type": "string"
        }
      ],
      "name": "RegistrationRequest",
      "type": "event"
    },
    {
      "anonymous": false,
      "inputs": [
        {
          "indexed": false,
          "name": "user",
          "type": "address"
        },
        {
          "indexed": false,
          "name": "device",
          "type": "string"
        },
        {
          "indexed": false,
          "name": "appId",
          "type": "string"
        }
      ],
      "name": "RegistrationComplete",
      "type": "event"
    },
    {
      "anonymous": false,
      "inputs": [
        {
          "indexed": false,
          "name": "user",
          "type": "address"
        },
        {
          "indexed": false,
          "name": "request",
          "type": "string"
        },
        {
          "indexed": false,
          "name": "appId",
          "type": "string"
        }
      ],
      "name": "SignRequest",
      "type": "event"
    },
    {
      "anonymous": false,
      "inputs": [
        {
          "indexed": false,
          "name": "user",
          "type": "address"
        },
        {
          "indexed": false,
          "name": "information",
          "type": "string"
        },
        {
          "indexed": false,
          "name": "appId",
          "type": "string"
        }
      ],
      "name": "SignComplete",
      "type": "event"
    },
    {
      "constant": true,
      "inputs": [],
      "name": "getEnroll",
      "outputs": [
        {
          "name": "",
          "type": "bytes"
        }
      ],
      "payable": false,
      "stateMutability": "view",
      "type": "function"
    },
    {
      "constant": true,
      "inputs": [],
      "name": "getSign",
      "outputs": [
        {
          "name": "",
          "type": "bytes"
        }
      ],
      "payable": false,
      "stateMutability": "view",
      "type": "function"
    },
    {
      "constant": true,
      "inputs": [],
      "name": "getKey",
      "outputs": [
        {
          "name": "",
          "type": "bytes"
        }
      ],
      "payable": false,
      "stateMutability": "view",
      "type": "function"
    },
    {
      "constant": true,
      "inputs": [],
      "name": "getVerified",
      "outputs": [
        {
          "name": "",
          "type": "bytes"
        }
      ],
      "payable": false,
      "stateMutability": "view",
      "type": "function"
    },
    {
      "constant": true,
      "inputs": [],
      "name": "getParameters",
      "outputs": [
        {
          "name": "",
          "type": "uint256"
        },
        {
          "name": "",
          "type": "uint256"
        }
      ],
      "payable": false,
      "stateMutability": "view",
      "type": "function"
    },
    {
      "constant": true,
      "inputs": [
        {
          "name": "clientData",
          "type": "string"
        },
        {
          "name": "appId",
          "type": "string"
        },
        {
          "name": "typ",
          "type": "uint256"
        }
      ],
      "name": "client",
      "outputs": [
        {
          "name": "",
          "type": "bytes"
        }
      ],
      "payable": false,
      "stateMutability": "view",
      "type": "function"
    },
    {
      "constant": false,
      "inputs": [
        {
          "name": "appId",
          "type": "string"
        }
      ],
      "name": "enroll",
      "outputs": [],
      "payable": false,
      "stateMutability": "nonpayable",
      "type": "function"
    },
    {
      "constant": false,
      "inputs": [
        {
          "name": "appId",
          "type": "string"
        },
        {
          "name": "challengeParameter",
          "type": "string"
        },
        {
          "name": "pubKey",
          "type": "string"
        },
        {
          "name": "keyHandle",
          "type": "string"
        },
        {
          "name": "certKey",
          "type": "string"
        },
        {
          "name": "signature",
          "type": "string"
        }
      ],
      "name": "bind",
      "outputs": [],
      "payable": false,
      "stateMutability": "nonpayable",
      "type": "function"
    },
    {
      "constant": false,
      "inputs": [
        {
          "name": "appId",
          "type": "string"
        }
      ],
      "name": "sign",
      "outputs": [],
      "payable": false,
      "stateMutability": "nonpayable",
      "type": "function"
    },
    {
      "constant": false,
      "inputs": [
        {
          "name": "appId",
          "type": "string"
        },
        {
          "name": "challengeParameter",
          "type": "string"
        },
        {
          "name": "decodedSignatureData",
          "type": "string"
        },
        {
          "name": "keyHandle",
          "type": "string"
        }
      ],
      "name": "verify",
      "outputs": [],
      "payable": false,
      "stateMutability": "nonpayable",
      "type": "function"
    }
  ],
  "bytecode": "0x608060405234801561001057600080fd5b506000808055600155613709806100286000396000f30060806040526004361061008a5763ffffffff60e060020a6000350416631ede74c3811461008f578063406e6709146101a457806348c9be481461022e57806367b09cdb146102c757806379d6348d1461032057806382678dd61461037957806384ad8bff1461038e578063a5ea11da146103a3578063cf504e0a146103d1578063fb6bf622146103e6575b600080fd5b34801561009b57600080fd5b506040805160206004803580820135601f81018490048402850184019095528484526101a294369492936024939284019190819084018382808284375050604080516020601f89358b018035918201839004830284018301909452808352979a99988101979196509182019450925082915084018382808284375050604080516020601f89358b018035918201839004830284018301909452808352979a99988101979196509182019450925082915084018382808284375050604080516020601f89358b018035918201839004830284018301909452808352979a9998810197919650918201945092508291508401838280828437509497506105759650505050505050565b005b3480156101b057600080fd5b506101b9610a6c565b6040805160208082528351818301528351919283929083019185019080838360005b838110156101f35781810151838201526020016101db565b50505050905090810190601f1680156102205780820380516001836020036101000a031916815260200191505b509250505060405180910390f35b34801561023a57600080fd5b506040805160206004803580820135601f81018490048402850184019095528484526101b994369492936024939284019190819084018382808284375050604080516020601f89358b018035918201839004830284018301909452808352979a9998810197919650918201945092508291508401838280828437509497505093359450610b0e9350505050565b3480156102d357600080fd5b506040805160206004803580820135601f81018490048402850184019095528484526101a2943694929360249392840191908190840183828082843750949750610d9f9650505050505050565b34801561032c57600080fd5b506040805160206004803580820135601f81018490048402850184019095528484526101a294369492936024939284019190819084018382808284375094975061104a9650505050505050565b34801561038557600080fd5b506101b9611362565b34801561039a57600080fd5b506101b96113cd565b3480156103af57600080fd5b506103b8611436565b6040805192835260208301919091528051918290030190f35b3480156103dd57600080fd5b506101b9611440565b3480156103f257600080fd5b506040805160206004803580820135601f81018490048402850184019095528484526101a294369492936024939284019190819084018382808284375050604080516020601f89358b018035918201839004830284018301909452808352979a99988101979196509182019450925082915084018382808284375050604080516020601f89358b018035918201839004830284018301909452808352979a99988101979196509182019450925082915084018382808284375050604080516020601f89358b018035918201839004830284018301909452808352979a99988101979196509182019450925082915084018382808284375050604080516020601f89358b018035918201839004830284018301909452808352979a99988101979196509182019450925082915084018382808284375050604080516020601f89358b018035918201839004830284018301909452808352979a9998810197919650918201945092508291508401838280828437509497506114ac9650505050505050565b33600090815260026020819052604082206001908101546060939181161561010002600019011691909104116105f5576040805160e560020a62461bcd02815260206004820181905260248201527f4e6f2063757272656e7420726567697374726174696f6e20726571756573742e604482015290519081900360640190fd5b33600090815260026020526040902073__Authenticate__________________________9063b90fdda69060010161062c876119d7565b60405160e060020a63ffffffff851602815260a06004820190815283546002600019610100600184161502019091160460a48301819052899289928d9290918291602482019160448101916064820191608481019160c4909101908c9080156106d65780601f106106ab576101008083540402835291602001916106d6565b820191906000526020600020905b8154815290600101906020018083116106b957829003601f168201915b505086810385528a5181528a516020918201918c019080838360005b8381101561070a5781810151838201526020016106f2565b50505050905090810190601f1680156107375780820380516001836020036101000a031916815260200191505b5086810384528951815289516020918201918b019080838360005b8381101561076a578181015183820152602001610752565b50505050905090810190601f1680156107975780820380516001836020036101000a031916815260200191505b5086810383528851815288516020918201918a019080838360005b838110156107ca5781810151838201526020016107b2565b50505050905090810190601f1680156107f75780820380516001836020036101000a031916815260200191505b50868103825287518152875160209182019189019080838360005b8381101561082a578181015183820152602001610812565b50505050905090810190601f1680156108575780820380516001836020036101000a031916815260200191505b509a505050505050505050505060006040518083038186803b15801561087c57600080fd5b505af4158015610890573d6000803e3d6000fd5b505050506040513d6000823e601f3d908101601f1916820160405260208110156108b957600080fd5b8101908080516401000000008111156108d157600080fd5b820160208101848111156108e457600080fd5b81516401000000008111828201871017156108fe57600080fd5b505033600090815260026020526040812091955061092594506001909101925090506135a5565b336000908152600260209081526040909120825161094b926003909201918401906135ec565b50600180548101905560408051338082526060602080840182815286519285019290925285517fc4b916698af61452f078afbfdcf971767a64792536944b074201d595ad8e2c4795939487948c94919391929084019160808501919087019080838360005b838110156109c85781810151838201526020016109b0565b50505050905090810190601f1680156109f55780820380516001836020036101000a031916815260200191505b50838103825284518152845160209182019186019080838360005b83811015610a28578181015183820152602001610a10565b50505050905090810190601f168015610a555780820380516001836020036101000a031916815260200191505b509550505050505060405180910390a15050505050565b33600090815260026020818152604092839020600301805484516001821615610100026000190190911693909304601f81018390048302840183019094528383526060939091830182828015610b035780601f10610ad857610100808354040283529160200191610b03565b820191906000526020600020905b815481529060010190602001808311610ae657829003601f168201915b505050505090505b90565b606080821515610c465733600090815260026020819052604082205460001961010060018316150201160411610b8e576040805160e560020a62461bcd02815260206004820181905260248201527f4e6f2063757272656e7420726567697374726174696f6e20726571756573742e604482015290519081900360640190fd5b33600090815260026020818152604092839020805484516001821615610100026000190190911693909304601f8101839004830284018301909452838352610c3f939091830182828015610c235780601f10610bf857610100808354040283529160200191610c23565b820191906000526020600020905b815481529060010190602001808311610c0657829003601f168201915b5050505050610c31876119d7565b610c39611ab9565b87611af0565b9050610d97565b3360009081526002602081905260408220600190810154908116156101000260001901160411610ce6576040805160e560020a62461bcd02815260206004820152602260248201527f4e6f2063757272656e742041757468656e7469636174696f6e2072657175657360448201527f742e000000000000000000000000000000000000000000000000000000000000606482015290519081900360840190fd5b336000908152600260208181526040928390206001908101805485519281161561010002600019011693909304601f8101839004830282018301909452838152610d9493909291830182828015610d7e5780601f10610d5357610100808354040283529160200191610d7e565b820191906000526020600020905b815481529060010190602001808311610d6157829003601f168201915b5050505050610d8c876119d7565b610c39611fd7565b90505b949350505050565b60008054600181018255604080517fc55c7243000000000000000000000000000000000000000000000000000000008152602481018390526004810191825284516044820152845160609473__Register______________________________9463c55c72439488949193909283926064019160208701918190849084905b83811015610e36578181015183820152602001610e1e565b50505050905090810190601f168015610e635780820380516001836020036101000a031916815260200191505b50935050505060006040518083038186803b158015610e8157600080fd5b505af4158015610e95573d6000803e3d6000fd5b505050506040513d6000823e601f3d908101601f191682016040526020811015610ebe57600080fd5b810190808051640100000000811115610ed657600080fd5b82016020810184811115610ee957600080fd5b8151640100000000811182820187101715610f0357600080fd5b50503360009081526002602090815260409091208251929650610f2c95509350850191506135ec565b50600180548101905560408051338082526060602080840182815286519285019290925285517f1cefe4453e9ec198729183687f6e99ed38995a433c3e3070cfcc7dfad77055b495939487948994919391929084019160808501919087019080838360005b83811015610fa9578181015183820152602001610f91565b50505050905090810190601f168015610fd65780820380516001836020036101000a031916815260200191505b50838103825284518152845160209182019186019080838360005b83811015611009578181015183820152602001610ff1565b50505050905090810190601f1680156110365780820380516001836020036101000a031916815260200191505b509550505050505060405180910390a15050565b33600090815260026020819052604082208101546060926000196101006001841615020190911691909104116110ca576040805160e560020a62461bcd02815260206004820152601260248201527f4e6f2072656769737465726564206b65792e0000000000000000000000000000604482015290519081900360640190fd5b336000908152600260208181526040808420845460018101865591517f66138f970000000000000000000000000000000000000000000000000000000081526044810183905260606004820190815288516064830152885173__Authenticate__________________________976366138f97978b979501959492938493602482019360849092019290890191908190849084905b8381101561117757818101518382015260200161115f565b50505050905090810190601f1680156111a45780820380516001836020036101000a031916815260200191505b508381038252855460026000196101006001841615020190911604808252602090910190869080156112175780601f106111ec57610100808354040283529160200191611217565b820191906000526020600020905b8154815290600101906020018083116111fa57829003601f168201915b50509550505050505060006040518083038186803b15801561123857600080fd5b505af415801561124c573d6000803e3d6000fd5b505050506040513d6000823e601f3d908101601f19168201604052602081101561127557600080fd5b81019080805164010000000081111561128d57600080fd5b820160208101848111156112a057600080fd5b81516401000000008111828201871017156112ba57600080fd5b505033600090815260026020908152604090912082519296506112e695506001019350850191506135ec565b50600180548101905560408051338082526060602080840182815286519285019290925285517fd73e437175cd7a018e2398c622fddbc388b661efc2dbb45407b27a2a70f7cda8959394879489949193919290840191608085019190870190808383600083811015610fa9578181015183820152602001610f91565b336000908152600260208181526040928390208201805484516001821615610100026000190190911693909304601f81018390048302840183019094528383526060939091830182828015610b035780601f10610ad857610100808354040283529160200191610b03565b33600090815260026020818152604092839020805484516001821615610100026000190190911693909304601f81018390048302840183019094528383526060939091830182828015610b035780601f10610ad857610100808354040283529160200191610b03565b6000546001549091565b336000908152600260208181526040928390206001908101805485519281161561010002600019011693909304601f8101839004830282018301909452838152606093909291830182828015610b035780601f10610ad857610100808354040283529160200191610b03565b33600090815260026020819052604082205460609260001961010060018416150201909116919091041161152a576040805160e560020a62461bcd02815260206004820181905260248201527f4e6f2063757272656e7420726567697374726174696f6e20726571756573742e604482015290519081900360640190fd5b73__Register______________________________63c8bf169e61154d886119d7565b878787878d6040518763ffffffff1660e060020a0281526004018080602001806020018060200180602001806020018060200187810387528d818151815260200191508051906020019080838360005b838110156115b557818101518382015260200161159d565b50505050905090810190601f1680156115e25780820380516001836020036101000a031916815260200191505b5087810386528c5181528c516020918201918e019080838360005b838110156116155781810151838201526020016115fd565b50505050905090810190601f1680156116425780820380516001836020036101000a031916815260200191505b5087810385528b5181528b516020918201918d019080838360005b8381101561167557818101518382015260200161165d565b50505050905090810190601f1680156116a25780820380516001836020036101000a031916815260200191505b5087810384528a5181528a516020918201918c019080838360005b838110156116d55781810151838201526020016116bd565b50505050905090810190601f1680156117025780820380516001836020036101000a031916815260200191505b5087810383528951815289516020918201918b019080838360005b8381101561173557818101518382015260200161171d565b50505050905090810190601f1680156117625780820380516001836020036101000a031916815260200191505b5087810382528851815288516020918201918a019080838360005b8381101561179557818101518382015260200161177d565b50505050905090810190601f1680156117c25780820380516001836020036101000a031916815260200191505b509c5050505050505050505050505060006040518083038186803b1580156117e957600080fd5b505af41580156117fd573d6000803e3d6000fd5b505050506040513d6000823e601f3d908101601f19168201604052602081101561182657600080fd5b81019080805164010000000081111561183e57600080fd5b8201602081018481111561185157600080fd5b815164010000000081118282018710171561186b57600080fd5b505033600090815260026020526040812091955061188e945090925090506135a5565b33600090815260026020818152604090922083516118b4939190920191908401906135ec565b50600180548101905560408051338082526060602080840182815286519285019290925285517fe8461f495cb4293de7658c3cb856de2f1c9b6e3cd46d865a64e205e22eb4c53595939487948e94919391929084019160808501919087019080838360005b83811015611931578181015183820152602001611919565b50505050905090810190601f16801561195e5780820380516001836020036101000a031916815260200191505b50838103825284518152845160209182019186019080838360005b83811015611991578181015183820152602001611979565b50505050905090810190601f1680156119be5780820380516001836020036101000a031916815260200191505b509550505050505060405180910390a150505050505050565b805160609082908290600090600116156119f057600080fd5b8251600290046040519080825280601f01601f191660200182016040528015611a23578160200160208202803883390190505b509150600090505b825160029004811015611ab157611a658382600202600101815181101515611a4f57fe5b016020015160f860020a9081900481020461200e565b611a798483600202815181101515611a4f57fe5b6010020160f860020a028282815181101515611a9157fe5b906020010190600160f860020a031916908160001a905350600101611a2b565b509392505050565b60408051808201909152601d81527f6e6176696761746f722e69642e66696e697368456e726f6c6c6d656e74000000602082015290565b6060806060846040518082805190602001908083835b60208310611b255780518252601f199092019160209182019101611b06565b51815160209384036101000a600019018019909216911617905260408051929094018290038220828501909452600382527f747970000000000000000000000000000000000000000000000000000000000090820152919350611b939250899050611b8e612191565b612196565b6040518082805190602001908083835b60208310611bc25780518252601f199092019160209182019101611ba3565b6001836020036101000a038019825116818451168082178552505050505050905001915050604051809103902060001916141515611c4a576040805160e560020a62461bcd02815260206004820152600b60248201527f57726f6e6720747970652e000000000000000000000000000000000000000000604482015290519081900360640190fd5b611c8c6040805190810160405280600981526020017f6368616c6c656e6765000000000000000000000000000000000000000000000081525088611b8e612191565b9150611cd06040805190810160405280600981526020017f6368616c6c656e6765000000000000000000000000000000000000000000000081525087611b8e612191565b9050806040518082805190602001908083835b60208310611d025780518252601f199092019160209182019101611ce3565b51815160209384036101000a6000190180199092169116179052604051919093018190038120875190955087945090928392508401908083835b60208310611d5b5780518252601f199092019160209182019101611d3c565b6001836020036101000a038019825116818451168082178552505050505050905001915050604051809103902060001916141515611de3576040805160e560020a62461bcd02815260206004820152601060248201527f57726f6e67206368616c6c656e67652e00000000000000000000000000000000604482015290519081900360640190fd5b835115611f3a57836040518082805190602001908083835b60208310611e1a5780518252601f199092019160209182019101611dfb565b51815160209384036101000a600019018019909216911617905260408051929094018290038220828501909452600682527f6f726967696e000000000000000000000000000000000000000000000000000090820152919350611e839250899050611b8e612191565b6040518082805190602001908083835b60208310611eb25780518252601f199092019160209182019101611e93565b6001836020036101000a038019825116818451168082178552505050505050905001915050604051809103902060001916141515611f3a576040805160e560020a62461bcd02815260206004820152600e60248201527f496e76616c69642066616365742e000000000000000000000000000000000000604482015290519081900360640190fd5b611fcc6002876040518082805190602001908083835b60208310611f6f5780518252601f199092019160209182019101611f50565b51815160209384036101000a600019018019909216911617905260405191909301945091925050808303816000865af1158015611fb0573d6000803e3d6000fd5b5050506040513d6020811015611fc557600080fd5b50516123d1565b979650505050505050565b60408051808201909152601981527f6e6176696761746f722e69642e676574417373657274696f6e00000000000000602082015290565b60007f300000000000000000000000000000000000000000000000000000000000000060f860020a8302600160f860020a0319161080159061208057507f390000000000000000000000000000000000000000000000000000000000000060f860020a8302600160f860020a03191611155b156120905750602f19810161218c565b7f610000000000000000000000000000000000000000000000000000000000000060f860020a8302600160f860020a0319161080159061210057507f660000000000000000000000000000000000000000000000000000000000000060f860020a8302600160f860020a03191611155b156121105750605619810161218c565b7f410000000000000000000000000000000000000000000000000000000000000060f860020a8302600160f860020a0319161080159061218057507f460000000000000000000000000000000000000000000000000000000000000060f860020a8302600160f860020a03191611155b1561218c575060361981015b919050565b600b90565b606060008060606121a561366a565b606060006121b3898961247c565b91975090955093508515612237576040805160e560020a62461bcd02815260206004820152602260248201527f4a534f4e20706172736572206e6f742070726f7065726c792072657475726e6560448201527f642e000000000000000000000000000000000000000000000000000000000000606482015290519081900360840190fd5b5060005b8481101561237457838181518110151561225157fe5b9060200190602002015192506122708984602001518560600151612da4565b9150816040518082805190602001908083835b602083106122a25780518252601f199092019160209182019101612283565b51815160209384036101000a60001901801990921691161790526040519190930181900381208f519095508f945090928392508401908083835b602083106122fb5780518252601f1990920191602091820191016122dc565b6001836020036101000a038019825116818451168082178552505050505050905001915050604051809103902060001916141561236c57838160010181518110151561234357fe5b9060200190602002015192506123628984602001518560600151612da4565b91508196506123c4565b60010161223b565b6040805160e560020a62461bcd02815260206004820152601060248201527f4669656c64206e6f7420666f756e642e00000000000000000000000000000000604482015290519081900360640190fd5b5050505050509392505050565b60408051602080825281830190925260609182916000918291829180820161040080388339019050509350859150600090505b60208110156124725780601f0360080260020a8281151561242157fe5b06925080601f0360080260020a83830381151561243a57fe5b0460f860020a02848281518110151561244f57fe5b906020010190600160f860020a031916908160001a905350829150600101612404565b5091949350505050565b6000606060006060600061248e6136a1565b600080600061249b61366a565b60008060008e99506124ac8e612e48565b6020820151909d5090985095505b895188511015612d875787518a518b919081106124d357fe5b016020015160f860020a908190040292507f7b00000000000000000000000000000000000000000000000000000000000000600160f860020a03198416148061254557507f5b00000000000000000000000000000000000000000000000000000000000000600160f860020a03198416145b1561262a5760019095019461255a888d612ec4565b90995093508815156125735760039c5060009a50612d93565b6040880151600019146125ab578b886040015181518110151561259257fe5b602090810291909101015160a001805160010160ff1690525b7f7b00000000000000000000000000000000000000000000000000000000000000600160f860020a03198416146125e35760026125e6565b60015b849060048111156125f357fe5b9081600481111561260057fe5b90525087516020808601919091526001604080870191909152908901516000190190890152612d7b565b7f7d00000000000000000000000000000000000000000000000000000000000000600160f860020a03198416148061268b57507f5d00000000000000000000000000000000000000000000000000000000000000600160f860020a03198416145b15612863577f7d00000000000000000000000000000000000000000000000000000000000000600160f860020a03198416146126c85760026126cb565b60015b915060009050600188602001510394505b600085106127a5578b858151811015156126f257fe5b9060200190602002015193508360400151801561271157508360800151155b156127995781600481111561272257fe5b8451600481111561272f57fe5b146127415760019c5060009a50612d93565b600019604089015287518c516001909101908d908790811061275f57fe5b60209081029091010151606001528b516001908d908790811061277e57fe5b602090810290910101519015156080909101525060016127a5565b600019909401936126dc565b8015156127b95760019c5060009a50612d93565b600085111561280c578b858151811015156127d057fe5b906020019060200201519350836040015180156127ef57508360800151155b15612800576040880185905261280c565b600019909401936127b9565b84151561285e578b8581518110151561282157fe5b9060200190602002015193508360400151801561284057508360800151155b1561285e576fffffffffffffffffffffffffffffffff851660408901525b612d7b565b7f2200000000000000000000000000000000000000000000000000000000000000600160f860020a0319841614156128f8576128a0888d8c612f75565b965086156128b657959b50600099508b95612d93565b60408801516001909601956000191461285e578b88604001518151811015156128db57fe5b602090810291909101015160a001805160010160ff169052612d7b565b60fd60020a600160f860020a03198416148061293d57507f1100000000000000000000000000000000000000000000000000000000000000600160f860020a03198416145b8061297157507f1200000000000000000000000000000000000000000000000000000000000000600160f860020a03198416145b806129a557507f1400000000000000000000000000000000000000000000000000000000000000600160f860020a03198416145b156129af57612d7b565b7f3a00000000000000000000000000000000000000000000000000000000000000600160f860020a0319841614156129f4576020880151600019016040890152612d7b565b7f2c00000000000000000000000000000000000000000000000000000000000000600160f860020a031984161415612b6857876040015160001914158015612a64575060028c8960400151815181101515612a4b57fe5b60209081029091010151516004811115612a6157fe5b14155b8015612a98575060018c8960400151815181101515612a7f57fe5b60209081029091010151516004811115612a9557fe5b14155b1561285e57600188602001510394505b6000851061285e5760028c86815181101515612ac057fe5b60209081029091010151516004811115612ad657fe5b1480612b05575060018c86815181101515612aed57fe5b60209081029091010151516004811115612b0357fe5b145b15612b5c578b85815181101515612b1857fe5b90602001906020020151604001518015612b4b57508b85815181101515612b3b57fe5b9060200190602002015160800151155b15612b5c576040880185905261285e565b60001990940193612aa8565b7f3000000000000000000000000000000000000000000000000000000000000000600160f860020a0319841610801590612bcc57507f3900000000000000000000000000000000000000000000000000000000000000600160f860020a0319841611155b80612c0057507f2d00000000000000000000000000000000000000000000000000000000000000600160f860020a03198416145b80612c3457507f6600000000000000000000000000000000000000000000000000000000000000600160f860020a03198416145b80612c6857507f7400000000000000000000000000000000000000000000000000000000000000600160f860020a03198416145b80612c9c57507f6e00000000000000000000000000000000000000000000000000000000000000600160f860020a03198416145b15612d2157604088015160001914612d16578b8860400151815181101515612cc057fe5b602090810290910101519350600184516004811115612cdb57fe5b1480612d045750600384516004811115612cf157fe5b148015612d04575060a084015160ff1615155b15612d165760019c5060009a50612d93565b6128a0888d8c613328565b60fd60020a600160f860020a0319841610801590612d6957507f7e00000000000000000000000000000000000000000000000000000000000000600160f860020a0319841611155b15612d7b5760019c5060009a50612d93565b875160010188526124ba565b602088015160009d509a505b505050505050505050509250925092565b606080606060008692508585036040519080825280601f01601f191660200182016040528015612dde578160200160208202803883390190505b5091508590505b84811015612e3e578281815181101515612dfb57fe5b90602001015160f860020a900460f860020a0282878303815181101515612e1e57fe5b906020010190600160f860020a031916908160001a905350600101612de5565b5095945050505050565b612e506136a1565b6060612e5a6136a1565b606080604051908101604052806000815260200160008152602001600019815250915084604051908082528060200260200182016040528015612eb757816020015b612ea461366a565b815260200190600190039081612e9c5790505b5091959194509092505050565b6000612ece61366a565b612ed661366a565b8351602086015110612f0a576000846001865103815181101515612ef657fe5b602090810290910101519093509150612f6d565b506040805160c08101825260008082526020808301829052928201819052606082018190526080820181905260a0820152908501518451829186918110612f4d57fe5b602090810290910181019190915285018051600190810190915292509050805b509250929050565b6000806000612f8261366a565b8651600181018852925060005b85518851101561331557875186518791908110612fa857fe5b016020015160f860020a908190040290507f2200000000000000000000000000000000000000000000000000000000000000600160f860020a03198216141561302a57612ff58888612ec4565b909350915082151561300d578388526003945061331d565b613021826003866001018b6000015161355f565b6000945061331d565b605c60ff60f860020a830416148015613047575085518851600101105b156133095787516001018089528651879190811061306157fe5b90602001015160f860020a900460f860020a02600160f860020a0319167f220000000000000000000000000000000000000000000000000000000000000014806130f557508751865187919081106130b557fe5b90602001015160f860020a900460f860020a02600160f860020a0319167f2f00000000000000000000000000000000000000000000000000000000000000145b8061314a575087518651879190811061310a57fe5b90602001015160f860020a900460f860020a02600160f860020a0319167f5c00000000000000000000000000000000000000000000000000000000000000145b8061319f575087518651879190811061315f57fe5b90602001015160f860020a900460f860020a02600160f860020a0319167f6600000000000000000000000000000000000000000000000000000000000000145b806131f457508751865187919081106131b457fe5b90602001015160f860020a900460f860020a02600160f860020a0319167f7200000000000000000000000000000000000000000000000000000000000000145b80613249575087518651879190811061320957fe5b90602001015160f860020a900460f860020a02600160f860020a0319167f6e00000000000000000000000000000000000000000000000000000000000000145b8061329e575087518651879190811061325e57fe5b90602001015160f860020a900460f860020a02600160f860020a0319167f6200000000000000000000000000000000000000000000000000000000000000145b806132f357508751865187919081106132b357fe5b90602001015160f860020a900460f860020a02600160f860020a0319167f7400000000000000000000000000000000000000000000000000000000000000145b156132fd57613309565b8388526001945061331d565b87516001018852612f8f565b838852600294505b505050509392505050565b600080600080600061333861366a565b88516000955093505b8651895110156135005788518751889190811061335a57fe5b016020015160f860020a9081900402925060fd60020a600160f860020a0319841614806133b057507f0900000000000000000000000000000000000000000000000000000000000000600160f860020a03198416145b806133e457507f0a00000000000000000000000000000000000000000000000000000000000000600160f860020a03198416145b8061341857507f0d00000000000000000000000000000000000000000000000000000000000000600160f860020a03198416145b8061344c57507f2c00000000000000000000000000000000000000000000000000000000000000600160f860020a03198416145b8061348057507f7d00000000000000000000000000000000000000000000000000000000000000600160f860020a03198416145b806134b457507f5d00000000000000000000000000000000000000000000000000000000000000600160f860020a03198416145b156134c25760019450613500565b602060ff60f860020a85041610806134e35750607f60ff60f860020a850416115b156134f45783895260019550613553565b88516001018952613341565b8415156135135783895260029550613553565b61351d8989612ec4565b90925090508115156135355783895260039550613553565b613546816004868c6000015161355f565b8851600019018952600095505b50505050509392505050565b8383600481111561356c57fe5b9081600481111561357957fe5b90525060208401919091526001604084018190526060840191909152608083015250600060a090910152565b50805460018160011615610100020316600290046000825580601f106135cb57506135e9565b601f0160209004906000526020600020908101906135e991906136c3565b50565b828054600181600116156101000203166002900490600052602060002090601f016020900481019282601f1061362d57805160ff191683800117855561365a565b8280016001018555821561365a579182015b8281111561365a57825182559160200191906001019061363f565b506136669291506136c3565b5090565b6040805160c08101909152806000815260006020820181905260408201819052606082018190526080820181905260a09091015290565b6060604051908101604052806000815260200160008152602001600081525090565b610b0b91905b8082111561366657600081556001016136c95600a165627a7a723058206e59df002a8dc9ed84b1227d3550702c3bbb4adbbc26afa1bd2942cf1da2ccfe0029",
  "source": "pragma solidity >=0.4.21 <0.5.0;\n\nimport \"./Utils.sol\";\nimport \"./Base64.sol\";\n\nimport \"./Global.sol\";\nimport \"./Register.sol\";\nimport \"./Authenticate.sol\";\n\n\ncontract Server {\n\n\tstruct UserData {\n\n\t\tbytes enroll;\n\t\tbytes sign;\n\n\t\tbytes registeredKey;\n\t\tbytes lastVerified;\n\n\t}\n\n\tuint _randNonce;\n\t\n\tuint _record;\n\n\tmapping(address => UserData) _users;\n\t// string _appId;\n\t// string _facet;\n\t// `http://demo.yubico.com` needs to be `http:\\\\/\\\\/demo.yubico.com` on Remix -> fixOrigin;\n\n\tevent RegistrationRequest(address user, string request, string appId);\n\tevent RegistrationComplete(address user, string device, string appId);\n\tevent SignRequest(address user, string request, string appId);\n\tevent SignComplete(address user, string information, string appId);\n\t\n\n\tconstructor() public {\n\n\t\t_randNonce = 0;\n\t\t_record = 0;\n\t\t// _appId = appId;\n\n\t}\n\n\n\tfunction getEnroll() public view returns (bytes) {\n\n\t\treturn _users[msg.sender].enroll;\n\n\t}\n\n\n\tfunction getSign() public view returns (bytes) {\n\n\t\treturn _users[msg.sender].sign;\n\n\t}\n\n\n\tfunction getKey() public view returns (bytes) {\n\n\t\treturn _users[msg.sender].registeredKey;\n\n\t}\n\n\tfunction getVerified() public view returns (bytes) {\n\n\t\treturn _users[msg.sender].lastVerified;\n\n\t}\n\n\n\tfunction getParameters() public view returns (uint, uint) {\n\n\t\treturn (_randNonce, _record);\n\n\t}\n\t\n\t\n\tfunction client(string clientData, string appId, uint typ) public view returns (bytes) {\n\t    \n\t    bytes memory challengeParameter;\n\t    \n\t    if (typ == 0) {\n\t        require(_users[msg.sender].enroll.length > 0, \"No current registration request.\");\n\t        challengeParameter = Global.validateClientData(string(_users[msg.sender].enroll), string(Base64.fromHex(clientData)), Global.getRegisterType(), appId);\n\t    }\n\t    \n\t    else {\n\t        require(_users[msg.sender].sign.length > 0, \"No current Authentication request.\");\n\t        challengeParameter = Global.validateClientData(string(_users[msg.sender].sign), string(Base64.fromHex(clientData)), Global.getSignType(), appId);\n\t    }\n\t    \n\t    return challengeParameter;\n\t    \n\t}\n\t\n\n\n\n\tfunction enroll(string appId) public {\n\n\t\tstring memory request = Register.beginRegistration(appId, _randNonce++);\n\t\t_users[msg.sender].enroll = bytes(request);\n\n\t\t_record++;\n\n\t\temit RegistrationRequest(msg.sender, request, appId);\n\n\t}\n\n\n    // decoded and parsed response with format validation;\n\tfunction bind(string appId, string challengeParameter, string pubKey, string keyHandle, string certKey, string signature) public {\n\n        // require(format, \"Invalid registration data.\");\n        \n\t\trequire(_users[msg.sender].enroll.length > 0, \"No current registration request.\");\n\t\t\n\t\t// decodedClientData = string(Base64.fromHex(decodedClientData));\n\t\t\n\t\t// bytes memory cert;\n\t\tbytes memory device = Register.completeRegistration(Base64.fromHex(challengeParameter), pubKey, keyHandle, certKey, signature, appId);\n\n\t\tdelete _users[msg.sender].enroll;\n\t\t\n\t\t_users[msg.sender].registeredKey = device;\n\t\t\n\t\t_record++;\n\n\t\temit RegistrationComplete(msg.sender, string(device), appId);\n\n\t}\n\n\tfunction sign(string appId) public {\n\n\t\trequire(_users[msg.sender].registeredKey.length > 0, \"No registered key.\");\n\n\t\t// Might include algorithms for finding a key with the correct version;\n\t\tstring memory request = Authenticate.beginAuthentication(appId, _users[msg.sender].registeredKey, _randNonce++);\n\n\t\t_users[msg.sender].sign = bytes(request);\n\n\t\t_record++;\n\n\t\temit SignRequest(msg.sender, request, appId);\n\n\t}\n\n    // decoded and parsed signature data;\n\tfunction verify(string appId, string challengeParameter, string decodedSignatureData, string keyHandle) public {\n\n\t\trequire(_users[msg.sender].sign.length > 0, \"No current registration request.\");\n\t\t\n\t\t// decodedClientData = string(Base64.fromHex(decodedClientData));\n\t\t\n\t\t// bytes memory challengeParameter = Global.validateClientData(string(_users[msg.sender].sign), decodedClientData, Global.getSignType(), appId);\n\t\t\n\n\t\tbytes memory message;\n\n\t\tmessage = Authenticate.completeAuthentication(_users[msg.sender].sign, Base64.fromHex(challengeParameter), decodedSignatureData, keyHandle, appId);\n\n\t\tdelete _users[msg.sender].sign;\n\n\t\t_users[msg.sender].lastVerified = message;\n\t\t\n\t\t_record++;\n\n\t\temit SignComplete(msg.sender, string(message), appId);\n\n\t}\n\n\n}\n",
  "sourcePath": "/home/chxw/Desktop/worksite/develop/u2f-ethereum/contracts/Server.sol",
  "compiler": {
    "name": "solc",
    "version": "0.4.24+commit.e67f0147.Emscripten.clang"
  },
  "schemaVersion": "3.0.5",
  "updatedAt": "2019-05-16T05:00:34.060Z",
  "devdoc": {
    "methods": {}
  },
  "userdoc": {
    "methods": {}
  }
}